{
  "_format": "hh-sol-artifact-1",
  "contractName": "GreenNFTCollection",
  "sourceName": "contracts/GreenNFTCollection.sol",
  "abi": [
    {
      "inputs": [],
      "stateMutability": "nonpayable",
      "type": "constructor"
    },
    {
      "inputs": [],
      "name": "AccessControlBadConfirmation",
      "type": "error"
    },
    {
      "inputs": [
        {
          "internalType": "address",
          "name": "account",
          "type": "address"
        },
        {
          "internalType": "bytes32",
          "name": "neededRole",
          "type": "bytes32"
        }
      ],
      "name": "AccessControlUnauthorizedAccount",
      "type": "error"
    },
    {
      "inputs": [
        {
          "internalType": "address",
          "name": "sender",
          "type": "address"
        },
        {
          "internalType": "uint256",
          "name": "tokenId",
          "type": "uint256"
        },
        {
          "internalType": "address",
          "name": "owner",
          "type": "address"
        }
      ],
      "name": "ERC721IncorrectOwner",
      "type": "error"
    },
    {
      "inputs": [
        {
          "internalType": "address",
          "name": "operator",
          "type": "address"
        },
        {
          "internalType": "uint256",
          "name": "tokenId",
          "type": "uint256"
        }
      ],
      "name": "ERC721InsufficientApproval",
      "type": "error"
    },
    {
      "inputs": [
        {
          "internalType": "address",
          "name": "approver",
          "type": "address"
        }
      ],
      "name": "ERC721InvalidApprover",
      "type": "error"
    },
    {
      "inputs": [
        {
          "internalType": "address",
          "name": "operator",
          "type": "address"
        }
      ],
      "name": "ERC721InvalidOperator",
      "type": "error"
    },
    {
      "inputs": [
        {
          "internalType": "address",
          "name": "owner",
          "type": "address"
        }
      ],
      "name": "ERC721InvalidOwner",
      "type": "error"
    },
    {
      "inputs": [
        {
          "internalType": "address",
          "name": "receiver",
          "type": "address"
        }
      ],
      "name": "ERC721InvalidReceiver",
      "type": "error"
    },
    {
      "inputs": [
        {
          "internalType": "address",
          "name": "sender",
          "type": "address"
        }
      ],
      "name": "ERC721InvalidSender",
      "type": "error"
    },
    {
      "inputs": [
        {
          "internalType": "uint256",
          "name": "tokenId",
          "type": "uint256"
        }
      ],
      "name": "ERC721NonexistentToken",
      "type": "error"
    },
    {
      "anonymous": false,
      "inputs": [
        {
          "indexed": true,
          "internalType": "address",
          "name": "owner",
          "type": "address"
        },
        {
          "indexed": true,
          "internalType": "address",
          "name": "approved",
          "type": "address"
        },
        {
          "indexed": true,
          "internalType": "uint256",
          "name": "tokenId",
          "type": "uint256"
        }
      ],
      "name": "Approval",
      "type": "event"
    },
    {
      "anonymous": false,
      "inputs": [
        {
          "indexed": true,
          "internalType": "address",
          "name": "owner",
          "type": "address"
        },
        {
          "indexed": true,
          "internalType": "address",
          "name": "operator",
          "type": "address"
        },
        {
          "indexed": false,
          "internalType": "bool",
          "name": "approved",
          "type": "bool"
        }
      ],
      "name": "ApprovalForAll",
      "type": "event"
    },
    {
      "anonymous": false,
      "inputs": [
        {
          "indexed": false,
          "internalType": "uint256",
          "name": "_fromTokenId",
          "type": "uint256"
        },
        {
          "indexed": false,
          "internalType": "uint256",
          "name": "_toTokenId",
          "type": "uint256"
        }
      ],
      "name": "BatchMetadataUpdate",
      "type": "event"
    },
    {
      "anonymous": false,
      "inputs": [
        {
          "indexed": false,
          "internalType": "uint256",
          "name": "_tokenId",
          "type": "uint256"
        }
      ],
      "name": "MetadataUpdate",
      "type": "event"
    },
    {
      "anonymous": false,
      "inputs": [
        {
          "indexed": true,
          "internalType": "bytes32",
          "name": "role",
          "type": "bytes32"
        },
        {
          "indexed": true,
          "internalType": "bytes32",
          "name": "previousAdminRole",
          "type": "bytes32"
        },
        {
          "indexed": true,
          "internalType": "bytes32",
          "name": "newAdminRole",
          "type": "bytes32"
        }
      ],
      "name": "RoleAdminChanged",
      "type": "event"
    },
    {
      "anonymous": false,
      "inputs": [
        {
          "indexed": true,
          "internalType": "bytes32",
          "name": "role",
          "type": "bytes32"
        },
        {
          "indexed": true,
          "internalType": "address",
          "name": "account",
          "type": "address"
        },
        {
          "indexed": true,
          "internalType": "address",
          "name": "sender",
          "type": "address"
        }
      ],
      "name": "RoleGranted",
      "type": "event"
    },
    {
      "anonymous": false,
      "inputs": [
        {
          "indexed": true,
          "internalType": "bytes32",
          "name": "role",
          "type": "bytes32"
        },
        {
          "indexed": true,
          "internalType": "address",
          "name": "account",
          "type": "address"
        },
        {
          "indexed": true,
          "internalType": "address",
          "name": "sender",
          "type": "address"
        }
      ],
      "name": "RoleRevoked",
      "type": "event"
    },
    {
      "anonymous": false,
      "inputs": [
        {
          "indexed": true,
          "internalType": "address",
          "name": "from",
          "type": "address"
        },
        {
          "indexed": true,
          "internalType": "address",
          "name": "to",
          "type": "address"
        },
        {
          "indexed": true,
          "internalType": "uint256",
          "name": "tokenId",
          "type": "uint256"
        }
      ],
      "name": "Transfer",
      "type": "event"
    },
    {
      "inputs": [],
      "name": "DEFAULT_ADMIN_ROLE",
      "outputs": [
        {
          "internalType": "bytes32",
          "name": "",
          "type": "bytes32"
        }
      ],
      "stateMutability": "view",
      "type": "function"
    },
    {
      "inputs": [],
      "name": "MINTER_ROLE",
      "outputs": [
        {
          "internalType": "bytes32",
          "name": "",
          "type": "bytes32"
        }
      ],
      "stateMutability": "view",
      "type": "function"
    },
    {
      "inputs": [
        {
          "internalType": "address",
          "name": "to",
          "type": "address"
        },
        {
          "internalType": "uint256",
          "name": "tokenId",
          "type": "uint256"
        }
      ],
      "name": "approve",
      "outputs": [],
      "stateMutability": "nonpayable",
      "type": "function"
    },
    {
      "inputs": [
        {
          "internalType": "address",
          "name": "owner",
          "type": "address"
        }
      ],
      "name": "balanceOf",
      "outputs": [
        {
          "internalType": "uint256",
          "name": "",
          "type": "uint256"
        }
      ],
      "stateMutability": "view",
      "type": "function"
    },
    {
      "inputs": [
        {
          "internalType": "uint256",
          "name": "tokenId",
          "type": "uint256"
        }
      ],
      "name": "getApproved",
      "outputs": [
        {
          "internalType": "address",
          "name": "",
          "type": "address"
        }
      ],
      "stateMutability": "view",
      "type": "function"
    },
    {
      "inputs": [
        {
          "internalType": "bytes32",
          "name": "role",
          "type": "bytes32"
        }
      ],
      "name": "getRoleAdmin",
      "outputs": [
        {
          "internalType": "bytes32",
          "name": "",
          "type": "bytes32"
        }
      ],
      "stateMutability": "view",
      "type": "function"
    },
    {
      "inputs": [
        {
          "internalType": "bytes32",
          "name": "role",
          "type": "bytes32"
        },
        {
          "internalType": "address",
          "name": "account",
          "type": "address"
        }
      ],
      "name": "grantRole",
      "outputs": [],
      "stateMutability": "nonpayable",
      "type": "function"
    },
    {
      "inputs": [
        {
          "internalType": "bytes32",
          "name": "role",
          "type": "bytes32"
        },
        {
          "internalType": "address",
          "name": "account",
          "type": "address"
        }
      ],
      "name": "hasRole",
      "outputs": [
        {
          "internalType": "bool",
          "name": "",
          "type": "bool"
        }
      ],
      "stateMutability": "view",
      "type": "function"
    },
    {
      "inputs": [
        {
          "internalType": "address",
          "name": "owner",
          "type": "address"
        },
        {
          "internalType": "address",
          "name": "operator",
          "type": "address"
        }
      ],
      "name": "isApprovedForAll",
      "outputs": [
        {
          "internalType": "bool",
          "name": "",
          "type": "bool"
        }
      ],
      "stateMutability": "view",
      "type": "function"
    },
    {
      "inputs": [
        {
          "internalType": "address",
          "name": "to",
          "type": "address"
        },
        {
          "internalType": "string",
          "name": "tokenURI",
          "type": "string"
        }
      ],
      "name": "mintBatchCertificate",
      "outputs": [
        {
          "internalType": "uint256",
          "name": "tokenId",
          "type": "uint256"
        }
      ],
      "stateMutability": "nonpayable",
      "type": "function"
    },
    {
      "inputs": [],
      "name": "name",
      "outputs": [
        {
          "internalType": "string",
          "name": "",
          "type": "string"
        }
      ],
      "stateMutability": "view",
      "type": "function"
    },
    {
      "inputs": [
        {
          "internalType": "uint256",
          "name": "tokenId",
          "type": "uint256"
        }
      ],
      "name": "ownerOf",
      "outputs": [
        {
          "internalType": "address",
          "name": "",
          "type": "address"
        }
      ],
      "stateMutability": "view",
      "type": "function"
    },
    {
      "inputs": [
        {
          "internalType": "bytes32",
          "name": "role",
          "type": "bytes32"
        },
        {
          "internalType": "address",
          "name": "callerConfirmation",
          "type": "address"
        }
      ],
      "name": "renounceRole",
      "outputs": [],
      "stateMutability": "nonpayable",
      "type": "function"
    },
    {
      "inputs": [
        {
          "internalType": "bytes32",
          "name": "role",
          "type": "bytes32"
        },
        {
          "internalType": "address",
          "name": "account",
          "type": "address"
        }
      ],
      "name": "revokeRole",
      "outputs": [],
      "stateMutability": "nonpayable",
      "type": "function"
    },
    {
      "inputs": [
        {
          "internalType": "address",
          "name": "from",
          "type": "address"
        },
        {
          "internalType": "address",
          "name": "to",
          "type": "address"
        },
        {
          "internalType": "uint256",
          "name": "tokenId",
          "type": "uint256"
        }
      ],
      "name": "safeTransferFrom",
      "outputs": [],
      "stateMutability": "nonpayable",
      "type": "function"
    },
    {
      "inputs": [
        {
          "internalType": "address",
          "name": "from",
          "type": "address"
        },
        {
          "internalType": "address",
          "name": "to",
          "type": "address"
        },
        {
          "internalType": "uint256",
          "name": "tokenId",
          "type": "uint256"
        },
        {
          "internalType": "bytes",
          "name": "data",
          "type": "bytes"
        }
      ],
      "name": "safeTransferFrom",
      "outputs": [],
      "stateMutability": "nonpayable",
      "type": "function"
    },
    {
      "inputs": [
        {
          "internalType": "address",
          "name": "operator",
          "type": "address"
        },
        {
          "internalType": "bool",
          "name": "approved",
          "type": "bool"
        }
      ],
      "name": "setApprovalForAll",
      "outputs": [],
      "stateMutability": "nonpayable",
      "type": "function"
    },
    {
      "inputs": [
        {
          "internalType": "bytes4",
          "name": "interfaceId",
          "type": "bytes4"
        }
      ],
      "name": "supportsInterface",
      "outputs": [
        {
          "internalType": "bool",
          "name": "",
          "type": "bool"
        }
      ],
      "stateMutability": "view",
      "type": "function"
    },
    {
      "inputs": [],
      "name": "symbol",
      "outputs": [
        {
          "internalType": "string",
          "name": "",
          "type": "string"
        }
      ],
      "stateMutability": "view",
      "type": "function"
    },
    {
      "inputs": [
        {
          "internalType": "uint256",
          "name": "tokenId",
          "type": "uint256"
        }
      ],
      "name": "tokenURI",
      "outputs": [
        {
          "internalType": "string",
          "name": "",
          "type": "string"
        }
      ],
      "stateMutability": "view",
      "type": "function"
    },
    {
      "inputs": [
        {
          "internalType": "address",
          "name": "from",
          "type": "address"
        },
        {
          "internalType": "address",
          "name": "to",
          "type": "address"
        },
        {
          "internalType": "uint256",
          "name": "tokenId",
          "type": "uint256"
        }
      ],
      "name": "transferFrom",
      "outputs": [],
      "stateMutability": "nonpayable",
      "type": "function"
    }
  ],
  "bytecode": "0x608060405234801561001057600080fd5b506040518060400160405280601e81526020017f477265656e20436172626f6e20426174636820436572746966696361746500008152506040518060400160405280600581526020017f4743455254000000000000000000000000000000000000000000000000000000815250816000908161008c91906104aa565b50806001908161009c91906104aa565b5050506100b26000801b336100e960201b60201c565b506100e37f9f2df0fed2c77648de5860a4cc508cd0818c85b8b8a1ab4ceeef8d981c8956a6336100e960201b60201c565b5061057c565b60006100fb83836101e760201b60201c565b6101dc5760016007600085815260200190815260200160002060000160008473ffffffffffffffffffffffffffffffffffffffff1673ffffffffffffffffffffffffffffffffffffffff16815260200190815260200160002060006101000a81548160ff02191690831515021790555061017961025260201b60201c565b73ffffffffffffffffffffffffffffffffffffffff168273ffffffffffffffffffffffffffffffffffffffff16847f2f8788117e7eff1d82e926ec794901d17c78024a50270940304540a733656f0d60405160405180910390a4600190506101e1565b600090505b92915050565b60006007600084815260200190815260200160002060000160008373ffffffffffffffffffffffffffffffffffffffff1673ffffffffffffffffffffffffffffffffffffffff16815260200190815260200160002060009054906101000a900460ff16905092915050565b600033905090565b600081519050919050565b7f4e487b7100000000000000000000000000000000000000000000000000000000600052604160045260246000fd5b7f4e487b7100000000000000000000000000000000000000000000000000000000600052602260045260246000fd5b600060028204905060018216806102db57607f821691505b6020821081036102ee576102ed610294565b5b50919050565b60008190508160005260206000209050919050565b60006020601f8301049050919050565b600082821b905092915050565b6000600883026103567fffffffffffffffffffffffffffffffffffffffffffffffffffffffffffffffff82610319565b6103608683610319565b95508019841693508086168417925050509392505050565b6000819050919050565b6000819050919050565b60006103a76103a261039d84610378565b610382565b610378565b9050919050565b6000819050919050565b6103c18361038c565b6103d56103cd826103ae565b848454610326565b825550505050565b600090565b6103ea6103dd565b6103f58184846103b8565b505050565b5b818110156104195761040e6000826103e2565b6001810190506103fb565b5050565b601f82111561045e5761042f816102f4565b61043884610309565b81016020851015610447578190505b61045b61045385610309565b8301826103fa565b50505b505050565b600082821c905092915050565b600061048160001984600802610463565b1980831691505092915050565b600061049a8383610470565b9150826002028217905092915050565b6104b38261025a565b67ffffffffffffffff8111156104cc576104cb610265565b5b6104d682546102c3565b6104e182828561041d565b600060209050601f8311600181146105145760008415610502578287015190505b61050c858261048e565b865550610574565b601f198416610522866102f4565b60005b8281101561054a57848901518255600182019150602085019450602081019050610525565b868310156105675784890151610563601f891682610470565b8355505b6001600288020188555050505b505050505050565b612ab48061058b6000396000f3fe608060405234801561001057600080fd5b50600436106101375760003560e01c806370a08231116100b8578063b88d4fde1161007c578063b88d4fde1461035e578063c87b56dd1461037a578063d5391393146103aa578063d547741f146103c8578063e985e9c5146103e4578063fbcb79d61461041457610137565b806370a08231146102a657806391d14854146102d657806395d89b4114610306578063a217fddf14610324578063a22cb4651461034257610137565b8063248a9ca3116100ff578063248a9ca3146101f25780632f2ff15d1461022257806336568abe1461023e57806342842e0e1461025a5780636352211e1461027657610137565b806301ffc9a71461013c57806306fdde031461016c578063081812fc1461018a578063095ea7b3146101ba57806323b872dd146101d6575b600080fd5b61015660048036038101906101519190611e16565b610444565b6040516101639190611e5e565b60405180910390f35b610174610456565b6040516101819190611f09565b60405180910390f35b6101a4600480360381019061019f9190611f61565b6104e8565b6040516101b19190611fcf565b60405180910390f35b6101d460048036038101906101cf9190612016565b610504565b005b6101f060048036038101906101eb9190612056565b61051a565b005b61020c600480360381019061020791906120df565b61061c565b604051610219919061211b565b60405180910390f35b61023c60048036038101906102379190612136565b61063c565b005b61025860048036038101906102539190612136565b61065e565b005b610274600480360381019061026f9190612056565b6106d9565b005b610290600480360381019061028b9190611f61565b6106f9565b60405161029d9190611fcf565b60405180910390f35b6102c060048036038101906102bb9190612176565b61070b565b6040516102cd91906121b2565b60405180910390f35b6102f060048036038101906102eb9190612136565b6107c5565b6040516102fd9190611e5e565b60405180910390f35b61030e610830565b60405161031b9190611f09565b60405180910390f35b61032c6108c2565b604051610339919061211b565b60405180910390f35b61035c600480360381019061035791906121f9565b6108c9565b005b6103786004803603810190610373919061236e565b6108df565b005b610394600480360381019061038f9190611f61565b610904565b6040516103a19190611f09565b60405180910390f35b6103b2610916565b6040516103bf919061211b565b60405180910390f35b6103e260048036038101906103dd9190612136565b61093a565b005b6103fe60048036038101906103f991906123f1565b61095c565b60405161040b9190611e5e565b60405180910390f35b61042e600480360381019061042991906124d2565b6109f0565b60405161043b91906121b2565b60405180910390f35b600061044f82610a4e565b9050919050565b6060600080546104659061255d565b80601f01602080910402602001604051908101604052809291908181526020018280546104919061255d565b80156104de5780601f106104b3576101008083540402835291602001916104de565b820191906000526020600020905b8154815290600101906020018083116104c157829003601f168201915b5050505050905090565b60006104f382610ac8565b506104fd82610b50565b9050919050565b6105168282610511610b8d565b610b95565b5050565b600073ffffffffffffffffffffffffffffffffffffffff168273ffffffffffffffffffffffffffffffffffffffff160361058c5760006040517f64a0ae920000000000000000000000000000000000000000000000000000000081526004016105839190611fcf565b60405180910390fd5b60006105a0838361059b610b8d565b610ba7565b90508373ffffffffffffffffffffffffffffffffffffffff168173ffffffffffffffffffffffffffffffffffffffff1614610616578382826040517f64283d7b00000000000000000000000000000000000000000000000000000000815260040161060d9392919061258e565b60405180910390fd5b50505050565b600060076000838152602001908152602001600020600101549050919050565b6106458261061c565b61064e81610dc1565b6106588383610dd5565b50505050565b610666610b8d565b73ffffffffffffffffffffffffffffffffffffffff168173ffffffffffffffffffffffffffffffffffffffff16146106ca576040517f6697b23200000000000000000000000000000000000000000000000000000000815260040160405180910390fd5b6106d48282610ec7565b505050565b6106f4838383604051806020016040528060008152506108df565b505050565b600061070482610ac8565b9050919050565b60008073ffffffffffffffffffffffffffffffffffffffff168273ffffffffffffffffffffffffffffffffffffffff160361077e5760006040517f89c62b640000000000000000000000000000000000000000000000000000000081526004016107759190611fcf565b60405180910390fd5b600360008373ffffffffffffffffffffffffffffffffffffffff1673ffffffffffffffffffffffffffffffffffffffff168152602001908152602001600020549050919050565b60006007600084815260200190815260200160002060000160008373ffffffffffffffffffffffffffffffffffffffff1673ffffffffffffffffffffffffffffffffffffffff16815260200190815260200160002060009054906101000a900460ff16905092915050565b60606001805461083f9061255d565b80601f016020809104026020016040519081016040528092919081815260200182805461086b9061255d565b80156108b85780601f1061088d576101008083540402835291602001916108b8565b820191906000526020600020905b81548152906001019060200180831161089b57829003601f168201915b5050505050905090565b6000801b81565b6108db6108d4610b8d565b8383610fba565b5050565b6108ea84848461051a565b6108fe6108f5610b8d565b85858585611129565b50505050565b606061090f826112da565b9050919050565b7f9f2df0fed2c77648de5860a4cc508cd0818c85b8b8a1ab4ceeef8d981c8956a681565b6109438261061c565b61094c81610dc1565b6109568383610ec7565b50505050565b6000600560008473ffffffffffffffffffffffffffffffffffffffff1673ffffffffffffffffffffffffffffffffffffffff16815260200190815260200160002060008373ffffffffffffffffffffffffffffffffffffffff1673ffffffffffffffffffffffffffffffffffffffff16815260200190815260200160002060009054906101000a900460ff16905092915050565b60007f9f2df0fed2c77648de5860a4cc508cd0818c85b8b8a1ab4ceeef8d981c8956a6610a1c81610dc1565b600860008154610a2b906125f4565b9190508190559150610a3d84836113ed565b610a47828461140b565b5092915050565b60007f7965db0b000000000000000000000000000000000000000000000000000000007bffffffffffffffffffffffffffffffffffffffffffffffffffffffff1916827bffffffffffffffffffffffffffffffffffffffffffffffffffffffff19161480610ac15750610ac082611467565b5b9050919050565b600080610ad4836114c8565b9050600073ffffffffffffffffffffffffffffffffffffffff168173ffffffffffffffffffffffffffffffffffffffff1603610b4757826040517f7e273289000000000000000000000000000000000000000000000000000000008152600401610b3e91906121b2565b60405180910390fd5b80915050919050565b60006004600083815260200190815260200160002060009054906101000a900473ffffffffffffffffffffffffffffffffffffffff169050919050565b600033905090565b610ba28383836001611505565b505050565b600080610bb3846114c8565b9050600073ffffffffffffffffffffffffffffffffffffffff168373ffffffffffffffffffffffffffffffffffffffff1614610bf557610bf48184866116ca565b5b600073ffffffffffffffffffffffffffffffffffffffff168173ffffffffffffffffffffffffffffffffffffffff1614610c8657610c37600085600080611505565b6001600360008373ffffffffffffffffffffffffffffffffffffffff1673ffffffffffffffffffffffffffffffffffffffff168152602001908152602001600020600082825403925050819055505b600073ffffffffffffffffffffffffffffffffffffffff168573ffffffffffffffffffffffffffffffffffffffff1614610d09576001600360008773ffffffffffffffffffffffffffffffffffffffff1673ffffffffffffffffffffffffffffffffffffffff168152602001908152602001600020600082825401925050819055505b846002600086815260200190815260200160002060006101000a81548173ffffffffffffffffffffffffffffffffffffffff021916908373ffffffffffffffffffffffffffffffffffffffff160217905550838573ffffffffffffffffffffffffffffffffffffffff168273ffffffffffffffffffffffffffffffffffffffff167fddf252ad1be2c89b69c2b068fc378daa952ba7f163c4a11628f55a4df523b3ef60405160405180910390a4809150509392505050565b610dd281610dcd610b8d565b61178e565b50565b6000610de183836107c5565b610ebc5760016007600085815260200190815260200160002060000160008473ffffffffffffffffffffffffffffffffffffffff1673ffffffffffffffffffffffffffffffffffffffff16815260200190815260200160002060006101000a81548160ff021916908315150217905550610e59610b8d565b73ffffffffffffffffffffffffffffffffffffffff168273ffffffffffffffffffffffffffffffffffffffff16847f2f8788117e7eff1d82e926ec794901d17c78024a50270940304540a733656f0d60405160405180910390a460019050610ec1565b600090505b92915050565b6000610ed383836107c5565b15610faf5760006007600085815260200190815260200160002060000160008473ffffffffffffffffffffffffffffffffffffffff1673ffffffffffffffffffffffffffffffffffffffff16815260200190815260200160002060006101000a81548160ff021916908315150217905550610f4c610b8d565b73ffffffffffffffffffffffffffffffffffffffff168273ffffffffffffffffffffffffffffffffffffffff16847ff6391f5c32d9c69d2a47ea670b442974b53935d1edc7fd64eb21e047a839171b60405160405180910390a460019050610fb4565b600090505b92915050565b600073ffffffffffffffffffffffffffffffffffffffff168273ffffffffffffffffffffffffffffffffffffffff160361102b57816040517f5b08ba180000000000000000000000000000000000000000000000000000000081526004016110229190611fcf565b60405180910390fd5b80600560008573ffffffffffffffffffffffffffffffffffffffff1673ffffffffffffffffffffffffffffffffffffffff16815260200190815260200160002060008473ffffffffffffffffffffffffffffffffffffffff1673ffffffffffffffffffffffffffffffffffffffff16815260200190815260200160002060006101000a81548160ff0219169083151502179055508173ffffffffffffffffffffffffffffffffffffffff168373ffffffffffffffffffffffffffffffffffffffff167f17307eab39ab6107e8899845ad3d59bd9653f200f220920489ca2b5937696c318360405161111c9190611e5e565b60405180910390a3505050565b60008373ffffffffffffffffffffffffffffffffffffffff163b11156112d3578273ffffffffffffffffffffffffffffffffffffffff1663150b7a02868685856040518563ffffffff1660e01b81526004016111889493929190612691565b6020604051808303816000875af19250505080156111c457506040513d601f19601f820116820180604052508101906111c191906126f2565b60015b611248573d80600081146111f4576040519150601f19603f3d011682016040523d82523d6000602084013e6111f9565b606091505b50600081510361124057836040517f64a0ae920000000000000000000000000000000000000000000000000000000081526004016112379190611fcf565b60405180910390fd5b805160208201fd5b63150b7a0260e01b7bffffffffffffffffffffffffffffffffffffffffffffffffffffffff1916817bffffffffffffffffffffffffffffffffffffffffffffffffffffffff1916146112d157836040517f64a0ae920000000000000000000000000000000000000000000000000000000081526004016112c89190611fcf565b60405180910390fd5b505b5050505050565b60606112e582610ac8565b5060006006600084815260200190815260200160002080546113069061255d565b80601f01602080910402602001604051908101604052809291908181526020018280546113329061255d565b801561137f5780601f106113545761010080835404028352916020019161137f565b820191906000526020600020905b81548152906001019060200180831161136257829003601f168201915b5050505050905060006113906117df565b905060008151036113a55781925050506113e8565b6000825111156113da5780826040516020016113c292919061275b565b604051602081830303815290604052925050506113e8565b6113e3846117f6565b925050505b919050565b61140782826040518060200160405280600081525061185f565b5050565b8060066000848152602001908152602001600020908161142b919061292b565b507ff8e1a15aba9398e019f0b49df1a4fde98ee17ae345cb5f6b5e2c27f5033e8ce78260405161145b91906121b2565b60405180910390a15050565b6000634906490660e01b7bffffffffffffffffffffffffffffffffffffffffffffffffffffffff1916827bffffffffffffffffffffffffffffffffffffffffffffffffffffffff191614806114c157506114c082611883565b5b9050919050565b60006002600083815260200190815260200160002060009054906101000a900473ffffffffffffffffffffffffffffffffffffffff169050919050565b808061153e5750600073ffffffffffffffffffffffffffffffffffffffff168273ffffffffffffffffffffffffffffffffffffffff1614155b1561167257600061154e84610ac8565b9050600073ffffffffffffffffffffffffffffffffffffffff168373ffffffffffffffffffffffffffffffffffffffff16141580156115b957508273ffffffffffffffffffffffffffffffffffffffff168173ffffffffffffffffffffffffffffffffffffffff1614155b80156115cc57506115ca818461095c565b155b1561160e57826040517fa9fbf51f0000000000000000000000000000000000000000000000000000000081526004016116059190611fcf565b60405180910390fd5b811561167057838573ffffffffffffffffffffffffffffffffffffffff168273ffffffffffffffffffffffffffffffffffffffff167f8c5be1e5ebec7d5bd14f71427d1e84f3dd0314c0f7b2291e5b200ac8c7c3b92560405160405180910390a45b505b836004600085815260200190815260200160002060006101000a81548173ffffffffffffffffffffffffffffffffffffffff021916908373ffffffffffffffffffffffffffffffffffffffff16021790555050505050565b6116d5838383611965565b61178957600073ffffffffffffffffffffffffffffffffffffffff168373ffffffffffffffffffffffffffffffffffffffff160361174a57806040517f7e27328900000000000000000000000000000000000000000000000000000000815260040161174191906121b2565b60405180910390fd5b81816040517f177e802f0000000000000000000000000000000000000000000000000000000081526004016117809291906129fd565b60405180910390fd5b505050565b61179882826107c5565b6117db5780826040517fe2517d3f0000000000000000000000000000000000000000000000000000000081526004016117d2929190612a26565b60405180910390fd5b5050565b606060405180602001604052806000815250905090565b606061180182610ac8565b50600061180c6117df565b9050600081511161182c5760405180602001604052806000815250611857565b8061183684611a26565b60405160200161184792919061275b565b6040516020818303038152906040525b915050919050565b6118698383611af4565b61187e611874610b8d565b6000858585611129565b505050565b60007f80ac58cd000000000000000000000000000000000000000000000000000000007bffffffffffffffffffffffffffffffffffffffffffffffffffffffff1916827bffffffffffffffffffffffffffffffffffffffffffffffffffffffff1916148061194e57507f5b5e139f000000000000000000000000000000000000000000000000000000007bffffffffffffffffffffffffffffffffffffffffffffffffffffffff1916827bffffffffffffffffffffffffffffffffffffffffffffffffffffffff1916145b8061195e575061195d82611bed565b5b9050919050565b60008073ffffffffffffffffffffffffffffffffffffffff168373ffffffffffffffffffffffffffffffffffffffff1614158015611a1d57508273ffffffffffffffffffffffffffffffffffffffff168473ffffffffffffffffffffffffffffffffffffffff1614806119de57506119dd848461095c565b5b80611a1c57508273ffffffffffffffffffffffffffffffffffffffff16611a0483610b50565b73ffffffffffffffffffffffffffffffffffffffff16145b5b90509392505050565b606060006001611a3584611c57565b01905060008167ffffffffffffffff811115611a5457611a53612243565b5b6040519080825280601f01601f191660200182016040528015611a865781602001600182028036833780820191505090505b509050600082602083010190505b600115611ae9578080600190039150507f3031323334353637383961626364656600000000000000000000000000000000600a86061a8153600a8581611add57611adc612a4f565b5b04945060008503611a94575b819350505050919050565b600073ffffffffffffffffffffffffffffffffffffffff168273ffffffffffffffffffffffffffffffffffffffff1603611b665760006040517f64a0ae92000000000000000000000000000000000000000000000000000000008152600401611b5d9190611fcf565b60405180910390fd5b6000611b7483836000610ba7565b9050600073ffffffffffffffffffffffffffffffffffffffff168173ffffffffffffffffffffffffffffffffffffffff1614611be85760006040517f73c6ac6e000000000000000000000000000000000000000000000000000000008152600401611bdf9190611fcf565b60405180910390fd5b505050565b60007f01ffc9a7000000000000000000000000000000000000000000000000000000007bffffffffffffffffffffffffffffffffffffffffffffffffffffffff1916827bffffffffffffffffffffffffffffffffffffffffffffffffffffffff1916149050919050565b600080600090507a184f03e93ff9f4daa797ed6e38ed64bf6a1f0100000000000000008310611cb5577a184f03e93ff9f4daa797ed6e38ed64bf6a1f0100000000000000008381611cab57611caa612a4f565b5b0492506040810190505b6d04ee2d6d415b85acef81000000008310611cf2576d04ee2d6d415b85acef81000000008381611ce857611ce7612a4f565b5b0492506020810190505b662386f26fc100008310611d2157662386f26fc100008381611d1757611d16612a4f565b5b0492506010810190505b6305f5e1008310611d4a576305f5e1008381611d4057611d3f612a4f565b5b0492506008810190505b6127108310611d6f576127108381611d6557611d64612a4f565b5b0492506004810190505b60648310611d925760648381611d8857611d87612a4f565b5b0492506002810190505b600a8310611da1576001810190505b80915050919050565b6000604051905090565b600080fd5b600080fd5b60007fffffffff0000000000000000000000000000000000000000000000000000000082169050919050565b611df381611dbe565b8114611dfe57600080fd5b50565b600081359050611e1081611dea565b92915050565b600060208284031215611e2c57611e2b611db4565b5b6000611e3a84828501611e01565b91505092915050565b60008115159050919050565b611e5881611e43565b82525050565b6000602082019050611e736000830184611e4f565b92915050565b600081519050919050565b600082825260208201905092915050565b60005b83811015611eb3578082015181840152602081019050611e98565b60008484015250505050565b6000601f19601f8301169050919050565b6000611edb82611e79565b611ee58185611e84565b9350611ef5818560208601611e95565b611efe81611ebf565b840191505092915050565b60006020820190508181036000830152611f238184611ed0565b905092915050565b6000819050919050565b611f3e81611f2b565b8114611f4957600080fd5b50565b600081359050611f5b81611f35565b92915050565b600060208284031215611f7757611f76611db4565b5b6000611f8584828501611f4c565b91505092915050565b600073ffffffffffffffffffffffffffffffffffffffff82169050919050565b6000611fb982611f8e565b9050919050565b611fc981611fae565b82525050565b6000602082019050611fe46000830184611fc0565b92915050565b611ff381611fae565b8114611ffe57600080fd5b50565b60008135905061201081611fea565b92915050565b6000806040838503121561202d5761202c611db4565b5b600061203b85828601612001565b925050602061204c85828601611f4c565b9150509250929050565b60008060006060848603121561206f5761206e611db4565b5b600061207d86828701612001565b935050602061208e86828701612001565b925050604061209f86828701611f4c565b9150509250925092565b6000819050919050565b6120bc816120a9565b81146120c757600080fd5b50565b6000813590506120d9816120b3565b92915050565b6000602082840312156120f5576120f4611db4565b5b6000612103848285016120ca565b91505092915050565b612115816120a9565b82525050565b6000602082019050612130600083018461210c565b92915050565b6000806040838503121561214d5761214c611db4565b5b600061215b858286016120ca565b925050602061216c85828601612001565b9150509250929050565b60006020828403121561218c5761218b611db4565b5b600061219a84828501612001565b91505092915050565b6121ac81611f2b565b82525050565b60006020820190506121c760008301846121a3565b92915050565b6121d681611e43565b81146121e157600080fd5b50565b6000813590506121f3816121cd565b92915050565b600080604083850312156122105761220f611db4565b5b600061221e85828601612001565b925050602061222f858286016121e4565b9150509250929050565b600080fd5b600080fd5b7f4e487b7100000000000000000000000000000000000000000000000000000000600052604160045260246000fd5b61227b82611ebf565b810181811067ffffffffffffffff8211171561229a57612299612243565b5b80604052505050565b60006122ad611daa565b90506122b98282612272565b919050565b600067ffffffffffffffff8211156122d9576122d8612243565b5b6122e282611ebf565b9050602081019050919050565b82818337600083830152505050565b600061231161230c846122be565b6122a3565b90508281526020810184848401111561232d5761232c61223e565b5b6123388482856122ef565b509392505050565b600082601f83011261235557612354612239565b5b81356123658482602086016122fe565b91505092915050565b6000806000806080858703121561238857612387611db4565b5b600061239687828801612001565b94505060206123a787828801612001565b93505060406123b887828801611f4c565b925050606085013567ffffffffffffffff8111156123d9576123d8611db9565b5b6123e587828801612340565b91505092959194509250565b6000806040838503121561240857612407611db4565b5b600061241685828601612001565b925050602061242785828601612001565b9150509250929050565b600067ffffffffffffffff82111561244c5761244b612243565b5b61245582611ebf565b9050602081019050919050565b600061247561247084612431565b6122a3565b9050828152602081018484840111156124915761249061223e565b5b61249c8482856122ef565b509392505050565b600082601f8301126124b9576124b8612239565b5b81356124c9848260208601612462565b91505092915050565b600080604083850312156124e9576124e8611db4565b5b60006124f785828601612001565b925050602083013567ffffffffffffffff81111561251857612517611db9565b5b612524858286016124a4565b9150509250929050565b7f4e487b7100000000000000000000000000000000000000000000000000000000600052602260045260246000fd5b6000600282049050600182168061257557607f821691505b6020821081036125885761258761252e565b5b50919050565b60006060820190506125a36000830186611fc0565b6125b060208301856121a3565b6125bd6040830184611fc0565b949350505050565b7f4e487b7100000000000000000000000000000000000000000000000000000000600052601160045260246000fd5b60006125ff82611f2b565b91507fffffffffffffffffffffffffffffffffffffffffffffffffffffffffffffffff8203612631576126306125c5565b5b600182019050919050565b600081519050919050565b600082825260208201905092915050565b60006126638261263c565b61266d8185612647565b935061267d818560208601611e95565b61268681611ebf565b840191505092915050565b60006080820190506126a66000830187611fc0565b6126b36020830186611fc0565b6126c060408301856121a3565b81810360608301526126d28184612658565b905095945050505050565b6000815190506126ec81611dea565b92915050565b60006020828403121561270857612707611db4565b5b6000612716848285016126dd565b91505092915050565b600081905092915050565b600061273582611e79565b61273f818561271f565b935061274f818560208601611e95565b80840191505092915050565b6000612767828561272a565b9150612773828461272a565b91508190509392505050565b60008190508160005260206000209050919050565b60006020601f8301049050919050565b600082821b905092915050565b6000600883026127e17fffffffffffffffffffffffffffffffffffffffffffffffffffffffffffffffff826127a4565b6127eb86836127a4565b95508019841693508086168417925050509392505050565b6000819050919050565b600061282861282361281e84611f2b565b612803565b611f2b565b9050919050565b6000819050919050565b6128428361280d565b61285661284e8261282f565b8484546127b1565b825550505050565b600090565b61286b61285e565b612876818484612839565b505050565b5b8181101561289a5761288f600082612863565b60018101905061287c565b5050565b601f8211156128df576128b08161277f565b6128b984612794565b810160208510156128c8578190505b6128dc6128d485612794565b83018261287b565b50505b505050565b600082821c905092915050565b6000612902600019846008026128e4565b1980831691505092915050565b600061291b83836128f1565b9150826002028217905092915050565b61293482611e79565b67ffffffffffffffff81111561294d5761294c612243565b5b612957825461255d565b61296282828561289e565b600060209050601f8311600181146129955760008415612983578287015190505b61298d858261290f565b8655506129f5565b601f1984166129a38661277f565b60005b828110156129cb578489015182556001820191506020850194506020810190506129a6565b868310156129e857848901516129e4601f8916826128f1565b8355505b6001600288020188555050505b505050505050565b6000604082019050612a126000830185611fc0565b612a1f60208301846121a3565b9392505050565b6000604082019050612a3b6000830185611fc0565b612a48602083018461210c565b9392505050565b7f4e487b7100000000000000000000000000000000000000000000000000000000600052601260045260246000fdfea264697066735822122071374ec07e5e33828d8f9ce7f4f322726ddd3f45aee44321374a56917164279d64736f6c634300081c0033",
  "linkReferences": {},
  "deployedLinkReferences": {}
}