{
  "_format": "hh-sol-artifact-1",
  "contractName": "GreenNFTCollection",
  "sourceName": "contracts/GreenNFTCollection.sol",
  "abi": [
    {
      "inputs": [],
      "stateMutability": "nonpayable",
      "type": "constructor"
    },
    {
      "inputs": [],
      "name": "AccessControlBadConfirmation",
      "type": "error"
    },
    {
      "inputs": [
        {
          "internalType": "address",
          "name": "account",
          "type": "address"
        },
        {
          "internalType": "bytes32",
          "name": "neededRole",
          "type": "bytes32"
        }
      ],
      "name": "AccessControlUnauthorizedAccount",
      "type": "error"
    },
    {
      "inputs": [
        {
          "internalType": "address",
          "name": "sender",
          "type": "address"
        },
        {
          "internalType": "uint256",
          "name": "tokenId",
          "type": "uint256"
        },
        {
          "internalType": "address",
          "name": "owner",
          "type": "address"
        }
      ],
      "name": "ERC721IncorrectOwner",
      "type": "error"
    },
    {
      "inputs": [
        {
          "internalType": "address",
          "name": "operator",
          "type": "address"
        },
        {
          "internalType": "uint256",
          "name": "tokenId",
          "type": "uint256"
        }
      ],
      "name": "ERC721InsufficientApproval",
      "type": "error"
    },
    {
      "inputs": [
        {
          "internalType": "address",
          "name": "approver",
          "type": "address"
        }
      ],
      "name": "ERC721InvalidApprover",
      "type": "error"
    },
    {
      "inputs": [
        {
          "internalType": "address",
          "name": "operator",
          "type": "address"
        }
      ],
      "name": "ERC721InvalidOperator",
      "type": "error"
    },
    {
      "inputs": [
        {
          "internalType": "address",
          "name": "owner",
          "type": "address"
        }
      ],
      "name": "ERC721InvalidOwner",
      "type": "error"
    },
    {
      "inputs": [
        {
          "internalType": "address",
          "name": "receiver",
          "type": "address"
        }
      ],
      "name": "ERC721InvalidReceiver",
      "type": "error"
    },
    {
      "inputs": [
        {
          "internalType": "address",
          "name": "sender",
          "type": "address"
        }
      ],
      "name": "ERC721InvalidSender",
      "type": "error"
    },
    {
      "inputs": [
        {
          "internalType": "uint256",
          "name": "tokenId",
          "type": "uint256"
        }
      ],
      "name": "ERC721NonexistentToken",
      "type": "error"
    },
    {
      "anonymous": false,
      "inputs": [
        {
          "indexed": true,
          "internalType": "address",
          "name": "owner",
          "type": "address"
        },
        {
          "indexed": true,
          "internalType": "address",
          "name": "approved",
          "type": "address"
        },
        {
          "indexed": true,
          "internalType": "uint256",
          "name": "tokenId",
          "type": "uint256"
        }
      ],
      "name": "Approval",
      "type": "event"
    },
    {
      "anonymous": false,
      "inputs": [
        {
          "indexed": true,
          "internalType": "address",
          "name": "owner",
          "type": "address"
        },
        {
          "indexed": true,
          "internalType": "address",
          "name": "operator",
          "type": "address"
        },
        {
          "indexed": false,
          "internalType": "bool",
          "name": "approved",
          "type": "bool"
        }
      ],
      "name": "ApprovalForAll",
      "type": "event"
    },
    {
      "anonymous": false,
      "inputs": [
        {
          "indexed": false,
          "internalType": "uint256",
          "name": "_fromTokenId",
          "type": "uint256"
        },
        {
          "indexed": false,
          "internalType": "uint256",
          "name": "_toTokenId",
          "type": "uint256"
        }
      ],
      "name": "BatchMetadataUpdate",
      "type": "event"
    },
    {
      "anonymous": false,
      "inputs": [
        {
          "indexed": false,
          "internalType": "uint256",
          "name": "_tokenId",
          "type": "uint256"
        }
      ],
      "name": "MetadataUpdate",
      "type": "event"
    },
    {
      "anonymous": false,
      "inputs": [
        {
          "indexed": true,
          "internalType": "bytes32",
          "name": "role",
          "type": "bytes32"
        },
        {
          "indexed": true,
          "internalType": "bytes32",
          "name": "previousAdminRole",
          "type": "bytes32"
        },
        {
          "indexed": true,
          "internalType": "bytes32",
          "name": "newAdminRole",
          "type": "bytes32"
        }
      ],
      "name": "RoleAdminChanged",
      "type": "event"
    },
    {
      "anonymous": false,
      "inputs": [
        {
          "indexed": true,
          "internalType": "bytes32",
          "name": "role",
          "type": "bytes32"
        },
        {
          "indexed": true,
          "internalType": "address",
          "name": "account",
          "type": "address"
        },
        {
          "indexed": true,
          "internalType": "address",
          "name": "sender",
          "type": "address"
        }
      ],
      "name": "RoleGranted",
      "type": "event"
    },
    {
      "anonymous": false,
      "inputs": [
        {
          "indexed": true,
          "internalType": "bytes32",
          "name": "role",
          "type": "bytes32"
        },
        {
          "indexed": true,
          "internalType": "address",
          "name": "account",
          "type": "address"
        },
        {
          "indexed": true,
          "internalType": "address",
          "name": "sender",
          "type": "address"
        }
      ],
      "name": "RoleRevoked",
      "type": "event"
    },
    {
      "anonymous": false,
      "inputs": [
        {
          "indexed": true,
          "internalType": "address",
          "name": "from",
          "type": "address"
        },
        {
          "indexed": true,
          "internalType": "address",
          "name": "to",
          "type": "address"
        },
        {
          "indexed": true,
          "internalType": "uint256",
          "name": "tokenId",
          "type": "uint256"
        }
      ],
      "name": "Transfer",
      "type": "event"
    },
    {
      "inputs": [],
      "name": "DEFAULT_ADMIN_ROLE",
      "outputs": [
        {
          "internalType": "bytes32",
          "name": "",
          "type": "bytes32"
        }
      ],
      "stateMutability": "view",
      "type": "function"
    },
    {
      "inputs": [],
      "name": "MINTER_ROLE",
      "outputs": [
        {
          "internalType": "bytes32",
          "name": "",
          "type": "bytes32"
        }
      ],
      "stateMutability": "view",
      "type": "function"
    },
    {
      "inputs": [
        {
          "internalType": "address",
          "name": "to",
          "type": "address"
        },
        {
          "internalType": "uint256",
          "name": "tokenId",
          "type": "uint256"
        }
      ],
      "name": "approve",
      "outputs": [],
      "stateMutability": "nonpayable",
      "type": "function"
    },
    {
      "inputs": [
        {
          "internalType": "address",
          "name": "owner",
          "type": "address"
        }
      ],
      "name": "balanceOf",
      "outputs": [
        {
          "internalType": "uint256",
          "name": "",
          "type": "uint256"
        }
      ],
      "stateMutability": "view",
      "type": "function"
    },
    {
      "inputs": [
        {
          "internalType": "uint256",
          "name": "tokenId",
          "type": "uint256"
        }
      ],
      "name": "getApproved",
      "outputs": [
        {
          "internalType": "address",
          "name": "",
          "type": "address"
        }
      ],
      "stateMutability": "view",
      "type": "function"
    },
    {
      "inputs": [
        {
          "internalType": "bytes32",
          "name": "role",
          "type": "bytes32"
        }
      ],
      "name": "getRoleAdmin",
      "outputs": [
        {
          "internalType": "bytes32",
          "name": "",
          "type": "bytes32"
        }
      ],
      "stateMutability": "view",
      "type": "function"
    },
    {
      "inputs": [
        {
          "internalType": "bytes32",
          "name": "role",
          "type": "bytes32"
        },
        {
          "internalType": "address",
          "name": "account",
          "type": "address"
        }
      ],
      "name": "grantRole",
      "outputs": [],
      "stateMutability": "nonpayable",
      "type": "function"
    },
    {
      "inputs": [
        {
          "internalType": "bytes32",
          "name": "role",
          "type": "bytes32"
        },
        {
          "internalType": "address",
          "name": "account",
          "type": "address"
        }
      ],
      "name": "hasRole",
      "outputs": [
        {
          "internalType": "bool",
          "name": "",
          "type": "bool"
        }
      ],
      "stateMutability": "view",
      "type": "function"
    },
    {
      "inputs": [
        {
          "internalType": "address",
          "name": "owner",
          "type": "address"
        },
        {
          "internalType": "address",
          "name": "operator",
          "type": "address"
        }
      ],
      "name": "isApprovedForAll",
      "outputs": [
        {
          "internalType": "bool",
          "name": "",
          "type": "bool"
        }
      ],
      "stateMutability": "view",
      "type": "function"
    },
    {
      "inputs": [
        {
          "internalType": "address",
          "name": "to",
          "type": "address"
        },
        {
          "internalType": "string",
          "name": "tokenURI",
          "type": "string"
        }
      ],
      "name": "mintBatchCertificate",
      "outputs": [
        {
          "internalType": "uint256",
          "name": "tokenId",
          "type": "uint256"
        }
      ],
      "stateMutability": "nonpayable",
      "type": "function"
    },
    {
      "inputs": [],
      "name": "name",
      "outputs": [
        {
          "internalType": "string",
          "name": "",
          "type": "string"
        }
      ],
      "stateMutability": "view",
      "type": "function"
    },
    {
      "inputs": [
        {
          "internalType": "uint256",
          "name": "tokenId",
          "type": "uint256"
        }
      ],
      "name": "ownerOf",
      "outputs": [
        {
          "internalType": "address",
          "name": "",
          "type": "address"
        }
      ],
      "stateMutability": "view",
      "type": "function"
    },
    {
      "inputs": [
        {
          "internalType": "bytes32",
          "name": "role",
          "type": "bytes32"
        },
        {
          "internalType": "address",
          "name": "callerConfirmation",
          "type": "address"
        }
      ],
      "name": "renounceRole",
      "outputs": [],
      "stateMutability": "nonpayable",
      "type": "function"
    },
    {
      "inputs": [
        {
          "internalType": "bytes32",
          "name": "role",
          "type": "bytes32"
        },
        {
          "internalType": "address",
          "name": "account",
          "type": "address"
        }
      ],
      "name": "revokeRole",
      "outputs": [],
      "stateMutability": "nonpayable",
      "type": "function"
    },
    {
      "inputs": [
        {
          "internalType": "address",
          "name": "from",
          "type": "address"
        },
        {
          "internalType": "address",
          "name": "to",
          "type": "address"
        },
        {
          "internalType": "uint256",
          "name": "tokenId",
          "type": "uint256"
        }
      ],
      "name": "safeTransferFrom",
      "outputs": [],
      "stateMutability": "nonpayable",
      "type": "function"
    },
    {
      "inputs": [
        {
          "internalType": "address",
          "name": "from",
          "type": "address"
        },
        {
          "internalType": "address",
          "name": "to",
          "type": "address"
        },
        {
          "internalType": "uint256",
          "name": "tokenId",
          "type": "uint256"
        },
        {
          "internalType": "bytes",
          "name": "data",
          "type": "bytes"
        }
      ],
      "name": "safeTransferFrom",
      "outputs": [],
      "stateMutability": "nonpayable",
      "type": "function"
    },
    {
      "inputs": [
        {
          "internalType": "address",
          "name": "operator",
          "type": "address"
        },
        {
          "internalType": "bool",
          "name": "approved",
          "type": "bool"
        }
      ],
      "name": "setApprovalForAll",
      "outputs": [],
      "stateMutability": "nonpayable",
      "type": "function"
    },
    {
      "inputs": [
        {
          "internalType": "bytes4",
          "name": "interfaceId",
          "type": "bytes4"
        }
      ],
      "name": "supportsInterface",
      "outputs": [
        {
          "internalType": "bool",
          "name": "",
          "type": "bool"
        }
      ],
      "stateMutability": "view",
      "type": "function"
    },
    {
      "inputs": [],
      "name": "symbol",
      "outputs": [
        {
          "internalType": "string",
          "name": "",
          "type": "string"
        }
      ],
      "stateMutability": "view",
      "type": "function"
    },
    {
      "inputs": [
        {
          "internalType": "uint256",
          "name": "tokenId",
          "type": "uint256"
        }
      ],
      "name": "tokenURI",
      "outputs": [
        {
          "internalType": "string",
          "name": "",
          "type": "string"
        }
      ],
      "stateMutability": "view",
      "type": "function"
    },
    {
      "inputs": [
        {
          "internalType": "address",
          "name": "from",
          "type": "address"
        },
        {
          "internalType": "address",
          "name": "to",
          "type": "address"
        },
        {
          "internalType": "uint256",
          "name": "tokenId",
          "type": "uint256"
        }
      ],
      "name": "transferFrom",
      "outputs": [],
      "stateMutability": "nonpayable",
      "type": "function"
    }
  ],
  "bytecode": "0x608060405234801561001057600080fd5b506040518060400160405280601e81526020017f477265656e20436172626f6e20426174636820436572746966696361746500008152506040518060400160405280600581526020016411d0d1549560da1b81525081600090816100749190610211565b5060016100818282610211565b50610091915060009050336100c2565b506100bc7f9f2df0fed2c77648de5860a4cc508cd0818c85b8b8a1ab4ceeef8d981c8956a6336100c2565b506102cf565b60008281526007602090815260408083206001600160a01b038516845290915281205460ff166101685760008381526007602090815260408083206001600160a01b03861684529091529020805460ff191660011790556101203390565b6001600160a01b0316826001600160a01b0316847f2f8788117e7eff1d82e926ec794901d17c78024a50270940304540a733656f0d60405160405180910390a450600161016c565b5060005b92915050565b634e487b7160e01b600052604160045260246000fd5b600181811c9082168061019c57607f821691505b6020821081036101bc57634e487b7160e01b600052602260045260246000fd5b50919050565b601f82111561020c57806000526020600020601f840160051c810160208510156101e95750805b601f840160051c820191505b8181101561020957600081556001016101f5565b50505b505050565b81516001600160401b0381111561022a5761022a610172565b61023e816102388454610188565b846101c2565b6020601f821160018114610272576000831561025a5750848201515b600019600385901b1c1916600184901b178455610209565b600084815260208120601f198516915b828110156102a25787850151825560209485019460019092019101610282565b50848210156102c05786840151600019600387901b60f8161c191681555b50505050600190811b01905550565b611668806102de6000396000f3fe608060405234801561001057600080fd5b50600436106101375760003560e01c806370a08231116100b8578063b88d4fde1161007c578063b88d4fde14610292578063c87b56dd146102a5578063d5391393146102b8578063d547741f146102df578063e985e9c5146102f2578063fbcb79d61461030557600080fd5b806370a082311461024957806391d148541461025c57806395d89b411461026f578063a217fddf14610277578063a22cb4651461027f57600080fd5b8063248a9ca3116100ff578063248a9ca3146101cc5780632f2ff15d146101fd57806336568abe1461021057806342842e0e146102235780636352211e1461023657600080fd5b806301ffc9a71461013c57806306fdde0314610164578063081812fc14610179578063095ea7b3146101a457806323b872dd146101b9575b600080fd5b61014f61014a36600461110b565b610318565b60405190151581526020015b60405180910390f35b61016c610329565b60405161015b9190611178565b61018c61018736600461118b565b6103bb565b6040516001600160a01b03909116815260200161015b565b6101b76101b23660046111c0565b6103e4565b005b6101b76101c73660046111ea565b6103f3565b6101ef6101da36600461118b565b60009081526007602052604090206001015490565b60405190815260200161015b565b6101b761020b366004611227565b610483565b6101b761021e366004611227565b6104a8565b6101b76102313660046111ea565b6104e0565b61018c61024436600461118b565b6104fb565b6101ef610257366004611253565b610506565b61014f61026a366004611227565b61054e565b61016c610579565b6101ef600081565b6101b761028d36600461126e565b610588565b6101b76102a036600461133a565b610593565b61016c6102b336600461118b565b6105ab565b6101ef7f9f2df0fed2c77648de5860a4cc508cd0818c85b8b8a1ab4ceeef8d981c8956a681565b6101b76102ed366004611227565b6105b6565b61014f6103003660046113b6565b6105db565b6101ef6103133660046113e0565b610609565b600061032382610666565b92915050565b60606000805461033890611442565b80601f016020809104026020016040519081016040528092919081815260200182805461036490611442565b80156103b15780601f10610386576101008083540402835291602001916103b1565b820191906000526020600020905b81548152906001019060200180831161039457829003601f168201915b5050505050905090565b60006103c68261068b565b506000828152600460205260409020546001600160a01b0316610323565b6103ef8282336106c4565b5050565b6001600160a01b03821661042257604051633250574960e11b8152600060048201526024015b60405180910390fd5b600061042f8383336106d1565b9050836001600160a01b0316816001600160a01b03161461047d576040516364283d7b60e01b81526001600160a01b0380861660048301526024820184905282166044820152606401610419565b50505050565b60008281526007602052604090206001015461049e816107ca565b61047d83836107d7565b6001600160a01b03811633146104d15760405163334bd91960e11b815260040160405180910390fd5b6104db828261086b565b505050565b6104db83838360405180602001604052806000815250610593565b60006103238261068b565b60006001600160a01b038216610532576040516322718ad960e21b815260006004820152602401610419565b506001600160a01b031660009081526003602052604090205490565b60009182526007602090815260408084206001600160a01b0393909316845291905290205460ff1690565b60606001805461033890611442565b6103ef3383836108d8565b61059e8484846103f3565b61047d3385858585610977565b606061032382610aa2565b6000828152600760205260409020600101546105d1816107ca565b61047d838361086b565b6001600160a01b03918216600090815260056020908152604080832093909416825291909152205460ff1690565b60007f9f2df0fed2c77648de5860a4cc508cd0818c85b8b8a1ab4ceeef8d981c8956a6610635816107ca565b6008600081546106449061147c565b918290555091506106558483610bb3565b61065f8284610bcd565b5092915050565b60006001600160e01b03198216637965db0b60e01b1480610323575061032382610c1d565b6000818152600260205260408120546001600160a01b03168061032357604051637e27328960e01b815260048101849052602401610419565b6104db8383836001610c42565b6000828152600260205260408120546001600160a01b03908116908316156106fe576106fe818486610d48565b6001600160a01b0381161561073c5761071b600085600080610c42565b6001600160a01b038116600090815260036020526040902080546000190190555b6001600160a01b0385161561076b576001600160a01b0385166000908152600360205260409020805460010190555b60008481526002602052604080822080546001600160a01b0319166001600160a01b0389811691821790925591518793918516917fddf252ad1be2c89b69c2b068fc378daa952ba7f163c4a11628f55a4df523b3ef91a4949350505050565b6107d48133610dac565b50565b60006107e3838361054e565b6108635760008381526007602090815260408083206001600160a01b03861684529091529020805460ff1916600117905561081b3390565b6001600160a01b0316826001600160a01b0316847f2f8788117e7eff1d82e926ec794901d17c78024a50270940304540a733656f0d60405160405180910390a4506001610323565b506000610323565b6000610877838361054e565b156108635760008381526007602090815260408083206001600160a01b0386168085529252808320805460ff1916905551339286917ff6391f5c32d9c69d2a47ea670b442974b53935d1edc7fd64eb21e047a839171b9190a4506001610323565b6001600160a01b03821661090a57604051630b61174360e31b81526001600160a01b0383166004820152602401610419565b6001600160a01b03838116600081815260056020908152604080832094871680845294825291829020805460ff191686151590811790915591519182527f17307eab39ab6107e8899845ad3d59bd9653f200f220920489ca2b5937696c31910160405180910390a3505050565b6001600160a01b0383163b15610a9b57604051630a85bd0160e11b81526001600160a01b0384169063150b7a02906109b99088908890879087906004016114a3565b6020604051808303816000875af19250505080156109f4575060408051601f3d908101601f191682019092526109f1918101906114e0565b60015b610a5d573d808015610a22576040519150601f19603f3d011682016040523d82523d6000602084013e610a27565b606091505b508051600003610a5557604051633250574960e11b81526001600160a01b0385166004820152602401610419565b805160208201fd5b6001600160e01b03198116630a85bd0160e11b14610a9957604051633250574960e11b81526001600160a01b0385166004820152602401610419565b505b5050505050565b6060610aad8261068b565b5060008281526006602052604081208054610ac790611442565b80601f0160208091040260200160405190810160405280929190818152602001828054610af390611442565b8015610b405780601f10610b1557610100808354040283529160200191610b40565b820191906000526020600020905b815481529060010190602001808311610b2357829003601f168201915b505050505090506000610b5e60408051602081019091526000815290565b90508051600003610b70575092915050565b815115610ba2578082604051602001610b8a9291906114fd565b60405160208183030381529060405292505050919050565b610bab84610de5565b949350505050565b6103ef828260405180602001604052806000815250610e5a565b6000828152600660205260409020610be58282611573565b506040518281527ff8e1a15aba9398e019f0b49df1a4fde98ee17ae345cb5f6b5e2c27f5033e8ce79060200160405180910390a15050565b60006001600160e01b03198216632483248360e11b1480610323575061032382610e72565b8080610c5657506001600160a01b03821615155b15610d18576000610c668461068b565b90506001600160a01b03831615801590610c925750826001600160a01b0316816001600160a01b031614155b8015610ca55750610ca381846105db565b155b15610cce5760405163a9fbf51f60e01b81526001600160a01b0384166004820152602401610419565b8115610d165783856001600160a01b0316826001600160a01b03167f8c5be1e5ebec7d5bd14f71427d1e84f3dd0314c0f7b2291e5b200ac8c7c3b92560405160405180910390a45b505b5050600090815260046020526040902080546001600160a01b0319166001600160a01b0392909216919091179055565b610d53838383610ec2565b6104db576001600160a01b038316610d8157604051637e27328960e01b815260048101829052602401610419565b60405163177e802f60e01b81526001600160a01b038316600482015260248101829052604401610419565b610db6828261054e565b6103ef5760405163e2517d3f60e01b81526001600160a01b038216600482015260248101839052604401610419565b6060610df08261068b565b506000610e0860408051602081019091526000815290565b90506000815111610e285760405180602001604052806000815250610e53565b80610e3284610f25565b604051602001610e439291906114fd565b6040516020818303038152906040525b9392505050565b610e648383610fb8565b6104db336000858585610977565b60006001600160e01b031982166380ac58cd60e01b1480610ea357506001600160e01b03198216635b5e139f60e01b145b8061032357506301ffc9a760e01b6001600160e01b0319831614610323565b60006001600160a01b03831615801590610bab5750826001600160a01b0316846001600160a01b03161480610efc5750610efc84846105db565b80610bab5750506000908152600460205260409020546001600160a01b03908116911614919050565b60606000610f328361101d565b600101905060008167ffffffffffffffff811115610f5257610f526112aa565b6040519080825280601f01601f191660200182016040528015610f7c576020820181803683370190505b5090508181016020015b600019016f181899199a1a9b1b9c1cb0b131b232b360811b600a86061a8153600a8504945084610f8657509392505050565b6001600160a01b038216610fe257604051633250574960e11b815260006004820152602401610419565b6000610ff0838360006106d1565b90506001600160a01b038116156104db576040516339e3563760e11b815260006004820152602401610419565b60008072184f03e93ff9f4daa797ed6e38ed64bf6a1f0160401b831061105c5772184f03e93ff9f4daa797ed6e38ed64bf6a1f0160401b830492506040015b6d04ee2d6d415b85acef81000000008310611088576d04ee2d6d415b85acef8100000000830492506020015b662386f26fc1000083106110a657662386f26fc10000830492506010015b6305f5e10083106110be576305f5e100830492506008015b61271083106110d257612710830492506004015b606483106110e4576064830492506002015b600a83106103235760010192915050565b6001600160e01b0319811681146107d457600080fd5b60006020828403121561111d57600080fd5b8135610e53816110f5565b60005b8381101561114357818101518382015260200161112b565b50506000910152565b60008151808452611164816020860160208601611128565b601f01601f19169290920160200192915050565b602081526000610e53602083018461114c565b60006020828403121561119d57600080fd5b5035919050565b80356001600160a01b03811681146111bb57600080fd5b919050565b600080604083850312156111d357600080fd5b6111dc836111a4565b946020939093013593505050565b6000806000606084860312156111ff57600080fd5b611208846111a4565b9250611216602085016111a4565b929592945050506040919091013590565b6000806040838503121561123a57600080fd5b8235915061124a602084016111a4565b90509250929050565b60006020828403121561126557600080fd5b610e53826111a4565b6000806040838503121561128157600080fd5b61128a836111a4565b91506020830135801515811461129f57600080fd5b809150509250929050565b634e487b7160e01b600052604160045260246000fd5b60008067ffffffffffffffff8411156112db576112db6112aa565b50604051601f19601f85018116603f0116810181811067ffffffffffffffff8211171561130a5761130a6112aa565b60405283815290508082840185101561132257600080fd5b83836020830137600060208583010152509392505050565b6000806000806080858703121561135057600080fd5b611359856111a4565b9350611367602086016111a4565b925060408501359150606085013567ffffffffffffffff81111561138a57600080fd5b8501601f8101871361139b57600080fd5b6113aa878235602084016112c0565b91505092959194509250565b600080604083850312156113c957600080fd5b6113d2836111a4565b915061124a602084016111a4565b600080604083850312156113f357600080fd5b6113fc836111a4565b9150602083013567ffffffffffffffff81111561141857600080fd5b8301601f8101851361142957600080fd5b611438858235602084016112c0565b9150509250929050565b600181811c9082168061145657607f821691505b60208210810361147657634e487b7160e01b600052602260045260246000fd5b50919050565b60006001820161149c57634e487b7160e01b600052601160045260246000fd5b5060010190565b6001600160a01b03858116825284166020820152604081018390526080606082018190526000906114d69083018461114c565b9695505050505050565b6000602082840312156114f257600080fd5b8151610e53816110f5565b6000835161150f818460208801611128565b835190830190611523818360208801611128565b01949350505050565b601f8211156104db57806000526020600020601f840160051c810160208510156115535750805b601f840160051c820191505b81811015610a9b576000815560010161155f565b815167ffffffffffffffff81111561158d5761158d6112aa565b6115a18161159b8454611442565b8461152c565b6020601f8211600181146115d557600083156115bd5750848201515b600019600385901b1c1916600184901b178455610a9b565b600084815260208120601f198516915b8281101561160557878501518255602094850194600190920191016115e5565b50848210156116235786840151600019600387901b60f8161c191681555b50505050600190811b0190555056fea26469706673582212206cbae2c31b0ec2a6438c6d208036373dfdd8cfb8b4bdfd799144532c357171a064736f6c634300081c0033",
  "linkReferences": {},
  "deployedLinkReferences": {}
}