{
  "_format": "hh-sol-artifact-1",
  "contractName": "CarbonCreditRegistry",
  "sourceName": "contracts/CarbonCreditRegistry.sol",
  "abi": [
    {
      "inputs": [
        {
          "internalType": "contract CarbonCreditToken",
          "name": "_cct",
          "type": "address"
        },
        {
          "internalType": "contract GreenNFTCollection",
          "name": "_greenNFTCollection",
          "type": "address"
        }
      ],
      "stateMutability": "nonpayable",
      "type": "constructor"
    },
    {
      "inputs": [],
      "name": "AccessControlBadConfirmation",
      "type": "error"
    },
    {
      "inputs": [
        {
          "internalType": "address",
          "name": "account",
          "type": "address"
        },
        {
          "internalType": "bytes32",
          "name": "neededRole",
          "type": "bytes32"
        }
      ],
      "name": "AccessControlUnauthorizedAccount",
      "type": "error"
    },
    {
      "anonymous": false,
      "inputs": [
        {
          "indexed": true,
          "internalType": "address",
          "name": "auditor",
          "type": "address"
        }
      ],
      "name": "AuditorAdded",
      "type": "event"
    },
    {
      "anonymous": false,
      "inputs": [
        {
          "indexed": true,
          "internalType": "address",
          "name": "auditor",
          "type": "address"
        }
      ],
      "name": "AuditorRemoved",
      "type": "event"
    },
    {
      "anonymous": false,
      "inputs": [
        {
          "indexed": true,
          "internalType": "uint256",
          "name": "claimId",
          "type": "uint256"
        },
        {
          "indexed": false,
          "internalType": "uint256",
          "name": "tons",
          "type": "uint256"
        },
        {
          "indexed": false,
          "internalType": "uint256",
          "name": "batchTokenId",
          "type": "uint256"
        }
      ],
      "name": "ClaimAudited",
      "type": "event"
    },
    {
      "anonymous": false,
      "inputs": [
        {
          "indexed": true,
          "internalType": "uint256",
          "name": "claimId",
          "type": "uint256"
        }
      ],
      "name": "ClaimRejected",
      "type": "event"
    },
    {
      "anonymous": false,
      "inputs": [
        {
          "indexed": true,
          "internalType": "uint256",
          "name": "claimId",
          "type": "uint256"
        },
        {
          "indexed": false,
          "internalType": "uint256",
          "name": "projectId",
          "type": "uint256"
        },
        {
          "indexed": false,
          "internalType": "uint256",
          "name": "tons",
          "type": "uint256"
        }
      ],
      "name": "ClaimSubmitted",
      "type": "event"
    },
    {
      "anonymous": false,
      "inputs": [
        {
          "indexed": true,
          "internalType": "uint256",
          "name": "projectId",
          "type": "uint256"
        },
        {
          "indexed": false,
          "internalType": "address",
          "name": "owner",
          "type": "address"
        },
        {
          "indexed": false,
          "internalType": "string",
          "name": "name",
          "type": "string"
        }
      ],
      "name": "ProjectRegistered",
      "type": "event"
    },
    {
      "anonymous": false,
      "inputs": [
        {
          "indexed": true,
          "internalType": "bytes32",
          "name": "role",
          "type": "bytes32"
        },
        {
          "indexed": true,
          "internalType": "bytes32",
          "name": "previousAdminRole",
          "type": "bytes32"
        },
        {
          "indexed": true,
          "internalType": "bytes32",
          "name": "newAdminRole",
          "type": "bytes32"
        }
      ],
      "name": "RoleAdminChanged",
      "type": "event"
    },
    {
      "anonymous": false,
      "inputs": [
        {
          "indexed": true,
          "internalType": "bytes32",
          "name": "role",
          "type": "bytes32"
        },
        {
          "indexed": true,
          "internalType": "address",
          "name": "account",
          "type": "address"
        },
        {
          "indexed": true,
          "internalType": "address",
          "name": "sender",
          "type": "address"
        }
      ],
      "name": "RoleGranted",
      "type": "event"
    },
    {
      "anonymous": false,
      "inputs": [
        {
          "indexed": true,
          "internalType": "bytes32",
          "name": "role",
          "type": "bytes32"
        },
        {
          "indexed": true,
          "internalType": "address",
          "name": "account",
          "type": "address"
        },
        {
          "indexed": true,
          "internalType": "address",
          "name": "sender",
          "type": "address"
        }
      ],
      "name": "RoleRevoked",
      "type": "event"
    },
    {
      "inputs": [],
      "name": "AUDITOR_ROLE",
      "outputs": [
        {
          "internalType": "bytes32",
          "name": "",
          "type": "bytes32"
        }
      ],
      "stateMutability": "view",
      "type": "function"
    },
    {
      "inputs": [],
      "name": "DEFAULT_ADMIN_ROLE",
      "outputs": [
        {
          "internalType": "bytes32",
          "name": "",
          "type": "bytes32"
        }
      ],
      "stateMutability": "view",
      "type": "function"
    },
    {
      "inputs": [
        {
          "internalType": "address",
          "name": "auditor",
          "type": "address"
        }
      ],
      "name": "addAuditor",
      "outputs": [],
      "stateMutability": "nonpayable",
      "type": "function"
    },
    {
      "inputs": [
        {
          "internalType": "uint256",
          "name": "claimId",
          "type": "uint256"
        },
        {
          "internalType": "string",
          "name": "auditReportIPFS",
          "type": "string"
        }
      ],
      "name": "auditAndIssue",
      "outputs": [
        {
          "internalType": "uint256",
          "name": "batchTokenId",
          "type": "uint256"
        }
      ],
      "stateMutability": "nonpayable",
      "type": "function"
    },
    {
      "inputs": [
        {
          "internalType": "uint256",
          "name": "",
          "type": "uint256"
        }
      ],
      "name": "batchToClaimId",
      "outputs": [
        {
          "internalType": "uint256",
          "name": "",
          "type": "uint256"
        }
      ],
      "stateMutability": "view",
      "type": "function"
    },
    {
      "inputs": [],
      "name": "cct",
      "outputs": [
        {
          "internalType": "contract CarbonCreditToken",
          "name": "",
          "type": "address"
        }
      ],
      "stateMutability": "view",
      "type": "function"
    },
    {
      "inputs": [],
      "name": "claimIdCounter",
      "outputs": [
        {
          "internalType": "uint256",
          "name": "",
          "type": "uint256"
        }
      ],
      "stateMutability": "view",
      "type": "function"
    },
    {
      "inputs": [
        {
          "internalType": "uint256",
          "name": "",
          "type": "uint256"
        }
      ],
      "name": "claims",
      "outputs": [
        {
          "internalType": "uint256",
          "name": "projectId",
          "type": "uint256"
        },
        {
          "internalType": "uint256",
          "name": "reductionTons",
          "type": "uint256"
        },
        {
          "internalType": "uint256",
          "name": "periodStart",
          "type": "uint256"
        },
        {
          "internalType": "uint256",
          "name": "periodEnd",
          "type": "uint256"
        },
        {
          "internalType": "string",
          "name": "evidenceIPFS",
          "type": "string"
        },
        {
          "internalType": "enum CarbonCreditRegistry.Status",
          "name": "status",
          "type": "uint8"
        },
        {
          "internalType": "uint256",
          "name": "batchTokenId",
          "type": "uint256"
        }
      ],
      "stateMutability": "view",
      "type": "function"
    },
    {
      "inputs": [],
      "name": "getAllAuditors",
      "outputs": [
        {
          "internalType": "address[]",
          "name": "",
          "type": "address[]"
        }
      ],
      "stateMutability": "view",
      "type": "function"
    },
    {
      "inputs": [
        {
          "internalType": "address",
          "name": "owner",
          "type": "address"
        }
      ],
      "name": "getAuditedClaimsByOwner",
      "outputs": [
        {
          "internalType": "uint256[]",
          "name": "",
          "type": "uint256[]"
        }
      ],
      "stateMutability": "view",
      "type": "function"
    },
    {
      "inputs": [],
      "name": "getAuditorCount",
      "outputs": [
        {
          "internalType": "uint256",
          "name": "",
          "type": "uint256"
        }
      ],
      "stateMutability": "view",
      "type": "function"
    },
    {
      "inputs": [
        {
          "internalType": "uint256",
          "name": "claimId",
          "type": "uint256"
        }
      ],
      "name": "getClaim",
      "outputs": [
        {
          "components": [
            {
              "internalType": "uint256",
              "name": "projectId",
              "type": "uint256"
            },
            {
              "internalType": "uint256",
              "name": "reductionTons",
              "type": "uint256"
            },
            {
              "internalType": "uint256",
              "name": "periodStart",
              "type": "uint256"
            },
            {
              "internalType": "uint256",
              "name": "periodEnd",
              "type": "uint256"
            },
            {
              "internalType": "string",
              "name": "evidenceIPFS",
              "type": "string"
            },
            {
              "internalType": "enum CarbonCreditRegistry.Status",
              "name": "status",
              "type": "uint8"
            },
            {
              "internalType": "uint256",
              "name": "batchTokenId",
              "type": "uint256"
            }
          ],
          "internalType": "struct CarbonCreditRegistry.Claim",
          "name": "",
          "type": "tuple"
        }
      ],
      "stateMutability": "view",
      "type": "function"
    },
    {
      "inputs": [
        {
          "internalType": "uint256",
          "name": "projectId",
          "type": "uint256"
        }
      ],
      "name": "getClaimsByProject",
      "outputs": [
        {
          "internalType": "uint256[]",
          "name": "",
          "type": "uint256[]"
        }
      ],
      "stateMutability": "view",
      "type": "function"
    },
    {
      "inputs": [],
      "name": "getPendingClaims",
      "outputs": [
        {
          "internalType": "uint256[]",
          "name": "",
          "type": "uint256[]"
        }
      ],
      "stateMutability": "view",
      "type": "function"
    },
    {
      "inputs": [
        {
          "internalType": "uint256",
          "name": "projectId",
          "type": "uint256"
        }
      ],
      "name": "getProject",
      "outputs": [
        {
          "components": [
            {
              "internalType": "address",
              "name": "owner",
              "type": "address"
            },
            {
              "internalType": "string",
              "name": "name",
              "type": "string"
            },
            {
              "internalType": "uint256",
              "name": "baselineEmissions",
              "type": "uint256"
            }
          ],
          "internalType": "struct CarbonCreditRegistry.Project",
          "name": "",
          "type": "tuple"
        }
      ],
      "stateMutability": "view",
      "type": "function"
    },
    {
      "inputs": [
        {
          "internalType": "address",
          "name": "owner",
          "type": "address"
        }
      ],
      "name": "getProjectsByOwner",
      "outputs": [
        {
          "internalType": "uint256[]",
          "name": "",
          "type": "uint256[]"
        }
      ],
      "stateMutability": "view",
      "type": "function"
    },
    {
      "inputs": [
        {
          "internalType": "bytes32",
          "name": "role",
          "type": "bytes32"
        }
      ],
      "name": "getRoleAdmin",
      "outputs": [
        {
          "internalType": "bytes32",
          "name": "",
          "type": "bytes32"
        }
      ],
      "stateMutability": "view",
      "type": "function"
    },
    {
      "inputs": [
        {
          "internalType": "bytes32",
          "name": "role",
          "type": "bytes32"
        },
        {
          "internalType": "uint256",
          "name": "index",
          "type": "uint256"
        }
      ],
      "name": "getRoleMember",
      "outputs": [
        {
          "internalType": "address",
          "name": "",
          "type": "address"
        }
      ],
      "stateMutability": "view",
      "type": "function"
    },
    {
      "inputs": [
        {
          "internalType": "bytes32",
          "name": "role",
          "type": "bytes32"
        }
      ],
      "name": "getRoleMemberCount",
      "outputs": [
        {
          "internalType": "uint256",
          "name": "",
          "type": "uint256"
        }
      ],
      "stateMutability": "view",
      "type": "function"
    },
    {
      "inputs": [
        {
          "internalType": "bytes32",
          "name": "role",
          "type": "bytes32"
        }
      ],
      "name": "getRoleMembers",
      "outputs": [
        {
          "internalType": "address[]",
          "name": "",
          "type": "address[]"
        }
      ],
      "stateMutability": "view",
      "type": "function"
    },
    {
      "inputs": [
        {
          "internalType": "bytes32",
          "name": "role",
          "type": "bytes32"
        },
        {
          "internalType": "address",
          "name": "account",
          "type": "address"
        }
      ],
      "name": "grantRole",
      "outputs": [],
      "stateMutability": "nonpayable",
      "type": "function"
    },
    {
      "inputs": [],
      "name": "greenNFTCollection",
      "outputs": [
        {
          "internalType": "contract GreenNFTCollection",
          "name": "",
          "type": "address"
        }
      ],
      "stateMutability": "view",
      "type": "function"
    },
    {
      "inputs": [
        {
          "internalType": "bytes32",
          "name": "role",
          "type": "bytes32"
        },
        {
          "internalType": "address",
          "name": "account",
          "type": "address"
        }
      ],
      "name": "hasRole",
      "outputs": [
        {
          "internalType": "bool",
          "name": "",
          "type": "bool"
        }
      ],
      "stateMutability": "view",
      "type": "function"
    },
    {
      "inputs": [
        {
          "internalType": "address",
          "name": "account",
          "type": "address"
        }
      ],
      "name": "isAuditor",
      "outputs": [
        {
          "internalType": "bool",
          "name": "",
          "type": "bool"
        }
      ],
      "stateMutability": "view",
      "type": "function"
    },
    {
      "inputs": [],
      "name": "marketplace",
      "outputs": [
        {
          "internalType": "address",
          "name": "",
          "type": "address"
        }
      ],
      "stateMutability": "view",
      "type": "function"
    },
    {
      "inputs": [],
      "name": "projectIdCounter",
      "outputs": [
        {
          "internalType": "uint256",
          "name": "",
          "type": "uint256"
        }
      ],
      "stateMutability": "view",
      "type": "function"
    },
    {
      "inputs": [
        {
          "internalType": "uint256",
          "name": "",
          "type": "uint256"
        }
      ],
      "name": "projects",
      "outputs": [
        {
          "internalType": "address",
          "name": "owner",
          "type": "address"
        },
        {
          "internalType": "string",
          "name": "name",
          "type": "string"
        },
        {
          "internalType": "uint256",
          "name": "baselineEmissions",
          "type": "uint256"
        }
      ],
      "stateMutability": "view",
      "type": "function"
    },
    {
      "inputs": [
        {
          "internalType": "string",
          "name": "name",
          "type": "string"
        },
        {
          "internalType": "uint256",
          "name": "baselineEmissions",
          "type": "uint256"
        }
      ],
      "name": "registerProject",
      "outputs": [
        {
          "internalType": "uint256",
          "name": "",
          "type": "uint256"
        }
      ],
      "stateMutability": "nonpayable",
      "type": "function"
    },
    {
      "inputs": [
        {
          "internalType": "uint256",
          "name": "claimId",
          "type": "uint256"
        }
      ],
      "name": "rejectClaim",
      "outputs": [],
      "stateMutability": "nonpayable",
      "type": "function"
    },
    {
      "inputs": [
        {
          "internalType": "address",
          "name": "auditor",
          "type": "address"
        }
      ],
      "name": "removeAuditor",
      "outputs": [],
      "stateMutability": "nonpayable",
      "type": "function"
    },
    {
      "inputs": [
        {
          "internalType": "bytes32",
          "name": "role",
          "type": "bytes32"
        },
        {
          "internalType": "address",
          "name": "callerConfirmation",
          "type": "address"
        }
      ],
      "name": "renounceRole",
      "outputs": [],
      "stateMutability": "nonpayable",
      "type": "function"
    },
    {
      "inputs": [
        {
          "internalType": "bytes32",
          "name": "role",
          "type": "bytes32"
        },
        {
          "internalType": "address",
          "name": "account",
          "type": "address"
        }
      ],
      "name": "revokeRole",
      "outputs": [],
      "stateMutability": "nonpayable",
      "type": "function"
    },
    {
      "inputs": [
        {
          "internalType": "uint256",
          "name": "claimId",
          "type": "uint256"
        },
        {
          "internalType": "enum CarbonCreditRegistry.Status",
          "name": "newStatus",
          "type": "uint8"
        }
      ],
      "name": "setClaimStatus",
      "outputs": [],
      "stateMutability": "nonpayable",
      "type": "function"
    },
    {
      "inputs": [
        {
          "internalType": "address",
          "name": "_marketplace",
          "type": "address"
        }
      ],
      "name": "setMarketplace",
      "outputs": [],
      "stateMutability": "nonpayable",
      "type": "function"
    },
    {
      "inputs": [
        {
          "internalType": "uint256",
          "name": "projectId",
          "type": "uint256"
        },
        {
          "internalType": "uint256",
          "name": "reductionTons",
          "type": "uint256"
        },
        {
          "internalType": "uint256",
          "name": "periodStart",
          "type": "uint256"
        },
        {
          "internalType": "uint256",
          "name": "periodEnd",
          "type": "uint256"
        },
        {
          "internalType": "string",
          "name": "evidenceIPFS",
          "type": "string"
        }
      ],
      "name": "submitClaim",
      "outputs": [
        {
          "internalType": "uint256",
          "name": "",
          "type": "uint256"
        }
      ],
      "stateMutability": "nonpayable",
      "type": "function"
    },
    {
      "inputs": [
        {
          "internalType": "bytes4",
          "name": "interfaceId",
          "type": "bytes4"
        }
      ],
      "name": "supportsInterface",
      "outputs": [
        {
          "internalType": "bool",
          "name": "",
          "type": "bool"
        }
      ],
      "stateMutability": "view",
      "type": "function"
    }
  ],
  "bytecode": "0x608060405234801561001057600080fd5b50604051613fc0380380613fc0833981810160405281019061003291906104bf565b81600360006101000a81548173ffffffffffffffffffffffffffffffffffffffff021916908373ffffffffffffffffffffffffffffffffffffffff16021790555080600460006101000a81548173ffffffffffffffffffffffffffffffffffffffff021916908373ffffffffffffffffffffffffffffffffffffffff1602179055506100c76000801b3361010260201b60201c565b506100fb7f59a1c48e5837ad7a7f3dcedcbe129bf3249ec4fbf651fd4f5e2600ead39fe2f56000801b61014e60201b60201c565b50506104ff565b60008061011584846101af60201b60201c565b905080156101445761014283600160008781526020019081526020016000206102ac60201b90919060201c565b505b8091505092915050565b600061015f836102e260201b60201c565b905081600080858152602001908152602001600020600101819055508181847fbd79b86ffe0ab8e8776151514217cd7cacd52c909f66475c3af44e129f0b00ff60405160405180910390a4505050565b60006101c1838361030160201b60201c565b6102a157600160008085815260200190815260200160002060000160008473ffffffffffffffffffffffffffffffffffffffff1673ffffffffffffffffffffffffffffffffffffffff16815260200190815260200160002060006101000a81548160ff02191690831515021790555061023e61036b60201b60201c565b73ffffffffffffffffffffffffffffffffffffffff168273ffffffffffffffffffffffffffffffffffffffff16847f2f8788117e7eff1d82e926ec794901d17c78024a50270940304540a733656f0d60405160405180910390a4600190506102a6565b600090505b92915050565b60006102da836000018373ffffffffffffffffffffffffffffffffffffffff1660001b61037360201b60201c565b905092915050565b6000806000838152602001908152602001600020600101549050919050565b600080600084815260200190815260200160002060000160008373ffffffffffffffffffffffffffffffffffffffff1673ffffffffffffffffffffffffffffffffffffffff16815260200190815260200160002060009054906101000a900460ff16905092915050565b600033905090565b600061038583836103e960201b60201c565b6103de5782600001829080600181540180825580915050600190039060005260206000200160009091909190915055826000018054905083600101600084815260200190815260200160002081905550600190506103e3565b600090505b92915050565b600080836001016000848152602001908152602001600020541415905092915050565b600080fd5b600073ffffffffffffffffffffffffffffffffffffffff82169050919050565b600061043c82610411565b9050919050565b600061044e82610431565b9050919050565b61045e81610443565b811461046957600080fd5b50565b60008151905061047b81610455565b92915050565b600061048c82610431565b9050919050565b61049c81610481565b81146104a757600080fd5b50565b6000815190506104b981610493565b92915050565b600080604083850312156104d6576104d561040c565b5b60006104e48582860161046c565b92505060206104f5858286016104aa565b9150509250929050565b613ab28061050e6000396000f3fe608060405234801561001057600080fd5b506004361061021b5760003560e01c806379d0761811610125578063abc8c7af116100ad578063d5977b5e1161007c578063d5977b5e146106f2578063e429cef114610710578063e6116cfd1461072c578063f0f3f2c814610748578063f14e49ae146107785761021b565b8063abc8c7af14610658578063ca15c87314610676578063d52f3303146106a6578063d547741f146106d65761021b565b80639d9cc2fe116100f45780639d9cc2fe146105745780639e9ceda6146105a4578063a217fddf146105d4578063a3246ad3146105f2578063a888c2cd146106225761021b565b806379d07618146104c65780639010d07c146104f657806391d148541461052657806393867519146105565761021b565b806336568abe116101a857806352738d9a1161017757806352738d9a146104205780635a05ee581461043e5780635aef24471461045c5780636e1d616e1461048c57806373ad6c2d146104aa5761021b565b806336568abe1461038657806349b90557146103a25780634dcbb8ee146103d257806350716815146103f05761021b565b806320341101116101ef57806320341101146102d0578063248a9ca3146102ec5780632f2ff15d1461031c57806333e3507214610338578063355c8042146103685761021b565b80628179701461022057806301ffc9a71461023e578063107046bd1461026e5780631410b909146102a0575b600080fd5b610228610794565b604051610235919061289b565b60405180910390f35b6102586004803603810190610253919061291f565b610912565b6040516102659190612967565b60405180910390f35b610288600480360381019061028391906129ae565b61098c565b60405161029793929190612abb565b60405180910390f35b6102ba60048036038101906102b59190612b5e565b610a5e565b6040516102c79190612bbe565b60405180910390f35b6102ea60048036038101906102e591906129ae565b610bb1565b005b61030660048036038101906103019190612c0f565b610cc9565b6040516103139190612c4b565b60405180910390f35b61033660048036038101906103319190612c92565b610ce8565b005b610352600480360381019061034d9190612cd2565b610d0a565b60405161035f9190612bbe565b60405180910390f35b610370610f2a565b60405161037d9190612bbe565b60405180910390f35b6103a0600480360381019061039b9190612c92565b610f30565b005b6103bc60048036038101906103b79190612d6c565b610fab565b6040516103c99190612967565b60405180910390f35b6103da610fde565b6040516103e79190612e57565b60405180910390f35b61040a600480360381019061040591906129ae565b6110f2565b604051610417919061289b565b60405180910390f35b61042861120e565b6040516104359190612bbe565b60405180910390f35b61044661123e565b6040516104539190612ed8565b60405180910390f35b610476600480360381019061047191906129ae565b611264565b6040516104839190613050565b60405180910390f35b610494611390565b6040516104a19190612c4b565b60405180910390f35b6104c460048036038101906104bf9190612d6c565b6113b4565b005b6104e060048036038101906104db9190613072565b611406565b6040516104ed9190612bbe565b60405180910390f35b610510600480360381019061050b91906130d2565b611726565b60405161051d9190613112565b60405180910390f35b610540600480360381019061053b9190612c92565b611755565b60405161054d9190612967565b60405180910390f35b61055e6117bf565b60405161056b919061314e565b60405180910390f35b61058e60048036038101906105899190612d6c565b6117e5565b60405161059b919061289b565b60405180910390f35b6105be60048036038101906105b99190612d6c565b611999565b6040516105cb919061289b565b60405180910390f35b6105dc611c25565b6040516105e99190612c4b565b60405180910390f35b61060c60048036038101906106079190612c0f565b611c2c565b6040516106199190612e57565b60405180910390f35b61063c600480360381019061063791906129ae565b611c50565b60405161064f9796959493929190613178565b60405180910390f35b610660611d27565b60405161066d9190613112565b60405180910390f35b610690600480360381019061068b9190612c0f565b611d4d565b60405161069d9190612bbe565b60405180910390f35b6106c060048036038101906106bb91906129ae565b611d71565b6040516106cd9190612bbe565b60405180910390f35b6106f060048036038101906106eb9190612c92565b611d89565b005b6106fa611dab565b6040516107079190612bbe565b60405180910390f35b61072a60048036038101906107259190612d6c565b611db1565b005b61074660048036038101906107419190612d6c565b611e2f565b005b610762600480360381019061075d91906129ae565b611ead565b60405161076f919061323e565b60405180910390f35b610792600480360381019061078d9190613285565b611fcc565b005b6060600080600190505b600654811161081857600060058111156107bb576107ba612f3d565b5b6008600083815260200190815260200160002060050160009054906101000a900460ff1660058111156107f1576107f0612f3d565b5b03610805578180610801906132f4565b9250505b8080610810906132f4565b91505061079e565b5060008167ffffffffffffffff8111156108355761083461333c565b5b6040519080825280602002602001820160405280156108635781602001602082028036833780820191505090505b509050600080600190505b6006548111610908576000600581111561088b5761088a612f3d565b5b6008600083815260200190815260200160002060050160009054906101000a900460ff1660058111156108c1576108c0612f3d565b5b036108f557808383815181106108da576108d961336b565b5b60200260200101818152505081806108f1906132f4565b9250505b8080610900906132f4565b91505061086e565b5081935050505090565b60007f5a05180f000000000000000000000000000000000000000000000000000000007bffffffffffffffffffffffffffffffffffffffffffffffffffffffff1916827bffffffffffffffffffffffffffffffffffffffffffffffffffffffff1916148061098557506109848261209e565b5b9050919050565b60076020528060005260406000206000915090508060000160009054906101000a900473ffffffffffffffffffffffffffffffffffffffff16908060010180546109d5906133c9565b80601f0160208091040260200160405190810160405280929190818152602001828054610a01906133c9565b8015610a4e5780601f10610a2357610100808354040283529160200191610a4e565b820191906000526020600020905b815481529060010190602001808311610a3157829003601f168201915b5050505050908060020154905083565b600080600560008154610a70906132f4565b919050819055905060405180606001604052803373ffffffffffffffffffffffffffffffffffffffff16815260200186868080601f016020809104026020016040519081016040528093929190818152602001838380828437600081840152601f19601f820116905080830192505050505050508152602001848152506007600083815260200190815260200160002060008201518160000160006101000a81548173ffffffffffffffffffffffffffffffffffffffff021916908373ffffffffffffffffffffffffffffffffffffffff1602179055506020820151816001019081610b5c919061359c565b5060408201518160020155905050807f1fb4423aed62bba3e66f7c81a4af273642c7e8c57d7b111ae2b1aca9887869ba338787604051610b9e939291906136aa565b60405180910390a2809150509392505050565b7f59a1c48e5837ad7a7f3dcedcbe129bf3249ec4fbf651fd4f5e2600ead39fe2f5610bdb81612118565b600060086000848152602001908152602001600020905060006005811115610c0657610c05612f3d565b5b8160050160009054906101000a900460ff166005811115610c2a57610c29612f3d565b5b14610c6a576040517f08c379a0000000000000000000000000000000000000000000000000000000008152600401610c6190613728565b60405180910390fd5b60028160050160006101000a81548160ff02191690836005811115610c9257610c91612f3d565b5b0217905550827f2aa44a1bb19392ef6a2fd220d2b1649a6dc1bebbfa2a6f2c496e2d39a3339d0e60405160405180910390a2505050565b6000806000838152602001908152602001600020600101549050919050565b610cf182610cc9565b610cfa81612118565b610d04838361212c565b50505050565b60003373ffffffffffffffffffffffffffffffffffffffff166007600089815260200190815260200160002060000160009054906101000a900473ffffffffffffffffffffffffffffffffffffffff1673ffffffffffffffffffffffffffffffffffffffff1614610db0576040517f08c379a0000000000000000000000000000000000000000000000000000000008152600401610da790613794565b60405180910390fd5b6000600660008154610dc1906132f4565b91905081905590506040518060e0016040528089815260200188815260200187815260200186815260200185858080601f016020809104026020016040519081016040528093929190818152602001838380828437600081840152601f19601f82011690508083019250505050505050815260200160006005811115610e4a57610e49612f3d565b5b8152602001600081525060086000838152602001908152602001600020600082015181600001556020820151816001015560408201518160020155606082015181600301556080820151816004019081610ea4919061359c565b5060a08201518160050160006101000a81548160ff02191690836005811115610ed057610ecf612f3d565b5b021790555060c08201518160060155905050807fcf394f7701f2b1dae6f328cbc70c1f155122b124431f95bbf4a483bba68545558989604051610f149291906137b4565b60405180910390a2809150509695505050505050565b60065481565b610f38612172565b73ffffffffffffffffffffffffffffffffffffffff168173ffffffffffffffffffffffffffffffffffffffff1614610f9c576040517f6697b23200000000000000000000000000000000000000000000000000000000815260040160405180910390fd5b610fa6828261217a565b505050565b6000610fd77f59a1c48e5837ad7a7f3dcedcbe129bf3249ec4fbf651fd4f5e2600ead39fe2f583611755565b9050919050565b6060600061100b7f59a1c48e5837ad7a7f3dcedcbe129bf3249ec4fbf651fd4f5e2600ead39fe2f5611d4d565b905060008167ffffffffffffffff8111156110295761102861333c565b5b6040519080825280602002602001820160405280156110575781602001602082028036833780820191505090505b50905060005b828110156110e95761108f7f59a1c48e5837ad7a7f3dcedcbe129bf3249ec4fbf651fd4f5e2600ead39fe2f582611726565b8282815181106110a2576110a161336b565b5b602002602001019073ffffffffffffffffffffffffffffffffffffffff16908173ffffffffffffffffffffffffffffffffffffffff1681525050808060010191505061105d565b50809250505090565b6060600080600190505b6006548111611144578360086000838152602001908152602001600020600001540361113157818061112d906132f4565b9250505b808061113c906132f4565b9150506110fc565b5060008167ffffffffffffffff8111156111615761116061333c565b5b60405190808252806020026020018201604052801561118f5781602001602082028036833780820191505090505b509050600080600190505b600654811161120257856008600083815260200190815260200160002060000154036111ef57808383815181106111d4576111d361336b565b5b60200260200101818152505081806111eb906132f4565b9250505b80806111fa906132f4565b91505061119a565b50819350505050919050565b60006112397f59a1c48e5837ad7a7f3dcedcbe129bf3249ec4fbf651fd4f5e2600ead39fe2f5611d4d565b905090565b600360009054906101000a900473ffffffffffffffffffffffffffffffffffffffff1681565b61126c61274d565b600860008381526020019081526020016000206040518060e0016040529081600082015481526020016001820154815260200160028201548152602001600382015481526020016004820180546112c2906133c9565b80601f01602080910402602001604051908101604052809291908181526020018280546112ee906133c9565b801561133b5780601f106113105761010080835404028352916020019161133b565b820191906000526020600020905b81548152906001019060200180831161131e57829003601f168201915b505050505081526020016005820160009054906101000a900460ff16600581111561136957611368612f3d565b5b600581111561137b5761137a612f3d565b5b81526020016006820154815250509050919050565b7f59a1c48e5837ad7a7f3dcedcbe129bf3249ec4fbf651fd4f5e2600ead39fe2f581565b6000801b6113c181612118565b81600260006101000a81548173ffffffffffffffffffffffffffffffffffffffff021916908373ffffffffffffffffffffffffffffffffffffffff1602179055505050565b60007f59a1c48e5837ad7a7f3dcedcbe129bf3249ec4fbf651fd4f5e2600ead39fe2f561143281612118565b60006008600087815260200190815260200160002090506000600581111561145d5761145c612f3d565b5b8160050160009054906101000a900460ff16600581111561148157611480612f3d565b5b146114c1576040517f08c379a00000000000000000000000000000000000000000000000000000000081526004016114b890613829565b60405180910390fd5b60018160050160006101000a81548160ff021916908360058111156114e9576114e8612f3d565b5b0217905550600085856040516020016115039291906138c5565b6040516020818303038152906040529050600460009054906101000a900473ffffffffffffffffffffffffffffffffffffffff1673ffffffffffffffffffffffffffffffffffffffff1663fbcb79d6600760008560000154815260200190815260200160002060000160009054906101000a900473ffffffffffffffffffffffffffffffffffffffff16836040518363ffffffff1660e01b81526004016115ab9291906138e9565b6020604051808303816000875af11580156115ca573d6000803e3d6000fd5b505050506040513d601f19601f820116820180604052508101906115ee919061392e565b9350838260060181905550866009600086815260200190815260200160002081905550600360009054906101000a900473ffffffffffffffffffffffffffffffffffffffff1673ffffffffffffffffffffffffffffffffffffffff166340c10f19600760008560000154815260200190815260200160002060000160009054906101000a900473ffffffffffffffffffffffffffffffffffffffff1684600101546040518363ffffffff1660e01b81526004016116ac92919061395b565b600060405180830381600087803b1580156116c657600080fd5b505af11580156116da573d6000803e3d6000fd5b50505050867f5c8110bf73de1212893cd67941bff65b60303985c439da8d26e64313095281f88360010154866040516117149291906137b4565b60405180910390a25050509392505050565b600061174d82600160008681526020019081526020016000206121c090919063ffffffff16565b905092915050565b600080600084815260200190815260200160002060000160008373ffffffffffffffffffffffffffffffffffffffff1673ffffffffffffffffffffffffffffffffffffffff16815260200190815260200160002060009054906101000a900460ff16905092915050565b600460009054906101000a900473ffffffffffffffffffffffffffffffffffffffff1681565b6060600080600190505b6005548111611883578373ffffffffffffffffffffffffffffffffffffffff166007600083815260200190815260200160002060000160009054906101000a900473ffffffffffffffffffffffffffffffffffffffff1673ffffffffffffffffffffffffffffffffffffffff160361187057818061186c906132f4565b9250505b808061187b906132f4565b9150506117ef565b5060008167ffffffffffffffff8111156118a05761189f61333c565b5b6040519080825280602002602001820160405280156118ce5781602001602082028036833780820191505090505b509050600080600190505b600554811161198d578573ffffffffffffffffffffffffffffffffffffffff166007600083815260200190815260200160002060000160009054906101000a900473ffffffffffffffffffffffffffffffffffffffff1673ffffffffffffffffffffffffffffffffffffffff160361197a578083838151811061195f5761195e61336b565b5b6020026020010181815250508180611976906132f4565b9250505b8080611985906132f4565b9150506118d9565b50819350505050919050565b6060600080600190505b6006548111611aa357600160058111156119c0576119bf612f3d565b5b6008600083815260200190815260200160002060050160009054906101000a900460ff1660058111156119f6576119f5612f3d565b5b03611a90576000600860008381526020019081526020016000206000015490508473ffffffffffffffffffffffffffffffffffffffff166007600083815260200190815260200160002060000160009054906101000a900473ffffffffffffffffffffffffffffffffffffffff1673ffffffffffffffffffffffffffffffffffffffff1603611a8e578280611a8a906132f4565b9350505b505b8080611a9b906132f4565b9150506119a3565b5060008167ffffffffffffffff811115611ac057611abf61333c565b5b604051908082528060200260200182016040528015611aee5781602001602082028036833780820191505090505b509050600080600190505b6006548111611c195760016005811115611b1657611b15612f3d565b5b6008600083815260200190815260200160002060050160009054906101000a900460ff166005811115611b4c57611b4b612f3d565b5b03611c06576000600860008381526020019081526020016000206000015490508673ffffffffffffffffffffffffffffffffffffffff166007600083815260200190815260200160002060000160009054906101000a900473ffffffffffffffffffffffffffffffffffffffff1673ffffffffffffffffffffffffffffffffffffffff1603611c045781848481518110611be957611be861336b565b5b6020026020010181815250508280611c00906132f4565b9350505b505b8080611c11906132f4565b915050611af9565b50819350505050919050565b6000801b81565b6060611c49600160008481526020019081526020016000206121da565b9050919050565b6008602052806000526040600020600091509050806000015490806001015490806002015490806003015490806004018054611c8b906133c9565b80601f0160208091040260200160405190810160405280929190818152602001828054611cb7906133c9565b8015611d045780601f10611cd957610100808354040283529160200191611d04565b820191906000526020600020905b815481529060010190602001808311611ce757829003601f168201915b5050505050908060050160009054906101000a900460ff16908060060154905087565b600260009054906101000a900473ffffffffffffffffffffffffffffffffffffffff1681565b6000611d6a600160008481526020019081526020016000206121fb565b9050919050565b60096020528060005260406000206000915090505481565b611d9282610cc9565b611d9b81612118565b611da5838361217a565b50505050565b60055481565b6000801b611dbe81612118565b611de87f59a1c48e5837ad7a7f3dcedcbe129bf3249ec4fbf651fd4f5e2600ead39fe2f583610ce8565b8173ffffffffffffffffffffffffffffffffffffffff167f2c31044378cc14466459f09320dd4057d7ad6e99b194c0800c78227383a2529660405160405180910390a25050565b6000801b611e3c81612118565b611e667f59a1c48e5837ad7a7f3dcedcbe129bf3249ec4fbf651fd4f5e2600ead39fe2f583611d89565b8173ffffffffffffffffffffffffffffffffffffffff167fd3e803f2dfdacd206b7d19aa46d847206386d84e3dc6b8de0926e54affa6fddc60405160405180910390a25050565b611eb561279c565b600760008381526020019081526020016000206040518060600160405290816000820160009054906101000a900473ffffffffffffffffffffffffffffffffffffffff1673ffffffffffffffffffffffffffffffffffffffff1673ffffffffffffffffffffffffffffffffffffffff168152602001600182018054611f39906133c9565b80601f0160208091040260200160405190810160405280929190818152602001828054611f65906133c9565b8015611fb25780601f10611f8757610100808354040283529160200191611fb2565b820191906000526020600020905b815481529060010190602001808311611f9557829003601f168201915b505050505081526020016002820154815250509050919050565b600260009054906101000a900473ffffffffffffffffffffffffffffffffffffffff1673ffffffffffffffffffffffffffffffffffffffff163373ffffffffffffffffffffffffffffffffffffffff161461205c576040517f08c379a0000000000000000000000000000000000000000000000000000000008152600401612053906139d0565b60405180910390fd5b806008600084815260200190815260200160002060050160006101000a81548160ff0219169083600581111561209557612094612f3d565b5b02179055505050565b60007f7965db0b000000000000000000000000000000000000000000000000000000007bffffffffffffffffffffffffffffffffffffffffffffffffffffffff1916827bffffffffffffffffffffffffffffffffffffffffffffffffffffffff19161480612111575061211082612210565b5b9050919050565b61212981612124612172565b61227a565b50565b60008061213984846122cb565b905080156121685761216683600160008781526020019081526020016000206123bc90919063ffffffff16565b505b8091505092915050565b600033905090565b60008061218784846123ec565b905080156121b6576121b483600160008781526020019081526020016000206124de90919063ffffffff16565b505b8091505092915050565b60006121cf836000018361250e565b60001c905092915050565b606060006121ea83600001612539565b905060608190508092505050919050565b600061220982600001612595565b9050919050565b60007f01ffc9a7000000000000000000000000000000000000000000000000000000007bffffffffffffffffffffffffffffffffffffffffffffffffffffffff1916827bffffffffffffffffffffffffffffffffffffffffffffffffffffffff1916149050919050565b6122848282611755565b6122c75780826040517fe2517d3f0000000000000000000000000000000000000000000000000000000081526004016122be9291906139f0565b60405180910390fd5b5050565b60006122d78383611755565b6123b157600160008085815260200190815260200160002060000160008473ffffffffffffffffffffffffffffffffffffffff1673ffffffffffffffffffffffffffffffffffffffff16815260200190815260200160002060006101000a81548160ff02191690831515021790555061234e612172565b73ffffffffffffffffffffffffffffffffffffffff168273ffffffffffffffffffffffffffffffffffffffff16847f2f8788117e7eff1d82e926ec794901d17c78024a50270940304540a733656f0d60405160405180910390a4600190506123b6565b600090505b92915050565b60006123e4836000018373ffffffffffffffffffffffffffffffffffffffff1660001b6125a6565b905092915050565b60006123f88383611755565b156124d357600080600085815260200190815260200160002060000160008473ffffffffffffffffffffffffffffffffffffffff1673ffffffffffffffffffffffffffffffffffffffff16815260200190815260200160002060006101000a81548160ff021916908315150217905550612470612172565b73ffffffffffffffffffffffffffffffffffffffff168273ffffffffffffffffffffffffffffffffffffffff16847ff6391f5c32d9c69d2a47ea670b442974b53935d1edc7fd64eb21e047a839171b60405160405180910390a4600190506124d8565b600090505b92915050565b6000612506836000018373ffffffffffffffffffffffffffffffffffffffff1660001b612616565b905092915050565b60008260000182815481106125265761252561336b565b5b9060005260206000200154905092915050565b60608160000180548060200260200160405190810160405280929190818152602001828054801561258957602002820191906000526020600020905b815481526020019060010190808311612575575b50505050509050919050565b600081600001805490509050919050565b60006125b2838361272a565b61260b578260000182908060018154018082558091505060019003906000526020600020016000909190919091505582600001805490508360010160008481526020019081526020016000208190555060019050612610565b600090505b92915050565b6000808360010160008481526020019081526020016000205490506000811461271e5760006001826126489190613a19565b90506000600186600001805490506126609190613a19565b90508082146126cf5760008660000182815481106126815761268061336b565b5b90600052602060002001549050808760000184815481106126a5576126a461336b565b5b90600052602060002001819055508387600101600083815260200190815260200160002081905550505b856000018054806126e3576126e2613a4d565b5b600190038181906000526020600020016000905590558560010160008681526020019081526020016000206000905560019350505050612724565b60009150505b92915050565b600080836001016000848152602001908152602001600020541415905092915050565b6040518060e0016040528060008152602001600081526020016000815260200160008152602001606081526020016000600581111561278f5761278e612f3d565b5b8152602001600081525090565b6040518060600160405280600073ffffffffffffffffffffffffffffffffffffffff16815260200160608152602001600081525090565b600081519050919050565b600082825260208201905092915050565b6000819050602082019050919050565b6000819050919050565b612812816127ff565b82525050565b60006128248383612809565b60208301905092915050565b6000602082019050919050565b6000612848826127d3565b61285281856127de565b935061285d836127ef565b8060005b8381101561288e5781516128758882612818565b975061288083612830565b925050600181019050612861565b5085935050505092915050565b600060208201905081810360008301526128b5818461283d565b905092915050565b600080fd5b600080fd5b60007fffffffff0000000000000000000000000000000000000000000000000000000082169050919050565b6128fc816128c7565b811461290757600080fd5b50565b600081359050612919816128f3565b92915050565b600060208284031215612935576129346128bd565b5b60006129438482850161290a565b91505092915050565b60008115159050919050565b6129618161294c565b82525050565b600060208201905061297c6000830184612958565b92915050565b61298b816127ff565b811461299657600080fd5b50565b6000813590506129a881612982565b92915050565b6000602082840312156129c4576129c36128bd565b5b60006129d284828501612999565b91505092915050565b600073ffffffffffffffffffffffffffffffffffffffff82169050919050565b6000612a06826129db565b9050919050565b612a16816129fb565b82525050565b600081519050919050565b600082825260208201905092915050565b60005b83811015612a56578082015181840152602081019050612a3b565b60008484015250505050565b6000601f19601f8301169050919050565b6000612a7e82612a1c565b612a888185612a27565b9350612a98818560208601612a38565b612aa181612a62565b840191505092915050565b612ab5816127ff565b82525050565b6000606082019050612ad06000830186612a0d565b8181036020830152612ae28185612a73565b9050612af16040830184612aac565b949350505050565b600080fd5b600080fd5b600080fd5b60008083601f840112612b1e57612b1d612af9565b5b8235905067ffffffffffffffff811115612b3b57612b3a612afe565b5b602083019150836001820283011115612b5757612b56612b03565b5b9250929050565b600080600060408486031215612b7757612b766128bd565b5b600084013567ffffffffffffffff811115612b9557612b946128c2565b5b612ba186828701612b08565b93509350506020612bb486828701612999565b9150509250925092565b6000602082019050612bd36000830184612aac565b92915050565b6000819050919050565b612bec81612bd9565b8114612bf757600080fd5b50565b600081359050612c0981612be3565b92915050565b600060208284031215612c2557612c246128bd565b5b6000612c3384828501612bfa565b91505092915050565b612c4581612bd9565b82525050565b6000602082019050612c606000830184612c3c565b92915050565b612c6f816129fb565b8114612c7a57600080fd5b50565b600081359050612c8c81612c66565b92915050565b60008060408385031215612ca957612ca86128bd565b5b6000612cb785828601612bfa565b9250506020612cc885828601612c7d565b9150509250929050565b60008060008060008060a08789031215612cef57612cee6128bd565b5b6000612cfd89828a01612999565b9650506020612d0e89828a01612999565b9550506040612d1f89828a01612999565b9450506060612d3089828a01612999565b935050608087013567ffffffffffffffff811115612d5157612d506128c2565b5b612d5d89828a01612b08565b92509250509295509295509295565b600060208284031215612d8257612d816128bd565b5b6000612d9084828501612c7d565b91505092915050565b600081519050919050565b600082825260208201905092915050565b6000819050602082019050919050565b612dce816129fb565b82525050565b6000612de08383612dc5565b60208301905092915050565b6000602082019050919050565b6000612e0482612d99565b612e0e8185612da4565b9350612e1983612db5565b8060005b83811015612e4a578151612e318882612dd4565b9750612e3c83612dec565b925050600181019050612e1d565b5085935050505092915050565b60006020820190508181036000830152612e718184612df9565b905092915050565b6000819050919050565b6000612e9e612e99612e94846129db565b612e79565b6129db565b9050919050565b6000612eb082612e83565b9050919050565b6000612ec282612ea5565b9050919050565b612ed281612eb7565b82525050565b6000602082019050612eed6000830184612ec9565b92915050565b600082825260208201905092915050565b6000612f0f82612a1c565b612f198185612ef3565b9350612f29818560208601612a38565b612f3281612a62565b840191505092915050565b7f4e487b7100000000000000000000000000000000000000000000000000000000600052602160045260246000fd5b60068110612f7d57612f7c612f3d565b5b50565b6000819050612f8e82612f6c565b919050565b6000612f9e82612f80565b9050919050565b612fae81612f93565b82525050565b600060e083016000830151612fcc6000860182612809565b506020830151612fdf6020860182612809565b506040830151612ff26040860182612809565b5060608301516130056060860182612809565b506080830151848203608086015261301d8282612f04565b91505060a083015161303260a0860182612fa5565b5060c083015161304560c0860182612809565b508091505092915050565b6000602082019050818103600083015261306a8184612fb4565b905092915050565b60008060006040848603121561308b5761308a6128bd565b5b600061309986828701612999565b935050602084013567ffffffffffffffff8111156130ba576130b96128c2565b5b6130c686828701612b08565b92509250509250925092565b600080604083850312156130e9576130e86128bd565b5b60006130f785828601612bfa565b925050602061310885828601612999565b9150509250929050565b60006020820190506131276000830184612a0d565b92915050565b600061313882612ea5565b9050919050565b6131488161312d565b82525050565b6000602082019050613163600083018461313f565b92915050565b61317281612f93565b82525050565b600060e08201905061318d600083018a612aac565b61319a6020830189612aac565b6131a76040830188612aac565b6131b46060830187612aac565b81810360808301526131c68186612a73565b90506131d560a0830185613169565b6131e260c0830184612aac565b98975050505050505050565b60006060830160008301516132066000860182612dc5565b506020830151848203602086015261321e8282612f04565b91505060408301516132336040860182612809565b508091505092915050565b6000602082019050818103600083015261325881846131ee565b905092915050565b6006811061326d57600080fd5b50565b60008135905061327f81613260565b92915050565b6000806040838503121561329c5761329b6128bd565b5b60006132aa85828601612999565b92505060206132bb85828601613270565b9150509250929050565b7f4e487b7100000000000000000000000000000000000000000000000000000000600052601160045260246000fd5b60006132ff826127ff565b91507fffffffffffffffffffffffffffffffffffffffffffffffffffffffffffffffff8203613331576133306132c5565b5b600182019050919050565b7f4e487b7100000000000000000000000000000000000000000000000000000000600052604160045260246000fd5b7f4e487b7100000000000000000000000000000000000000000000000000000000600052603260045260246000fd5b7f4e487b7100000000000000000000000000000000000000000000000000000000600052602260045260246000fd5b600060028204905060018216806133e157607f821691505b6020821081036133f4576133f361339a565b5b50919050565b60008190508160005260206000209050919050565b60006020601f8301049050919050565b600082821b905092915050565b60006008830261345c7fffffffffffffffffffffffffffffffffffffffffffffffffffffffffffffffff8261341f565b613466868361341f565b95508019841693508086168417925050509392505050565b600061349961349461348f846127ff565b612e79565b6127ff565b9050919050565b6000819050919050565b6134b38361347e565b6134c76134bf826134a0565b84845461342c565b825550505050565b600090565b6134dc6134cf565b6134e78184846134aa565b505050565b5b8181101561350b576135006000826134d4565b6001810190506134ed565b5050565b601f82111561355057613521816133fa565b61352a8461340f565b81016020851015613539578190505b61354d6135458561340f565b8301826134ec565b50505b505050565b600082821c905092915050565b600061357360001984600802613555565b1980831691505092915050565b600061358c8383613562565b9150826002028217905092915050565b6135a582612a1c565b67ffffffffffffffff8111156135be576135bd61333c565b5b6135c882546133c9565b6135d382828561350f565b600060209050601f83116001811461360657600084156135f4578287015190505b6135fe8582613580565b865550613666565b601f198416613614866133fa565b60005b8281101561363c57848901518255600182019150602085019450602081019050613617565b868310156136595784890151613655601f891682613562565b8355505b6001600288020188555050505b505050505050565b82818337600083830152505050565b60006136898385612a27565b935061369683858461366e565b61369f83612a62565b840190509392505050565b60006040820190506136bf6000830186612a0d565b81810360208301526136d281848661367d565b9050949350505050565b7f4e6f742070656e64696e67000000000000000000000000000000000000000000600082015250565b6000613712600b83612a27565b915061371d826136dc565b602082019050919050565b6000602082019050818103600083015261374181613705565b9050919050565b7f4e6f742070726f6a656374206f776e6572000000000000000000000000000000600082015250565b600061377e601183612a27565b915061378982613748565b602082019050919050565b600060208201905081810360008301526137ad81613771565b9050919050565b60006040820190506137c96000830185612aac565b6137d66020830184612aac565b9392505050565b7f496e76616c696420737461747573000000000000000000000000000000000000600082015250565b6000613813600e83612a27565b915061381e826137dd565b602082019050919050565b6000602082019050818103600083015261384281613806565b9050919050565b600081905092915050565b7f697066733a2f2f00000000000000000000000000000000000000000000000000600082015250565b600061388a600783613849565b915061389582613854565b600782019050919050565b60006138ac8385613849565b93506138b983858461366e565b82840190509392505050565b60006138d08261387d565b91506138dd8284866138a0565b91508190509392505050565b60006040820190506138fe6000830185612a0d565b81810360208301526139108184612a73565b90509392505050565b60008151905061392881612982565b92915050565b600060208284031215613944576139436128bd565b5b600061395284828501613919565b91505092915050565b60006040820190506139706000830185612a0d565b61397d6020830184612aac565b9392505050565b7f4e6f74206d61726b6574706c6163650000000000000000000000000000000000600082015250565b60006139ba600f83612a27565b91506139c582613984565b602082019050919050565b600060208201905081810360008301526139e9816139ad565b9050919050565b6000604082019050613a056000830185612a0d565b613a126020830184612c3c565b9392505050565b6000613a24826127ff565b9150613a2f836127ff565b9250828203905081811115613a4757613a466132c5565b5b92915050565b7f4e487b7100000000000000000000000000000000000000000000000000000000600052603160045260246000fdfea2646970667358221220b2b0594f9ef3d3ed4c95b112fab538769c53b2084832362a906d76567603e8ad64736f6c634300081c0033",
  "linkReferences": {},
  "deployedLinkReferences": {}
}