{
  "_format": "hh-sol-artifact-1",
  "contractName": "CarbonCreditRegistry",
  "sourceName": "contracts/CarbonCreditRegistry.sol",
  "abi": [
    {
      "inputs": [
        {
          "internalType": "contract CarbonCreditToken",
          "name": "_cct",
          "type": "address"
        },
        {
          "internalType": "contract GreenNFTCollection",
          "name": "_greenNFTCollection",
          "type": "address"
        }
      ],
      "stateMutability": "nonpayable",
      "type": "constructor"
    },
    {
      "inputs": [],
      "name": "AccessControlBadConfirmation",
      "type": "error"
    },
    {
      "inputs": [
        {
          "internalType": "address",
          "name": "account",
          "type": "address"
        },
        {
          "internalType": "bytes32",
          "name": "neededRole",
          "type": "bytes32"
        }
      ],
      "name": "AccessControlUnauthorizedAccount",
      "type": "error"
    },
    {
      "anonymous": false,
      "inputs": [
        {
          "indexed": true,
          "internalType": "address",
          "name": "auditor",
          "type": "address"
        }
      ],
      "name": "AuditorAdded",
      "type": "event"
    },
    {
      "anonymous": false,
      "inputs": [
        {
          "indexed": true,
          "internalType": "address",
          "name": "auditor",
          "type": "address"
        }
      ],
      "name": "AuditorRemoved",
      "type": "event"
    },
    {
      "anonymous": false,
      "inputs": [
        {
          "indexed": true,
          "internalType": "uint256",
          "name": "claimId",
          "type": "uint256"
        },
        {
          "indexed": false,
          "internalType": "uint256",
          "name": "tons",
          "type": "uint256"
        },
        {
          "indexed": false,
          "internalType": "uint256",
          "name": "batchTokenId",
          "type": "uint256"
        }
      ],
      "name": "ClaimAudited",
      "type": "event"
    },
    {
      "anonymous": false,
      "inputs": [
        {
          "indexed": true,
          "internalType": "uint256",
          "name": "claimId",
          "type": "uint256"
        }
      ],
      "name": "ClaimRejected",
      "type": "event"
    },
    {
      "anonymous": false,
      "inputs": [
        {
          "indexed": true,
          "internalType": "uint256",
          "name": "claimId",
          "type": "uint256"
        },
        {
          "indexed": false,
          "internalType": "uint256",
          "name": "projectId",
          "type": "uint256"
        },
        {
          "indexed": false,
          "internalType": "uint256",
          "name": "tons",
          "type": "uint256"
        }
      ],
      "name": "ClaimSubmitted",
      "type": "event"
    },
    {
      "anonymous": false,
      "inputs": [
        {
          "indexed": true,
          "internalType": "uint256",
          "name": "projectId",
          "type": "uint256"
        },
        {
          "indexed": false,
          "internalType": "address",
          "name": "owner",
          "type": "address"
        },
        {
          "indexed": false,
          "internalType": "string",
          "name": "name",
          "type": "string"
        }
      ],
      "name": "ProjectRegistered",
      "type": "event"
    },
    {
      "anonymous": false,
      "inputs": [
        {
          "indexed": true,
          "internalType": "bytes32",
          "name": "role",
          "type": "bytes32"
        },
        {
          "indexed": true,
          "internalType": "bytes32",
          "name": "previousAdminRole",
          "type": "bytes32"
        },
        {
          "indexed": true,
          "internalType": "bytes32",
          "name": "newAdminRole",
          "type": "bytes32"
        }
      ],
      "name": "RoleAdminChanged",
      "type": "event"
    },
    {
      "anonymous": false,
      "inputs": [
        {
          "indexed": true,
          "internalType": "bytes32",
          "name": "role",
          "type": "bytes32"
        },
        {
          "indexed": true,
          "internalType": "address",
          "name": "account",
          "type": "address"
        },
        {
          "indexed": true,
          "internalType": "address",
          "name": "sender",
          "type": "address"
        }
      ],
      "name": "RoleGranted",
      "type": "event"
    },
    {
      "anonymous": false,
      "inputs": [
        {
          "indexed": true,
          "internalType": "bytes32",
          "name": "role",
          "type": "bytes32"
        },
        {
          "indexed": true,
          "internalType": "address",
          "name": "account",
          "type": "address"
        },
        {
          "indexed": true,
          "internalType": "address",
          "name": "sender",
          "type": "address"
        }
      ],
      "name": "RoleRevoked",
      "type": "event"
    },
    {
      "inputs": [],
      "name": "AUDITOR_ROLE",
      "outputs": [
        {
          "internalType": "bytes32",
          "name": "",
          "type": "bytes32"
        }
      ],
      "stateMutability": "view",
      "type": "function"
    },
    {
      "inputs": [],
      "name": "DEFAULT_ADMIN_ROLE",
      "outputs": [
        {
          "internalType": "bytes32",
          "name": "",
          "type": "bytes32"
        }
      ],
      "stateMutability": "view",
      "type": "function"
    },
    {
      "inputs": [
        {
          "internalType": "address",
          "name": "auditor",
          "type": "address"
        }
      ],
      "name": "addAuditor",
      "outputs": [],
      "stateMutability": "nonpayable",
      "type": "function"
    },
    {
      "inputs": [
        {
          "internalType": "uint256",
          "name": "claimId",
          "type": "uint256"
        },
        {
          "internalType": "string",
          "name": "auditReportIPFS",
          "type": "string"
        }
      ],
      "name": "auditAndIssue",
      "outputs": [
        {
          "internalType": "uint256",
          "name": "batchTokenId",
          "type": "uint256"
        }
      ],
      "stateMutability": "nonpayable",
      "type": "function"
    },
    {
      "inputs": [
        {
          "internalType": "uint256",
          "name": "",
          "type": "uint256"
        }
      ],
      "name": "batchToClaimId",
      "outputs": [
        {
          "internalType": "uint256",
          "name": "",
          "type": "uint256"
        }
      ],
      "stateMutability": "view",
      "type": "function"
    },
    {
      "inputs": [],
      "name": "cct",
      "outputs": [
        {
          "internalType": "contract CarbonCreditToken",
          "name": "",
          "type": "address"
        }
      ],
      "stateMutability": "view",
      "type": "function"
    },
    {
      "inputs": [],
      "name": "claimIdCounter",
      "outputs": [
        {
          "internalType": "uint256",
          "name": "",
          "type": "uint256"
        }
      ],
      "stateMutability": "view",
      "type": "function"
    },
    {
      "inputs": [
        {
          "internalType": "uint256",
          "name": "",
          "type": "uint256"
        }
      ],
      "name": "claims",
      "outputs": [
        {
          "internalType": "uint256",
          "name": "projectId",
          "type": "uint256"
        },
        {
          "internalType": "uint256",
          "name": "reductionTons",
          "type": "uint256"
        },
        {
          "internalType": "uint256",
          "name": "periodStart",
          "type": "uint256"
        },
        {
          "internalType": "uint256",
          "name": "periodEnd",
          "type": "uint256"
        },
        {
          "internalType": "string",
          "name": "evidenceIPFS",
          "type": "string"
        },
        {
          "internalType": "enum CarbonCreditRegistry.Status",
          "name": "status",
          "type": "uint8"
        },
        {
          "internalType": "uint256",
          "name": "batchTokenId",
          "type": "uint256"
        }
      ],
      "stateMutability": "view",
      "type": "function"
    },
    {
      "inputs": [],
      "name": "getAllAuditors",
      "outputs": [
        {
          "internalType": "address[]",
          "name": "",
          "type": "address[]"
        }
      ],
      "stateMutability": "view",
      "type": "function"
    },
    {
      "inputs": [
        {
          "internalType": "address",
          "name": "owner",
          "type": "address"
        }
      ],
      "name": "getAuditedClaimsByOwner",
      "outputs": [
        {
          "internalType": "uint256[]",
          "name": "",
          "type": "uint256[]"
        }
      ],
      "stateMutability": "view",
      "type": "function"
    },
    {
      "inputs": [],
      "name": "getAuditorCount",
      "outputs": [
        {
          "internalType": "uint256",
          "name": "",
          "type": "uint256"
        }
      ],
      "stateMutability": "view",
      "type": "function"
    },
    {
      "inputs": [
        {
          "internalType": "uint256",
          "name": "claimId",
          "type": "uint256"
        }
      ],
      "name": "getClaim",
      "outputs": [
        {
          "components": [
            {
              "internalType": "uint256",
              "name": "projectId",
              "type": "uint256"
            },
            {
              "internalType": "uint256",
              "name": "reductionTons",
              "type": "uint256"
            },
            {
              "internalType": "uint256",
              "name": "periodStart",
              "type": "uint256"
            },
            {
              "internalType": "uint256",
              "name": "periodEnd",
              "type": "uint256"
            },
            {
              "internalType": "string",
              "name": "evidenceIPFS",
              "type": "string"
            },
            {
              "internalType": "enum CarbonCreditRegistry.Status",
              "name": "status",
              "type": "uint8"
            },
            {
              "internalType": "uint256",
              "name": "batchTokenId",
              "type": "uint256"
            }
          ],
          "internalType": "struct CarbonCreditRegistry.Claim",
          "name": "",
          "type": "tuple"
        }
      ],
      "stateMutability": "view",
      "type": "function"
    },
    {
      "inputs": [
        {
          "internalType": "uint256",
          "name": "projectId",
          "type": "uint256"
        }
      ],
      "name": "getClaimsByProject",
      "outputs": [
        {
          "internalType": "uint256[]",
          "name": "",
          "type": "uint256[]"
        }
      ],
      "stateMutability": "view",
      "type": "function"
    },
    {
      "inputs": [],
      "name": "getPendingClaims",
      "outputs": [
        {
          "internalType": "uint256[]",
          "name": "",
          "type": "uint256[]"
        }
      ],
      "stateMutability": "view",
      "type": "function"
    },
    {
      "inputs": [
        {
          "internalType": "uint256",
          "name": "projectId",
          "type": "uint256"
        }
      ],
      "name": "getProject",
      "outputs": [
        {
          "components": [
            {
              "internalType": "address",
              "name": "owner",
              "type": "address"
            },
            {
              "internalType": "string",
              "name": "name",
              "type": "string"
            },
            {
              "internalType": "uint256",
              "name": "baselineEmissions",
              "type": "uint256"
            }
          ],
          "internalType": "struct CarbonCreditRegistry.Project",
          "name": "",
          "type": "tuple"
        }
      ],
      "stateMutability": "view",
      "type": "function"
    },
    {
      "inputs": [
        {
          "internalType": "address",
          "name": "owner",
          "type": "address"
        }
      ],
      "name": "getProjectsByOwner",
      "outputs": [
        {
          "internalType": "uint256[]",
          "name": "",
          "type": "uint256[]"
        }
      ],
      "stateMutability": "view",
      "type": "function"
    },
    {
      "inputs": [
        {
          "internalType": "bytes32",
          "name": "role",
          "type": "bytes32"
        }
      ],
      "name": "getRoleAdmin",
      "outputs": [
        {
          "internalType": "bytes32",
          "name": "",
          "type": "bytes32"
        }
      ],
      "stateMutability": "view",
      "type": "function"
    },
    {
      "inputs": [
        {
          "internalType": "bytes32",
          "name": "role",
          "type": "bytes32"
        },
        {
          "internalType": "uint256",
          "name": "index",
          "type": "uint256"
        }
      ],
      "name": "getRoleMember",
      "outputs": [
        {
          "internalType": "address",
          "name": "",
          "type": "address"
        }
      ],
      "stateMutability": "view",
      "type": "function"
    },
    {
      "inputs": [
        {
          "internalType": "bytes32",
          "name": "role",
          "type": "bytes32"
        }
      ],
      "name": "getRoleMemberCount",
      "outputs": [
        {
          "internalType": "uint256",
          "name": "",
          "type": "uint256"
        }
      ],
      "stateMutability": "view",
      "type": "function"
    },
    {
      "inputs": [
        {
          "internalType": "bytes32",
          "name": "role",
          "type": "bytes32"
        }
      ],
      "name": "getRoleMembers",
      "outputs": [
        {
          "internalType": "address[]",
          "name": "",
          "type": "address[]"
        }
      ],
      "stateMutability": "view",
      "type": "function"
    },
    {
      "inputs": [
        {
          "internalType": "bytes32",
          "name": "role",
          "type": "bytes32"
        },
        {
          "internalType": "address",
          "name": "account",
          "type": "address"
        }
      ],
      "name": "grantRole",
      "outputs": [],
      "stateMutability": "nonpayable",
      "type": "function"
    },
    {
      "inputs": [],
      "name": "greenNFTCollection",
      "outputs": [
        {
          "internalType": "contract GreenNFTCollection",
          "name": "",
          "type": "address"
        }
      ],
      "stateMutability": "view",
      "type": "function"
    },
    {
      "inputs": [
        {
          "internalType": "bytes32",
          "name": "role",
          "type": "bytes32"
        },
        {
          "internalType": "address",
          "name": "account",
          "type": "address"
        }
      ],
      "name": "hasRole",
      "outputs": [
        {
          "internalType": "bool",
          "name": "",
          "type": "bool"
        }
      ],
      "stateMutability": "view",
      "type": "function"
    },
    {
      "inputs": [
        {
          "internalType": "address",
          "name": "account",
          "type": "address"
        }
      ],
      "name": "isAuditor",
      "outputs": [
        {
          "internalType": "bool",
          "name": "",
          "type": "bool"
        }
      ],
      "stateMutability": "view",
      "type": "function"
    },
    {
      "inputs": [],
      "name": "marketplace",
      "outputs": [
        {
          "internalType": "address",
          "name": "",
          "type": "address"
        }
      ],
      "stateMutability": "view",
      "type": "function"
    },
    {
      "inputs": [],
      "name": "projectIdCounter",
      "outputs": [
        {
          "internalType": "uint256",
          "name": "",
          "type": "uint256"
        }
      ],
      "stateMutability": "view",
      "type": "function"
    },
    {
      "inputs": [
        {
          "internalType": "uint256",
          "name": "",
          "type": "uint256"
        }
      ],
      "name": "projects",
      "outputs": [
        {
          "internalType": "address",
          "name": "owner",
          "type": "address"
        },
        {
          "internalType": "string",
          "name": "name",
          "type": "string"
        },
        {
          "internalType": "uint256",
          "name": "baselineEmissions",
          "type": "uint256"
        }
      ],
      "stateMutability": "view",
      "type": "function"
    },
    {
      "inputs": [
        {
          "internalType": "string",
          "name": "name",
          "type": "string"
        },
        {
          "internalType": "uint256",
          "name": "baselineEmissions",
          "type": "uint256"
        }
      ],
      "name": "registerProject",
      "outputs": [
        {
          "internalType": "uint256",
          "name": "",
          "type": "uint256"
        }
      ],
      "stateMutability": "nonpayable",
      "type": "function"
    },
    {
      "inputs": [
        {
          "internalType": "uint256",
          "name": "claimId",
          "type": "uint256"
        }
      ],
      "name": "rejectClaim",
      "outputs": [],
      "stateMutability": "nonpayable",
      "type": "function"
    },
    {
      "inputs": [
        {
          "internalType": "address",
          "name": "auditor",
          "type": "address"
        }
      ],
      "name": "removeAuditor",
      "outputs": [],
      "stateMutability": "nonpayable",
      "type": "function"
    },
    {
      "inputs": [
        {
          "internalType": "bytes32",
          "name": "role",
          "type": "bytes32"
        },
        {
          "internalType": "address",
          "name": "callerConfirmation",
          "type": "address"
        }
      ],
      "name": "renounceRole",
      "outputs": [],
      "stateMutability": "nonpayable",
      "type": "function"
    },
    {
      "inputs": [
        {
          "internalType": "bytes32",
          "name": "role",
          "type": "bytes32"
        },
        {
          "internalType": "address",
          "name": "account",
          "type": "address"
        }
      ],
      "name": "revokeRole",
      "outputs": [],
      "stateMutability": "nonpayable",
      "type": "function"
    },
    {
      "inputs": [
        {
          "internalType": "uint256",
          "name": "claimId",
          "type": "uint256"
        },
        {
          "internalType": "enum CarbonCreditRegistry.Status",
          "name": "newStatus",
          "type": "uint8"
        }
      ],
      "name": "setClaimStatus",
      "outputs": [],
      "stateMutability": "nonpayable",
      "type": "function"
    },
    {
      "inputs": [
        {
          "internalType": "address",
          "name": "_marketplace",
          "type": "address"
        }
      ],
      "name": "setMarketplace",
      "outputs": [],
      "stateMutability": "nonpayable",
      "type": "function"
    },
    {
      "inputs": [
        {
          "internalType": "uint256",
          "name": "projectId",
          "type": "uint256"
        },
        {
          "internalType": "uint256",
          "name": "reductionTons",
          "type": "uint256"
        },
        {
          "internalType": "uint256",
          "name": "periodStart",
          "type": "uint256"
        },
        {
          "internalType": "uint256",
          "name": "periodEnd",
          "type": "uint256"
        },
        {
          "internalType": "string",
          "name": "evidenceIPFS",
          "type": "string"
        }
      ],
      "name": "submitClaim",
      "outputs": [
        {
          "internalType": "uint256",
          "name": "",
          "type": "uint256"
        }
      ],
      "stateMutability": "nonpayable",
      "type": "function"
    },
    {
      "inputs": [
        {
          "internalType": "bytes4",
          "name": "interfaceId",
          "type": "bytes4"
        }
      ],
      "name": "supportsInterface",
      "outputs": [
        {
          "internalType": "bool",
          "name": "",
          "type": "bool"
        }
      ],
      "stateMutability": "view",
      "type": "function"
    }
  ],
  "bytecode": "0x608060405234801561001057600080fd5b50604051614015380380614015833981810160405281019061003291906104bf565b81600360006101000a81548173ffffffffffffffffffffffffffffffffffffffff021916908373ffffffffffffffffffffffffffffffffffffffff16021790555080600460006101000a81548173ffffffffffffffffffffffffffffffffffffffff021916908373ffffffffffffffffffffffffffffffffffffffff1602179055506100c76000801b3361010260201b60201c565b506100fb7f59a1c48e5837ad7a7f3dcedcbe129bf3249ec4fbf651fd4f5e2600ead39fe2f56000801b61014e60201b60201c565b50506104ff565b60008061011584846101af60201b60201c565b905080156101445761014283600160008781526020019081526020016000206102ac60201b90919060201c565b505b8091505092915050565b600061015f836102e260201b60201c565b905081600080858152602001908152602001600020600101819055508181847fbd79b86ffe0ab8e8776151514217cd7cacd52c909f66475c3af44e129f0b00ff60405160405180910390a4505050565b60006101c1838361030160201b60201c565b6102a157600160008085815260200190815260200160002060000160008473ffffffffffffffffffffffffffffffffffffffff1673ffffffffffffffffffffffffffffffffffffffff16815260200190815260200160002060006101000a81548160ff02191690831515021790555061023e61036b60201b60201c565b73ffffffffffffffffffffffffffffffffffffffff168273ffffffffffffffffffffffffffffffffffffffff16847f2f8788117e7eff1d82e926ec794901d17c78024a50270940304540a733656f0d60405160405180910390a4600190506102a6565b600090505b92915050565b60006102da836000018373ffffffffffffffffffffffffffffffffffffffff1660001b61037360201b60201c565b905092915050565b6000806000838152602001908152602001600020600101549050919050565b600080600084815260200190815260200160002060000160008373ffffffffffffffffffffffffffffffffffffffff1673ffffffffffffffffffffffffffffffffffffffff16815260200190815260200160002060009054906101000a900460ff16905092915050565b600033905090565b600061038583836103e960201b60201c565b6103de5782600001829080600181540180825580915050600190039060005260206000200160009091909190915055826000018054905083600101600084815260200190815260200160002081905550600190506103e3565b600090505b92915050565b600080836001016000848152602001908152602001600020541415905092915050565b600080fd5b600073ffffffffffffffffffffffffffffffffffffffff82169050919050565b600061043c82610411565b9050919050565b600061044e82610431565b9050919050565b61045e81610443565b811461046957600080fd5b50565b60008151905061047b81610455565b92915050565b600061048c82610431565b9050919050565b61049c81610481565b81146104a757600080fd5b50565b6000815190506104b981610493565b92915050565b600080604083850312156104d6576104d561040c565b5b60006104e48582860161046c565b92505060206104f5858286016104aa565b9150509250929050565b613b078061050e6000396000f3fe608060405234801561001057600080fd5b506004361061021b5760003560e01c806379d0761811610125578063abc8c7af116100ad578063d5977b5e1161007c578063d5977b5e146106f2578063e429cef114610710578063e6116cfd1461072c578063f0f3f2c814610748578063f14e49ae146107785761021b565b8063abc8c7af14610658578063ca15c87314610676578063d52f3303146106a6578063d547741f146106d65761021b565b80639d9cc2fe116100f45780639d9cc2fe146105745780639e9ceda6146105a4578063a217fddf146105d4578063a3246ad3146105f2578063a888c2cd146106225761021b565b806379d07618146104c65780639010d07c146104f657806391d148541461052657806393867519146105565761021b565b806336568abe116101a857806352738d9a1161017757806352738d9a146104205780635a05ee581461043e5780635aef24471461045c5780636e1d616e1461048c57806373ad6c2d146104aa5761021b565b806336568abe1461038657806349b90557146103a25780634dcbb8ee146103d257806350716815146103f05761021b565b806320341101116101ef57806320341101146102d0578063248a9ca3146102ec5780632f2ff15d1461031c57806333e3507214610338578063355c8042146103685761021b565b80628179701461022057806301ffc9a71461023e578063107046bd1461026e5780631410b909146102a0575b600080fd5b610228610794565b60405161023591906128ae565b60405180910390f35b61025860048036038101906102539190612932565b610912565b604051610265919061297a565b60405180910390f35b610288600480360381019061028391906129c1565b61098c565b60405161029793929190612ace565b60405180910390f35b6102ba60048036038101906102b59190612b71565b610a5e565b6040516102c79190612bd1565b60405180910390f35b6102ea60048036038101906102e591906129c1565b610bb1565b005b61030660048036038101906103019190612c22565b610cc9565b6040516103139190612c5e565b60405180910390f35b61033660048036038101906103319190612ca5565b610ce8565b005b610352600480360381019061034d9190612ce5565b610d0a565b60405161035f9190612bd1565b60405180910390f35b610370610f2a565b60405161037d9190612bd1565b60405180910390f35b6103a0600480360381019061039b9190612ca5565b610f30565b005b6103bc60048036038101906103b79190612d7f565b610fab565b6040516103c9919061297a565b60405180910390f35b6103da610fde565b6040516103e79190612e6a565b60405180910390f35b61040a600480360381019061040591906129c1565b6110f2565b60405161041791906128ae565b60405180910390f35b61042861120e565b6040516104359190612bd1565b60405180910390f35b61044661123e565b6040516104539190612eeb565b60405180910390f35b610476600480360381019061047191906129c1565b611264565b6040516104839190613063565b60405180910390f35b610494611390565b6040516104a19190612c5e565b60405180910390f35b6104c460048036038101906104bf9190612d7f565b6113b4565b005b6104e060048036038101906104db9190613085565b611406565b6040516104ed9190612bd1565b60405180910390f35b610510600480360381019061050b91906130e5565b611739565b60405161051d9190613125565b60405180910390f35b610540600480360381019061053b9190612ca5565b611768565b60405161054d919061297a565b60405180910390f35b61055e6117d2565b60405161056b9190613161565b60405180910390f35b61058e60048036038101906105899190612d7f565b6117f8565b60405161059b91906128ae565b60405180910390f35b6105be60048036038101906105b99190612d7f565b6119ac565b6040516105cb91906128ae565b60405180910390f35b6105dc611c38565b6040516105e99190612c5e565b60405180910390f35b61060c60048036038101906106079190612c22565b611c3f565b6040516106199190612e6a565b60405180910390f35b61063c600480360381019061063791906129c1565b611c63565b60405161064f979695949392919061318b565b60405180910390f35b610660611d3a565b60405161066d9190613125565b60405180910390f35b610690600480360381019061068b9190612c22565b611d60565b60405161069d9190612bd1565b60405180910390f35b6106c060048036038101906106bb91906129c1565b611d84565b6040516106cd9190612bd1565b60405180910390f35b6106f060048036038101906106eb9190612ca5565b611d9c565b005b6106fa611dbe565b6040516107079190612bd1565b60405180910390f35b61072a60048036038101906107259190612d7f565b611dc4565b005b61074660048036038101906107419190612d7f565b611e42565b005b610762600480360381019061075d91906129c1565b611ec0565b60405161076f9190613251565b60405180910390f35b610792600480360381019061078d9190613298565b611fdf565b005b6060600080600190505b600654811161081857600060058111156107bb576107ba612f50565b5b6008600083815260200190815260200160002060050160009054906101000a900460ff1660058111156107f1576107f0612f50565b5b0361080557818061080190613307565b9250505b808061081090613307565b91505061079e565b5060008167ffffffffffffffff8111156108355761083461334f565b5b6040519080825280602002602001820160405280156108635781602001602082028036833780820191505090505b509050600080600190505b6006548111610908576000600581111561088b5761088a612f50565b5b6008600083815260200190815260200160002060050160009054906101000a900460ff1660058111156108c1576108c0612f50565b5b036108f557808383815181106108da576108d961337e565b5b60200260200101818152505081806108f190613307565b9250505b808061090090613307565b91505061086e565b5081935050505090565b60007f5a05180f000000000000000000000000000000000000000000000000000000007bffffffffffffffffffffffffffffffffffffffffffffffffffffffff1916827bffffffffffffffffffffffffffffffffffffffffffffffffffffffff191614806109855750610984826120b1565b5b9050919050565b60076020528060005260406000206000915090508060000160009054906101000a900473ffffffffffffffffffffffffffffffffffffffff16908060010180546109d5906133dc565b80601f0160208091040260200160405190810160405280929190818152602001828054610a01906133dc565b8015610a4e5780601f10610a2357610100808354040283529160200191610a4e565b820191906000526020600020905b815481529060010190602001808311610a3157829003601f168201915b5050505050908060020154905083565b600080600560008154610a7090613307565b919050819055905060405180606001604052803373ffffffffffffffffffffffffffffffffffffffff16815260200186868080601f016020809104026020016040519081016040528093929190818152602001838380828437600081840152601f19601f820116905080830192505050505050508152602001848152506007600083815260200190815260200160002060008201518160000160006101000a81548173ffffffffffffffffffffffffffffffffffffffff021916908373ffffffffffffffffffffffffffffffffffffffff1602179055506020820151816001019081610b5c91906135af565b5060408201518160020155905050807f1fb4423aed62bba3e66f7c81a4af273642c7e8c57d7b111ae2b1aca9887869ba338787604051610b9e939291906136bd565b60405180910390a2809150509392505050565b7f59a1c48e5837ad7a7f3dcedcbe129bf3249ec4fbf651fd4f5e2600ead39fe2f5610bdb8161212b565b600060086000848152602001908152602001600020905060006005811115610c0657610c05612f50565b5b8160050160009054906101000a900460ff166005811115610c2a57610c29612f50565b5b14610c6a576040517f08c379a0000000000000000000000000000000000000000000000000000000008152600401610c619061373b565b60405180910390fd5b60028160050160006101000a81548160ff02191690836005811115610c9257610c91612f50565b5b0217905550827f2aa44a1bb19392ef6a2fd220d2b1649a6dc1bebbfa2a6f2c496e2d39a3339d0e60405160405180910390a2505050565b6000806000838152602001908152602001600020600101549050919050565b610cf182610cc9565b610cfa8161212b565b610d04838361213f565b50505050565b60003373ffffffffffffffffffffffffffffffffffffffff166007600089815260200190815260200160002060000160009054906101000a900473ffffffffffffffffffffffffffffffffffffffff1673ffffffffffffffffffffffffffffffffffffffff1614610db0576040517f08c379a0000000000000000000000000000000000000000000000000000000008152600401610da7906137a7565b60405180910390fd5b6000600660008154610dc190613307565b91905081905590506040518060e0016040528089815260200188815260200187815260200186815260200185858080601f016020809104026020016040519081016040528093929190818152602001838380828437600081840152601f19601f82011690508083019250505050505050815260200160006005811115610e4a57610e49612f50565b5b8152602001600081525060086000838152602001908152602001600020600082015181600001556020820151816001015560408201518160020155606082015181600301556080820151816004019081610ea491906135af565b5060a08201518160050160006101000a81548160ff02191690836005811115610ed057610ecf612f50565b5b021790555060c08201518160060155905050807fcf394f7701f2b1dae6f328cbc70c1f155122b124431f95bbf4a483bba68545558989604051610f149291906137c7565b60405180910390a2809150509695505050505050565b60065481565b610f38612185565b73ffffffffffffffffffffffffffffffffffffffff168173ffffffffffffffffffffffffffffffffffffffff1614610f9c576040517f6697b23200000000000000000000000000000000000000000000000000000000815260040160405180910390fd5b610fa6828261218d565b505050565b6000610fd77f59a1c48e5837ad7a7f3dcedcbe129bf3249ec4fbf651fd4f5e2600ead39fe2f583611768565b9050919050565b6060600061100b7f59a1c48e5837ad7a7f3dcedcbe129bf3249ec4fbf651fd4f5e2600ead39fe2f5611d60565b905060008167ffffffffffffffff8111156110295761102861334f565b5b6040519080825280602002602001820160405280156110575781602001602082028036833780820191505090505b50905060005b828110156110e95761108f7f59a1c48e5837ad7a7f3dcedcbe129bf3249ec4fbf651fd4f5e2600ead39fe2f582611739565b8282815181106110a2576110a161337e565b5b602002602001019073ffffffffffffffffffffffffffffffffffffffff16908173ffffffffffffffffffffffffffffffffffffffff1681525050808060010191505061105d565b50809250505090565b6060600080600190505b6006548111611144578360086000838152602001908152602001600020600001540361113157818061112d90613307565b9250505b808061113c90613307565b9150506110fc565b5060008167ffffffffffffffff8111156111615761116061334f565b5b60405190808252806020026020018201604052801561118f5781602001602082028036833780820191505090505b509050600080600190505b600654811161120257856008600083815260200190815260200160002060000154036111ef57808383815181106111d4576111d361337e565b5b60200260200101818152505081806111eb90613307565b9250505b80806111fa90613307565b91505061119a565b50819350505050919050565b60006112397f59a1c48e5837ad7a7f3dcedcbe129bf3249ec4fbf651fd4f5e2600ead39fe2f5611d60565b905090565b600360009054906101000a900473ffffffffffffffffffffffffffffffffffffffff1681565b61126c612760565b600860008381526020019081526020016000206040518060e0016040529081600082015481526020016001820154815260200160028201548152602001600382015481526020016004820180546112c2906133dc565b80601f01602080910402602001604051908101604052809291908181526020018280546112ee906133dc565b801561133b5780601f106113105761010080835404028352916020019161133b565b820191906000526020600020905b81548152906001019060200180831161131e57829003601f168201915b505050505081526020016005820160009054906101000a900460ff16600581111561136957611368612f50565b5b600581111561137b5761137a612f50565b5b81526020016006820154815250509050919050565b7f59a1c48e5837ad7a7f3dcedcbe129bf3249ec4fbf651fd4f5e2600ead39fe2f581565b6000801b6113c18161212b565b81600260006101000a81548173ffffffffffffffffffffffffffffffffffffffff021916908373ffffffffffffffffffffffffffffffffffffffff1602179055505050565b60007f59a1c48e5837ad7a7f3dcedcbe129bf3249ec4fbf651fd4f5e2600ead39fe2f56114328161212b565b60006008600087815260200190815260200160002090506000600581111561145d5761145c612f50565b5b8160050160009054906101000a900460ff16600581111561148157611480612f50565b5b146114c1576040517f08c379a00000000000000000000000000000000000000000000000000000000081526004016114b89061383c565b60405180910390fd5b60018160050160006101000a81548160ff021916908360058111156114e9576114e8612f50565b5b0217905550600085856040516020016115039291906138d8565b6040516020818303038152906040529050600460009054906101000a900473ffffffffffffffffffffffffffffffffffffffff1673ffffffffffffffffffffffffffffffffffffffff1663fbcb79d6600760008560000154815260200190815260200160002060000160009054906101000a900473ffffffffffffffffffffffffffffffffffffffff16836040518363ffffffff1660e01b81526004016115ab9291906138fc565b6020604051808303816000875af11580156115ca573d6000803e3d6000fd5b505050506040513d601f19601f820116820180604052508101906115ee9190613941565b9350838260060181905550866009600086815260200190815260200160002081905550600360009054906101000a900473ffffffffffffffffffffffffffffffffffffffff1673ffffffffffffffffffffffffffffffffffffffff166340c10f19600760008560000154815260200190815260200160002060000160009054906101000a900473ffffffffffffffffffffffffffffffffffffffff16670de0b6b3a764000085600101546116a2919061396e565b6040518363ffffffff1660e01b81526004016116bf9291906139b0565b600060405180830381600087803b1580156116d957600080fd5b505af11580156116ed573d6000803e3d6000fd5b50505050867f5c8110bf73de1212893cd67941bff65b60303985c439da8d26e64313095281f88360010154866040516117279291906137c7565b60405180910390a25050509392505050565b600061176082600160008681526020019081526020016000206121d390919063ffffffff16565b905092915050565b600080600084815260200190815260200160002060000160008373ffffffffffffffffffffffffffffffffffffffff1673ffffffffffffffffffffffffffffffffffffffff16815260200190815260200160002060009054906101000a900460ff16905092915050565b600460009054906101000a900473ffffffffffffffffffffffffffffffffffffffff1681565b6060600080600190505b6005548111611896578373ffffffffffffffffffffffffffffffffffffffff166007600083815260200190815260200160002060000160009054906101000a900473ffffffffffffffffffffffffffffffffffffffff1673ffffffffffffffffffffffffffffffffffffffff160361188357818061187f90613307565b9250505b808061188e90613307565b915050611802565b5060008167ffffffffffffffff8111156118b3576118b261334f565b5b6040519080825280602002602001820160405280156118e15781602001602082028036833780820191505090505b509050600080600190505b60055481116119a0578573ffffffffffffffffffffffffffffffffffffffff166007600083815260200190815260200160002060000160009054906101000a900473ffffffffffffffffffffffffffffffffffffffff1673ffffffffffffffffffffffffffffffffffffffff160361198d57808383815181106119725761197161337e565b5b602002602001018181525050818061198990613307565b9250505b808061199890613307565b9150506118ec565b50819350505050919050565b6060600080600190505b6006548111611ab657600160058111156119d3576119d2612f50565b5b6008600083815260200190815260200160002060050160009054906101000a900460ff166005811115611a0957611a08612f50565b5b03611aa3576000600860008381526020019081526020016000206000015490508473ffffffffffffffffffffffffffffffffffffffff166007600083815260200190815260200160002060000160009054906101000a900473ffffffffffffffffffffffffffffffffffffffff1673ffffffffffffffffffffffffffffffffffffffff1603611aa1578280611a9d90613307565b9350505b505b8080611aae90613307565b9150506119b6565b5060008167ffffffffffffffff811115611ad357611ad261334f565b5b604051908082528060200260200182016040528015611b015781602001602082028036833780820191505090505b509050600080600190505b6006548111611c2c5760016005811115611b2957611b28612f50565b5b6008600083815260200190815260200160002060050160009054906101000a900460ff166005811115611b5f57611b5e612f50565b5b03611c19576000600860008381526020019081526020016000206000015490508673ffffffffffffffffffffffffffffffffffffffff166007600083815260200190815260200160002060000160009054906101000a900473ffffffffffffffffffffffffffffffffffffffff1673ffffffffffffffffffffffffffffffffffffffff1603611c175781848481518110611bfc57611bfb61337e565b5b6020026020010181815250508280611c1390613307565b9350505b505b8080611c2490613307565b915050611b0c565b50819350505050919050565b6000801b81565b6060611c5c600160008481526020019081526020016000206121ed565b9050919050565b6008602052806000526040600020600091509050806000015490806001015490806002015490806003015490806004018054611c9e906133dc565b80601f0160208091040260200160405190810160405280929190818152602001828054611cca906133dc565b8015611d175780601f10611cec57610100808354040283529160200191611d17565b820191906000526020600020905b815481529060010190602001808311611cfa57829003601f168201915b5050505050908060050160009054906101000a900460ff16908060060154905087565b600260009054906101000a900473ffffffffffffffffffffffffffffffffffffffff1681565b6000611d7d6001600084815260200190815260200160002061220e565b9050919050565b60096020528060005260406000206000915090505481565b611da582610cc9565b611dae8161212b565b611db8838361218d565b50505050565b60055481565b6000801b611dd18161212b565b611dfb7f59a1c48e5837ad7a7f3dcedcbe129bf3249ec4fbf651fd4f5e2600ead39fe2f583610ce8565b8173ffffffffffffffffffffffffffffffffffffffff167f2c31044378cc14466459f09320dd4057d7ad6e99b194c0800c78227383a2529660405160405180910390a25050565b6000801b611e4f8161212b565b611e797f59a1c48e5837ad7a7f3dcedcbe129bf3249ec4fbf651fd4f5e2600ead39fe2f583611d9c565b8173ffffffffffffffffffffffffffffffffffffffff167fd3e803f2dfdacd206b7d19aa46d847206386d84e3dc6b8de0926e54affa6fddc60405160405180910390a25050565b611ec86127af565b600760008381526020019081526020016000206040518060600160405290816000820160009054906101000a900473ffffffffffffffffffffffffffffffffffffffff1673ffffffffffffffffffffffffffffffffffffffff1673ffffffffffffffffffffffffffffffffffffffff168152602001600182018054611f4c906133dc565b80601f0160208091040260200160405190810160405280929190818152602001828054611f78906133dc565b8015611fc55780601f10611f9a57610100808354040283529160200191611fc5565b820191906000526020600020905b815481529060010190602001808311611fa857829003601f168201915b505050505081526020016002820154815250509050919050565b600260009054906101000a900473ffffffffffffffffffffffffffffffffffffffff1673ffffffffffffffffffffffffffffffffffffffff163373ffffffffffffffffffffffffffffffffffffffff161461206f576040517f08c379a000000000000000000000000000000000000000000000000000000000815260040161206690613a25565b60405180910390fd5b806008600084815260200190815260200160002060050160006101000a81548160ff021916908360058111156120a8576120a7612f50565b5b02179055505050565b60007f7965db0b000000000000000000000000000000000000000000000000000000007bffffffffffffffffffffffffffffffffffffffffffffffffffffffff1916827bffffffffffffffffffffffffffffffffffffffffffffffffffffffff19161480612124575061212382612223565b5b9050919050565b61213c81612137612185565b61228d565b50565b60008061214c84846122de565b9050801561217b5761217983600160008781526020019081526020016000206123cf90919063ffffffff16565b505b8091505092915050565b600033905090565b60008061219a84846123ff565b905080156121c9576121c783600160008781526020019081526020016000206124f190919063ffffffff16565b505b8091505092915050565b60006121e28360000183612521565b60001c905092915050565b606060006121fd8360000161254c565b905060608190508092505050919050565b600061221c826000016125a8565b9050919050565b60007f01ffc9a7000000000000000000000000000000000000000000000000000000007bffffffffffffffffffffffffffffffffffffffffffffffffffffffff1916827bffffffffffffffffffffffffffffffffffffffffffffffffffffffff1916149050919050565b6122978282611768565b6122da5780826040517fe2517d3f0000000000000000000000000000000000000000000000000000000081526004016122d1929190613a45565b60405180910390fd5b5050565b60006122ea8383611768565b6123c457600160008085815260200190815260200160002060000160008473ffffffffffffffffffffffffffffffffffffffff1673ffffffffffffffffffffffffffffffffffffffff16815260200190815260200160002060006101000a81548160ff021916908315150217905550612361612185565b73ffffffffffffffffffffffffffffffffffffffff168273ffffffffffffffffffffffffffffffffffffffff16847f2f8788117e7eff1d82e926ec794901d17c78024a50270940304540a733656f0d60405160405180910390a4600190506123c9565b600090505b92915050565b60006123f7836000018373ffffffffffffffffffffffffffffffffffffffff1660001b6125b9565b905092915050565b600061240b8383611768565b156124e657600080600085815260200190815260200160002060000160008473ffffffffffffffffffffffffffffffffffffffff1673ffffffffffffffffffffffffffffffffffffffff16815260200190815260200160002060006101000a81548160ff021916908315150217905550612483612185565b73ffffffffffffffffffffffffffffffffffffffff168273ffffffffffffffffffffffffffffffffffffffff16847ff6391f5c32d9c69d2a47ea670b442974b53935d1edc7fd64eb21e047a839171b60405160405180910390a4600190506124eb565b600090505b92915050565b6000612519836000018373ffffffffffffffffffffffffffffffffffffffff1660001b612629565b905092915050565b60008260000182815481106125395761253861337e565b5b9060005260206000200154905092915050565b60608160000180548060200260200160405190810160405280929190818152602001828054801561259c57602002820191906000526020600020905b815481526020019060010190808311612588575b50505050509050919050565b600081600001805490509050919050565b60006125c5838361273d565b61261e578260000182908060018154018082558091505060019003906000526020600020016000909190919091505582600001805490508360010160008481526020019081526020016000208190555060019050612623565b600090505b92915050565b6000808360010160008481526020019081526020016000205490506000811461273157600060018261265b9190613a6e565b90506000600186600001805490506126739190613a6e565b90508082146126e25760008660000182815481106126945761269361337e565b5b90600052602060002001549050808760000184815481106126b8576126b761337e565b5b90600052602060002001819055508387600101600083815260200190815260200160002081905550505b856000018054806126f6576126f5613aa2565b5b600190038181906000526020600020016000905590558560010160008681526020019081526020016000206000905560019350505050612737565b60009150505b92915050565b600080836001016000848152602001908152602001600020541415905092915050565b6040518060e001604052806000815260200160008152602001600081526020016000815260200160608152602001600060058111156127a2576127a1612f50565b5b8152602001600081525090565b6040518060600160405280600073ffffffffffffffffffffffffffffffffffffffff16815260200160608152602001600081525090565b600081519050919050565b600082825260208201905092915050565b6000819050602082019050919050565b6000819050919050565b61282581612812565b82525050565b6000612837838361281c565b60208301905092915050565b6000602082019050919050565b600061285b826127e6565b61286581856127f1565b935061287083612802565b8060005b838110156128a1578151612888888261282b565b975061289383612843565b925050600181019050612874565b5085935050505092915050565b600060208201905081810360008301526128c88184612850565b905092915050565b600080fd5b600080fd5b60007fffffffff0000000000000000000000000000000000000000000000000000000082169050919050565b61290f816128da565b811461291a57600080fd5b50565b60008135905061292c81612906565b92915050565b600060208284031215612948576129476128d0565b5b60006129568482850161291d565b91505092915050565b60008115159050919050565b6129748161295f565b82525050565b600060208201905061298f600083018461296b565b92915050565b61299e81612812565b81146129a957600080fd5b50565b6000813590506129bb81612995565b92915050565b6000602082840312156129d7576129d66128d0565b5b60006129e5848285016129ac565b91505092915050565b600073ffffffffffffffffffffffffffffffffffffffff82169050919050565b6000612a19826129ee565b9050919050565b612a2981612a0e565b82525050565b600081519050919050565b600082825260208201905092915050565b60005b83811015612a69578082015181840152602081019050612a4e565b60008484015250505050565b6000601f19601f8301169050919050565b6000612a9182612a2f565b612a9b8185612a3a565b9350612aab818560208601612a4b565b612ab481612a75565b840191505092915050565b612ac881612812565b82525050565b6000606082019050612ae36000830186612a20565b8181036020830152612af58185612a86565b9050612b046040830184612abf565b949350505050565b600080fd5b600080fd5b600080fd5b60008083601f840112612b3157612b30612b0c565b5b8235905067ffffffffffffffff811115612b4e57612b4d612b11565b5b602083019150836001820283011115612b6a57612b69612b16565b5b9250929050565b600080600060408486031215612b8a57612b896128d0565b5b600084013567ffffffffffffffff811115612ba857612ba76128d5565b5b612bb486828701612b1b565b93509350506020612bc7868287016129ac565b9150509250925092565b6000602082019050612be66000830184612abf565b92915050565b6000819050919050565b612bff81612bec565b8114612c0a57600080fd5b50565b600081359050612c1c81612bf6565b92915050565b600060208284031215612c3857612c376128d0565b5b6000612c4684828501612c0d565b91505092915050565b612c5881612bec565b82525050565b6000602082019050612c736000830184612c4f565b92915050565b612c8281612a0e565b8114612c8d57600080fd5b50565b600081359050612c9f81612c79565b92915050565b60008060408385031215612cbc57612cbb6128d0565b5b6000612cca85828601612c0d565b9250506020612cdb85828601612c90565b9150509250929050565b60008060008060008060a08789031215612d0257612d016128d0565b5b6000612d1089828a016129ac565b9650506020612d2189828a016129ac565b9550506040612d3289828a016129ac565b9450506060612d4389828a016129ac565b935050608087013567ffffffffffffffff811115612d6457612d636128d5565b5b612d7089828a01612b1b565b92509250509295509295509295565b600060208284031215612d9557612d946128d0565b5b6000612da384828501612c90565b91505092915050565b600081519050919050565b600082825260208201905092915050565b6000819050602082019050919050565b612de181612a0e565b82525050565b6000612df38383612dd8565b60208301905092915050565b6000602082019050919050565b6000612e1782612dac565b612e218185612db7565b9350612e2c83612dc8565b8060005b83811015612e5d578151612e448882612de7565b9750612e4f83612dff565b925050600181019050612e30565b5085935050505092915050565b60006020820190508181036000830152612e848184612e0c565b905092915050565b6000819050919050565b6000612eb1612eac612ea7846129ee565b612e8c565b6129ee565b9050919050565b6000612ec382612e96565b9050919050565b6000612ed582612eb8565b9050919050565b612ee581612eca565b82525050565b6000602082019050612f006000830184612edc565b92915050565b600082825260208201905092915050565b6000612f2282612a2f565b612f2c8185612f06565b9350612f3c818560208601612a4b565b612f4581612a75565b840191505092915050565b7f4e487b7100000000000000000000000000000000000000000000000000000000600052602160045260246000fd5b60068110612f9057612f8f612f50565b5b50565b6000819050612fa182612f7f565b919050565b6000612fb182612f93565b9050919050565b612fc181612fa6565b82525050565b600060e083016000830151612fdf600086018261281c565b506020830151612ff2602086018261281c565b506040830151613005604086018261281c565b506060830151613018606086018261281c565b50608083015184820360808601526130308282612f17565b91505060a083015161304560a0860182612fb8565b5060c083015161305860c086018261281c565b508091505092915050565b6000602082019050818103600083015261307d8184612fc7565b905092915050565b60008060006040848603121561309e5761309d6128d0565b5b60006130ac868287016129ac565b935050602084013567ffffffffffffffff8111156130cd576130cc6128d5565b5b6130d986828701612b1b565b92509250509250925092565b600080604083850312156130fc576130fb6128d0565b5b600061310a85828601612c0d565b925050602061311b858286016129ac565b9150509250929050565b600060208201905061313a6000830184612a20565b92915050565b600061314b82612eb8565b9050919050565b61315b81613140565b82525050565b60006020820190506131766000830184613152565b92915050565b61318581612fa6565b82525050565b600060e0820190506131a0600083018a612abf565b6131ad6020830189612abf565b6131ba6040830188612abf565b6131c76060830187612abf565b81810360808301526131d98186612a86565b90506131e860a083018561317c565b6131f560c0830184612abf565b98975050505050505050565b60006060830160008301516132196000860182612dd8565b50602083015184820360208601526132318282612f17565b9150506040830151613246604086018261281c565b508091505092915050565b6000602082019050818103600083015261326b8184613201565b905092915050565b6006811061328057600080fd5b50565b60008135905061329281613273565b92915050565b600080604083850312156132af576132ae6128d0565b5b60006132bd858286016129ac565b92505060206132ce85828601613283565b9150509250929050565b7f4e487b7100000000000000000000000000000000000000000000000000000000600052601160045260246000fd5b600061331282612812565b91507fffffffffffffffffffffffffffffffffffffffffffffffffffffffffffffffff8203613344576133436132d8565b5b600182019050919050565b7f4e487b7100000000000000000000000000000000000000000000000000000000600052604160045260246000fd5b7f4e487b7100000000000000000000000000000000000000000000000000000000600052603260045260246000fd5b7f4e487b7100000000000000000000000000000000000000000000000000000000600052602260045260246000fd5b600060028204905060018216806133f457607f821691505b602082108103613407576134066133ad565b5b50919050565b60008190508160005260206000209050919050565b60006020601f8301049050919050565b600082821b905092915050565b60006008830261346f7fffffffffffffffffffffffffffffffffffffffffffffffffffffffffffffffff82613432565b6134798683613432565b95508019841693508086168417925050509392505050565b60006134ac6134a76134a284612812565b612e8c565b612812565b9050919050565b6000819050919050565b6134c683613491565b6134da6134d2826134b3565b84845461343f565b825550505050565b600090565b6134ef6134e2565b6134fa8184846134bd565b505050565b5b8181101561351e576135136000826134e7565b600181019050613500565b5050565b601f821115613563576135348161340d565b61353d84613422565b8101602085101561354c578190505b61356061355885613422565b8301826134ff565b50505b505050565b600082821c905092915050565b600061358660001984600802613568565b1980831691505092915050565b600061359f8383613575565b9150826002028217905092915050565b6135b882612a2f565b67ffffffffffffffff8111156135d1576135d061334f565b5b6135db82546133dc565b6135e6828285613522565b600060209050601f8311600181146136195760008415613607578287015190505b6136118582613593565b865550613679565b601f1984166136278661340d565b60005b8281101561364f5784890151825560018201915060208501945060208101905061362a565b8683101561366c5784890151613668601f891682613575565b8355505b6001600288020188555050505b505050505050565b82818337600083830152505050565b600061369c8385612a3a565b93506136a9838584613681565b6136b283612a75565b840190509392505050565b60006040820190506136d26000830186612a20565b81810360208301526136e5818486613690565b9050949350505050565b7f4e6f742070656e64696e67000000000000000000000000000000000000000000600082015250565b6000613725600b83612a3a565b9150613730826136ef565b602082019050919050565b6000602082019050818103600083015261375481613718565b9050919050565b7f4e6f742070726f6a656374206f776e6572000000000000000000000000000000600082015250565b6000613791601183612a3a565b915061379c8261375b565b602082019050919050565b600060208201905081810360008301526137c081613784565b9050919050565b60006040820190506137dc6000830185612abf565b6137e96020830184612abf565b9392505050565b7f496e76616c696420737461747573000000000000000000000000000000000000600082015250565b6000613826600e83612a3a565b9150613831826137f0565b602082019050919050565b6000602082019050818103600083015261385581613819565b9050919050565b600081905092915050565b7f697066733a2f2f00000000000000000000000000000000000000000000000000600082015250565b600061389d60078361385c565b91506138a882613867565b600782019050919050565b60006138bf838561385c565b93506138cc838584613681565b82840190509392505050565b60006138e382613890565b91506138f08284866138b3565b91508190509392505050565b60006040820190506139116000830185612a20565b81810360208301526139238184612a86565b90509392505050565b60008151905061393b81612995565b92915050565b600060208284031215613957576139566128d0565b5b60006139658482850161392c565b91505092915050565b600061397982612812565b915061398483612812565b925082820261399281612812565b915082820484148315176139a9576139a86132d8565b5b5092915050565b60006040820190506139c56000830185612a20565b6139d26020830184612abf565b9392505050565b7f4e6f74206d61726b6574706c6163650000000000000000000000000000000000600082015250565b6000613a0f600f83612a3a565b9150613a1a826139d9565b602082019050919050565b60006020820190508181036000830152613a3e81613a02565b9050919050565b6000604082019050613a5a6000830185612a20565b613a676020830184612c4f565b9392505050565b6000613a7982612812565b9150613a8483612812565b9250828203905081811115613a9c57613a9b6132d8565b5b92915050565b7f4e487b7100000000000000000000000000000000000000000000000000000000600052603160045260246000fdfea26469706673582212201a52819d1251414a177fcddf05e3051cf783842fc3ad90f41490a9624cc2b81e64736f6c634300081c0033",
  "linkReferences": {},
  "deployedLinkReferences": {}
}