{
  "_format": "hh-sol-artifact-1",
  "contractName": "CarbonCreditRegistry",
  "sourceName": "contracts/CarbonCreditRegistry.sol",
  "abi": [
    {
      "inputs": [
        {
          "internalType": "contract CarbonCreditToken",
          "name": "_cct",
          "type": "address"
        },
        {
          "internalType": "contract GreenNFTCollection",
          "name": "_greenNFTCollection",
          "type": "address"
        }
      ],
      "stateMutability": "nonpayable",
      "type": "constructor"
    },
    {
      "inputs": [],
      "name": "AccessControlBadConfirmation",
      "type": "error"
    },
    {
      "inputs": [
        {
          "internalType": "address",
          "name": "account",
          "type": "address"
        },
        {
          "internalType": "bytes32",
          "name": "neededRole",
          "type": "bytes32"
        }
      ],
      "name": "AccessControlUnauthorizedAccount",
      "type": "error"
    },
    {
      "anonymous": false,
      "inputs": [
        {
          "indexed": true,
          "internalType": "address",
          "name": "auditor",
          "type": "address"
        }
      ],
      "name": "AuditorAdded",
      "type": "event"
    },
    {
      "anonymous": false,
      "inputs": [
        {
          "indexed": true,
          "internalType": "address",
          "name": "auditor",
          "type": "address"
        }
      ],
      "name": "AuditorRemoved",
      "type": "event"
    },
    {
      "anonymous": false,
      "inputs": [
        {
          "indexed": true,
          "internalType": "uint256",
          "name": "claimId",
          "type": "uint256"
        },
        {
          "indexed": false,
          "internalType": "uint256",
          "name": "tons",
          "type": "uint256"
        },
        {
          "indexed": false,
          "internalType": "uint256",
          "name": "batchTokenId",
          "type": "uint256"
        }
      ],
      "name": "ClaimAudited",
      "type": "event"
    },
    {
      "anonymous": false,
      "inputs": [
        {
          "indexed": true,
          "internalType": "uint256",
          "name": "claimId",
          "type": "uint256"
        },
        {
          "indexed": false,
          "internalType": "uint256",
          "name": "projectId",
          "type": "uint256"
        },
        {
          "indexed": false,
          "internalType": "uint256",
          "name": "tons",
          "type": "uint256"
        }
      ],
      "name": "ClaimSubmitted",
      "type": "event"
    },
    {
      "anonymous": false,
      "inputs": [
        {
          "indexed": true,
          "internalType": "uint256",
          "name": "projectId",
          "type": "uint256"
        },
        {
          "indexed": false,
          "internalType": "address",
          "name": "owner",
          "type": "address"
        },
        {
          "indexed": false,
          "internalType": "string",
          "name": "name",
          "type": "string"
        }
      ],
      "name": "ProjectRegistered",
      "type": "event"
    },
    {
      "anonymous": false,
      "inputs": [
        {
          "indexed": true,
          "internalType": "bytes32",
          "name": "role",
          "type": "bytes32"
        },
        {
          "indexed": true,
          "internalType": "bytes32",
          "name": "previousAdminRole",
          "type": "bytes32"
        },
        {
          "indexed": true,
          "internalType": "bytes32",
          "name": "newAdminRole",
          "type": "bytes32"
        }
      ],
      "name": "RoleAdminChanged",
      "type": "event"
    },
    {
      "anonymous": false,
      "inputs": [
        {
          "indexed": true,
          "internalType": "bytes32",
          "name": "role",
          "type": "bytes32"
        },
        {
          "indexed": true,
          "internalType": "address",
          "name": "account",
          "type": "address"
        },
        {
          "indexed": true,
          "internalType": "address",
          "name": "sender",
          "type": "address"
        }
      ],
      "name": "RoleGranted",
      "type": "event"
    },
    {
      "anonymous": false,
      "inputs": [
        {
          "indexed": true,
          "internalType": "bytes32",
          "name": "role",
          "type": "bytes32"
        },
        {
          "indexed": true,
          "internalType": "address",
          "name": "account",
          "type": "address"
        },
        {
          "indexed": true,
          "internalType": "address",
          "name": "sender",
          "type": "address"
        }
      ],
      "name": "RoleRevoked",
      "type": "event"
    },
    {
      "inputs": [],
      "name": "AUDITOR_ROLE",
      "outputs": [
        {
          "internalType": "bytes32",
          "name": "",
          "type": "bytes32"
        }
      ],
      "stateMutability": "view",
      "type": "function"
    },
    {
      "inputs": [],
      "name": "DEFAULT_ADMIN_ROLE",
      "outputs": [
        {
          "internalType": "bytes32",
          "name": "",
          "type": "bytes32"
        }
      ],
      "stateMutability": "view",
      "type": "function"
    },
    {
      "inputs": [
        {
          "internalType": "address",
          "name": "auditor",
          "type": "address"
        }
      ],
      "name": "addAuditor",
      "outputs": [],
      "stateMutability": "nonpayable",
      "type": "function"
    },
    {
      "inputs": [
        {
          "internalType": "uint256",
          "name": "claimId",
          "type": "uint256"
        },
        {
          "internalType": "string",
          "name": "auditReportIPFS",
          "type": "string"
        }
      ],
      "name": "auditAndIssue",
      "outputs": [
        {
          "internalType": "uint256",
          "name": "batchTokenId",
          "type": "uint256"
        }
      ],
      "stateMutability": "nonpayable",
      "type": "function"
    },
    {
      "inputs": [],
      "name": "cct",
      "outputs": [
        {
          "internalType": "contract CarbonCreditToken",
          "name": "",
          "type": "address"
        }
      ],
      "stateMutability": "view",
      "type": "function"
    },
    {
      "inputs": [],
      "name": "claimIdCounter",
      "outputs": [
        {
          "internalType": "uint256",
          "name": "",
          "type": "uint256"
        }
      ],
      "stateMutability": "view",
      "type": "function"
    },
    {
      "inputs": [
        {
          "internalType": "uint256",
          "name": "",
          "type": "uint256"
        }
      ],
      "name": "claims",
      "outputs": [
        {
          "internalType": "uint256",
          "name": "projectId",
          "type": "uint256"
        },
        {
          "internalType": "uint256",
          "name": "reductionTons",
          "type": "uint256"
        },
        {
          "internalType": "uint256",
          "name": "periodStart",
          "type": "uint256"
        },
        {
          "internalType": "uint256",
          "name": "periodEnd",
          "type": "uint256"
        },
        {
          "internalType": "string",
          "name": "evidenceIPFS",
          "type": "string"
        },
        {
          "internalType": "enum CarbonCreditRegistry.Status",
          "name": "status",
          "type": "uint8"
        },
        {
          "internalType": "uint256",
          "name": "batchTokenId",
          "type": "uint256"
        }
      ],
      "stateMutability": "view",
      "type": "function"
    },
    {
      "inputs": [],
      "name": "getAllAuditors",
      "outputs": [
        {
          "internalType": "address[]",
          "name": "",
          "type": "address[]"
        }
      ],
      "stateMutability": "view",
      "type": "function"
    },
    {
      "inputs": [
        {
          "internalType": "address",
          "name": "owner",
          "type": "address"
        }
      ],
      "name": "getAuditedClaimsByOwner",
      "outputs": [
        {
          "internalType": "uint256[]",
          "name": "",
          "type": "uint256[]"
        }
      ],
      "stateMutability": "view",
      "type": "function"
    },
    {
      "inputs": [],
      "name": "getAuditorCount",
      "outputs": [
        {
          "internalType": "uint256",
          "name": "",
          "type": "uint256"
        }
      ],
      "stateMutability": "view",
      "type": "function"
    },
    {
      "inputs": [
        {
          "internalType": "uint256",
          "name": "claimId",
          "type": "uint256"
        }
      ],
      "name": "getClaim",
      "outputs": [
        {
          "components": [
            {
              "internalType": "uint256",
              "name": "projectId",
              "type": "uint256"
            },
            {
              "internalType": "uint256",
              "name": "reductionTons",
              "type": "uint256"
            },
            {
              "internalType": "uint256",
              "name": "periodStart",
              "type": "uint256"
            },
            {
              "internalType": "uint256",
              "name": "periodEnd",
              "type": "uint256"
            },
            {
              "internalType": "string",
              "name": "evidenceIPFS",
              "type": "string"
            },
            {
              "internalType": "enum CarbonCreditRegistry.Status",
              "name": "status",
              "type": "uint8"
            },
            {
              "internalType": "uint256",
              "name": "batchTokenId",
              "type": "uint256"
            }
          ],
          "internalType": "struct CarbonCreditRegistry.Claim",
          "name": "",
          "type": "tuple"
        }
      ],
      "stateMutability": "view",
      "type": "function"
    },
    {
      "inputs": [
        {
          "internalType": "uint256",
          "name": "projectId",
          "type": "uint256"
        }
      ],
      "name": "getClaimsByProject",
      "outputs": [
        {
          "internalType": "uint256[]",
          "name": "",
          "type": "uint256[]"
        }
      ],
      "stateMutability": "view",
      "type": "function"
    },
    {
      "inputs": [],
      "name": "getPendingClaims",
      "outputs": [
        {
          "internalType": "uint256[]",
          "name": "",
          "type": "uint256[]"
        }
      ],
      "stateMutability": "view",
      "type": "function"
    },
    {
      "inputs": [
        {
          "internalType": "uint256",
          "name": "projectId",
          "type": "uint256"
        }
      ],
      "name": "getProject",
      "outputs": [
        {
          "components": [
            {
              "internalType": "address",
              "name": "owner",
              "type": "address"
            },
            {
              "internalType": "string",
              "name": "name",
              "type": "string"
            },
            {
              "internalType": "uint256",
              "name": "baselineEmissions",
              "type": "uint256"
            }
          ],
          "internalType": "struct CarbonCreditRegistry.Project",
          "name": "",
          "type": "tuple"
        }
      ],
      "stateMutability": "view",
      "type": "function"
    },
    {
      "inputs": [
        {
          "internalType": "address",
          "name": "owner",
          "type": "address"
        }
      ],
      "name": "getProjectsByOwner",
      "outputs": [
        {
          "internalType": "uint256[]",
          "name": "",
          "type": "uint256[]"
        }
      ],
      "stateMutability": "view",
      "type": "function"
    },
    {
      "inputs": [
        {
          "internalType": "bytes32",
          "name": "role",
          "type": "bytes32"
        }
      ],
      "name": "getRoleAdmin",
      "outputs": [
        {
          "internalType": "bytes32",
          "name": "",
          "type": "bytes32"
        }
      ],
      "stateMutability": "view",
      "type": "function"
    },
    {
      "inputs": [
        {
          "internalType": "bytes32",
          "name": "role",
          "type": "bytes32"
        },
        {
          "internalType": "uint256",
          "name": "index",
          "type": "uint256"
        }
      ],
      "name": "getRoleMember",
      "outputs": [
        {
          "internalType": "address",
          "name": "",
          "type": "address"
        }
      ],
      "stateMutability": "view",
      "type": "function"
    },
    {
      "inputs": [
        {
          "internalType": "bytes32",
          "name": "role",
          "type": "bytes32"
        }
      ],
      "name": "getRoleMemberCount",
      "outputs": [
        {
          "internalType": "uint256",
          "name": "",
          "type": "uint256"
        }
      ],
      "stateMutability": "view",
      "type": "function"
    },
    {
      "inputs": [
        {
          "internalType": "bytes32",
          "name": "role",
          "type": "bytes32"
        }
      ],
      "name": "getRoleMembers",
      "outputs": [
        {
          "internalType": "address[]",
          "name": "",
          "type": "address[]"
        }
      ],
      "stateMutability": "view",
      "type": "function"
    },
    {
      "inputs": [
        {
          "internalType": "bytes32",
          "name": "role",
          "type": "bytes32"
        },
        {
          "internalType": "address",
          "name": "account",
          "type": "address"
        }
      ],
      "name": "grantRole",
      "outputs": [],
      "stateMutability": "nonpayable",
      "type": "function"
    },
    {
      "inputs": [],
      "name": "greenNFTCollection",
      "outputs": [
        {
          "internalType": "contract GreenNFTCollection",
          "name": "",
          "type": "address"
        }
      ],
      "stateMutability": "view",
      "type": "function"
    },
    {
      "inputs": [
        {
          "internalType": "bytes32",
          "name": "role",
          "type": "bytes32"
        },
        {
          "internalType": "address",
          "name": "account",
          "type": "address"
        }
      ],
      "name": "hasRole",
      "outputs": [
        {
          "internalType": "bool",
          "name": "",
          "type": "bool"
        }
      ],
      "stateMutability": "view",
      "type": "function"
    },
    {
      "inputs": [
        {
          "internalType": "address",
          "name": "account",
          "type": "address"
        }
      ],
      "name": "isAuditor",
      "outputs": [
        {
          "internalType": "bool",
          "name": "",
          "type": "bool"
        }
      ],
      "stateMutability": "view",
      "type": "function"
    },
    {
      "inputs": [],
      "name": "projectIdCounter",
      "outputs": [
        {
          "internalType": "uint256",
          "name": "",
          "type": "uint256"
        }
      ],
      "stateMutability": "view",
      "type": "function"
    },
    {
      "inputs": [
        {
          "internalType": "uint256",
          "name": "",
          "type": "uint256"
        }
      ],
      "name": "projects",
      "outputs": [
        {
          "internalType": "address",
          "name": "owner",
          "type": "address"
        },
        {
          "internalType": "string",
          "name": "name",
          "type": "string"
        },
        {
          "internalType": "uint256",
          "name": "baselineEmissions",
          "type": "uint256"
        }
      ],
      "stateMutability": "view",
      "type": "function"
    },
    {
      "inputs": [
        {
          "internalType": "string",
          "name": "name",
          "type": "string"
        },
        {
          "internalType": "uint256",
          "name": "baselineEmissions",
          "type": "uint256"
        }
      ],
      "name": "registerProject",
      "outputs": [
        {
          "internalType": "uint256",
          "name": "",
          "type": "uint256"
        }
      ],
      "stateMutability": "nonpayable",
      "type": "function"
    },
    {
      "inputs": [
        {
          "internalType": "address",
          "name": "auditor",
          "type": "address"
        }
      ],
      "name": "removeAuditor",
      "outputs": [],
      "stateMutability": "nonpayable",
      "type": "function"
    },
    {
      "inputs": [
        {
          "internalType": "bytes32",
          "name": "role",
          "type": "bytes32"
        },
        {
          "internalType": "address",
          "name": "callerConfirmation",
          "type": "address"
        }
      ],
      "name": "renounceRole",
      "outputs": [],
      "stateMutability": "nonpayable",
      "type": "function"
    },
    {
      "inputs": [
        {
          "internalType": "bytes32",
          "name": "role",
          "type": "bytes32"
        },
        {
          "internalType": "address",
          "name": "account",
          "type": "address"
        }
      ],
      "name": "revokeRole",
      "outputs": [],
      "stateMutability": "nonpayable",
      "type": "function"
    },
    {
      "inputs": [
        {
          "internalType": "uint256",
          "name": "projectId",
          "type": "uint256"
        },
        {
          "internalType": "uint256",
          "name": "reductionTons",
          "type": "uint256"
        },
        {
          "internalType": "uint256",
          "name": "periodStart",
          "type": "uint256"
        },
        {
          "internalType": "uint256",
          "name": "periodEnd",
          "type": "uint256"
        },
        {
          "internalType": "string",
          "name": "evidenceIPFS",
          "type": "string"
        }
      ],
      "name": "submitClaim",
      "outputs": [
        {
          "internalType": "uint256",
          "name": "",
          "type": "uint256"
        }
      ],
      "stateMutability": "nonpayable",
      "type": "function"
    },
    {
      "inputs": [
        {
          "internalType": "bytes4",
          "name": "interfaceId",
          "type": "bytes4"
        }
      ],
      "name": "supportsInterface",
      "outputs": [
        {
          "internalType": "bool",
          "name": "",
          "type": "bool"
        }
      ],
      "stateMutability": "view",
      "type": "function"
    }
  ],
  "bytecode": "0x608060405234801561001057600080fd5b50604051613b6d380380613b6d833981810160405281019061003291906104bf565b81600260006101000a81548173ffffffffffffffffffffffffffffffffffffffff021916908373ffffffffffffffffffffffffffffffffffffffff16021790555080600360006101000a81548173ffffffffffffffffffffffffffffffffffffffff021916908373ffffffffffffffffffffffffffffffffffffffff1602179055506100c76000801b3361010260201b60201c565b506100fb7f59a1c48e5837ad7a7f3dcedcbe129bf3249ec4fbf651fd4f5e2600ead39fe2f56000801b61014e60201b60201c565b50506104ff565b60008061011584846101af60201b60201c565b905080156101445761014283600160008781526020019081526020016000206102ac60201b90919060201c565b505b8091505092915050565b600061015f836102e260201b60201c565b905081600080858152602001908152602001600020600101819055508181847fbd79b86ffe0ab8e8776151514217cd7cacd52c909f66475c3af44e129f0b00ff60405160405180910390a4505050565b60006101c1838361030160201b60201c565b6102a157600160008085815260200190815260200160002060000160008473ffffffffffffffffffffffffffffffffffffffff1673ffffffffffffffffffffffffffffffffffffffff16815260200190815260200160002060006101000a81548160ff02191690831515021790555061023e61036b60201b60201c565b73ffffffffffffffffffffffffffffffffffffffff168273ffffffffffffffffffffffffffffffffffffffff16847f2f8788117e7eff1d82e926ec794901d17c78024a50270940304540a733656f0d60405160405180910390a4600190506102a6565b600090505b92915050565b60006102da836000018373ffffffffffffffffffffffffffffffffffffffff1660001b61037360201b60201c565b905092915050565b6000806000838152602001908152602001600020600101549050919050565b600080600084815260200190815260200160002060000160008373ffffffffffffffffffffffffffffffffffffffff1673ffffffffffffffffffffffffffffffffffffffff16815260200190815260200160002060009054906101000a900460ff16905092915050565b600033905090565b600061038583836103e960201b60201c565b6103de5782600001829080600181540180825580915050600190039060005260206000200160009091909190915055826000018054905083600101600084815260200190815260200160002081905550600190506103e3565b600090505b92915050565b600080836001016000848152602001908152602001600020541415905092915050565b600080fd5b600073ffffffffffffffffffffffffffffffffffffffff82169050919050565b600061043c82610411565b9050919050565b600061044e82610431565b9050919050565b61045e81610443565b811461046957600080fd5b50565b60008151905061047b81610455565b92915050565b600061048c82610431565b9050919050565b61049c81610481565b81146104a757600080fd5b50565b6000815190506104b981610493565b92915050565b600080604083850312156104d6576104d561040c565b5b60006104e48582860161046c565b92505060206104f5858286016104aa565b9150509250929050565b61365f8061050e6000396000f3fe608060405234801561001057600080fd5b50600436106101e45760003560e01c80636e1d616e1161010f578063a3246ad3116100a2578063d5977b5e11610071578063d5977b5e14610635578063e429cef114610653578063e6116cfd1461066f578063f0f3f2c81461068b576101e4565b8063a3246ad314610583578063a888c2cd146105b3578063ca15c873146105e9578063d547741f14610619576101e4565b806393867519116100de57806393867519146104e75780639d9cc2fe146105055780639e9ceda614610535578063a217fddf14610565576101e4565b80636e1d616e1461043957806379d07618146104575780639010d07c1461048757806391d14854146104b7576101e4565b8063355c8042116101875780635071681511610156578063507168151461039d57806352738d9a146103cd5780635a05ee58146103eb5780635aef244714610409576101e4565b8063355c80421461031557806336568abe1461033357806349b905571461034f5780634dcbb8ee1461037f576101e4565b80631410b909116101c35780631410b90914610269578063248a9ca3146102995780632f2ff15d146102c957806333e35072146102e5576101e4565b8062817970146101e957806301ffc9a714610207578063107046bd14610237575b600080fd5b6101f16106bb565b6040516101fe9190612543565b60405180910390f35b610221600480360381019061021c91906125c7565b610839565b60405161022e919061260f565b60405180910390f35b610251600480360381019061024c9190612656565b6108b3565b60405161026093929190612763565b60405180910390f35b610283600480360381019061027e9190612806565b610985565b6040516102909190612866565b60405180910390f35b6102b360048036038101906102ae91906128b7565b610ad8565b6040516102c091906128f3565b60405180910390f35b6102e360048036038101906102de919061293a565b610af7565b005b6102ff60048036038101906102fa919061297a565b610b19565b60405161030c9190612866565b60405180910390f35b61031d610d39565b60405161032a9190612866565b60405180910390f35b61034d6004803603810190610348919061293a565b610d3f565b005b61036960048036038101906103649190612a14565b610dba565b604051610376919061260f565b60405180910390f35b610387610ded565b6040516103949190612aff565b60405180910390f35b6103b760048036038101906103b29190612656565b610f01565b6040516103c49190612543565b60405180910390f35b6103d561101d565b6040516103e29190612866565b60405180910390f35b6103f361104d565b6040516104009190612b80565b60405180910390f35b610423600480360381019061041e9190612656565b611073565b6040516104309190612cf8565b60405180910390f35b61044161119f565b60405161044e91906128f3565b60405180910390f35b610471600480360381019061046c9190612d1a565b6111c3565b60405161047e9190612866565b60405180910390f35b6104a1600480360381019061049c9190612d7a565b6114de565b6040516104ae9190612dba565b60405180910390f35b6104d160048036038101906104cc919061293a565b61150d565b6040516104de919061260f565b60405180910390f35b6104ef611577565b6040516104fc9190612df6565b60405180910390f35b61051f600480360381019061051a9190612a14565b61159d565b60405161052c9190612543565b60405180910390f35b61054f600480360381019061054a9190612a14565b611751565b60405161055c9190612543565b60405180910390f35b61056d6119dd565b60405161057a91906128f3565b60405180910390f35b61059d600480360381019061059891906128b7565b6119e4565b6040516105aa9190612aff565b60405180910390f35b6105cd60048036038101906105c89190612656565b611a08565b6040516105e09796959493929190612e20565b60405180910390f35b61060360048036038101906105fe91906128b7565b611adf565b6040516106109190612866565b60405180910390f35b610633600480360381019061062e919061293a565b611b03565b005b61063d611b25565b60405161064a9190612866565b60405180910390f35b61066d60048036038101906106689190612a14565b611b2b565b005b61068960048036038101906106849190612a14565b611ba9565b005b6106a560048036038101906106a09190612656565b611c27565b6040516106b29190612ee6565b60405180910390f35b6060600080600190505b600554811161073f57600060038111156106e2576106e1612be5565b5b6007600083815260200190815260200160002060050160009054906101000a900460ff16600381111561071857610717612be5565b5b0361072c57818061072890612f37565b9250505b808061073790612f37565b9150506106c5565b5060008167ffffffffffffffff81111561075c5761075b612f7f565b5b60405190808252806020026020018201604052801561078a5781602001602082028036833780820191505090505b509050600080600190505b600554811161082f57600060038111156107b2576107b1612be5565b5b6007600083815260200190815260200160002060050160009054906101000a900460ff1660038111156107e8576107e7612be5565b5b0361081c578083838151811061080157610800612fae565b5b602002602001018181525050818061081890612f37565b9250505b808061082790612f37565b915050610795565b5081935050505090565b60007f5a05180f000000000000000000000000000000000000000000000000000000007bffffffffffffffffffffffffffffffffffffffffffffffffffffffff1916827bffffffffffffffffffffffffffffffffffffffffffffffffffffffff191614806108ac57506108ab82611d46565b5b9050919050565b60066020528060005260406000206000915090508060000160009054906101000a900473ffffffffffffffffffffffffffffffffffffffff16908060010180546108fc9061300c565b80601f01602080910402602001604051908101604052809291908181526020018280546109289061300c565b80156109755780601f1061094a57610100808354040283529160200191610975565b820191906000526020600020905b81548152906001019060200180831161095857829003601f168201915b5050505050908060020154905083565b60008060046000815461099790612f37565b919050819055905060405180606001604052803373ffffffffffffffffffffffffffffffffffffffff16815260200186868080601f016020809104026020016040519081016040528093929190818152602001838380828437600081840152601f19601f820116905080830192505050505050508152602001848152506006600083815260200190815260200160002060008201518160000160006101000a81548173ffffffffffffffffffffffffffffffffffffffff021916908373ffffffffffffffffffffffffffffffffffffffff1602179055506020820151816001019081610a8391906131df565b5060408201518160020155905050807f1fb4423aed62bba3e66f7c81a4af273642c7e8c57d7b111ae2b1aca9887869ba338787604051610ac5939291906132ed565b60405180910390a2809150509392505050565b6000806000838152602001908152602001600020600101549050919050565b610b0082610ad8565b610b0981611dc0565b610b138383611dd4565b50505050565b60003373ffffffffffffffffffffffffffffffffffffffff166006600089815260200190815260200160002060000160009054906101000a900473ffffffffffffffffffffffffffffffffffffffff1673ffffffffffffffffffffffffffffffffffffffff1614610bbf576040517f08c379a0000000000000000000000000000000000000000000000000000000008152600401610bb69061336b565b60405180910390fd5b6000600560008154610bd090612f37565b91905081905590506040518060e0016040528089815260200188815260200187815260200186815260200185858080601f016020809104026020016040519081016040528093929190818152602001838380828437600081840152601f19601f82011690508083019250505050505050815260200160006003811115610c5957610c58612be5565b5b8152602001600081525060076000838152602001908152602001600020600082015181600001556020820151816001015560408201518160020155606082015181600301556080820151816004019081610cb391906131df565b5060a08201518160050160006101000a81548160ff02191690836003811115610cdf57610cde612be5565b5b021790555060c08201518160060155905050807fcf394f7701f2b1dae6f328cbc70c1f155122b124431f95bbf4a483bba68545558989604051610d2392919061338b565b60405180910390a2809150509695505050505050565b60055481565b610d47611e1a565b73ffffffffffffffffffffffffffffffffffffffff168173ffffffffffffffffffffffffffffffffffffffff1614610dab576040517f6697b23200000000000000000000000000000000000000000000000000000000815260040160405180910390fd5b610db58282611e22565b505050565b6000610de67f59a1c48e5837ad7a7f3dcedcbe129bf3249ec4fbf651fd4f5e2600ead39fe2f58361150d565b9050919050565b60606000610e1a7f59a1c48e5837ad7a7f3dcedcbe129bf3249ec4fbf651fd4f5e2600ead39fe2f5611adf565b905060008167ffffffffffffffff811115610e3857610e37612f7f565b5b604051908082528060200260200182016040528015610e665781602001602082028036833780820191505090505b50905060005b82811015610ef857610e9e7f59a1c48e5837ad7a7f3dcedcbe129bf3249ec4fbf651fd4f5e2600ead39fe2f5826114de565b828281518110610eb157610eb0612fae565b5b602002602001019073ffffffffffffffffffffffffffffffffffffffff16908173ffffffffffffffffffffffffffffffffffffffff16815250508080600101915050610e6c565b50809250505090565b6060600080600190505b6005548111610f535783600760008381526020019081526020016000206000015403610f40578180610f3c90612f37565b9250505b8080610f4b90612f37565b915050610f0b565b5060008167ffffffffffffffff811115610f7057610f6f612f7f565b5b604051908082528060200260200182016040528015610f9e5781602001602082028036833780820191505090505b509050600080600190505b60055481116110115785600760008381526020019081526020016000206000015403610ffe5780838381518110610fe357610fe2612fae565b5b6020026020010181815250508180610ffa90612f37565b9250505b808061100990612f37565b915050610fa9565b50819350505050919050565b60006110487f59a1c48e5837ad7a7f3dcedcbe129bf3249ec4fbf651fd4f5e2600ead39fe2f5611adf565b905090565b600260009054906101000a900473ffffffffffffffffffffffffffffffffffffffff1681565b61107b6123f5565b600760008381526020019081526020016000206040518060e0016040529081600082015481526020016001820154815260200160028201548152602001600382015481526020016004820180546110d19061300c565b80601f01602080910402602001604051908101604052809291908181526020018280546110fd9061300c565b801561114a5780601f1061111f5761010080835404028352916020019161114a565b820191906000526020600020905b81548152906001019060200180831161112d57829003601f168201915b505050505081526020016005820160009054906101000a900460ff16600381111561117857611177612be5565b5b600381111561118a57611189612be5565b5b81526020016006820154815250509050919050565b7f59a1c48e5837ad7a7f3dcedcbe129bf3249ec4fbf651fd4f5e2600ead39fe2f581565b60007f59a1c48e5837ad7a7f3dcedcbe129bf3249ec4fbf651fd4f5e2600ead39fe2f56111ef81611dc0565b60006007600087815260200190815260200160002090506000600381111561121a57611219612be5565b5b8160050160009054906101000a900460ff16600381111561123e5761123d612be5565b5b1461127e576040517f08c379a000000000000000000000000000000000000000000000000000000000815260040161127590613400565b60405180910390fd5b60018160050160006101000a81548160ff021916908360038111156112a6576112a5612be5565b5b0217905550600085856040516020016112c092919061349c565b6040516020818303038152906040529050600360009054906101000a900473ffffffffffffffffffffffffffffffffffffffff1673ffffffffffffffffffffffffffffffffffffffff1663fbcb79d6600660008560000154815260200190815260200160002060000160009054906101000a900473ffffffffffffffffffffffffffffffffffffffff16836040518363ffffffff1660e01b81526004016113689291906134c0565b6020604051808303816000875af1158015611387573d6000803e3d6000fd5b505050506040513d601f19601f820116820180604052508101906113ab9190613505565b9350838260060181905550600260009054906101000a900473ffffffffffffffffffffffffffffffffffffffff1673ffffffffffffffffffffffffffffffffffffffff166340c10f19600660008560000154815260200190815260200160002060000160009054906101000a900473ffffffffffffffffffffffffffffffffffffffff16670de0b6b3a764000085600101546114479190613532565b6040518363ffffffff1660e01b8152600401611464929190613574565b600060405180830381600087803b15801561147e57600080fd5b505af1158015611492573d6000803e3d6000fd5b50505050867f5c8110bf73de1212893cd67941bff65b60303985c439da8d26e64313095281f88360010154866040516114cc92919061338b565b60405180910390a25050509392505050565b60006115058260016000868152602001908152602001600020611e6890919063ffffffff16565b905092915050565b600080600084815260200190815260200160002060000160008373ffffffffffffffffffffffffffffffffffffffff1673ffffffffffffffffffffffffffffffffffffffff16815260200190815260200160002060009054906101000a900460ff16905092915050565b600360009054906101000a900473ffffffffffffffffffffffffffffffffffffffff1681565b6060600080600190505b600454811161163b578373ffffffffffffffffffffffffffffffffffffffff166006600083815260200190815260200160002060000160009054906101000a900473ffffffffffffffffffffffffffffffffffffffff1673ffffffffffffffffffffffffffffffffffffffff160361162857818061162490612f37565b9250505b808061163390612f37565b9150506115a7565b5060008167ffffffffffffffff81111561165857611657612f7f565b5b6040519080825280602002602001820160405280156116865781602001602082028036833780820191505090505b509050600080600190505b6004548111611745578573ffffffffffffffffffffffffffffffffffffffff166006600083815260200190815260200160002060000160009054906101000a900473ffffffffffffffffffffffffffffffffffffffff1673ffffffffffffffffffffffffffffffffffffffff1603611732578083838151811061171757611716612fae565b5b602002602001018181525050818061172e90612f37565b9250505b808061173d90612f37565b915050611691565b50819350505050919050565b6060600080600190505b600554811161185b576001600381111561177857611777612be5565b5b6007600083815260200190815260200160002060050160009054906101000a900460ff1660038111156117ae576117ad612be5565b5b03611848576000600760008381526020019081526020016000206000015490508473ffffffffffffffffffffffffffffffffffffffff166006600083815260200190815260200160002060000160009054906101000a900473ffffffffffffffffffffffffffffffffffffffff1673ffffffffffffffffffffffffffffffffffffffff160361184657828061184290612f37565b9350505b505b808061185390612f37565b91505061175b565b5060008167ffffffffffffffff81111561187857611877612f7f565b5b6040519080825280602002602001820160405280156118a65781602001602082028036833780820191505090505b509050600080600190505b60055481116119d157600160038111156118ce576118cd612be5565b5b6007600083815260200190815260200160002060050160009054906101000a900460ff16600381111561190457611903612be5565b5b036119be576000600760008381526020019081526020016000206000015490508673ffffffffffffffffffffffffffffffffffffffff166006600083815260200190815260200160002060000160009054906101000a900473ffffffffffffffffffffffffffffffffffffffff1673ffffffffffffffffffffffffffffffffffffffff16036119bc57818484815181106119a1576119a0612fae565b5b60200260200101818152505082806119b890612f37565b9350505b505b80806119c990612f37565b9150506118b1565b50819350505050919050565b6000801b81565b6060611a0160016000848152602001908152602001600020611e82565b9050919050565b6007602052806000526040600020600091509050806000015490806001015490806002015490806003015490806004018054611a439061300c565b80601f0160208091040260200160405190810160405280929190818152602001828054611a6f9061300c565b8015611abc5780601f10611a9157610100808354040283529160200191611abc565b820191906000526020600020905b815481529060010190602001808311611a9f57829003601f168201915b5050505050908060050160009054906101000a900460ff16908060060154905087565b6000611afc60016000848152602001908152602001600020611ea3565b9050919050565b611b0c82610ad8565b611b1581611dc0565b611b1f8383611e22565b50505050565b60045481565b6000801b611b3881611dc0565b611b627f59a1c48e5837ad7a7f3dcedcbe129bf3249ec4fbf651fd4f5e2600ead39fe2f583610af7565b8173ffffffffffffffffffffffffffffffffffffffff167f2c31044378cc14466459f09320dd4057d7ad6e99b194c0800c78227383a2529660405160405180910390a25050565b6000801b611bb681611dc0565b611be07f59a1c48e5837ad7a7f3dcedcbe129bf3249ec4fbf651fd4f5e2600ead39fe2f583611b03565b8173ffffffffffffffffffffffffffffffffffffffff167fd3e803f2dfdacd206b7d19aa46d847206386d84e3dc6b8de0926e54affa6fddc60405160405180910390a25050565b611c2f612444565b600660008381526020019081526020016000206040518060600160405290816000820160009054906101000a900473ffffffffffffffffffffffffffffffffffffffff1673ffffffffffffffffffffffffffffffffffffffff1673ffffffffffffffffffffffffffffffffffffffff168152602001600182018054611cb39061300c565b80601f0160208091040260200160405190810160405280929190818152602001828054611cdf9061300c565b8015611d2c5780601f10611d0157610100808354040283529160200191611d2c565b820191906000526020600020905b815481529060010190602001808311611d0f57829003601f168201915b505050505081526020016002820154815250509050919050565b60007f7965db0b000000000000000000000000000000000000000000000000000000007bffffffffffffffffffffffffffffffffffffffffffffffffffffffff1916827bffffffffffffffffffffffffffffffffffffffffffffffffffffffff19161480611db95750611db882611eb8565b5b9050919050565b611dd181611dcc611e1a565b611f22565b50565b600080611de18484611f73565b90508015611e1057611e0e836001600087815260200190815260200160002061206490919063ffffffff16565b505b8091505092915050565b600033905090565b600080611e2f8484612094565b90508015611e5e57611e5c836001600087815260200190815260200160002061218690919063ffffffff16565b505b8091505092915050565b6000611e7783600001836121b6565b60001c905092915050565b60606000611e92836000016121e1565b905060608190508092505050919050565b6000611eb18260000161223d565b9050919050565b60007f01ffc9a7000000000000000000000000000000000000000000000000000000007bffffffffffffffffffffffffffffffffffffffffffffffffffffffff1916827bffffffffffffffffffffffffffffffffffffffffffffffffffffffff1916149050919050565b611f2c828261150d565b611f6f5780826040517fe2517d3f000000000000000000000000000000000000000000000000000000008152600401611f6692919061359d565b60405180910390fd5b5050565b6000611f7f838361150d565b61205957600160008085815260200190815260200160002060000160008473ffffffffffffffffffffffffffffffffffffffff1673ffffffffffffffffffffffffffffffffffffffff16815260200190815260200160002060006101000a81548160ff021916908315150217905550611ff6611e1a565b73ffffffffffffffffffffffffffffffffffffffff168273ffffffffffffffffffffffffffffffffffffffff16847f2f8788117e7eff1d82e926ec794901d17c78024a50270940304540a733656f0d60405160405180910390a46001905061205e565b600090505b92915050565b600061208c836000018373ffffffffffffffffffffffffffffffffffffffff1660001b61224e565b905092915050565b60006120a0838361150d565b1561217b57600080600085815260200190815260200160002060000160008473ffffffffffffffffffffffffffffffffffffffff1673ffffffffffffffffffffffffffffffffffffffff16815260200190815260200160002060006101000a81548160ff021916908315150217905550612118611e1a565b73ffffffffffffffffffffffffffffffffffffffff168273ffffffffffffffffffffffffffffffffffffffff16847ff6391f5c32d9c69d2a47ea670b442974b53935d1edc7fd64eb21e047a839171b60405160405180910390a460019050612180565b600090505b92915050565b60006121ae836000018373ffffffffffffffffffffffffffffffffffffffff1660001b6122be565b905092915050565b60008260000182815481106121ce576121cd612fae565b5b9060005260206000200154905092915050565b60608160000180548060200260200160405190810160405280929190818152602001828054801561223157602002820191906000526020600020905b81548152602001906001019080831161221d575b50505050509050919050565b600081600001805490509050919050565b600061225a83836123d2565b6122b35782600001829080600181540180825580915050600190039060005260206000200160009091909190915055826000018054905083600101600084815260200190815260200160002081905550600190506122b8565b600090505b92915050565b600080836001016000848152602001908152602001600020549050600081146123c65760006001826122f091906135c6565b905060006001866000018054905061230891906135c6565b905080821461237757600086600001828154811061232957612328612fae565b5b906000526020600020015490508087600001848154811061234d5761234c612fae565b5b90600052602060002001819055508387600101600083815260200190815260200160002081905550505b8560000180548061238b5761238a6135fa565b5b6001900381819060005260206000200160009055905585600101600086815260200190815260200160002060009055600193505050506123cc565b60009150505b92915050565b600080836001016000848152602001908152602001600020541415905092915050565b6040518060e0016040528060008152602001600081526020016000815260200160008152602001606081526020016000600381111561243757612436612be5565b5b8152602001600081525090565b6040518060600160405280600073ffffffffffffffffffffffffffffffffffffffff16815260200160608152602001600081525090565b600081519050919050565b600082825260208201905092915050565b6000819050602082019050919050565b6000819050919050565b6124ba816124a7565b82525050565b60006124cc83836124b1565b60208301905092915050565b6000602082019050919050565b60006124f08261247b565b6124fa8185612486565b935061250583612497565b8060005b8381101561253657815161251d88826124c0565b9750612528836124d8565b925050600181019050612509565b5085935050505092915050565b6000602082019050818103600083015261255d81846124e5565b905092915050565b600080fd5b600080fd5b60007fffffffff0000000000000000000000000000000000000000000000000000000082169050919050565b6125a48161256f565b81146125af57600080fd5b50565b6000813590506125c18161259b565b92915050565b6000602082840312156125dd576125dc612565565b5b60006125eb848285016125b2565b91505092915050565b60008115159050919050565b612609816125f4565b82525050565b60006020820190506126246000830184612600565b92915050565b612633816124a7565b811461263e57600080fd5b50565b6000813590506126508161262a565b92915050565b60006020828403121561266c5761266b612565565b5b600061267a84828501612641565b91505092915050565b600073ffffffffffffffffffffffffffffffffffffffff82169050919050565b60006126ae82612683565b9050919050565b6126be816126a3565b82525050565b600081519050919050565b600082825260208201905092915050565b60005b838110156126fe5780820151818401526020810190506126e3565b60008484015250505050565b6000601f19601f8301169050919050565b6000612726826126c4565b61273081856126cf565b93506127408185602086016126e0565b6127498161270a565b840191505092915050565b61275d816124a7565b82525050565b600060608201905061277860008301866126b5565b818103602083015261278a818561271b565b90506127996040830184612754565b949350505050565b600080fd5b600080fd5b600080fd5b60008083601f8401126127c6576127c56127a1565b5b8235905067ffffffffffffffff8111156127e3576127e26127a6565b5b6020830191508360018202830111156127ff576127fe6127ab565b5b9250929050565b60008060006040848603121561281f5761281e612565565b5b600084013567ffffffffffffffff81111561283d5761283c61256a565b5b612849868287016127b0565b9350935050602061285c86828701612641565b9150509250925092565b600060208201905061287b6000830184612754565b92915050565b6000819050919050565b61289481612881565b811461289f57600080fd5b50565b6000813590506128b18161288b565b92915050565b6000602082840312156128cd576128cc612565565b5b60006128db848285016128a2565b91505092915050565b6128ed81612881565b82525050565b600060208201905061290860008301846128e4565b92915050565b612917816126a3565b811461292257600080fd5b50565b6000813590506129348161290e565b92915050565b6000806040838503121561295157612950612565565b5b600061295f858286016128a2565b925050602061297085828601612925565b9150509250929050565b60008060008060008060a0878903121561299757612996612565565b5b60006129a589828a01612641565b96505060206129b689828a01612641565b95505060406129c789828a01612641565b94505060606129d889828a01612641565b935050608087013567ffffffffffffffff8111156129f9576129f861256a565b5b612a0589828a016127b0565b92509250509295509295509295565b600060208284031215612a2a57612a29612565565b5b6000612a3884828501612925565b91505092915050565b600081519050919050565b600082825260208201905092915050565b6000819050602082019050919050565b612a76816126a3565b82525050565b6000612a888383612a6d565b60208301905092915050565b6000602082019050919050565b6000612aac82612a41565b612ab68185612a4c565b9350612ac183612a5d565b8060005b83811015612af2578151612ad98882612a7c565b9750612ae483612a94565b925050600181019050612ac5565b5085935050505092915050565b60006020820190508181036000830152612b198184612aa1565b905092915050565b6000819050919050565b6000612b46612b41612b3c84612683565b612b21565b612683565b9050919050565b6000612b5882612b2b565b9050919050565b6000612b6a82612b4d565b9050919050565b612b7a81612b5f565b82525050565b6000602082019050612b956000830184612b71565b92915050565b600082825260208201905092915050565b6000612bb7826126c4565b612bc18185612b9b565b9350612bd18185602086016126e0565b612bda8161270a565b840191505092915050565b7f4e487b7100000000000000000000000000000000000000000000000000000000600052602160045260246000fd5b60048110612c2557612c24612be5565b5b50565b6000819050612c3682612c14565b919050565b6000612c4682612c28565b9050919050565b612c5681612c3b565b82525050565b600060e083016000830151612c7460008601826124b1565b506020830151612c8760208601826124b1565b506040830151612c9a60408601826124b1565b506060830151612cad60608601826124b1565b5060808301518482036080860152612cc58282612bac565b91505060a0830151612cda60a0860182612c4d565b5060c0830151612ced60c08601826124b1565b508091505092915050565b60006020820190508181036000830152612d128184612c5c565b905092915050565b600080600060408486031215612d3357612d32612565565b5b6000612d4186828701612641565b935050602084013567ffffffffffffffff811115612d6257612d6161256a565b5b612d6e868287016127b0565b92509250509250925092565b60008060408385031215612d9157612d90612565565b5b6000612d9f858286016128a2565b9250506020612db085828601612641565b9150509250929050565b6000602082019050612dcf60008301846126b5565b92915050565b6000612de082612b4d565b9050919050565b612df081612dd5565b82525050565b6000602082019050612e0b6000830184612de7565b92915050565b612e1a81612c3b565b82525050565b600060e082019050612e35600083018a612754565b612e426020830189612754565b612e4f6040830188612754565b612e5c6060830187612754565b8181036080830152612e6e818661271b565b9050612e7d60a0830185612e11565b612e8a60c0830184612754565b98975050505050505050565b6000606083016000830151612eae6000860182612a6d565b5060208301518482036020860152612ec68282612bac565b9150506040830151612edb60408601826124b1565b508091505092915050565b60006020820190508181036000830152612f008184612e96565b905092915050565b7f4e487b7100000000000000000000000000000000000000000000000000000000600052601160045260246000fd5b6000612f42826124a7565b91507fffffffffffffffffffffffffffffffffffffffffffffffffffffffffffffffff8203612f7457612f73612f08565b5b600182019050919050565b7f4e487b7100000000000000000000000000000000000000000000000000000000600052604160045260246000fd5b7f4e487b7100000000000000000000000000000000000000000000000000000000600052603260045260246000fd5b7f4e487b7100000000000000000000000000000000000000000000000000000000600052602260045260246000fd5b6000600282049050600182168061302457607f821691505b60208210810361303757613036612fdd565b5b50919050565b60008190508160005260206000209050919050565b60006020601f8301049050919050565b600082821b905092915050565b60006008830261309f7fffffffffffffffffffffffffffffffffffffffffffffffffffffffffffffffff82613062565b6130a98683613062565b95508019841693508086168417925050509392505050565b60006130dc6130d76130d2846124a7565b612b21565b6124a7565b9050919050565b6000819050919050565b6130f6836130c1565b61310a613102826130e3565b84845461306f565b825550505050565b600090565b61311f613112565b61312a8184846130ed565b505050565b5b8181101561314e57613143600082613117565b600181019050613130565b5050565b601f821115613193576131648161303d565b61316d84613052565b8101602085101561317c578190505b61319061318885613052565b83018261312f565b50505b505050565b600082821c905092915050565b60006131b660001984600802613198565b1980831691505092915050565b60006131cf83836131a5565b9150826002028217905092915050565b6131e8826126c4565b67ffffffffffffffff81111561320157613200612f7f565b5b61320b825461300c565b613216828285613152565b600060209050601f8311600181146132495760008415613237578287015190505b61324185826131c3565b8655506132a9565b601f1984166132578661303d565b60005b8281101561327f5784890151825560018201915060208501945060208101905061325a565b8683101561329c5784890151613298601f8916826131a5565b8355505b6001600288020188555050505b505050505050565b82818337600083830152505050565b60006132cc83856126cf565b93506132d98385846132b1565b6132e28361270a565b840190509392505050565b600060408201905061330260008301866126b5565b81810360208301526133158184866132c0565b9050949350505050565b7f4e6f742070726f6a656374206f776e6572000000000000000000000000000000600082015250565b60006133556011836126cf565b91506133608261331f565b602082019050919050565b6000602082019050818103600083015261338481613348565b9050919050565b60006040820190506133a06000830185612754565b6133ad6020830184612754565b9392505050565b7f496e76616c696420737461747573000000000000000000000000000000000000600082015250565b60006133ea600e836126cf565b91506133f5826133b4565b602082019050919050565b60006020820190508181036000830152613419816133dd565b9050919050565b600081905092915050565b7f697066733a2f2f00000000000000000000000000000000000000000000000000600082015250565b6000613461600783613420565b915061346c8261342b565b600782019050919050565b60006134838385613420565b93506134908385846132b1565b82840190509392505050565b60006134a782613454565b91506134b4828486613477565b91508190509392505050565b60006040820190506134d560008301856126b5565b81810360208301526134e7818461271b565b90509392505050565b6000815190506134ff8161262a565b92915050565b60006020828403121561351b5761351a612565565b5b6000613529848285016134f0565b91505092915050565b600061353d826124a7565b9150613548836124a7565b9250828202613556816124a7565b9150828204841483151761356d5761356c612f08565b5b5092915050565b600060408201905061358960008301856126b5565b6135966020830184612754565b9392505050565b60006040820190506135b260008301856126b5565b6135bf60208301846128e4565b9392505050565b60006135d1826124a7565b91506135dc836124a7565b92508282039050818111156135f4576135f3612f08565b5b92915050565b7f4e487b7100000000000000000000000000000000000000000000000000000000600052603160045260246000fdfea2646970667358221220d2ce05b9389eb7ffa2809242e5b1cd2909bcc27fc6defd52ad9f85da6d4f3d7864736f6c634300081c0033",
  "linkReferences": {},
  "deployedLinkReferences": {}
}