{
  "_format": "hh-sol-artifact-1",
  "contractName": "RetirementCertificate",
  "sourceName": "contracts/RetirementCertificate.sol",
  "abi": [
    {
      "inputs": [],
      "stateMutability": "nonpayable",
      "type": "constructor"
    },
    {
      "inputs": [],
      "name": "AccessControlBadConfirmation",
      "type": "error"
    },
    {
      "inputs": [
        {
          "internalType": "address",
          "name": "account",
          "type": "address"
        },
        {
          "internalType": "bytes32",
          "name": "neededRole",
          "type": "bytes32"
        }
      ],
      "name": "AccessControlUnauthorizedAccount",
      "type": "error"
    },
    {
      "inputs": [
        {
          "internalType": "address",
          "name": "sender",
          "type": "address"
        },
        {
          "internalType": "uint256",
          "name": "tokenId",
          "type": "uint256"
        },
        {
          "internalType": "address",
          "name": "owner",
          "type": "address"
        }
      ],
      "name": "ERC721IncorrectOwner",
      "type": "error"
    },
    {
      "inputs": [
        {
          "internalType": "address",
          "name": "operator",
          "type": "address"
        },
        {
          "internalType": "uint256",
          "name": "tokenId",
          "type": "uint256"
        }
      ],
      "name": "ERC721InsufficientApproval",
      "type": "error"
    },
    {
      "inputs": [
        {
          "internalType": "address",
          "name": "approver",
          "type": "address"
        }
      ],
      "name": "ERC721InvalidApprover",
      "type": "error"
    },
    {
      "inputs": [
        {
          "internalType": "address",
          "name": "operator",
          "type": "address"
        }
      ],
      "name": "ERC721InvalidOperator",
      "type": "error"
    },
    {
      "inputs": [
        {
          "internalType": "address",
          "name": "owner",
          "type": "address"
        }
      ],
      "name": "ERC721InvalidOwner",
      "type": "error"
    },
    {
      "inputs": [
        {
          "internalType": "address",
          "name": "receiver",
          "type": "address"
        }
      ],
      "name": "ERC721InvalidReceiver",
      "type": "error"
    },
    {
      "inputs": [
        {
          "internalType": "address",
          "name": "sender",
          "type": "address"
        }
      ],
      "name": "ERC721InvalidSender",
      "type": "error"
    },
    {
      "inputs": [
        {
          "internalType": "uint256",
          "name": "tokenId",
          "type": "uint256"
        }
      ],
      "name": "ERC721NonexistentToken",
      "type": "error"
    },
    {
      "anonymous": false,
      "inputs": [
        {
          "indexed": true,
          "internalType": "address",
          "name": "owner",
          "type": "address"
        },
        {
          "indexed": true,
          "internalType": "address",
          "name": "approved",
          "type": "address"
        },
        {
          "indexed": true,
          "internalType": "uint256",
          "name": "tokenId",
          "type": "uint256"
        }
      ],
      "name": "Approval",
      "type": "event"
    },
    {
      "anonymous": false,
      "inputs": [
        {
          "indexed": true,
          "internalType": "address",
          "name": "owner",
          "type": "address"
        },
        {
          "indexed": true,
          "internalType": "address",
          "name": "operator",
          "type": "address"
        },
        {
          "indexed": false,
          "internalType": "bool",
          "name": "approved",
          "type": "bool"
        }
      ],
      "name": "ApprovalForAll",
      "type": "event"
    },
    {
      "anonymous": false,
      "inputs": [
        {
          "indexed": false,
          "internalType": "uint256",
          "name": "_fromTokenId",
          "type": "uint256"
        },
        {
          "indexed": false,
          "internalType": "uint256",
          "name": "_toTokenId",
          "type": "uint256"
        }
      ],
      "name": "BatchMetadataUpdate",
      "type": "event"
    },
    {
      "anonymous": false,
      "inputs": [
        {
          "indexed": false,
          "internalType": "uint256",
          "name": "_tokenId",
          "type": "uint256"
        }
      ],
      "name": "MetadataUpdate",
      "type": "event"
    },
    {
      "anonymous": false,
      "inputs": [
        {
          "indexed": true,
          "internalType": "bytes32",
          "name": "role",
          "type": "bytes32"
        },
        {
          "indexed": true,
          "internalType": "bytes32",
          "name": "previousAdminRole",
          "type": "bytes32"
        },
        {
          "indexed": true,
          "internalType": "bytes32",
          "name": "newAdminRole",
          "type": "bytes32"
        }
      ],
      "name": "RoleAdminChanged",
      "type": "event"
    },
    {
      "anonymous": false,
      "inputs": [
        {
          "indexed": true,
          "internalType": "bytes32",
          "name": "role",
          "type": "bytes32"
        },
        {
          "indexed": true,
          "internalType": "address",
          "name": "account",
          "type": "address"
        },
        {
          "indexed": true,
          "internalType": "address",
          "name": "sender",
          "type": "address"
        }
      ],
      "name": "RoleGranted",
      "type": "event"
    },
    {
      "anonymous": false,
      "inputs": [
        {
          "indexed": true,
          "internalType": "bytes32",
          "name": "role",
          "type": "bytes32"
        },
        {
          "indexed": true,
          "internalType": "address",
          "name": "account",
          "type": "address"
        },
        {
          "indexed": true,
          "internalType": "address",
          "name": "sender",
          "type": "address"
        }
      ],
      "name": "RoleRevoked",
      "type": "event"
    },
    {
      "anonymous": false,
      "inputs": [
        {
          "indexed": true,
          "internalType": "address",
          "name": "from",
          "type": "address"
        },
        {
          "indexed": true,
          "internalType": "address",
          "name": "to",
          "type": "address"
        },
        {
          "indexed": true,
          "internalType": "uint256",
          "name": "tokenId",
          "type": "uint256"
        }
      ],
      "name": "Transfer",
      "type": "event"
    },
    {
      "inputs": [],
      "name": "DEFAULT_ADMIN_ROLE",
      "outputs": [
        {
          "internalType": "bytes32",
          "name": "",
          "type": "bytes32"
        }
      ],
      "stateMutability": "view",
      "type": "function"
    },
    {
      "inputs": [],
      "name": "MINTER_ROLE",
      "outputs": [
        {
          "internalType": "bytes32",
          "name": "",
          "type": "bytes32"
        }
      ],
      "stateMutability": "view",
      "type": "function"
    },
    {
      "inputs": [
        {
          "internalType": "address",
          "name": "to",
          "type": "address"
        },
        {
          "internalType": "uint256",
          "name": "tokenId",
          "type": "uint256"
        }
      ],
      "name": "approve",
      "outputs": [],
      "stateMutability": "nonpayable",
      "type": "function"
    },
    {
      "inputs": [
        {
          "internalType": "address",
          "name": "owner",
          "type": "address"
        }
      ],
      "name": "balanceOf",
      "outputs": [
        {
          "internalType": "uint256",
          "name": "",
          "type": "uint256"
        }
      ],
      "stateMutability": "view",
      "type": "function"
    },
    {
      "inputs": [
        {
          "internalType": "uint256",
          "name": "tokenId",
          "type": "uint256"
        }
      ],
      "name": "getApproved",
      "outputs": [
        {
          "internalType": "address",
          "name": "",
          "type": "address"
        }
      ],
      "stateMutability": "view",
      "type": "function"
    },
    {
      "inputs": [
        {
          "internalType": "bytes32",
          "name": "role",
          "type": "bytes32"
        }
      ],
      "name": "getRoleAdmin",
      "outputs": [
        {
          "internalType": "bytes32",
          "name": "",
          "type": "bytes32"
        }
      ],
      "stateMutability": "view",
      "type": "function"
    },
    {
      "inputs": [
        {
          "internalType": "bytes32",
          "name": "role",
          "type": "bytes32"
        },
        {
          "internalType": "address",
          "name": "account",
          "type": "address"
        }
      ],
      "name": "grantRole",
      "outputs": [],
      "stateMutability": "nonpayable",
      "type": "function"
    },
    {
      "inputs": [
        {
          "internalType": "bytes32",
          "name": "role",
          "type": "bytes32"
        },
        {
          "internalType": "address",
          "name": "account",
          "type": "address"
        }
      ],
      "name": "hasRole",
      "outputs": [
        {
          "internalType": "bool",
          "name": "",
          "type": "bool"
        }
      ],
      "stateMutability": "view",
      "type": "function"
    },
    {
      "inputs": [
        {
          "internalType": "address",
          "name": "owner",
          "type": "address"
        },
        {
          "internalType": "address",
          "name": "operator",
          "type": "address"
        }
      ],
      "name": "isApprovedForAll",
      "outputs": [
        {
          "internalType": "bool",
          "name": "",
          "type": "bool"
        }
      ],
      "stateMutability": "view",
      "type": "function"
    },
    {
      "inputs": [
        {
          "internalType": "address",
          "name": "to",
          "type": "address"
        },
        {
          "internalType": "string",
          "name": "tokenURI",
          "type": "string"
        }
      ],
      "name": "mintCertificate",
      "outputs": [
        {
          "internalType": "uint256",
          "name": "tokenId",
          "type": "uint256"
        }
      ],
      "stateMutability": "nonpayable",
      "type": "function"
    },
    {
      "inputs": [],
      "name": "name",
      "outputs": [
        {
          "internalType": "string",
          "name": "",
          "type": "string"
        }
      ],
      "stateMutability": "view",
      "type": "function"
    },
    {
      "inputs": [
        {
          "internalType": "uint256",
          "name": "tokenId",
          "type": "uint256"
        }
      ],
      "name": "ownerOf",
      "outputs": [
        {
          "internalType": "address",
          "name": "",
          "type": "address"
        }
      ],
      "stateMutability": "view",
      "type": "function"
    },
    {
      "inputs": [
        {
          "internalType": "bytes32",
          "name": "role",
          "type": "bytes32"
        },
        {
          "internalType": "address",
          "name": "callerConfirmation",
          "type": "address"
        }
      ],
      "name": "renounceRole",
      "outputs": [],
      "stateMutability": "nonpayable",
      "type": "function"
    },
    {
      "inputs": [
        {
          "internalType": "bytes32",
          "name": "role",
          "type": "bytes32"
        },
        {
          "internalType": "address",
          "name": "account",
          "type": "address"
        }
      ],
      "name": "revokeRole",
      "outputs": [],
      "stateMutability": "nonpayable",
      "type": "function"
    },
    {
      "inputs": [
        {
          "internalType": "address",
          "name": "from",
          "type": "address"
        },
        {
          "internalType": "address",
          "name": "to",
          "type": "address"
        },
        {
          "internalType": "uint256",
          "name": "tokenId",
          "type": "uint256"
        }
      ],
      "name": "safeTransferFrom",
      "outputs": [],
      "stateMutability": "nonpayable",
      "type": "function"
    },
    {
      "inputs": [
        {
          "internalType": "address",
          "name": "from",
          "type": "address"
        },
        {
          "internalType": "address",
          "name": "to",
          "type": "address"
        },
        {
          "internalType": "uint256",
          "name": "tokenId",
          "type": "uint256"
        },
        {
          "internalType": "bytes",
          "name": "data",
          "type": "bytes"
        }
      ],
      "name": "safeTransferFrom",
      "outputs": [],
      "stateMutability": "nonpayable",
      "type": "function"
    },
    {
      "inputs": [
        {
          "internalType": "address",
          "name": "operator",
          "type": "address"
        },
        {
          "internalType": "bool",
          "name": "approved",
          "type": "bool"
        }
      ],
      "name": "setApprovalForAll",
      "outputs": [],
      "stateMutability": "nonpayable",
      "type": "function"
    },
    {
      "inputs": [
        {
          "internalType": "bytes4",
          "name": "interfaceId",
          "type": "bytes4"
        }
      ],
      "name": "supportsInterface",
      "outputs": [
        {
          "internalType": "bool",
          "name": "",
          "type": "bool"
        }
      ],
      "stateMutability": "view",
      "type": "function"
    },
    {
      "inputs": [],
      "name": "symbol",
      "outputs": [
        {
          "internalType": "string",
          "name": "",
          "type": "string"
        }
      ],
      "stateMutability": "view",
      "type": "function"
    },
    {
      "inputs": [
        {
          "internalType": "uint256",
          "name": "tokenId",
          "type": "uint256"
        }
      ],
      "name": "tokenURI",
      "outputs": [
        {
          "internalType": "string",
          "name": "",
          "type": "string"
        }
      ],
      "stateMutability": "view",
      "type": "function"
    },
    {
      "inputs": [
        {
          "internalType": "address",
          "name": "from",
          "type": "address"
        },
        {
          "internalType": "address",
          "name": "to",
          "type": "address"
        },
        {
          "internalType": "uint256",
          "name": "tokenId",
          "type": "uint256"
        }
      ],
      "name": "transferFrom",
      "outputs": [],
      "stateMutability": "nonpayable",
      "type": "function"
    }
  ],
  "bytecode": "0x608060405234801561001057600080fd5b506040518060400160405280601d81526020017f436172626f6e205265746972656d656e742043657274696669636174650000008152506040518060400160405280600681526020017f5245544952450000000000000000000000000000000000000000000000000000815250816000908161008c91906104aa565b50806001908161009c91906104aa565b5050506100b26000801b336100e960201b60201c565b506100e37f9f2df0fed2c77648de5860a4cc508cd0818c85b8b8a1ab4ceeef8d981c8956a6336100e960201b60201c565b5061057c565b60006100fb83836101e760201b60201c565b6101dc5760016007600085815260200190815260200160002060000160008473ffffffffffffffffffffffffffffffffffffffff1673ffffffffffffffffffffffffffffffffffffffff16815260200190815260200160002060006101000a81548160ff02191690831515021790555061017961025260201b60201c565b73ffffffffffffffffffffffffffffffffffffffff168273ffffffffffffffffffffffffffffffffffffffff16847f2f8788117e7eff1d82e926ec794901d17c78024a50270940304540a733656f0d60405160405180910390a4600190506101e1565b600090505b92915050565b60006007600084815260200190815260200160002060000160008373ffffffffffffffffffffffffffffffffffffffff1673ffffffffffffffffffffffffffffffffffffffff16815260200190815260200160002060009054906101000a900460ff16905092915050565b600033905090565b600081519050919050565b7f4e487b7100000000000000000000000000000000000000000000000000000000600052604160045260246000fd5b7f4e487b7100000000000000000000000000000000000000000000000000000000600052602260045260246000fd5b600060028204905060018216806102db57607f821691505b6020821081036102ee576102ed610294565b5b50919050565b60008190508160005260206000209050919050565b60006020601f8301049050919050565b600082821b905092915050565b6000600883026103567fffffffffffffffffffffffffffffffffffffffffffffffffffffffffffffffff82610319565b6103608683610319565b95508019841693508086168417925050509392505050565b6000819050919050565b6000819050919050565b60006103a76103a261039d84610378565b610382565b610378565b9050919050565b6000819050919050565b6103c18361038c565b6103d56103cd826103ae565b848454610326565b825550505050565b600090565b6103ea6103dd565b6103f58184846103b8565b505050565b5b818110156104195761040e6000826103e2565b6001810190506103fb565b5050565b601f82111561045e5761042f816102f4565b61043884610309565b81016020851015610447578190505b61045b61045385610309565b8301826103fa565b50505b505050565b600082821c905092915050565b600061048160001984600802610463565b1980831691505092915050565b600061049a8383610470565b9150826002028217905092915050565b6104b38261025a565b67ffffffffffffffff8111156104cc576104cb610265565b5b6104d682546102c3565b6104e182828561041d565b600060209050601f8311600181146105145760008415610502578287015190505b61050c858261048e565b865550610574565b601f198416610522866102f4565b60005b8281101561054a57848901518255600182019150602085019450602081019050610525565b868310156105675784890151610563601f891682610470565b8355505b6001600288020188555050505b505050505050565b612ab48061058b6000396000f3fe608060405234801561001057600080fd5b50600436106101375760003560e01c80636352211e116100b8578063a22cb4651161007c578063a22cb46514610372578063b88d4fde1461038e578063c87b56dd146103aa578063d5391393146103da578063d547741f146103f8578063e985e9c51461041457610137565b80636352211e146102a657806370a08231146102d657806391d148541461030657806395d89b4114610336578063a217fddf1461035457610137565b806323b872dd116100ff57806323b872dd14610206578063248a9ca3146102225780632f2ff15d1461025257806336568abe1461026e57806342842e0e1461028a57610137565b806301ffc9a71461013c57806306fdde031461016c5780630712249f1461018a578063081812fc146101ba578063095ea7b3146101ea575b600080fd5b61015660048036038101906101519190611e16565b610444565b6040516101639190611e5e565b60405180910390f35b610174610456565b6040516101819190611f09565b60405180910390f35b6101a4600480360381019061019f91906120be565b6104e8565b6040516101b19190612133565b60405180910390f35b6101d460048036038101906101cf919061217a565b610546565b6040516101e191906121b6565b60405180910390f35b61020460048036038101906101ff91906121d1565b610562565b005b610220600480360381019061021b9190612211565b610578565b005b61023c6004803603810190610237919061229a565b61067a565b60405161024991906122d6565b60405180910390f35b61026c600480360381019061026791906122f1565b61069a565b005b610288600480360381019061028391906122f1565b6106bc565b005b6102a4600480360381019061029f9190612211565b610737565b005b6102c060048036038101906102bb919061217a565b610757565b6040516102cd91906121b6565b60405180910390f35b6102f060048036038101906102eb9190612331565b610769565b6040516102fd9190612133565b60405180910390f35b610320600480360381019061031b91906122f1565b610823565b60405161032d9190611e5e565b60405180910390f35b61033e61088e565b60405161034b9190611f09565b60405180910390f35b61035c610920565b60405161036991906122d6565b60405180910390f35b61038c6004803603810190610387919061238a565b610927565b005b6103a860048036038101906103a3919061246b565b61093d565b005b6103c460048036038101906103bf919061217a565b610962565b6040516103d19190611f09565b60405180910390f35b6103e2610974565b6040516103ef91906122d6565b60405180910390f35b610412600480360381019061040d91906122f1565b610998565b005b61042e600480360381019061042991906124ee565b6109ba565b60405161043b9190611e5e565b60405180910390f35b600061044f82610a4e565b9050919050565b6060600080546104659061255d565b80601f01602080910402602001604051908101604052809291908181526020018280546104919061255d565b80156104de5780601f106104b3576101008083540402835291602001916104de565b820191906000526020600020905b8154815290600101906020018083116104c157829003601f168201915b5050505050905090565b60007f9f2df0fed2c77648de5860a4cc508cd0818c85b8b8a1ab4ceeef8d981c8956a661051481610ac8565b600860008154610523906125bd565b91905081905591506105358483610adc565b61053f8284610afa565b5092915050565b600061055182610b56565b5061055b82610bde565b9050919050565b610574828261056f610c1b565b610c23565b5050565b600073ffffffffffffffffffffffffffffffffffffffff168273ffffffffffffffffffffffffffffffffffffffff16036105ea5760006040517f64a0ae920000000000000000000000000000000000000000000000000000000081526004016105e191906121b6565b60405180910390fd5b60006105fe83836105f9610c1b565b610c35565b90508373ffffffffffffffffffffffffffffffffffffffff168173ffffffffffffffffffffffffffffffffffffffff1614610674578382826040517f64283d7b00000000000000000000000000000000000000000000000000000000815260040161066b93929190612605565b60405180910390fd5b50505050565b600060076000838152602001908152602001600020600101549050919050565b6106a38261067a565b6106ac81610ac8565b6106b68383610e4f565b50505050565b6106c4610c1b565b73ffffffffffffffffffffffffffffffffffffffff168173ffffffffffffffffffffffffffffffffffffffff1614610728576040517f6697b23200000000000000000000000000000000000000000000000000000000815260040160405180910390fd5b6107328282610f41565b505050565b6107528383836040518060200160405280600081525061093d565b505050565b600061076282610b56565b9050919050565b60008073ffffffffffffffffffffffffffffffffffffffff168273ffffffffffffffffffffffffffffffffffffffff16036107dc5760006040517f89c62b640000000000000000000000000000000000000000000000000000000081526004016107d391906121b6565b60405180910390fd5b600360008373ffffffffffffffffffffffffffffffffffffffff1673ffffffffffffffffffffffffffffffffffffffff168152602001908152602001600020549050919050565b60006007600084815260200190815260200160002060000160008373ffffffffffffffffffffffffffffffffffffffff1673ffffffffffffffffffffffffffffffffffffffff16815260200190815260200160002060009054906101000a900460ff16905092915050565b60606001805461089d9061255d565b80601f01602080910402602001604051908101604052809291908181526020018280546108c99061255d565b80156109165780601f106108eb57610100808354040283529160200191610916565b820191906000526020600020905b8154815290600101906020018083116108f957829003601f168201915b5050505050905090565b6000801b81565b610939610932610c1b565b8383611034565b5050565b610948848484610578565b61095c610953610c1b565b858585856111a3565b50505050565b606061096d82611354565b9050919050565b7f9f2df0fed2c77648de5860a4cc508cd0818c85b8b8a1ab4ceeef8d981c8956a681565b6109a18261067a565b6109aa81610ac8565b6109b48383610f41565b50505050565b6000600560008473ffffffffffffffffffffffffffffffffffffffff1673ffffffffffffffffffffffffffffffffffffffff16815260200190815260200160002060008373ffffffffffffffffffffffffffffffffffffffff1673ffffffffffffffffffffffffffffffffffffffff16815260200190815260200160002060009054906101000a900460ff16905092915050565b60007f7965db0b000000000000000000000000000000000000000000000000000000007bffffffffffffffffffffffffffffffffffffffffffffffffffffffff1916827bffffffffffffffffffffffffffffffffffffffffffffffffffffffff19161480610ac15750610ac082611467565b5b9050919050565b610ad981610ad4610c1b565b6114c8565b50565b610af6828260405180602001604052806000815250611519565b5050565b80600660008481526020019081526020016000209081610b1a91906127e8565b507ff8e1a15aba9398e019f0b49df1a4fde98ee17ae345cb5f6b5e2c27f5033e8ce782604051610b4a9190612133565b60405180910390a15050565b600080610b628361153d565b9050600073ffffffffffffffffffffffffffffffffffffffff168173ffffffffffffffffffffffffffffffffffffffff1603610bd557826040517f7e273289000000000000000000000000000000000000000000000000000000008152600401610bcc9190612133565b60405180910390fd5b80915050919050565b60006004600083815260200190815260200160002060009054906101000a900473ffffffffffffffffffffffffffffffffffffffff169050919050565b600033905090565b610c30838383600161157a565b505050565b600080610c418461153d565b9050600073ffffffffffffffffffffffffffffffffffffffff168373ffffffffffffffffffffffffffffffffffffffff1614610c8357610c8281848661173f565b5b600073ffffffffffffffffffffffffffffffffffffffff168173ffffffffffffffffffffffffffffffffffffffff1614610d1457610cc560008560008061157a565b6001600360008373ffffffffffffffffffffffffffffffffffffffff1673ffffffffffffffffffffffffffffffffffffffff168152602001908152602001600020600082825403925050819055505b600073ffffffffffffffffffffffffffffffffffffffff168573ffffffffffffffffffffffffffffffffffffffff1614610d97576001600360008773ffffffffffffffffffffffffffffffffffffffff1673ffffffffffffffffffffffffffffffffffffffff168152602001908152602001600020600082825401925050819055505b846002600086815260200190815260200160002060006101000a81548173ffffffffffffffffffffffffffffffffffffffff021916908373ffffffffffffffffffffffffffffffffffffffff160217905550838573ffffffffffffffffffffffffffffffffffffffff168273ffffffffffffffffffffffffffffffffffffffff167fddf252ad1be2c89b69c2b068fc378daa952ba7f163c4a11628f55a4df523b3ef60405160405180910390a4809150509392505050565b6000610e5b8383610823565b610f365760016007600085815260200190815260200160002060000160008473ffffffffffffffffffffffffffffffffffffffff1673ffffffffffffffffffffffffffffffffffffffff16815260200190815260200160002060006101000a81548160ff021916908315150217905550610ed3610c1b565b73ffffffffffffffffffffffffffffffffffffffff168273ffffffffffffffffffffffffffffffffffffffff16847f2f8788117e7eff1d82e926ec794901d17c78024a50270940304540a733656f0d60405160405180910390a460019050610f3b565b600090505b92915050565b6000610f4d8383610823565b156110295760006007600085815260200190815260200160002060000160008473ffffffffffffffffffffffffffffffffffffffff1673ffffffffffffffffffffffffffffffffffffffff16815260200190815260200160002060006101000a81548160ff021916908315150217905550610fc6610c1b565b73ffffffffffffffffffffffffffffffffffffffff168273ffffffffffffffffffffffffffffffffffffffff16847ff6391f5c32d9c69d2a47ea670b442974b53935d1edc7fd64eb21e047a839171b60405160405180910390a46001905061102e565b600090505b92915050565b600073ffffffffffffffffffffffffffffffffffffffff168273ffffffffffffffffffffffffffffffffffffffff16036110a557816040517f5b08ba1800000000000000000000000000000000000000000000000000000000815260040161109c91906121b6565b60405180910390fd5b80600560008573ffffffffffffffffffffffffffffffffffffffff1673ffffffffffffffffffffffffffffffffffffffff16815260200190815260200160002060008473ffffffffffffffffffffffffffffffffffffffff1673ffffffffffffffffffffffffffffffffffffffff16815260200190815260200160002060006101000a81548160ff0219169083151502179055508173ffffffffffffffffffffffffffffffffffffffff168373ffffffffffffffffffffffffffffffffffffffff167f17307eab39ab6107e8899845ad3d59bd9653f200f220920489ca2b5937696c31836040516111969190611e5e565b60405180910390a3505050565b60008373ffffffffffffffffffffffffffffffffffffffff163b111561134d578273ffffffffffffffffffffffffffffffffffffffff1663150b7a02868685856040518563ffffffff1660e01b8152600401611202949392919061290f565b6020604051808303816000875af192505050801561123e57506040513d601f19601f8201168201806040525081019061123b9190612970565b60015b6112c2573d806000811461126e576040519150601f19603f3d011682016040523d82523d6000602084013e611273565b606091505b5060008151036112ba57836040517f64a0ae920000000000000000000000000000000000000000000000000000000081526004016112b191906121b6565b60405180910390fd5b805160208201fd5b63150b7a0260e01b7bffffffffffffffffffffffffffffffffffffffffffffffffffffffff1916817bffffffffffffffffffffffffffffffffffffffffffffffffffffffff19161461134b57836040517f64a0ae9200000000000000000000000000000000000000000000000000000000815260040161134291906121b6565b60405180910390fd5b505b5050505050565b606061135f82610b56565b5060006006600084815260200190815260200160002080546113809061255d565b80601f01602080910402602001604051908101604052809291908181526020018280546113ac9061255d565b80156113f95780601f106113ce576101008083540402835291602001916113f9565b820191906000526020600020905b8154815290600101906020018083116113dc57829003601f168201915b50505050509050600061140a611803565b9050600081510361141f578192505050611462565b60008251111561145457808260405160200161143c9291906129d9565b60405160208183030381529060405292505050611462565b61145d8461181a565b925050505b919050565b6000634906490660e01b7bffffffffffffffffffffffffffffffffffffffffffffffffffffffff1916827bffffffffffffffffffffffffffffffffffffffffffffffffffffffff191614806114c157506114c082611883565b5b9050919050565b6114d28282610823565b6115155780826040517fe2517d3f00000000000000000000000000000000000000000000000000000000815260040161150c9291906129fd565b60405180910390fd5b5050565b6115238383611965565b61153861152e610c1b565b60008585856111a3565b505050565b60006002600083815260200190815260200160002060009054906101000a900473ffffffffffffffffffffffffffffffffffffffff169050919050565b80806115b35750600073ffffffffffffffffffffffffffffffffffffffff168273ffffffffffffffffffffffffffffffffffffffff1614155b156116e75760006115c384610b56565b9050600073ffffffffffffffffffffffffffffffffffffffff168373ffffffffffffffffffffffffffffffffffffffff161415801561162e57508273ffffffffffffffffffffffffffffffffffffffff168173ffffffffffffffffffffffffffffffffffffffff1614155b8015611641575061163f81846109ba565b155b1561168357826040517fa9fbf51f00000000000000000000000000000000000000000000000000000000815260040161167a91906121b6565b60405180910390fd5b81156116e557838573ffffffffffffffffffffffffffffffffffffffff168273ffffffffffffffffffffffffffffffffffffffff167f8c5be1e5ebec7d5bd14f71427d1e84f3dd0314c0f7b2291e5b200ac8c7c3b92560405160405180910390a45b505b836004600085815260200190815260200160002060006101000a81548173ffffffffffffffffffffffffffffffffffffffff021916908373ffffffffffffffffffffffffffffffffffffffff16021790555050505050565b61174a838383611a5e565b6117fe57600073ffffffffffffffffffffffffffffffffffffffff168373ffffffffffffffffffffffffffffffffffffffff16036117bf57806040517f7e2732890000000000000000000000000000000000000000000000000000000081526004016117b69190612133565b60405180910390fd5b81816040517f177e802f0000000000000000000000000000000000000000000000000000000081526004016117f5929190612a26565b60405180910390fd5b505050565b606060405180602001604052806000815250905090565b606061182582610b56565b506000611830611803565b90506000815111611850576040518060200160405280600081525061187b565b8061185a84611b1f565b60405160200161186b9291906129d9565b6040516020818303038152906040525b915050919050565b60007f80ac58cd000000000000000000000000000000000000000000000000000000007bffffffffffffffffffffffffffffffffffffffffffffffffffffffff1916827bffffffffffffffffffffffffffffffffffffffffffffffffffffffff1916148061194e57507f5b5e139f000000000000000000000000000000000000000000000000000000007bffffffffffffffffffffffffffffffffffffffffffffffffffffffff1916827bffffffffffffffffffffffffffffffffffffffffffffffffffffffff1916145b8061195e575061195d82611bed565b5b9050919050565b600073ffffffffffffffffffffffffffffffffffffffff168273ffffffffffffffffffffffffffffffffffffffff16036119d75760006040517f64a0ae920000000000000000000000000000000000000000000000000000000081526004016119ce91906121b6565b60405180910390fd5b60006119e583836000610c35565b9050600073ffffffffffffffffffffffffffffffffffffffff168173ffffffffffffffffffffffffffffffffffffffff1614611a595760006040517f73c6ac6e000000000000000000000000000000000000000000000000000000008152600401611a5091906121b6565b60405180910390fd5b505050565b60008073ffffffffffffffffffffffffffffffffffffffff168373ffffffffffffffffffffffffffffffffffffffff1614158015611b1657508273ffffffffffffffffffffffffffffffffffffffff168473ffffffffffffffffffffffffffffffffffffffff161480611ad75750611ad684846109ba565b5b80611b1557508273ffffffffffffffffffffffffffffffffffffffff16611afd83610bde565b73ffffffffffffffffffffffffffffffffffffffff16145b5b90509392505050565b606060006001611b2e84611c57565b01905060008167ffffffffffffffff811115611b4d57611b4c611f93565b5b6040519080825280601f01601f191660200182016040528015611b7f5781602001600182028036833780820191505090505b509050600082602083010190505b600115611be2578080600190039150507f3031323334353637383961626364656600000000000000000000000000000000600a86061a8153600a8581611bd657611bd5612a4f565b5b04945060008503611b8d575b819350505050919050565b60007f01ffc9a7000000000000000000000000000000000000000000000000000000007bffffffffffffffffffffffffffffffffffffffffffffffffffffffff1916827bffffffffffffffffffffffffffffffffffffffffffffffffffffffff1916149050919050565b600080600090507a184f03e93ff9f4daa797ed6e38ed64bf6a1f0100000000000000008310611cb5577a184f03e93ff9f4daa797ed6e38ed64bf6a1f0100000000000000008381611cab57611caa612a4f565b5b0492506040810190505b6d04ee2d6d415b85acef81000000008310611cf2576d04ee2d6d415b85acef81000000008381611ce857611ce7612a4f565b5b0492506020810190505b662386f26fc100008310611d2157662386f26fc100008381611d1757611d16612a4f565b5b0492506010810190505b6305f5e1008310611d4a576305f5e1008381611d4057611d3f612a4f565b5b0492506008810190505b6127108310611d6f576127108381611d6557611d64612a4f565b5b0492506004810190505b60648310611d925760648381611d8857611d87612a4f565b5b0492506002810190505b600a8310611da1576001810190505b80915050919050565b6000604051905090565b600080fd5b600080fd5b60007fffffffff0000000000000000000000000000000000000000000000000000000082169050919050565b611df381611dbe565b8114611dfe57600080fd5b50565b600081359050611e1081611dea565b92915050565b600060208284031215611e2c57611e2b611db4565b5b6000611e3a84828501611e01565b91505092915050565b60008115159050919050565b611e5881611e43565b82525050565b6000602082019050611e736000830184611e4f565b92915050565b600081519050919050565b600082825260208201905092915050565b60005b83811015611eb3578082015181840152602081019050611e98565b60008484015250505050565b6000601f19601f8301169050919050565b6000611edb82611e79565b611ee58185611e84565b9350611ef5818560208601611e95565b611efe81611ebf565b840191505092915050565b60006020820190508181036000830152611f238184611ed0565b905092915050565b600073ffffffffffffffffffffffffffffffffffffffff82169050919050565b6000611f5682611f2b565b9050919050565b611f6681611f4b565b8114611f7157600080fd5b50565b600081359050611f8381611f5d565b92915050565b600080fd5b600080fd5b7f4e487b7100000000000000000000000000000000000000000000000000000000600052604160045260246000fd5b611fcb82611ebf565b810181811067ffffffffffffffff82111715611fea57611fe9611f93565b5b80604052505050565b6000611ffd611daa565b90506120098282611fc2565b919050565b600067ffffffffffffffff82111561202957612028611f93565b5b61203282611ebf565b9050602081019050919050565b82818337600083830152505050565b600061206161205c8461200e565b611ff3565b90508281526020810184848401111561207d5761207c611f8e565b5b61208884828561203f565b509392505050565b600082601f8301126120a5576120a4611f89565b5b81356120b584826020860161204e565b91505092915050565b600080604083850312156120d5576120d4611db4565b5b60006120e385828601611f74565b925050602083013567ffffffffffffffff81111561210457612103611db9565b5b61211085828601612090565b9150509250929050565b6000819050919050565b61212d8161211a565b82525050565b60006020820190506121486000830184612124565b92915050565b6121578161211a565b811461216257600080fd5b50565b6000813590506121748161214e565b92915050565b6000602082840312156121905761218f611db4565b5b600061219e84828501612165565b91505092915050565b6121b081611f4b565b82525050565b60006020820190506121cb60008301846121a7565b92915050565b600080604083850312156121e8576121e7611db4565b5b60006121f685828601611f74565b925050602061220785828601612165565b9150509250929050565b60008060006060848603121561222a57612229611db4565b5b600061223886828701611f74565b935050602061224986828701611f74565b925050604061225a86828701612165565b9150509250925092565b6000819050919050565b61227781612264565b811461228257600080fd5b50565b6000813590506122948161226e565b92915050565b6000602082840312156122b0576122af611db4565b5b60006122be84828501612285565b91505092915050565b6122d081612264565b82525050565b60006020820190506122eb60008301846122c7565b92915050565b6000806040838503121561230857612307611db4565b5b600061231685828601612285565b925050602061232785828601611f74565b9150509250929050565b60006020828403121561234757612346611db4565b5b600061235584828501611f74565b91505092915050565b61236781611e43565b811461237257600080fd5b50565b6000813590506123848161235e565b92915050565b600080604083850312156123a1576123a0611db4565b5b60006123af85828601611f74565b92505060206123c085828601612375565b9150509250929050565b600067ffffffffffffffff8211156123e5576123e4611f93565b5b6123ee82611ebf565b9050602081019050919050565b600061240e612409846123ca565b611ff3565b90508281526020810184848401111561242a57612429611f8e565b5b61243584828561203f565b509392505050565b600082601f83011261245257612451611f89565b5b81356124628482602086016123fb565b91505092915050565b6000806000806080858703121561248557612484611db4565b5b600061249387828801611f74565b94505060206124a487828801611f74565b93505060406124b587828801612165565b925050606085013567ffffffffffffffff8111156124d6576124d5611db9565b5b6124e28782880161243d565b91505092959194509250565b6000806040838503121561250557612504611db4565b5b600061251385828601611f74565b925050602061252485828601611f74565b9150509250929050565b7f4e487b7100000000000000000000000000000000000000000000000000000000600052602260045260246000fd5b6000600282049050600182168061257557607f821691505b6020821081036125885761258761252e565b5b50919050565b7f4e487b7100000000000000000000000000000000000000000000000000000000600052601160045260246000fd5b60006125c88261211a565b91507fffffffffffffffffffffffffffffffffffffffffffffffffffffffffffffffff82036125fa576125f961258e565b5b600182019050919050565b600060608201905061261a60008301866121a7565b6126276020830185612124565b61263460408301846121a7565b949350505050565b60008190508160005260206000209050919050565b60006020601f8301049050919050565b600082821b905092915050565b60006008830261269e7fffffffffffffffffffffffffffffffffffffffffffffffffffffffffffffffff82612661565b6126a88683612661565b95508019841693508086168417925050509392505050565b6000819050919050565b60006126e56126e06126db8461211a565b6126c0565b61211a565b9050919050565b6000819050919050565b6126ff836126ca565b61271361270b826126ec565b84845461266e565b825550505050565b600090565b61272861271b565b6127338184846126f6565b505050565b5b818110156127575761274c600082612720565b600181019050612739565b5050565b601f82111561279c5761276d8161263c565b61277684612651565b81016020851015612785578190505b61279961279185612651565b830182612738565b50505b505050565b600082821c905092915050565b60006127bf600019846008026127a1565b1980831691505092915050565b60006127d883836127ae565b9150826002028217905092915050565b6127f182611e79565b67ffffffffffffffff81111561280a57612809611f93565b5b612814825461255d565b61281f82828561275b565b600060209050601f8311600181146128525760008415612840578287015190505b61284a85826127cc565b8655506128b2565b601f1984166128608661263c565b60005b8281101561288857848901518255600182019150602085019450602081019050612863565b868310156128a557848901516128a1601f8916826127ae565b8355505b6001600288020188555050505b505050505050565b600081519050919050565b600082825260208201905092915050565b60006128e1826128ba565b6128eb81856128c5565b93506128fb818560208601611e95565b61290481611ebf565b840191505092915050565b600060808201905061292460008301876121a7565b61293160208301866121a7565b61293e6040830185612124565b818103606083015261295081846128d6565b905095945050505050565b60008151905061296a81611dea565b92915050565b60006020828403121561298657612985611db4565b5b60006129948482850161295b565b91505092915050565b600081905092915050565b60006129b382611e79565b6129bd818561299d565b93506129cd818560208601611e95565b80840191505092915050565b60006129e582856129a8565b91506129f182846129a8565b91508190509392505050565b6000604082019050612a1260008301856121a7565b612a1f60208301846122c7565b9392505050565b6000604082019050612a3b60008301856121a7565b612a486020830184612124565b9392505050565b7f4e487b7100000000000000000000000000000000000000000000000000000000600052601260045260246000fdfea2646970667358221220aaee93b8e7366a8b6522151dd0936b624e7da5ff6d21aa532d54c938b2705e3564736f6c634300081c0033",
  "linkReferences": {},
  "deployedLinkReferences": {}
}