{
  "_format": "hh-sol-artifact-1",
  "contractName": "RetirementCertificate",
  "sourceName": "contracts/RetirementCertificate.sol",
  "abi": [
    {
      "inputs": [],
      "stateMutability": "nonpayable",
      "type": "constructor"
    },
    {
      "inputs": [],
      "name": "AccessControlBadConfirmation",
      "type": "error"
    },
    {
      "inputs": [
        {
          "internalType": "address",
          "name": "account",
          "type": "address"
        },
        {
          "internalType": "bytes32",
          "name": "neededRole",
          "type": "bytes32"
        }
      ],
      "name": "AccessControlUnauthorizedAccount",
      "type": "error"
    },
    {
      "inputs": [
        {
          "internalType": "address",
          "name": "sender",
          "type": "address"
        },
        {
          "internalType": "uint256",
          "name": "tokenId",
          "type": "uint256"
        },
        {
          "internalType": "address",
          "name": "owner",
          "type": "address"
        }
      ],
      "name": "ERC721IncorrectOwner",
      "type": "error"
    },
    {
      "inputs": [
        {
          "internalType": "address",
          "name": "operator",
          "type": "address"
        },
        {
          "internalType": "uint256",
          "name": "tokenId",
          "type": "uint256"
        }
      ],
      "name": "ERC721InsufficientApproval",
      "type": "error"
    },
    {
      "inputs": [
        {
          "internalType": "address",
          "name": "approver",
          "type": "address"
        }
      ],
      "name": "ERC721InvalidApprover",
      "type": "error"
    },
    {
      "inputs": [
        {
          "internalType": "address",
          "name": "operator",
          "type": "address"
        }
      ],
      "name": "ERC721InvalidOperator",
      "type": "error"
    },
    {
      "inputs": [
        {
          "internalType": "address",
          "name": "owner",
          "type": "address"
        }
      ],
      "name": "ERC721InvalidOwner",
      "type": "error"
    },
    {
      "inputs": [
        {
          "internalType": "address",
          "name": "receiver",
          "type": "address"
        }
      ],
      "name": "ERC721InvalidReceiver",
      "type": "error"
    },
    {
      "inputs": [
        {
          "internalType": "address",
          "name": "sender",
          "type": "address"
        }
      ],
      "name": "ERC721InvalidSender",
      "type": "error"
    },
    {
      "inputs": [
        {
          "internalType": "uint256",
          "name": "tokenId",
          "type": "uint256"
        }
      ],
      "name": "ERC721NonexistentToken",
      "type": "error"
    },
    {
      "anonymous": false,
      "inputs": [
        {
          "indexed": true,
          "internalType": "address",
          "name": "owner",
          "type": "address"
        },
        {
          "indexed": true,
          "internalType": "address",
          "name": "approved",
          "type": "address"
        },
        {
          "indexed": true,
          "internalType": "uint256",
          "name": "tokenId",
          "type": "uint256"
        }
      ],
      "name": "Approval",
      "type": "event"
    },
    {
      "anonymous": false,
      "inputs": [
        {
          "indexed": true,
          "internalType": "address",
          "name": "owner",
          "type": "address"
        },
        {
          "indexed": true,
          "internalType": "address",
          "name": "operator",
          "type": "address"
        },
        {
          "indexed": false,
          "internalType": "bool",
          "name": "approved",
          "type": "bool"
        }
      ],
      "name": "ApprovalForAll",
      "type": "event"
    },
    {
      "anonymous": false,
      "inputs": [
        {
          "indexed": false,
          "internalType": "uint256",
          "name": "_fromTokenId",
          "type": "uint256"
        },
        {
          "indexed": false,
          "internalType": "uint256",
          "name": "_toTokenId",
          "type": "uint256"
        }
      ],
      "name": "BatchMetadataUpdate",
      "type": "event"
    },
    {
      "anonymous": false,
      "inputs": [
        {
          "indexed": false,
          "internalType": "uint256",
          "name": "_tokenId",
          "type": "uint256"
        }
      ],
      "name": "MetadataUpdate",
      "type": "event"
    },
    {
      "anonymous": false,
      "inputs": [
        {
          "indexed": true,
          "internalType": "bytes32",
          "name": "role",
          "type": "bytes32"
        },
        {
          "indexed": true,
          "internalType": "bytes32",
          "name": "previousAdminRole",
          "type": "bytes32"
        },
        {
          "indexed": true,
          "internalType": "bytes32",
          "name": "newAdminRole",
          "type": "bytes32"
        }
      ],
      "name": "RoleAdminChanged",
      "type": "event"
    },
    {
      "anonymous": false,
      "inputs": [
        {
          "indexed": true,
          "internalType": "bytes32",
          "name": "role",
          "type": "bytes32"
        },
        {
          "indexed": true,
          "internalType": "address",
          "name": "account",
          "type": "address"
        },
        {
          "indexed": true,
          "internalType": "address",
          "name": "sender",
          "type": "address"
        }
      ],
      "name": "RoleGranted",
      "type": "event"
    },
    {
      "anonymous": false,
      "inputs": [
        {
          "indexed": true,
          "internalType": "bytes32",
          "name": "role",
          "type": "bytes32"
        },
        {
          "indexed": true,
          "internalType": "address",
          "name": "account",
          "type": "address"
        },
        {
          "indexed": true,
          "internalType": "address",
          "name": "sender",
          "type": "address"
        }
      ],
      "name": "RoleRevoked",
      "type": "event"
    },
    {
      "anonymous": false,
      "inputs": [
        {
          "indexed": true,
          "internalType": "address",
          "name": "from",
          "type": "address"
        },
        {
          "indexed": true,
          "internalType": "address",
          "name": "to",
          "type": "address"
        },
        {
          "indexed": true,
          "internalType": "uint256",
          "name": "tokenId",
          "type": "uint256"
        }
      ],
      "name": "Transfer",
      "type": "event"
    },
    {
      "inputs": [],
      "name": "DEFAULT_ADMIN_ROLE",
      "outputs": [
        {
          "internalType": "bytes32",
          "name": "",
          "type": "bytes32"
        }
      ],
      "stateMutability": "view",
      "type": "function"
    },
    {
      "inputs": [],
      "name": "MINTER_ROLE",
      "outputs": [
        {
          "internalType": "bytes32",
          "name": "",
          "type": "bytes32"
        }
      ],
      "stateMutability": "view",
      "type": "function"
    },
    {
      "inputs": [
        {
          "internalType": "address",
          "name": "to",
          "type": "address"
        },
        {
          "internalType": "uint256",
          "name": "tokenId",
          "type": "uint256"
        }
      ],
      "name": "approve",
      "outputs": [],
      "stateMutability": "nonpayable",
      "type": "function"
    },
    {
      "inputs": [
        {
          "internalType": "address",
          "name": "owner",
          "type": "address"
        }
      ],
      "name": "balanceOf",
      "outputs": [
        {
          "internalType": "uint256",
          "name": "",
          "type": "uint256"
        }
      ],
      "stateMutability": "view",
      "type": "function"
    },
    {
      "inputs": [
        {
          "internalType": "uint256",
          "name": "tokenId",
          "type": "uint256"
        }
      ],
      "name": "getApproved",
      "outputs": [
        {
          "internalType": "address",
          "name": "",
          "type": "address"
        }
      ],
      "stateMutability": "view",
      "type": "function"
    },
    {
      "inputs": [
        {
          "internalType": "address",
          "name": "user",
          "type": "address"
        }
      ],
      "name": "getRetirements",
      "outputs": [
        {
          "internalType": "uint256[]",
          "name": "",
          "type": "uint256[]"
        }
      ],
      "stateMutability": "view",
      "type": "function"
    },
    {
      "inputs": [
        {
          "internalType": "bytes32",
          "name": "role",
          "type": "bytes32"
        }
      ],
      "name": "getRoleAdmin",
      "outputs": [
        {
          "internalType": "bytes32",
          "name": "",
          "type": "bytes32"
        }
      ],
      "stateMutability": "view",
      "type": "function"
    },
    {
      "inputs": [
        {
          "internalType": "bytes32",
          "name": "role",
          "type": "bytes32"
        },
        {
          "internalType": "address",
          "name": "account",
          "type": "address"
        }
      ],
      "name": "grantRole",
      "outputs": [],
      "stateMutability": "nonpayable",
      "type": "function"
    },
    {
      "inputs": [
        {
          "internalType": "bytes32",
          "name": "role",
          "type": "bytes32"
        },
        {
          "internalType": "address",
          "name": "account",
          "type": "address"
        }
      ],
      "name": "hasRole",
      "outputs": [
        {
          "internalType": "bool",
          "name": "",
          "type": "bool"
        }
      ],
      "stateMutability": "view",
      "type": "function"
    },
    {
      "inputs": [
        {
          "internalType": "address",
          "name": "owner",
          "type": "address"
        },
        {
          "internalType": "address",
          "name": "operator",
          "type": "address"
        }
      ],
      "name": "isApprovedForAll",
      "outputs": [
        {
          "internalType": "bool",
          "name": "",
          "type": "bool"
        }
      ],
      "stateMutability": "view",
      "type": "function"
    },
    {
      "inputs": [
        {
          "internalType": "address",
          "name": "to",
          "type": "address"
        },
        {
          "internalType": "string",
          "name": "tokenURI",
          "type": "string"
        }
      ],
      "name": "mintCertificate",
      "outputs": [
        {
          "internalType": "uint256",
          "name": "tokenId",
          "type": "uint256"
        }
      ],
      "stateMutability": "nonpayable",
      "type": "function"
    },
    {
      "inputs": [],
      "name": "name",
      "outputs": [
        {
          "internalType": "string",
          "name": "",
          "type": "string"
        }
      ],
      "stateMutability": "view",
      "type": "function"
    },
    {
      "inputs": [
        {
          "internalType": "uint256",
          "name": "tokenId",
          "type": "uint256"
        }
      ],
      "name": "ownerOf",
      "outputs": [
        {
          "internalType": "address",
          "name": "",
          "type": "address"
        }
      ],
      "stateMutability": "view",
      "type": "function"
    },
    {
      "inputs": [
        {
          "internalType": "bytes32",
          "name": "role",
          "type": "bytes32"
        },
        {
          "internalType": "address",
          "name": "callerConfirmation",
          "type": "address"
        }
      ],
      "name": "renounceRole",
      "outputs": [],
      "stateMutability": "nonpayable",
      "type": "function"
    },
    {
      "inputs": [
        {
          "internalType": "bytes32",
          "name": "role",
          "type": "bytes32"
        },
        {
          "internalType": "address",
          "name": "account",
          "type": "address"
        }
      ],
      "name": "revokeRole",
      "outputs": [],
      "stateMutability": "nonpayable",
      "type": "function"
    },
    {
      "inputs": [
        {
          "internalType": "address",
          "name": "from",
          "type": "address"
        },
        {
          "internalType": "address",
          "name": "to",
          "type": "address"
        },
        {
          "internalType": "uint256",
          "name": "tokenId",
          "type": "uint256"
        }
      ],
      "name": "safeTransferFrom",
      "outputs": [],
      "stateMutability": "nonpayable",
      "type": "function"
    },
    {
      "inputs": [
        {
          "internalType": "address",
          "name": "from",
          "type": "address"
        },
        {
          "internalType": "address",
          "name": "to",
          "type": "address"
        },
        {
          "internalType": "uint256",
          "name": "tokenId",
          "type": "uint256"
        },
        {
          "internalType": "bytes",
          "name": "data",
          "type": "bytes"
        }
      ],
      "name": "safeTransferFrom",
      "outputs": [],
      "stateMutability": "nonpayable",
      "type": "function"
    },
    {
      "inputs": [
        {
          "internalType": "address",
          "name": "operator",
          "type": "address"
        },
        {
          "internalType": "bool",
          "name": "approved",
          "type": "bool"
        }
      ],
      "name": "setApprovalForAll",
      "outputs": [],
      "stateMutability": "nonpayable",
      "type": "function"
    },
    {
      "inputs": [
        {
          "internalType": "bytes4",
          "name": "interfaceId",
          "type": "bytes4"
        }
      ],
      "name": "supportsInterface",
      "outputs": [
        {
          "internalType": "bool",
          "name": "",
          "type": "bool"
        }
      ],
      "stateMutability": "view",
      "type": "function"
    },
    {
      "inputs": [],
      "name": "symbol",
      "outputs": [
        {
          "internalType": "string",
          "name": "",
          "type": "string"
        }
      ],
      "stateMutability": "view",
      "type": "function"
    },
    {
      "inputs": [
        {
          "internalType": "uint256",
          "name": "tokenId",
          "type": "uint256"
        }
      ],
      "name": "tokenURI",
      "outputs": [
        {
          "internalType": "string",
          "name": "",
          "type": "string"
        }
      ],
      "stateMutability": "view",
      "type": "function"
    },
    {
      "inputs": [
        {
          "internalType": "address",
          "name": "from",
          "type": "address"
        },
        {
          "internalType": "address",
          "name": "to",
          "type": "address"
        },
        {
          "internalType": "uint256",
          "name": "tokenId",
          "type": "uint256"
        }
      ],
      "name": "transferFrom",
      "outputs": [],
      "stateMutability": "nonpayable",
      "type": "function"
    }
  ],
  "bytecode": "0x608060405234801561001057600080fd5b506040518060400160405280601d81526020017f436172626f6e205265746972656d656e742043657274696669636174650000008152506040518060400160405280600681526020016552455449524560d01b81525081600090816100759190610212565b5060016100828282610212565b50610092915060009050336100c3565b506100bd7f9f2df0fed2c77648de5860a4cc508cd0818c85b8b8a1ab4ceeef8d981c8956a6336100c3565b506102d0565b60008281526007602090815260408083206001600160a01b038516845290915281205460ff166101695760008381526007602090815260408083206001600160a01b03861684529091529020805460ff191660011790556101213390565b6001600160a01b0316826001600160a01b0316847f2f8788117e7eff1d82e926ec794901d17c78024a50270940304540a733656f0d60405160405180910390a450600161016d565b5060005b92915050565b634e487b7160e01b600052604160045260246000fd5b600181811c9082168061019d57607f821691505b6020821081036101bd57634e487b7160e01b600052602260045260246000fd5b50919050565b601f82111561020d57806000526020600020601f840160051c810160208510156101ea5750805b601f840160051c820191505b8181101561020a57600081556001016101f6565b50505b505050565b81516001600160401b0381111561022b5761022b610173565b61023f816102398454610189565b846101c3565b6020601f821160018114610273576000831561025b5750848201515b600019600385901b1c1916600184901b17845561020a565b600084815260208120601f198516915b828110156102a35787850151825560209485019460019092019101610283565b50848210156102c15786840151600019600387901b60f8161c191681555b50505050600190811b01905550565b61176d806102df6000396000f3fe608060405234801561001057600080fd5b50600436106101425760003560e01c80636352211e116100b8578063a22cb4651161007c578063a22cb465146102bd578063b88d4fde146102d0578063c87b56dd146102e3578063d5391393146102f6578063d547741f1461031d578063e985e9c51461033057600080fd5b80636352211e1461027457806370a082311461028757806391d148541461029a57806395d89b41146102ad578063a217fddf146102b557600080fd5b806323b872dd1161010a57806323b872dd146101e5578063248a9ca3146101f85780632f2ff15d1461021b57806336568abe1461022e57806342842e0e14610241578063456555331461025457600080fd5b806301ffc9a71461014757806306fdde031461016f5780630712249f14610184578063081812fc146101a5578063095ea7b3146101d0575b600080fd5b61015a6101553660046111cd565b610343565b60405190151581526020015b60405180910390f35b610177610354565b604051610166919061123a565b6101976101923660046112f9565b6103e6565b604051908152602001610166565b6101b86101b336600461135b565b61046e565b6040516001600160a01b039091168152602001610166565b6101e36101de366004611374565b610497565b005b6101e36101f336600461139e565b6104a6565b61019761020636600461135b565b60009081526007602052604090206001015490565b6101e36102293660046113db565b610536565b6101e361023c3660046113db565b61055b565b6101e361024f36600461139e565b610593565b610267610262366004611407565b6105ae565b6040516101669190611422565b6101b861028236600461135b565b61061a565b610197610295366004611407565b610625565b61015a6102a83660046113db565b61066d565b610177610698565b610197600081565b6101e36102cb366004611465565b6106a7565b6101e36102de3660046114a1565b6106b2565b6101776102f136600461135b565b6106ca565b6101977f9f2df0fed2c77648de5860a4cc508cd0818c85b8b8a1ab4ceeef8d981c8956a681565b6101e361032b3660046113db565b6106d5565b61015a61033e36600461151d565b6106fa565b600061034e82610728565b92915050565b60606000805461036390611547565b80601f016020809104026020016040519081016040528092919081815260200182805461038f90611547565b80156103dc5780601f106103b1576101008083540402835291602001916103dc565b820191906000526020600020905b8154815290600101906020018083116103bf57829003601f168201915b5050505050905090565b60007f9f2df0fed2c77648de5860a4cc508cd0818c85b8b8a1ab4ceeef8d981c8956a66104128161074d565b60086000815461042190611581565b91829055509150610432848361075a565b61043c8284610774565b6001600160a01b0384166000908152600960209081526040822080546001810182559083529120018290555092915050565b6000610479826107c4565b506000828152600460205260409020546001600160a01b031661034e565b6104a28282336107fd565b5050565b6001600160a01b0382166104d557604051633250574960e11b8152600060048201526024015b60405180910390fd5b60006104e283833361080a565b9050836001600160a01b0316816001600160a01b031614610530576040516364283d7b60e01b81526001600160a01b03808616600483015260248201849052821660448201526064016104cc565b50505050565b6000828152600760205260409020600101546105518161074d565b6105308383610903565b6001600160a01b03811633146105845760405163334bd91960e11b815260040160405180910390fd5b61058e8282610997565b505050565b61058e838383604051806020016040528060008152506106b2565b6001600160a01b03811660009081526009602090815260409182902080548351818402810184019094528084526060939283018282801561060e57602002820191906000526020600020905b8154815260200190600101908083116105fa575b50505050509050919050565b600061034e826107c4565b60006001600160a01b038216610651576040516322718ad960e21b8152600060048201526024016104cc565b506001600160a01b031660009081526003602052604090205490565b60009182526007602090815260408084206001600160a01b0393909316845291905290205460ff1690565b60606001805461036390611547565b6104a2338383610a04565b6106bd8484846104a6565b6105303385858585610aa3565b606061034e82610bce565b6000828152600760205260409020600101546106f08161074d565b6105308383610997565b6001600160a01b03918216600090815260056020908152604080832093909416825291909152205460ff1690565b60006001600160e01b03198216637965db0b60e01b148061034e575061034e82610cdf565b6107578133610d04565b50565b6104a2828260405180602001604052806000815250610d3d565b600082815260066020526040902061078c82826115ef565b506040518281527ff8e1a15aba9398e019f0b49df1a4fde98ee17ae345cb5f6b5e2c27f5033e8ce79060200160405180910390a15050565b6000818152600260205260408120546001600160a01b03168061034e57604051637e27328960e01b8152600481018490526024016104cc565b61058e8383836001610d55565b6000828152600260205260408120546001600160a01b039081169083161561083757610837818486610e5b565b6001600160a01b0381161561087557610854600085600080610d55565b6001600160a01b038116600090815260036020526040902080546000190190555b6001600160a01b038516156108a4576001600160a01b0385166000908152600360205260409020805460010190555b60008481526002602052604080822080546001600160a01b0319166001600160a01b0389811691821790925591518793918516917fddf252ad1be2c89b69c2b068fc378daa952ba7f163c4a11628f55a4df523b3ef91a4949350505050565b600061090f838361066d565b61098f5760008381526007602090815260408083206001600160a01b03861684529091529020805460ff191660011790556109473390565b6001600160a01b0316826001600160a01b0316847f2f8788117e7eff1d82e926ec794901d17c78024a50270940304540a733656f0d60405160405180910390a450600161034e565b50600061034e565b60006109a3838361066d565b1561098f5760008381526007602090815260408083206001600160a01b0386168085529252808320805460ff1916905551339286917ff6391f5c32d9c69d2a47ea670b442974b53935d1edc7fd64eb21e047a839171b9190a450600161034e565b6001600160a01b038216610a3657604051630b61174360e31b81526001600160a01b03831660048201526024016104cc565b6001600160a01b03838116600081815260056020908152604080832094871680845294825291829020805460ff191686151590811790915591519182527f17307eab39ab6107e8899845ad3d59bd9653f200f220920489ca2b5937696c31910160405180910390a3505050565b6001600160a01b0383163b15610bc757604051630a85bd0160e11b81526001600160a01b0384169063150b7a0290610ae59088908890879087906004016116ae565b6020604051808303816000875af1925050508015610b20575060408051601f3d908101601f19168201909252610b1d918101906116eb565b60015b610b89573d808015610b4e576040519150601f19603f3d011682016040523d82523d6000602084013e610b53565b606091505b508051600003610b8157604051633250574960e11b81526001600160a01b03851660048201526024016104cc565b805160208201fd5b6001600160e01b03198116630a85bd0160e11b14610bc557604051633250574960e11b81526001600160a01b03851660048201526024016104cc565b505b5050505050565b6060610bd9826107c4565b5060008281526006602052604081208054610bf390611547565b80601f0160208091040260200160405190810160405280929190818152602001828054610c1f90611547565b8015610c6c5780601f10610c4157610100808354040283529160200191610c6c565b820191906000526020600020905b815481529060010190602001808311610c4f57829003601f168201915b505050505090506000610c8a60408051602081019091526000815290565b90508051600003610c9c575092915050565b815115610cce578082604051602001610cb6929190611708565b60405160208183030381529060405292505050919050565b610cd784610ebf565b949350505050565b60006001600160e01b03198216632483248360e11b148061034e575061034e82610f34565b610d0e828261066d565b6104a25760405163e2517d3f60e01b81526001600160a01b0382166004820152602481018390526044016104cc565b610d478383610f84565b61058e336000858585610aa3565b8080610d6957506001600160a01b03821615155b15610e2b576000610d79846107c4565b90506001600160a01b03831615801590610da55750826001600160a01b0316816001600160a01b031614155b8015610db85750610db681846106fa565b155b15610de15760405163a9fbf51f60e01b81526001600160a01b03841660048201526024016104cc565b8115610e295783856001600160a01b0316826001600160a01b03167f8c5be1e5ebec7d5bd14f71427d1e84f3dd0314c0f7b2291e5b200ac8c7c3b92560405160405180910390a45b505b5050600090815260046020526040902080546001600160a01b0319166001600160a01b0392909216919091179055565b610e66838383610fe9565b61058e576001600160a01b038316610e9457604051637e27328960e01b8152600481018290526024016104cc565b60405163177e802f60e01b81526001600160a01b0383166004820152602481018290526044016104cc565b6060610eca826107c4565b506000610ee260408051602081019091526000815290565b90506000815111610f025760405180602001604052806000815250610f2d565b80610f0c8461104c565b604051602001610f1d929190611708565b6040516020818303038152906040525b9392505050565b60006001600160e01b031982166380ac58cd60e01b1480610f6557506001600160e01b03198216635b5e139f60e01b145b8061034e57506301ffc9a760e01b6001600160e01b031983161461034e565b6001600160a01b038216610fae57604051633250574960e11b8152600060048201526024016104cc565b6000610fbc8383600061080a565b90506001600160a01b0381161561058e576040516339e3563760e11b8152600060048201526024016104cc565b60006001600160a01b03831615801590610cd75750826001600160a01b0316846001600160a01b03161480611023575061102384846106fa565b80610cd75750506000908152600460205260409020546001600160a01b03908116911614919050565b60606000611059836110df565b600101905060008167ffffffffffffffff81111561107957611079611269565b6040519080825280601f01601f1916602001820160405280156110a3576020820181803683370190505b5090508181016020015b600019016f181899199a1a9b1b9c1cb0b131b232b360811b600a86061a8153600a85049450846110ad57509392505050565b60008072184f03e93ff9f4daa797ed6e38ed64bf6a1f0160401b831061111e5772184f03e93ff9f4daa797ed6e38ed64bf6a1f0160401b830492506040015b6d04ee2d6d415b85acef8100000000831061114a576d04ee2d6d415b85acef8100000000830492506020015b662386f26fc10000831061116857662386f26fc10000830492506010015b6305f5e1008310611180576305f5e100830492506008015b612710831061119457612710830492506004015b606483106111a6576064830492506002015b600a831061034e5760010192915050565b6001600160e01b03198116811461075757600080fd5b6000602082840312156111df57600080fd5b8135610f2d816111b7565b60005b838110156112055781810151838201526020016111ed565b50506000910152565b600081518084526112268160208601602086016111ea565b601f01601f19169290920160200192915050565b602081526000610f2d602083018461120e565b80356001600160a01b038116811461126457600080fd5b919050565b634e487b7160e01b600052604160045260246000fd5b60008067ffffffffffffffff84111561129a5761129a611269565b50604051601f19601f85018116603f0116810181811067ffffffffffffffff821117156112c9576112c9611269565b6040528381529050808284018510156112e157600080fd5b83836020830137600060208583010152509392505050565b6000806040838503121561130c57600080fd5b6113158361124d565b9150602083013567ffffffffffffffff81111561133157600080fd5b8301601f8101851361134257600080fd5b6113518582356020840161127f565b9150509250929050565b60006020828403121561136d57600080fd5b5035919050565b6000806040838503121561138757600080fd5b6113908361124d565b946020939093013593505050565b6000806000606084860312156113b357600080fd5b6113bc8461124d565b92506113ca6020850161124d565b929592945050506040919091013590565b600080604083850312156113ee57600080fd5b823591506113fe6020840161124d565b90509250929050565b60006020828403121561141957600080fd5b610f2d8261124d565b602080825282518282018190526000918401906040840190835b8181101561145a57835183526020938401939092019160010161143c565b509095945050505050565b6000806040838503121561147857600080fd5b6114818361124d565b91506020830135801515811461149657600080fd5b809150509250929050565b600080600080608085870312156114b757600080fd5b6114c08561124d565b93506114ce6020860161124d565b925060408501359150606085013567ffffffffffffffff8111156114f157600080fd5b8501601f8101871361150257600080fd5b6115118782356020840161127f565b91505092959194509250565b6000806040838503121561153057600080fd5b6115398361124d565b91506113fe6020840161124d565b600181811c9082168061155b57607f821691505b60208210810361157b57634e487b7160e01b600052602260045260246000fd5b50919050565b6000600182016115a157634e487b7160e01b600052601160045260246000fd5b5060010190565b601f82111561058e57806000526020600020601f840160051c810160208510156115cf5750805b601f840160051c820191505b81811015610bc757600081556001016115db565b815167ffffffffffffffff81111561160957611609611269565b61161d816116178454611547565b846115a8565b6020601f82116001811461165157600083156116395750848201515b600019600385901b1c1916600184901b178455610bc7565b600084815260208120601f198516915b828110156116815787850151825560209485019460019092019101611661565b508482101561169f5786840151600019600387901b60f8161c191681555b50505050600190811b01905550565b6001600160a01b03858116825284166020820152604081018390526080606082018190526000906116e19083018461120e565b9695505050505050565b6000602082840312156116fd57600080fd5b8151610f2d816111b7565b6000835161171a8184602088016111ea565b83519083019061172e8183602088016111ea565b0194935050505056fea264697066735822122095012b4bf392d34c2e3289b4160cf2df834ace44e486815510d399d6023f955764736f6c634300081c0033",
  "linkReferences": {},
  "deployedLinkReferences": {}
}