{
  "_format": "hh-sol-artifact-1",
  "contractName": "RetirementCertificate",
  "sourceName": "contracts/RetirementCertificate.sol",
  "abi": [
    {
      "inputs": [],
      "stateMutability": "nonpayable",
      "type": "constructor"
    },
    {
      "inputs": [],
      "name": "AccessControlBadConfirmation",
      "type": "error"
    },
    {
      "inputs": [
        {
          "internalType": "address",
          "name": "account",
          "type": "address"
        },
        {
          "internalType": "bytes32",
          "name": "neededRole",
          "type": "bytes32"
        }
      ],
      "name": "AccessControlUnauthorizedAccount",
      "type": "error"
    },
    {
      "inputs": [
        {
          "internalType": "address",
          "name": "sender",
          "type": "address"
        },
        {
          "internalType": "uint256",
          "name": "tokenId",
          "type": "uint256"
        },
        {
          "internalType": "address",
          "name": "owner",
          "type": "address"
        }
      ],
      "name": "ERC721IncorrectOwner",
      "type": "error"
    },
    {
      "inputs": [
        {
          "internalType": "address",
          "name": "operator",
          "type": "address"
        },
        {
          "internalType": "uint256",
          "name": "tokenId",
          "type": "uint256"
        }
      ],
      "name": "ERC721InsufficientApproval",
      "type": "error"
    },
    {
      "inputs": [
        {
          "internalType": "address",
          "name": "approver",
          "type": "address"
        }
      ],
      "name": "ERC721InvalidApprover",
      "type": "error"
    },
    {
      "inputs": [
        {
          "internalType": "address",
          "name": "operator",
          "type": "address"
        }
      ],
      "name": "ERC721InvalidOperator",
      "type": "error"
    },
    {
      "inputs": [
        {
          "internalType": "address",
          "name": "owner",
          "type": "address"
        }
      ],
      "name": "ERC721InvalidOwner",
      "type": "error"
    },
    {
      "inputs": [
        {
          "internalType": "address",
          "name": "receiver",
          "type": "address"
        }
      ],
      "name": "ERC721InvalidReceiver",
      "type": "error"
    },
    {
      "inputs": [
        {
          "internalType": "address",
          "name": "sender",
          "type": "address"
        }
      ],
      "name": "ERC721InvalidSender",
      "type": "error"
    },
    {
      "inputs": [
        {
          "internalType": "uint256",
          "name": "tokenId",
          "type": "uint256"
        }
      ],
      "name": "ERC721NonexistentToken",
      "type": "error"
    },
    {
      "anonymous": false,
      "inputs": [
        {
          "indexed": true,
          "internalType": "address",
          "name": "owner",
          "type": "address"
        },
        {
          "indexed": true,
          "internalType": "address",
          "name": "approved",
          "type": "address"
        },
        {
          "indexed": true,
          "internalType": "uint256",
          "name": "tokenId",
          "type": "uint256"
        }
      ],
      "name": "Approval",
      "type": "event"
    },
    {
      "anonymous": false,
      "inputs": [
        {
          "indexed": true,
          "internalType": "address",
          "name": "owner",
          "type": "address"
        },
        {
          "indexed": true,
          "internalType": "address",
          "name": "operator",
          "type": "address"
        },
        {
          "indexed": false,
          "internalType": "bool",
          "name": "approved",
          "type": "bool"
        }
      ],
      "name": "ApprovalForAll",
      "type": "event"
    },
    {
      "anonymous": false,
      "inputs": [
        {
          "indexed": false,
          "internalType": "uint256",
          "name": "_fromTokenId",
          "type": "uint256"
        },
        {
          "indexed": false,
          "internalType": "uint256",
          "name": "_toTokenId",
          "type": "uint256"
        }
      ],
      "name": "BatchMetadataUpdate",
      "type": "event"
    },
    {
      "anonymous": false,
      "inputs": [
        {
          "indexed": false,
          "internalType": "uint256",
          "name": "_tokenId",
          "type": "uint256"
        }
      ],
      "name": "MetadataUpdate",
      "type": "event"
    },
    {
      "anonymous": false,
      "inputs": [
        {
          "indexed": true,
          "internalType": "bytes32",
          "name": "role",
          "type": "bytes32"
        },
        {
          "indexed": true,
          "internalType": "bytes32",
          "name": "previousAdminRole",
          "type": "bytes32"
        },
        {
          "indexed": true,
          "internalType": "bytes32",
          "name": "newAdminRole",
          "type": "bytes32"
        }
      ],
      "name": "RoleAdminChanged",
      "type": "event"
    },
    {
      "anonymous": false,
      "inputs": [
        {
          "indexed": true,
          "internalType": "bytes32",
          "name": "role",
          "type": "bytes32"
        },
        {
          "indexed": true,
          "internalType": "address",
          "name": "account",
          "type": "address"
        },
        {
          "indexed": true,
          "internalType": "address",
          "name": "sender",
          "type": "address"
        }
      ],
      "name": "RoleGranted",
      "type": "event"
    },
    {
      "anonymous": false,
      "inputs": [
        {
          "indexed": true,
          "internalType": "bytes32",
          "name": "role",
          "type": "bytes32"
        },
        {
          "indexed": true,
          "internalType": "address",
          "name": "account",
          "type": "address"
        },
        {
          "indexed": true,
          "internalType": "address",
          "name": "sender",
          "type": "address"
        }
      ],
      "name": "RoleRevoked",
      "type": "event"
    },
    {
      "anonymous": false,
      "inputs": [
        {
          "indexed": true,
          "internalType": "address",
          "name": "from",
          "type": "address"
        },
        {
          "indexed": true,
          "internalType": "address",
          "name": "to",
          "type": "address"
        },
        {
          "indexed": true,
          "internalType": "uint256",
          "name": "tokenId",
          "type": "uint256"
        }
      ],
      "name": "Transfer",
      "type": "event"
    },
    {
      "inputs": [],
      "name": "DEFAULT_ADMIN_ROLE",
      "outputs": [
        {
          "internalType": "bytes32",
          "name": "",
          "type": "bytes32"
        }
      ],
      "stateMutability": "view",
      "type": "function"
    },
    {
      "inputs": [],
      "name": "MINTER_ROLE",
      "outputs": [
        {
          "internalType": "bytes32",
          "name": "",
          "type": "bytes32"
        }
      ],
      "stateMutability": "view",
      "type": "function"
    },
    {
      "inputs": [
        {
          "internalType": "address",
          "name": "to",
          "type": "address"
        },
        {
          "internalType": "uint256",
          "name": "tokenId",
          "type": "uint256"
        }
      ],
      "name": "approve",
      "outputs": [],
      "stateMutability": "nonpayable",
      "type": "function"
    },
    {
      "inputs": [
        {
          "internalType": "address",
          "name": "owner",
          "type": "address"
        }
      ],
      "name": "balanceOf",
      "outputs": [
        {
          "internalType": "uint256",
          "name": "",
          "type": "uint256"
        }
      ],
      "stateMutability": "view",
      "type": "function"
    },
    {
      "inputs": [
        {
          "internalType": "uint256",
          "name": "tokenId",
          "type": "uint256"
        }
      ],
      "name": "getApproved",
      "outputs": [
        {
          "internalType": "address",
          "name": "",
          "type": "address"
        }
      ],
      "stateMutability": "view",
      "type": "function"
    },
    {
      "inputs": [
        {
          "internalType": "address",
          "name": "user",
          "type": "address"
        }
      ],
      "name": "getRetirements",
      "outputs": [
        {
          "internalType": "uint256[]",
          "name": "",
          "type": "uint256[]"
        }
      ],
      "stateMutability": "view",
      "type": "function"
    },
    {
      "inputs": [
        {
          "internalType": "bytes32",
          "name": "role",
          "type": "bytes32"
        }
      ],
      "name": "getRoleAdmin",
      "outputs": [
        {
          "internalType": "bytes32",
          "name": "",
          "type": "bytes32"
        }
      ],
      "stateMutability": "view",
      "type": "function"
    },
    {
      "inputs": [
        {
          "internalType": "bytes32",
          "name": "role",
          "type": "bytes32"
        },
        {
          "internalType": "address",
          "name": "account",
          "type": "address"
        }
      ],
      "name": "grantRole",
      "outputs": [],
      "stateMutability": "nonpayable",
      "type": "function"
    },
    {
      "inputs": [
        {
          "internalType": "bytes32",
          "name": "role",
          "type": "bytes32"
        },
        {
          "internalType": "address",
          "name": "account",
          "type": "address"
        }
      ],
      "name": "hasRole",
      "outputs": [
        {
          "internalType": "bool",
          "name": "",
          "type": "bool"
        }
      ],
      "stateMutability": "view",
      "type": "function"
    },
    {
      "inputs": [
        {
          "internalType": "address",
          "name": "owner",
          "type": "address"
        },
        {
          "internalType": "address",
          "name": "operator",
          "type": "address"
        }
      ],
      "name": "isApprovedForAll",
      "outputs": [
        {
          "internalType": "bool",
          "name": "",
          "type": "bool"
        }
      ],
      "stateMutability": "view",
      "type": "function"
    },
    {
      "inputs": [
        {
          "internalType": "address",
          "name": "to",
          "type": "address"
        },
        {
          "internalType": "string",
          "name": "tokenURI",
          "type": "string"
        }
      ],
      "name": "mintCertificate",
      "outputs": [
        {
          "internalType": "uint256",
          "name": "tokenId",
          "type": "uint256"
        }
      ],
      "stateMutability": "nonpayable",
      "type": "function"
    },
    {
      "inputs": [],
      "name": "name",
      "outputs": [
        {
          "internalType": "string",
          "name": "",
          "type": "string"
        }
      ],
      "stateMutability": "view",
      "type": "function"
    },
    {
      "inputs": [
        {
          "internalType": "uint256",
          "name": "tokenId",
          "type": "uint256"
        }
      ],
      "name": "ownerOf",
      "outputs": [
        {
          "internalType": "address",
          "name": "",
          "type": "address"
        }
      ],
      "stateMutability": "view",
      "type": "function"
    },
    {
      "inputs": [
        {
          "internalType": "bytes32",
          "name": "role",
          "type": "bytes32"
        },
        {
          "internalType": "address",
          "name": "callerConfirmation",
          "type": "address"
        }
      ],
      "name": "renounceRole",
      "outputs": [],
      "stateMutability": "nonpayable",
      "type": "function"
    },
    {
      "inputs": [
        {
          "internalType": "bytes32",
          "name": "role",
          "type": "bytes32"
        },
        {
          "internalType": "address",
          "name": "account",
          "type": "address"
        }
      ],
      "name": "revokeRole",
      "outputs": [],
      "stateMutability": "nonpayable",
      "type": "function"
    },
    {
      "inputs": [
        {
          "internalType": "address",
          "name": "from",
          "type": "address"
        },
        {
          "internalType": "address",
          "name": "to",
          "type": "address"
        },
        {
          "internalType": "uint256",
          "name": "tokenId",
          "type": "uint256"
        }
      ],
      "name": "safeTransferFrom",
      "outputs": [],
      "stateMutability": "nonpayable",
      "type": "function"
    },
    {
      "inputs": [
        {
          "internalType": "address",
          "name": "from",
          "type": "address"
        },
        {
          "internalType": "address",
          "name": "to",
          "type": "address"
        },
        {
          "internalType": "uint256",
          "name": "tokenId",
          "type": "uint256"
        },
        {
          "internalType": "bytes",
          "name": "data",
          "type": "bytes"
        }
      ],
      "name": "safeTransferFrom",
      "outputs": [],
      "stateMutability": "nonpayable",
      "type": "function"
    },
    {
      "inputs": [
        {
          "internalType": "address",
          "name": "operator",
          "type": "address"
        },
        {
          "internalType": "bool",
          "name": "approved",
          "type": "bool"
        }
      ],
      "name": "setApprovalForAll",
      "outputs": [],
      "stateMutability": "nonpayable",
      "type": "function"
    },
    {
      "inputs": [
        {
          "internalType": "bytes4",
          "name": "interfaceId",
          "type": "bytes4"
        }
      ],
      "name": "supportsInterface",
      "outputs": [
        {
          "internalType": "bool",
          "name": "",
          "type": "bool"
        }
      ],
      "stateMutability": "view",
      "type": "function"
    },
    {
      "inputs": [],
      "name": "symbol",
      "outputs": [
        {
          "internalType": "string",
          "name": "",
          "type": "string"
        }
      ],
      "stateMutability": "view",
      "type": "function"
    },
    {
      "inputs": [
        {
          "internalType": "uint256",
          "name": "tokenId",
          "type": "uint256"
        }
      ],
      "name": "tokenURI",
      "outputs": [
        {
          "internalType": "string",
          "name": "",
          "type": "string"
        }
      ],
      "stateMutability": "view",
      "type": "function"
    },
    {
      "inputs": [
        {
          "internalType": "address",
          "name": "from",
          "type": "address"
        },
        {
          "internalType": "address",
          "name": "to",
          "type": "address"
        },
        {
          "internalType": "uint256",
          "name": "tokenId",
          "type": "uint256"
        }
      ],
      "name": "transferFrom",
      "outputs": [],
      "stateMutability": "nonpayable",
      "type": "function"
    }
  ],
  "bytecode": "0x608060405234801561001057600080fd5b506040518060400160405280601d81526020017f436172626f6e205265746972656d656e742043657274696669636174650000008152506040518060400160405280600681526020017f5245544952450000000000000000000000000000000000000000000000000000815250816000908161008c91906104aa565b50806001908161009c91906104aa565b5050506100b26000801b336100e960201b60201c565b506100e37f9f2df0fed2c77648de5860a4cc508cd0818c85b8b8a1ab4ceeef8d981c8956a6336100e960201b60201c565b5061057c565b60006100fb83836101e760201b60201c565b6101dc5760016007600085815260200190815260200160002060000160008473ffffffffffffffffffffffffffffffffffffffff1673ffffffffffffffffffffffffffffffffffffffff16815260200190815260200160002060006101000a81548160ff02191690831515021790555061017961025260201b60201c565b73ffffffffffffffffffffffffffffffffffffffff168273ffffffffffffffffffffffffffffffffffffffff16847f2f8788117e7eff1d82e926ec794901d17c78024a50270940304540a733656f0d60405160405180910390a4600190506101e1565b600090505b92915050565b60006007600084815260200190815260200160002060000160008373ffffffffffffffffffffffffffffffffffffffff1673ffffffffffffffffffffffffffffffffffffffff16815260200190815260200160002060009054906101000a900460ff16905092915050565b600033905090565b600081519050919050565b7f4e487b7100000000000000000000000000000000000000000000000000000000600052604160045260246000fd5b7f4e487b7100000000000000000000000000000000000000000000000000000000600052602260045260246000fd5b600060028204905060018216806102db57607f821691505b6020821081036102ee576102ed610294565b5b50919050565b60008190508160005260206000209050919050565b60006020601f8301049050919050565b600082821b905092915050565b6000600883026103567fffffffffffffffffffffffffffffffffffffffffffffffffffffffffffffffff82610319565b6103608683610319565b95508019841693508086168417925050509392505050565b6000819050919050565b6000819050919050565b60006103a76103a261039d84610378565b610382565b610378565b9050919050565b6000819050919050565b6103c18361038c565b6103d56103cd826103ae565b848454610326565b825550505050565b600090565b6103ea6103dd565b6103f58184846103b8565b505050565b5b818110156104195761040e6000826103e2565b6001810190506103fb565b5050565b601f82111561045e5761042f816102f4565b61043884610309565b81016020851015610447578190505b61045b61045385610309565b8301826103fa565b50505b505050565b600082821c905092915050565b600061048160001984600802610463565b1980831691505092915050565b600061049a8383610470565b9150826002028217905092915050565b6104b38261025a565b67ffffffffffffffff8111156104cc576104cb610265565b5b6104d682546102c3565b6104e182828561041d565b600060209050601f8311600181146105145760008415610502578287015190505b61050c858261048e565b865550610574565b601f198416610522866102f4565b60005b8281101561054a57848901518255600182019150602085019450602081019050610525565b868310156105675784890151610563601f891682610470565b8355505b6001600288020188555050505b505050505050565b612ccc8061058b6000396000f3fe608060405234801561001057600080fd5b50600436106101425760003560e01c80636352211e116100b8578063a22cb4651161007c578063a22cb465146103ad578063b88d4fde146103c9578063c87b56dd146103e5578063d539139314610415578063d547741f14610433578063e985e9c51461044f57610142565b80636352211e146102e157806370a082311461031157806391d148541461034157806395d89b4114610371578063a217fddf1461038f57610142565b806323b872dd1161010a57806323b872dd14610211578063248a9ca31461022d5780632f2ff15d1461025d57806336568abe1461027957806342842e0e1461029557806345655533146102b157610142565b806301ffc9a71461014757806306fdde03146101775780630712249f14610195578063081812fc146101c5578063095ea7b3146101f5575b600080fd5b610161600480360381019061015c9190611f4e565b61047f565b60405161016e9190611f96565b60405180910390f35b61017f610491565b60405161018c9190612041565b60405180910390f35b6101af60048036038101906101aa91906121f6565b610523565b6040516101bc919061226b565b60405180910390f35b6101df60048036038101906101da91906122b2565b6105e7565b6040516101ec91906122ee565b60405180910390f35b61020f600480360381019061020a9190612309565b610603565b005b61022b60048036038101906102269190612349565b610619565b005b610247600480360381019061024291906123d2565b61071b565b604051610254919061240e565b60405180910390f35b61027760048036038101906102729190612429565b61073b565b005b610293600480360381019061028e9190612429565b61075d565b005b6102af60048036038101906102aa9190612349565b6107d8565b005b6102cb60048036038101906102c69190612469565b6107f8565b6040516102d89190612554565b60405180910390f35b6102fb60048036038101906102f691906122b2565b61088f565b60405161030891906122ee565b60405180910390f35b61032b60048036038101906103269190612469565b6108a1565b604051610338919061226b565b60405180910390f35b61035b60048036038101906103569190612429565b61095b565b6040516103689190611f96565b60405180910390f35b6103796109c6565b6040516103869190612041565b60405180910390f35b610397610a58565b6040516103a4919061240e565b60405180910390f35b6103c760048036038101906103c291906125a2565b610a5f565b005b6103e360048036038101906103de9190612683565b610a75565b005b6103ff60048036038101906103fa91906122b2565b610a9a565b60405161040c9190612041565b60405180910390f35b61041d610aac565b60405161042a919061240e565b60405180910390f35b61044d60048036038101906104489190612429565b610ad0565b005b61046960048036038101906104649190612706565b610af2565b6040516104769190611f96565b60405180910390f35b600061048a82610b86565b9050919050565b6060600080546104a090612775565b80601f01602080910402602001604051908101604052809291908181526020018280546104cc90612775565b80156105195780601f106104ee57610100808354040283529160200191610519565b820191906000526020600020905b8154815290600101906020018083116104fc57829003601f168201915b5050505050905090565b60007f9f2df0fed2c77648de5860a4cc508cd0818c85b8b8a1ab4ceeef8d981c8956a661054f81610c00565b60086000815461055e906127d5565b91905081905591506105708483610c14565b61057a8284610c32565b600960008573ffffffffffffffffffffffffffffffffffffffff1673ffffffffffffffffffffffffffffffffffffffff1681526020019081526020016000208290806001815401808255809150506001900390600052602060002001600090919091909150555092915050565b60006105f282610c8e565b506105fc82610d16565b9050919050565b6106158282610610610d53565b610d5b565b5050565b600073ffffffffffffffffffffffffffffffffffffffff168273ffffffffffffffffffffffffffffffffffffffff160361068b5760006040517f64a0ae9200000000000000000000000000000000000000000000000000000000815260040161068291906122ee565b60405180910390fd5b600061069f838361069a610d53565b610d6d565b90508373ffffffffffffffffffffffffffffffffffffffff168173ffffffffffffffffffffffffffffffffffffffff1614610715578382826040517f64283d7b00000000000000000000000000000000000000000000000000000000815260040161070c9392919061281d565b60405180910390fd5b50505050565b600060076000838152602001908152602001600020600101549050919050565b6107448261071b565b61074d81610c00565b6107578383610f87565b50505050565b610765610d53565b73ffffffffffffffffffffffffffffffffffffffff168173ffffffffffffffffffffffffffffffffffffffff16146107c9576040517f6697b23200000000000000000000000000000000000000000000000000000000815260040160405180910390fd5b6107d38282611079565b505050565b6107f383838360405180602001604052806000815250610a75565b505050565b6060600960008373ffffffffffffffffffffffffffffffffffffffff1673ffffffffffffffffffffffffffffffffffffffff16815260200190815260200160002080548060200260200160405190810160405280929190818152602001828054801561088357602002820191906000526020600020905b81548152602001906001019080831161086f575b50505050509050919050565b600061089a82610c8e565b9050919050565b60008073ffffffffffffffffffffffffffffffffffffffff168273ffffffffffffffffffffffffffffffffffffffff16036109145760006040517f89c62b6400000000000000000000000000000000000000000000000000000000815260040161090b91906122ee565b60405180910390fd5b600360008373ffffffffffffffffffffffffffffffffffffffff1673ffffffffffffffffffffffffffffffffffffffff168152602001908152602001600020549050919050565b60006007600084815260200190815260200160002060000160008373ffffffffffffffffffffffffffffffffffffffff1673ffffffffffffffffffffffffffffffffffffffff16815260200190815260200160002060009054906101000a900460ff16905092915050565b6060600180546109d590612775565b80601f0160208091040260200160405190810160405280929190818152602001828054610a0190612775565b8015610a4e5780601f10610a2357610100808354040283529160200191610a4e565b820191906000526020600020905b815481529060010190602001808311610a3157829003601f168201915b5050505050905090565b6000801b81565b610a71610a6a610d53565b838361116c565b5050565b610a80848484610619565b610a94610a8b610d53565b858585856112db565b50505050565b6060610aa58261148c565b9050919050565b7f9f2df0fed2c77648de5860a4cc508cd0818c85b8b8a1ab4ceeef8d981c8956a681565b610ad98261071b565b610ae281610c00565b610aec8383611079565b50505050565b6000600560008473ffffffffffffffffffffffffffffffffffffffff1673ffffffffffffffffffffffffffffffffffffffff16815260200190815260200160002060008373ffffffffffffffffffffffffffffffffffffffff1673ffffffffffffffffffffffffffffffffffffffff16815260200190815260200160002060009054906101000a900460ff16905092915050565b60007f7965db0b000000000000000000000000000000000000000000000000000000007bffffffffffffffffffffffffffffffffffffffffffffffffffffffff1916827bffffffffffffffffffffffffffffffffffffffffffffffffffffffff19161480610bf95750610bf88261159f565b5b9050919050565b610c1181610c0c610d53565b611600565b50565b610c2e828260405180602001604052806000815250611651565b5050565b80600660008481526020019081526020016000209081610c529190612a00565b507ff8e1a15aba9398e019f0b49df1a4fde98ee17ae345cb5f6b5e2c27f5033e8ce782604051610c82919061226b565b60405180910390a15050565b600080610c9a83611675565b9050600073ffffffffffffffffffffffffffffffffffffffff168173ffffffffffffffffffffffffffffffffffffffff1603610d0d57826040517f7e273289000000000000000000000000000000000000000000000000000000008152600401610d04919061226b565b60405180910390fd5b80915050919050565b60006004600083815260200190815260200160002060009054906101000a900473ffffffffffffffffffffffffffffffffffffffff169050919050565b600033905090565b610d6883838360016116b2565b505050565b600080610d7984611675565b9050600073ffffffffffffffffffffffffffffffffffffffff168373ffffffffffffffffffffffffffffffffffffffff1614610dbb57610dba818486611877565b5b600073ffffffffffffffffffffffffffffffffffffffff168173ffffffffffffffffffffffffffffffffffffffff1614610e4c57610dfd6000856000806116b2565b6001600360008373ffffffffffffffffffffffffffffffffffffffff1673ffffffffffffffffffffffffffffffffffffffff168152602001908152602001600020600082825403925050819055505b600073ffffffffffffffffffffffffffffffffffffffff168573ffffffffffffffffffffffffffffffffffffffff1614610ecf576001600360008773ffffffffffffffffffffffffffffffffffffffff1673ffffffffffffffffffffffffffffffffffffffff168152602001908152602001600020600082825401925050819055505b846002600086815260200190815260200160002060006101000a81548173ffffffffffffffffffffffffffffffffffffffff021916908373ffffffffffffffffffffffffffffffffffffffff160217905550838573ffffffffffffffffffffffffffffffffffffffff168273ffffffffffffffffffffffffffffffffffffffff167fddf252ad1be2c89b69c2b068fc378daa952ba7f163c4a11628f55a4df523b3ef60405160405180910390a4809150509392505050565b6000610f93838361095b565b61106e5760016007600085815260200190815260200160002060000160008473ffffffffffffffffffffffffffffffffffffffff1673ffffffffffffffffffffffffffffffffffffffff16815260200190815260200160002060006101000a81548160ff02191690831515021790555061100b610d53565b73ffffffffffffffffffffffffffffffffffffffff168273ffffffffffffffffffffffffffffffffffffffff16847f2f8788117e7eff1d82e926ec794901d17c78024a50270940304540a733656f0d60405160405180910390a460019050611073565b600090505b92915050565b6000611085838361095b565b156111615760006007600085815260200190815260200160002060000160008473ffffffffffffffffffffffffffffffffffffffff1673ffffffffffffffffffffffffffffffffffffffff16815260200190815260200160002060006101000a81548160ff0219169083151502179055506110fe610d53565b73ffffffffffffffffffffffffffffffffffffffff168273ffffffffffffffffffffffffffffffffffffffff16847ff6391f5c32d9c69d2a47ea670b442974b53935d1edc7fd64eb21e047a839171b60405160405180910390a460019050611166565b600090505b92915050565b600073ffffffffffffffffffffffffffffffffffffffff168273ffffffffffffffffffffffffffffffffffffffff16036111dd57816040517f5b08ba180000000000000000000000000000000000000000000000000000000081526004016111d491906122ee565b60405180910390fd5b80600560008573ffffffffffffffffffffffffffffffffffffffff1673ffffffffffffffffffffffffffffffffffffffff16815260200190815260200160002060008473ffffffffffffffffffffffffffffffffffffffff1673ffffffffffffffffffffffffffffffffffffffff16815260200190815260200160002060006101000a81548160ff0219169083151502179055508173ffffffffffffffffffffffffffffffffffffffff168373ffffffffffffffffffffffffffffffffffffffff167f17307eab39ab6107e8899845ad3d59bd9653f200f220920489ca2b5937696c31836040516112ce9190611f96565b60405180910390a3505050565b60008373ffffffffffffffffffffffffffffffffffffffff163b1115611485578273ffffffffffffffffffffffffffffffffffffffff1663150b7a02868685856040518563ffffffff1660e01b815260040161133a9493929190612b27565b6020604051808303816000875af192505050801561137657506040513d601f19601f820116820180604052508101906113739190612b88565b60015b6113fa573d80600081146113a6576040519150601f19603f3d011682016040523d82523d6000602084013e6113ab565b606091505b5060008151036113f257836040517f64a0ae920000000000000000000000000000000000000000000000000000000081526004016113e991906122ee565b60405180910390fd5b805160208201fd5b63150b7a0260e01b7bffffffffffffffffffffffffffffffffffffffffffffffffffffffff1916817bffffffffffffffffffffffffffffffffffffffffffffffffffffffff19161461148357836040517f64a0ae9200000000000000000000000000000000000000000000000000000000815260040161147a91906122ee565b60405180910390fd5b505b5050505050565b606061149782610c8e565b5060006006600084815260200190815260200160002080546114b890612775565b80601f01602080910402602001604051908101604052809291908181526020018280546114e490612775565b80156115315780601f1061150657610100808354040283529160200191611531565b820191906000526020600020905b81548152906001019060200180831161151457829003601f168201915b50505050509050600061154261193b565b9050600081510361155757819250505061159a565b60008251111561158c578082604051602001611574929190612bf1565b6040516020818303038152906040529250505061159a565b61159584611952565b925050505b919050565b6000634906490660e01b7bffffffffffffffffffffffffffffffffffffffffffffffffffffffff1916827bffffffffffffffffffffffffffffffffffffffffffffffffffffffff191614806115f957506115f8826119bb565b5b9050919050565b61160a828261095b565b61164d5780826040517fe2517d3f000000000000000000000000000000000000000000000000000000008152600401611644929190612c15565b60405180910390fd5b5050565b61165b8383611a9d565b611670611666610d53565b60008585856112db565b505050565b60006002600083815260200190815260200160002060009054906101000a900473ffffffffffffffffffffffffffffffffffffffff169050919050565b80806116eb5750600073ffffffffffffffffffffffffffffffffffffffff168273ffffffffffffffffffffffffffffffffffffffff1614155b1561181f5760006116fb84610c8e565b9050600073ffffffffffffffffffffffffffffffffffffffff168373ffffffffffffffffffffffffffffffffffffffff161415801561176657508273ffffffffffffffffffffffffffffffffffffffff168173ffffffffffffffffffffffffffffffffffffffff1614155b801561177957506117778184610af2565b155b156117bb57826040517fa9fbf51f0000000000000000000000000000000000000000000000000000000081526004016117b291906122ee565b60405180910390fd5b811561181d57838573ffffffffffffffffffffffffffffffffffffffff168273ffffffffffffffffffffffffffffffffffffffff167f8c5be1e5ebec7d5bd14f71427d1e84f3dd0314c0f7b2291e5b200ac8c7c3b92560405160405180910390a45b505b836004600085815260200190815260200160002060006101000a81548173ffffffffffffffffffffffffffffffffffffffff021916908373ffffffffffffffffffffffffffffffffffffffff16021790555050505050565b611882838383611b96565b61193657600073ffffffffffffffffffffffffffffffffffffffff168373ffffffffffffffffffffffffffffffffffffffff16036118f757806040517f7e2732890000000000000000000000000000000000000000000000000000000081526004016118ee919061226b565b60405180910390fd5b81816040517f177e802f00000000000000000000000000000000000000000000000000000000815260040161192d929190612c3e565b60405180910390fd5b505050565b606060405180602001604052806000815250905090565b606061195d82610c8e565b50600061196861193b565b9050600081511161198857604051806020016040528060008152506119b3565b8061199284611c57565b6040516020016119a3929190612bf1565b6040516020818303038152906040525b915050919050565b60007f80ac58cd000000000000000000000000000000000000000000000000000000007bffffffffffffffffffffffffffffffffffffffffffffffffffffffff1916827bffffffffffffffffffffffffffffffffffffffffffffffffffffffff19161480611a8657507f5b5e139f000000000000000000000000000000000000000000000000000000007bffffffffffffffffffffffffffffffffffffffffffffffffffffffff1916827bffffffffffffffffffffffffffffffffffffffffffffffffffffffff1916145b80611a965750611a9582611d25565b5b9050919050565b600073ffffffffffffffffffffffffffffffffffffffff168273ffffffffffffffffffffffffffffffffffffffff1603611b0f5760006040517f64a0ae92000000000000000000000000000000000000000000000000000000008152600401611b0691906122ee565b60405180910390fd5b6000611b1d83836000610d6d565b9050600073ffffffffffffffffffffffffffffffffffffffff168173ffffffffffffffffffffffffffffffffffffffff1614611b915760006040517f73c6ac6e000000000000000000000000000000000000000000000000000000008152600401611b8891906122ee565b60405180910390fd5b505050565b60008073ffffffffffffffffffffffffffffffffffffffff168373ffffffffffffffffffffffffffffffffffffffff1614158015611c4e57508273ffffffffffffffffffffffffffffffffffffffff168473ffffffffffffffffffffffffffffffffffffffff161480611c0f5750611c0e8484610af2565b5b80611c4d57508273ffffffffffffffffffffffffffffffffffffffff16611c3583610d16565b73ffffffffffffffffffffffffffffffffffffffff16145b5b90509392505050565b606060006001611c6684611d8f565b01905060008167ffffffffffffffff811115611c8557611c846120cb565b5b6040519080825280601f01601f191660200182016040528015611cb75781602001600182028036833780820191505090505b509050600082602083010190505b600115611d1a578080600190039150507f3031323334353637383961626364656600000000000000000000000000000000600a86061a8153600a8581611d0e57611d0d612c67565b5b04945060008503611cc5575b819350505050919050565b60007f01ffc9a7000000000000000000000000000000000000000000000000000000007bffffffffffffffffffffffffffffffffffffffffffffffffffffffff1916827bffffffffffffffffffffffffffffffffffffffffffffffffffffffff1916149050919050565b600080600090507a184f03e93ff9f4daa797ed6e38ed64bf6a1f0100000000000000008310611ded577a184f03e93ff9f4daa797ed6e38ed64bf6a1f0100000000000000008381611de357611de2612c67565b5b0492506040810190505b6d04ee2d6d415b85acef81000000008310611e2a576d04ee2d6d415b85acef81000000008381611e2057611e1f612c67565b5b0492506020810190505b662386f26fc100008310611e5957662386f26fc100008381611e4f57611e4e612c67565b5b0492506010810190505b6305f5e1008310611e82576305f5e1008381611e7857611e77612c67565b5b0492506008810190505b6127108310611ea7576127108381611e9d57611e9c612c67565b5b0492506004810190505b60648310611eca5760648381611ec057611ebf612c67565b5b0492506002810190505b600a8310611ed9576001810190505b80915050919050565b6000604051905090565b600080fd5b600080fd5b60007fffffffff0000000000000000000000000000000000000000000000000000000082169050919050565b611f2b81611ef6565b8114611f3657600080fd5b50565b600081359050611f4881611f22565b92915050565b600060208284031215611f6457611f63611eec565b5b6000611f7284828501611f39565b91505092915050565b60008115159050919050565b611f9081611f7b565b82525050565b6000602082019050611fab6000830184611f87565b92915050565b600081519050919050565b600082825260208201905092915050565b60005b83811015611feb578082015181840152602081019050611fd0565b60008484015250505050565b6000601f19601f8301169050919050565b600061201382611fb1565b61201d8185611fbc565b935061202d818560208601611fcd565b61203681611ff7565b840191505092915050565b6000602082019050818103600083015261205b8184612008565b905092915050565b600073ffffffffffffffffffffffffffffffffffffffff82169050919050565b600061208e82612063565b9050919050565b61209e81612083565b81146120a957600080fd5b50565b6000813590506120bb81612095565b92915050565b600080fd5b600080fd5b7f4e487b7100000000000000000000000000000000000000000000000000000000600052604160045260246000fd5b61210382611ff7565b810181811067ffffffffffffffff82111715612122576121216120cb565b5b80604052505050565b6000612135611ee2565b905061214182826120fa565b919050565b600067ffffffffffffffff821115612161576121606120cb565b5b61216a82611ff7565b9050602081019050919050565b82818337600083830152505050565b600061219961219484612146565b61212b565b9050828152602081018484840111156121b5576121b46120c6565b5b6121c0848285612177565b509392505050565b600082601f8301126121dd576121dc6120c1565b5b81356121ed848260208601612186565b91505092915050565b6000806040838503121561220d5761220c611eec565b5b600061221b858286016120ac565b925050602083013567ffffffffffffffff81111561223c5761223b611ef1565b5b612248858286016121c8565b9150509250929050565b6000819050919050565b61226581612252565b82525050565b6000602082019050612280600083018461225c565b92915050565b61228f81612252565b811461229a57600080fd5b50565b6000813590506122ac81612286565b92915050565b6000602082840312156122c8576122c7611eec565b5b60006122d68482850161229d565b91505092915050565b6122e881612083565b82525050565b600060208201905061230360008301846122df565b92915050565b600080604083850312156123205761231f611eec565b5b600061232e858286016120ac565b925050602061233f8582860161229d565b9150509250929050565b60008060006060848603121561236257612361611eec565b5b6000612370868287016120ac565b9350506020612381868287016120ac565b92505060406123928682870161229d565b9150509250925092565b6000819050919050565b6123af8161239c565b81146123ba57600080fd5b50565b6000813590506123cc816123a6565b92915050565b6000602082840312156123e8576123e7611eec565b5b60006123f6848285016123bd565b91505092915050565b6124088161239c565b82525050565b600060208201905061242360008301846123ff565b92915050565b600080604083850312156124405761243f611eec565b5b600061244e858286016123bd565b925050602061245f858286016120ac565b9150509250929050565b60006020828403121561247f5761247e611eec565b5b600061248d848285016120ac565b91505092915050565b600081519050919050565b600082825260208201905092915050565b6000819050602082019050919050565b6124cb81612252565b82525050565b60006124dd83836124c2565b60208301905092915050565b6000602082019050919050565b600061250182612496565b61250b81856124a1565b9350612516836124b2565b8060005b8381101561254757815161252e88826124d1565b9750612539836124e9565b92505060018101905061251a565b5085935050505092915050565b6000602082019050818103600083015261256e81846124f6565b905092915050565b61257f81611f7b565b811461258a57600080fd5b50565b60008135905061259c81612576565b92915050565b600080604083850312156125b9576125b8611eec565b5b60006125c7858286016120ac565b92505060206125d88582860161258d565b9150509250929050565b600067ffffffffffffffff8211156125fd576125fc6120cb565b5b61260682611ff7565b9050602081019050919050565b6000612626612621846125e2565b61212b565b905082815260208101848484011115612642576126416120c6565b5b61264d848285612177565b509392505050565b600082601f83011261266a576126696120c1565b5b813561267a848260208601612613565b91505092915050565b6000806000806080858703121561269d5761269c611eec565b5b60006126ab878288016120ac565b94505060206126bc878288016120ac565b93505060406126cd8782880161229d565b925050606085013567ffffffffffffffff8111156126ee576126ed611ef1565b5b6126fa87828801612655565b91505092959194509250565b6000806040838503121561271d5761271c611eec565b5b600061272b858286016120ac565b925050602061273c858286016120ac565b9150509250929050565b7f4e487b7100000000000000000000000000000000000000000000000000000000600052602260045260246000fd5b6000600282049050600182168061278d57607f821691505b6020821081036127a05761279f612746565b5b50919050565b7f4e487b7100000000000000000000000000000000000000000000000000000000600052601160045260246000fd5b60006127e082612252565b91507fffffffffffffffffffffffffffffffffffffffffffffffffffffffffffffffff8203612812576128116127a6565b5b600182019050919050565b600060608201905061283260008301866122df565b61283f602083018561225c565b61284c60408301846122df565b949350505050565b60008190508160005260206000209050919050565b60006020601f8301049050919050565b600082821b905092915050565b6000600883026128b67fffffffffffffffffffffffffffffffffffffffffffffffffffffffffffffffff82612879565b6128c08683612879565b95508019841693508086168417925050509392505050565b6000819050919050565b60006128fd6128f86128f384612252565b6128d8565b612252565b9050919050565b6000819050919050565b612917836128e2565b61292b61292382612904565b848454612886565b825550505050565b600090565b612940612933565b61294b81848461290e565b505050565b5b8181101561296f57612964600082612938565b600181019050612951565b5050565b601f8211156129b45761298581612854565b61298e84612869565b8101602085101561299d578190505b6129b16129a985612869565b830182612950565b50505b505050565b600082821c905092915050565b60006129d7600019846008026129b9565b1980831691505092915050565b60006129f083836129c6565b9150826002028217905092915050565b612a0982611fb1565b67ffffffffffffffff811115612a2257612a216120cb565b5b612a2c8254612775565b612a37828285612973565b600060209050601f831160018114612a6a5760008415612a58578287015190505b612a6285826129e4565b865550612aca565b601f198416612a7886612854565b60005b82811015612aa057848901518255600182019150602085019450602081019050612a7b565b86831015612abd5784890151612ab9601f8916826129c6565b8355505b6001600288020188555050505b505050505050565b600081519050919050565b600082825260208201905092915050565b6000612af982612ad2565b612b038185612add565b9350612b13818560208601611fcd565b612b1c81611ff7565b840191505092915050565b6000608082019050612b3c60008301876122df565b612b4960208301866122df565b612b56604083018561225c565b8181036060830152612b688184612aee565b905095945050505050565b600081519050612b8281611f22565b92915050565b600060208284031215612b9e57612b9d611eec565b5b6000612bac84828501612b73565b91505092915050565b600081905092915050565b6000612bcb82611fb1565b612bd58185612bb5565b9350612be5818560208601611fcd565b80840191505092915050565b6000612bfd8285612bc0565b9150612c098284612bc0565b91508190509392505050565b6000604082019050612c2a60008301856122df565b612c3760208301846123ff565b9392505050565b6000604082019050612c5360008301856122df565b612c60602083018461225c565b9392505050565b7f4e487b7100000000000000000000000000000000000000000000000000000000600052601260045260246000fdfea2646970667358221220892b827885fa6f5b46eee1689727b468d127e35b750fd218bba2a45625d942f164736f6c634300081c0033",
  "linkReferences": {},
  "deployedLinkReferences": {}
}