{
  "_format": "hh-sol-artifact-1",
  "contractName": "CarbonCreditMarketplace",
  "sourceName": "contracts/CarbonCreditMarketplace.sol",
  "abi": [
    {
      "inputs": [
        {
          "internalType": "contract CarbonCreditRegistry",
          "name": "_registry",
          "type": "address"
        },
        {
          "internalType": "contract CarbonCreditToken",
          "name": "_cct",
          "type": "address"
        },
        {
          "internalType": "contract GreenNFTCollection",
          "name": "_greenNFTCollection",
          "type": "address"
        }
      ],
      "stateMutability": "nonpayable",
      "type": "constructor"
    },
    {
      "anonymous": false,
      "inputs": [
        {
          "indexed": true,
          "internalType": "uint256",
          "name": "batchTokenId",
          "type": "uint256"
        },
        {
          "indexed": false,
          "internalType": "uint256",
          "name": "claimId",
          "type": "uint256"
        }
      ],
      "name": "BatchFullySold",
      "type": "event"
    },
    {
      "anonymous": false,
      "inputs": [
        {
          "indexed": true,
          "internalType": "uint256",
          "name": "batchTokenId",
          "type": "uint256"
        }
      ],
      "name": "BatchSaleCancelled",
      "type": "event"
    },
    {
      "anonymous": false,
      "inputs": [
        {
          "indexed": true,
          "internalType": "uint256",
          "name": "batchTokenId",
          "type": "uint256"
        },
        {
          "indexed": false,
          "internalType": "uint256",
          "name": "claimId",
          "type": "uint256"
        },
        {
          "indexed": false,
          "internalType": "uint256",
          "name": "totalTons",
          "type": "uint256"
        },
        {
          "indexed": false,
          "internalType": "address",
          "name": "seller",
          "type": "address"
        }
      ],
      "name": "BatchSaleOpened",
      "type": "event"
    },
    {
      "anonymous": false,
      "inputs": [
        {
          "indexed": true,
          "internalType": "address",
          "name": "buyer",
          "type": "address"
        },
        {
          "indexed": true,
          "internalType": "uint256",
          "name": "batchTokenId",
          "type": "uint256"
        },
        {
          "indexed": false,
          "internalType": "uint256",
          "name": "tons",
          "type": "uint256"
        },
        {
          "indexed": false,
          "internalType": "uint256",
          "name": "ethPaid",
          "type": "uint256"
        },
        {
          "indexed": false,
          "internalType": "uint256",
          "name": "remainingTons",
          "type": "uint256"
        }
      ],
      "name": "CreditsPurchased",
      "type": "event"
    },
    {
      "inputs": [],
      "name": "PRICE_PER_TON",
      "outputs": [
        {
          "internalType": "uint256",
          "name": "",
          "type": "uint256"
        }
      ],
      "stateMutability": "view",
      "type": "function"
    },
    {
      "inputs": [
        {
          "internalType": "uint256",
          "name": "",
          "type": "uint256"
        }
      ],
      "name": "batchSales",
      "outputs": [
        {
          "internalType": "address",
          "name": "seller",
          "type": "address"
        },
        {
          "internalType": "uint256",
          "name": "claimId",
          "type": "uint256"
        },
        {
          "internalType": "uint256",
          "name": "totalTons",
          "type": "uint256"
        },
        {
          "internalType": "uint256",
          "name": "availableTons",
          "type": "uint256"
        },
        {
          "internalType": "bool",
          "name": "active",
          "type": "bool"
        }
      ],
      "stateMutability": "view",
      "type": "function"
    },
    {
      "inputs": [
        {
          "internalType": "uint256",
          "name": "batchTokenId",
          "type": "uint256"
        },
        {
          "internalType": "uint256",
          "name": "tons",
          "type": "uint256"
        }
      ],
      "name": "buyCredits",
      "outputs": [],
      "stateMutability": "payable",
      "type": "function"
    },
    {
      "inputs": [
        {
          "internalType": "uint256",
          "name": "batchTokenId",
          "type": "uint256"
        }
      ],
      "name": "cancelBatchSale",
      "outputs": [],
      "stateMutability": "nonpayable",
      "type": "function"
    },
    {
      "inputs": [],
      "name": "cct",
      "outputs": [
        {
          "internalType": "contract CarbonCreditToken",
          "name": "",
          "type": "address"
        }
      ],
      "stateMutability": "view",
      "type": "function"
    },
    {
      "inputs": [],
      "name": "getActiveBatchSales",
      "outputs": [
        {
          "internalType": "uint256[]",
          "name": "",
          "type": "uint256[]"
        }
      ],
      "stateMutability": "view",
      "type": "function"
    },
    {
      "inputs": [
        {
          "internalType": "uint256",
          "name": "batchTokenId",
          "type": "uint256"
        }
      ],
      "name": "getBatchSale",
      "outputs": [
        {
          "internalType": "address",
          "name": "seller",
          "type": "address"
        },
        {
          "internalType": "uint256",
          "name": "totalTons",
          "type": "uint256"
        },
        {
          "internalType": "uint256",
          "name": "availableTons",
          "type": "uint256"
        },
        {
          "internalType": "bool",
          "name": "active",
          "type": "bool"
        }
      ],
      "stateMutability": "view",
      "type": "function"
    },
    {
      "inputs": [
        {
          "internalType": "uint256[]",
          "name": "batchTokenIds",
          "type": "uint256[]"
        }
      ],
      "name": "getMultipleBatchSales",
      "outputs": [
        {
          "components": [
            {
              "internalType": "address",
              "name": "seller",
              "type": "address"
            },
            {
              "internalType": "uint256",
              "name": "claimId",
              "type": "uint256"
            },
            {
              "internalType": "uint256",
              "name": "totalTons",
              "type": "uint256"
            },
            {
              "internalType": "uint256",
              "name": "availableTons",
              "type": "uint256"
            },
            {
              "internalType": "bool",
              "name": "active",
              "type": "bool"
            }
          ],
          "internalType": "struct CarbonCreditMarketplace.BatchSale[]",
          "name": "sales",
          "type": "tuple[]"
        }
      ],
      "stateMutability": "view",
      "type": "function"
    },
    {
      "inputs": [],
      "name": "greenNFTCollection",
      "outputs": [
        {
          "internalType": "contract GreenNFTCollection",
          "name": "",
          "type": "address"
        }
      ],
      "stateMutability": "view",
      "type": "function"
    },
    {
      "inputs": [
        {
          "internalType": "uint256",
          "name": "batchTokenId",
          "type": "uint256"
        }
      ],
      "name": "openBatchSale",
      "outputs": [],
      "stateMutability": "nonpayable",
      "type": "function"
    },
    {
      "inputs": [],
      "name": "registry",
      "outputs": [
        {
          "internalType": "contract CarbonCreditRegistry",
          "name": "",
          "type": "address"
        }
      ],
      "stateMutability": "view",
      "type": "function"
    }
  ],
  "bytecode": "0x608060405234801561001057600080fd5b506040516128da3803806128da833981810160405281019061003291906101ed565b82600160006101000a81548173ffffffffffffffffffffffffffffffffffffffff021916908373ffffffffffffffffffffffffffffffffffffffff160217905550816000806101000a81548173ffffffffffffffffffffffffffffffffffffffff021916908373ffffffffffffffffffffffffffffffffffffffff16021790555080600260006101000a81548173ffffffffffffffffffffffffffffffffffffffff021916908373ffffffffffffffffffffffffffffffffffffffff160217905550505050610240565b600080fd5b600073ffffffffffffffffffffffffffffffffffffffff82169050919050565b600061012c82610101565b9050919050565b600061013e82610121565b9050919050565b61014e81610133565b811461015957600080fd5b50565b60008151905061016b81610145565b92915050565b600061017c82610121565b9050919050565b61018c81610171565b811461019757600080fd5b50565b6000815190506101a981610183565b92915050565b60006101ba82610121565b9050919050565b6101ca816101af565b81146101d557600080fd5b50565b6000815190506101e7816101c1565b92915050565b600080600060608486031215610206576102056100fc565b5b60006102148682870161015c565b93505060206102258682870161019a565b9250506040610236868287016101d8565b9150509250925092565b61268b8061024f6000396000f3fe60806040526004361061009c5760003560e01c80637b103999116100645780637b1039991461017c57806393867519146101a75780639baca98b146101d2578063aa610dd1146101fb578063b0c9385b14610238578063e34f819b146102795761009c565b80630c877e1b146100a1578063479c8457146100ca5780634c4e7900146100e65780634ef3320c146101115780635a05ee5814610151575b600080fd5b3480156100ad57600080fd5b506100c860048036038101906100c391906115c5565b6102a4565b005b6100e460048036038101906100df91906115f2565b610920565b005b3480156100f257600080fd5b506100fb610d64565b60405161010891906116f0565b60405180910390f35b34801561011d57600080fd5b50610138600480360381019061013391906115c5565b610dbc565b604051610148949392919061177d565b60405180910390f35b34801561015d57600080fd5b50610166610e97565b6040516101739190611821565b60405180910390f35b34801561018857600080fd5b50610191610ebb565b60405161019e919061185d565b60405180910390f35b3480156101b357600080fd5b506101bc610ee1565b6040516101c99190611899565b60405180910390f35b3480156101de57600080fd5b506101f960048036038101906101f491906115c5565b610f07565b005b34801561020757600080fd5b50610222600480360381019061021d9190611919565b6112a1565b60405161022f9190611a9b565b60405180910390f35b34801561024457600080fd5b5061025f600480360381019061025a91906115c5565b611402565b604051610270959493929190611abd565b60405180910390f35b34801561028557600080fd5b5061028e611465565b60405161029b9190611b10565b60405180910390f35b3373ffffffffffffffffffffffffffffffffffffffff16600260009054906101000a900473ffffffffffffffffffffffffffffffffffffffff1673ffffffffffffffffffffffffffffffffffffffff16636352211e836040518263ffffffff1660e01b81526004016103169190611b10565b602060405180830381865afa158015610333573d6000803e3d6000fd5b505050506040513d601f19601f820116820180604052508101906103579190611b57565b73ffffffffffffffffffffffffffffffffffffffff16146103ad576040517f08c379a00000000000000000000000000000000000000000000000000000000081526004016103a490611be1565b60405180910390fd5b6003600082815260200190815260200160002060040160009054906101000a900460ff1615610411576040517f08c379a000000000000000000000000000000000000000000000000000000000815260040161040890611c4d565b60405180910390fd5b6000600160009054906101000a900473ffffffffffffffffffffffffffffffffffffffff1673ffffffffffffffffffffffffffffffffffffffff1663d52f3303836040518263ffffffff1660e01b815260040161046e9190611b10565b602060405180830381865afa15801561048b573d6000803e3d6000fd5b505050506040513d601f19601f820116820180604052508101906104af9190611c82565b9050600081036104f4576040517f08c379a00000000000000000000000000000000000000000000000000000000081526004016104eb90611cfb565b60405180910390fd5b6000600160009054906101000a900473ffffffffffffffffffffffffffffffffffffffff1673ffffffffffffffffffffffffffffffffffffffff16635aef2447836040518263ffffffff1660e01b81526004016105519190611b10565b600060405180830381865afa15801561056e573d6000803e3d6000fd5b505050506040513d6000823e3d601f19601f820116820180604052508101906105979190611f76565b9050828160c00151146105df576040517f08c379a00000000000000000000000000000000000000000000000000000000081526004016105d69061200b565b60405180910390fd5b600160058111156105f3576105f261202b565b5b8160a00151600581111561060a5761060961202b565b5b1461064a576040517f08c379a0000000000000000000000000000000000000000000000000000000008152600401610641906120a6565b60405180910390fd5b60008160200151905060008111610696576040517f08c379a000000000000000000000000000000000000000000000000000000000815260040161068d90612112565b60405180910390fd5b60008054906101000a900473ffffffffffffffffffffffffffffffffffffffff1673ffffffffffffffffffffffffffffffffffffffff166323b872dd3330670de0b6b3a7640000856106e89190612161565b6040518463ffffffff1660e01b8152600401610706939291906121a3565b6020604051808303816000875af1158015610725573d6000803e3d6000fd5b505050506040513d601f19601f820116820180604052508101906107499190612206565b506040518060a001604052803373ffffffffffffffffffffffffffffffffffffffff168152602001848152602001828152602001828152602001600115158152506003600086815260200190815260200160002060008201518160000160006101000a81548173ffffffffffffffffffffffffffffffffffffffff021916908373ffffffffffffffffffffffffffffffffffffffff16021790555060208201518160010155604082015181600201556060820151816003015560808201518160040160006101000a81548160ff0219169083151502179055509050506004849080600181540180825580915050600190039060005260206000200160009091909190915055600160009054906101000a900473ffffffffffffffffffffffffffffffffffffffff1673ffffffffffffffffffffffffffffffffffffffff1663f14e49ae8460036040518363ffffffff1660e01b81526004016108ac92919061227b565b600060405180830381600087803b1580156108c657600080fd5b505af11580156108da573d6000803e3d6000fd5b50505050837f7842824341a0d70a079e934f2696b99e6a7418d8713dc78a72db0b75174ad8a6848333604051610912939291906122a4565b60405180910390a250505050565b60008111610963576040517f08c379a000000000000000000000000000000000000000000000000000000000815260040161095a90612112565b60405180910390fd5b60006003600084815260200190815260200160002090508060040160009054906101000a900460ff166109cb576040517f08c379a00000000000000000000000000000000000000000000000000000000081526004016109c290612327565b60405180910390fd5b8060030154821115610a12576040517f08c379a0000000000000000000000000000000000000000000000000000000008152600401610a0990612393565b60405180910390fd5b6000652d79883d200083610a269190612161565b905080341015610a6b576040517f08c379a0000000000000000000000000000000000000000000000000000000008152600401610a62906123ff565b60405180910390fd5b82826003016000828254610a7f919061241f565b9250508190555060008083600301541490508015610b8e5760008360040160006101000a81548160ff021916908315150217905550610abd8561146f565b600160009054906101000a900473ffffffffffffffffffffffffffffffffffffffff1673ffffffffffffffffffffffffffffffffffffffff1663f14e49ae846001015460046040518363ffffffff1660e01b8152600401610b1f92919061227b565b600060405180830381600087803b158015610b3957600080fd5b505af1158015610b4d573d6000803e3d6000fd5b50505050847f192c6bc73f25539f164513b3fe5e33cefb234fff79b80153f5889be88f9deb5a8460010154604051610b859190611b10565b60405180910390a25b60008054906101000a900473ffffffffffffffffffffffffffffffffffffffff1673ffffffffffffffffffffffffffffffffffffffff1663a9059cbb33670de0b6b3a764000087610bdf9190612161565b6040518363ffffffff1660e01b8152600401610bfc929190612453565b6020604051808303816000875af1158015610c1b573d6000803e3d6000fd5b505050506040513d601f19601f82011682018060405250810190610c3f9190612206565b508260000160009054906101000a900473ffffffffffffffffffffffffffffffffffffffff1673ffffffffffffffffffffffffffffffffffffffff166108fc839081150290604051600060405180830381858888f19350505050158015610caa573d6000803e3d6000fd5b5081341115610d06573373ffffffffffffffffffffffffffffffffffffffff166108fc8334610cd9919061241f565b9081150290604051600060405180830381858888f19350505050158015610d04573d6000803e3d6000fd5b505b843373ffffffffffffffffffffffffffffffffffffffff167f59933be206b6873fd1ff70b453873c5299011ff16550f8af2ee0be8c88b6dd4486858760030154604051610d559392919061247c565b60405180910390a35050505050565b60606004805480602002602001604051908101604052809291908181526020018280548015610db257602002820191906000526020600020905b815481526020019060010190808311610d9e575b5050505050905090565b6000806000806000600360008781526020019081526020016000206040518060a00160405290816000820160009054906101000a900473ffffffffffffffffffffffffffffffffffffffff1673ffffffffffffffffffffffffffffffffffffffff1673ffffffffffffffffffffffffffffffffffffffff1681526020016001820154815260200160028201548152602001600382015481526020016004820160009054906101000a900460ff161515151581525050905080600001518160400151826060015183608001519450945094509450509193509193565b60008054906101000a900473ffffffffffffffffffffffffffffffffffffffff1681565b600160009054906101000a900473ffffffffffffffffffffffffffffffffffffffff1681565b600260009054906101000a900473ffffffffffffffffffffffffffffffffffffffff1681565b60006003600083815260200190815260200160002090508060040160009054906101000a900460ff16610f6f576040517f08c379a0000000000000000000000000000000000000000000000000000000008152600401610f66906124ff565b60405180910390fd5b3373ffffffffffffffffffffffffffffffffffffffff16600260009054906101000a900473ffffffffffffffffffffffffffffffffffffffff1673ffffffffffffffffffffffffffffffffffffffff16636352211e846040518263ffffffff1660e01b8152600401610fe19190611b10565b602060405180830381865afa158015610ffe573d6000803e3d6000fd5b505050506040513d601f19601f820116820180604052508101906110229190611b57565b73ffffffffffffffffffffffffffffffffffffffff1614611078576040517f08c379a000000000000000000000000000000000000000000000000000000000815260040161106f9061256b565b60405180910390fd5b80600201548160030154146110c2576040517f08c379a00000000000000000000000000000000000000000000000000000000081526004016110b9906125d7565b60405180910390fd5b60008160030154905060008260040160006101000a81548160ff021916908315150217905550600082600301819055506110fb8361146f565b60008111156111db5760008054906101000a900473ffffffffffffffffffffffffffffffffffffffff1673ffffffffffffffffffffffffffffffffffffffff1663a9059cbb8360000160009054906101000a900473ffffffffffffffffffffffffffffffffffffffff16670de0b6b3a7640000846111799190612161565b6040518363ffffffff1660e01b8152600401611196929190612453565b6020604051808303816000875af11580156111b5573d6000803e3d6000fd5b505050506040513d601f19601f820116820180604052508101906111d99190612206565b505b600160009054906101000a900473ffffffffffffffffffffffffffffffffffffffff1673ffffffffffffffffffffffffffffffffffffffff1663f14e49ae836001015460016040518363ffffffff1660e01b815260040161123d92919061227b565b600060405180830381600087803b15801561125757600080fd5b505af115801561126b573d6000803e3d6000fd5b50505050827f2d506cca2fd28f5e3c9eff4e56e96fa61855e4b2115290c2c5481e05ef1c86e160405160405180910390a2505050565b60608282905067ffffffffffffffff8111156112c0576112bf611d31565b5b6040519080825280602002602001820160405280156112f957816020015b6112e6611534565b8152602001906001900390816112de5790505b50905060005b838390508110156113fb5760036000858584818110611321576113206125f7565b5b9050602002013581526020019081526020016000206040518060a00160405290816000820160009054906101000a900473ffffffffffffffffffffffffffffffffffffffff1673ffffffffffffffffffffffffffffffffffffffff1673ffffffffffffffffffffffffffffffffffffffff1681526020016001820154815260200160028201548152602001600382015481526020016004820160009054906101000a900460ff1615151515815250508282815181106113e3576113e26125f7565b5b602002602001018190525080806001019150506112ff565b5092915050565b60036020528060005260406000206000915090508060000160009054906101000a900473ffffffffffffffffffffffffffffffffffffffff16908060010154908060020154908060030154908060040160009054906101000a900460ff16905085565b652d79883d200081565b60005b600480549050811015611530578160048281548110611494576114936125f7565b5b90600052602060002001540361152357600460016004805490506114b8919061241f565b815481106114c9576114c86125f7565b5b9060005260206000200154600482815481106114e8576114e76125f7565b5b9060005260206000200181905550600480548061150857611507612626565b5b60019003818190600052602060002001600090559055611530565b8080600101915050611472565b5050565b6040518060a00160405280600073ffffffffffffffffffffffffffffffffffffffff1681526020016000815260200160008152602001600081526020016000151581525090565b6000604051905090565b600080fd5b600080fd5b6000819050919050565b6115a28161158f565b81146115ad57600080fd5b50565b6000813590506115bf81611599565b92915050565b6000602082840312156115db576115da611585565b5b60006115e9848285016115b0565b91505092915050565b6000806040838503121561160957611608611585565b5b6000611617858286016115b0565b9250506020611628858286016115b0565b9150509250929050565b600081519050919050565b600082825260208201905092915050565b6000819050602082019050919050565b6116678161158f565b82525050565b6000611679838361165e565b60208301905092915050565b6000602082019050919050565b600061169d82611632565b6116a7818561163d565b93506116b28361164e565b8060005b838110156116e35781516116ca888261166d565b97506116d583611685565b9250506001810190506116b6565b5085935050505092915050565b6000602082019050818103600083015261170a8184611692565b905092915050565b600073ffffffffffffffffffffffffffffffffffffffff82169050919050565b600061173d82611712565b9050919050565b61174d81611732565b82525050565b61175c8161158f565b82525050565b60008115159050919050565b61177781611762565b82525050565b60006080820190506117926000830187611744565b61179f6020830186611753565b6117ac6040830185611753565b6117b9606083018461176e565b95945050505050565b6000819050919050565b60006117e76117e26117dd84611712565b6117c2565b611712565b9050919050565b60006117f9826117cc565b9050919050565b600061180b826117ee565b9050919050565b61181b81611800565b82525050565b60006020820190506118366000830184611812565b92915050565b6000611847826117ee565b9050919050565b6118578161183c565b82525050565b6000602082019050611872600083018461184e565b92915050565b6000611883826117ee565b9050919050565b61189381611878565b82525050565b60006020820190506118ae600083018461188a565b92915050565b600080fd5b600080fd5b600080fd5b60008083601f8401126118d9576118d86118b4565b5b8235905067ffffffffffffffff8111156118f6576118f56118b9565b5b602083019150836020820283011115611912576119116118be565b5b9250929050565b600080602083850312156119305761192f611585565b5b600083013567ffffffffffffffff81111561194e5761194d61158a565b5b61195a858286016118c3565b92509250509250929050565b600081519050919050565b600082825260208201905092915050565b6000819050602082019050919050565b61199b81611732565b82525050565b6119aa81611762565b82525050565b60a0820160008201516119c66000850182611992565b5060208201516119d9602085018261165e565b5060408201516119ec604085018261165e565b5060608201516119ff606085018261165e565b506080820151611a1260808501826119a1565b50505050565b6000611a2483836119b0565b60a08301905092915050565b6000602082019050919050565b6000611a4882611966565b611a528185611971565b9350611a5d83611982565b8060005b83811015611a8e578151611a758882611a18565b9750611a8083611a30565b925050600181019050611a61565b5085935050505092915050565b60006020820190508181036000830152611ab58184611a3d565b905092915050565b600060a082019050611ad26000830188611744565b611adf6020830187611753565b611aec6040830186611753565b611af96060830185611753565b611b06608083018461176e565b9695505050505050565b6000602082019050611b256000830184611753565b92915050565b611b3481611732565b8114611b3f57600080fd5b50565b600081519050611b5181611b2b565b92915050565b600060208284031215611b6d57611b6c611585565b5b6000611b7b84828501611b42565b91505092915050565b600082825260208201905092915050565b7f4e6f74206261746368206f776e65720000000000000000000000000000000000600082015250565b6000611bcb600f83611b84565b9150611bd682611b95565b602082019050919050565b60006020820190508181036000830152611bfa81611bbe565b9050919050565b7f416c7265616479206f6e2073616c650000000000000000000000000000000000600082015250565b6000611c37600f83611b84565b9150611c4282611c01565b602082019050919050565b60006020820190508181036000830152611c6681611c2a565b9050919050565b600081519050611c7c81611599565b92915050565b600060208284031215611c9857611c97611585565b5b6000611ca684828501611c6d565b91505092915050565b7f4261746368206e6f7420666f756e640000000000000000000000000000000000600082015250565b6000611ce5600f83611b84565b9150611cf082611caf565b602082019050919050565b60006020820190508181036000830152611d1481611cd8565b9050919050565b600080fd5b6000601f19601f8301169050919050565b7f4e487b7100000000000000000000000000000000000000000000000000000000600052604160045260246000fd5b611d6982611d20565b810181811067ffffffffffffffff82111715611d8857611d87611d31565b5b80604052505050565b6000611d9b61157b565b9050611da78282611d60565b919050565b600080fd5b600080fd5b600067ffffffffffffffff821115611dd157611dd0611d31565b5b611dda82611d20565b9050602081019050919050565b60005b83811015611e05578082015181840152602081019050611dea565b60008484015250505050565b6000611e24611e1f84611db6565b611d91565b905082815260208101848484011115611e4057611e3f611db1565b5b611e4b848285611de7565b509392505050565b600082601f830112611e6857611e676118b4565b5b8151611e78848260208601611e11565b91505092915050565b60068110611e8e57600080fd5b50565b600081519050611ea081611e81565b92915050565b600060e08284031215611ebc57611ebb611d1b565b5b611ec660e0611d91565b90506000611ed684828501611c6d565b6000830152506020611eea84828501611c6d565b6020830152506040611efe84828501611c6d565b6040830152506060611f1284828501611c6d565b606083015250608082015167ffffffffffffffff811115611f3657611f35611dac565b5b611f4284828501611e53565b60808301525060a0611f5684828501611e91565b60a08301525060c0611f6a84828501611c6d565b60c08301525092915050565b600060208284031215611f8c57611f8b611585565b5b600082015167ffffffffffffffff811115611faa57611fa961158a565b5b611fb684828501611ea6565b91505092915050565b7f496e76616c696420626174636800000000000000000000000000000000000000600082015250565b6000611ff5600d83611b84565b915061200082611fbf565b602082019050919050565b6000602082019050818103600083015261202481611fe8565b9050919050565b7f4e487b7100000000000000000000000000000000000000000000000000000000600052602160045260246000fd5b7f4e6f742061756469746564000000000000000000000000000000000000000000600082015250565b6000612090600b83611b84565b915061209b8261205a565b602082019050919050565b600060208201905081810360008301526120bf81612083565b9050919050565b7f5a65726f20746f6e730000000000000000000000000000000000000000000000600082015250565b60006120fc600983611b84565b9150612107826120c6565b602082019050919050565b6000602082019050818103600083015261212b816120ef565b9050919050565b7f4e487b7100000000000000000000000000000000000000000000000000000000600052601160045260246000fd5b600061216c8261158f565b91506121778361158f565b92508282026121858161158f565b9150828204841483151761219c5761219b612132565b5b5092915050565b60006060820190506121b86000830186611744565b6121c56020830185611744565b6121d26040830184611753565b949350505050565b6121e381611762565b81146121ee57600080fd5b50565b600081519050612200816121da565b92915050565b60006020828403121561221c5761221b611585565b5b600061222a848285016121f1565b91505092915050565b600681106122445761224361202b565b5b50565b600081905061225582612233565b919050565b600061226582612247565b9050919050565b6122758161225a565b82525050565b60006040820190506122906000830185611753565b61229d602083018461226c565b9392505050565b60006060820190506122b96000830186611753565b6122c66020830185611753565b6122d36040830184611744565b949350505050565b7f4e6f74206f6e2073616c65000000000000000000000000000000000000000000600082015250565b6000612311600b83611b84565b915061231c826122db565b602082019050919050565b6000602082019050818103600083015261234081612304565b9050919050565b7f4e6f7420656e6f75676820617661696c61626c65000000000000000000000000600082015250565b600061237d601483611b84565b915061238882612347565b602082019050919050565b600060208201905081810360008301526123ac81612370565b9050919050565b7f496e73756666696369656e742045544800000000000000000000000000000000600082015250565b60006123e9601083611b84565b91506123f4826123b3565b602082019050919050565b60006020820190508181036000830152612418816123dc565b9050919050565b600061242a8261158f565b91506124358361158f565b925082820390508181111561244d5761244c612132565b5b92915050565b60006040820190506124686000830185611744565b6124756020830184611753565b9392505050565b60006060820190506124916000830186611753565b61249e6020830185611753565b6124ab6040830184611753565b949350505050565b7f4e6f742061637469766500000000000000000000000000000000000000000000600082015250565b60006124e9600a83611b84565b91506124f4826124b3565b602082019050919050565b60006020820190508181036000830152612518816124dc565b9050919050565b7f4e6f74206f776e65720000000000000000000000000000000000000000000000600082015250565b6000612555600983611b84565b91506125608261251f565b602082019050919050565b6000602082019050818103600083015261258481612548565b9050919050565b7f43616e6e6f742063616e63656c206166746572207061727469616c2073616c65600082015250565b60006125c1602083611b84565b91506125cc8261258b565b602082019050919050565b600060208201905081810360008301526125f0816125b4565b9050919050565b7f4e487b7100000000000000000000000000000000000000000000000000000000600052603260045260246000fd5b7f4e487b7100000000000000000000000000000000000000000000000000000000600052603160045260246000fdfea26469706673582212204010489d5c7d5452b4590a80c4df8ad8e8bf1cc3fbb105ff50dfe957cebd9ae564736f6c634300081c0033",
  "linkReferences": {},
  "deployedLinkReferences": {}
}