{
  "_format": "hh-sol-artifact-1",
  "contractName": "CarbonCreditMarketplace",
  "sourceName": "contracts/CarbonCreditMarketplace.sol",
  "abi": [
    {
      "inputs": [
        {
          "internalType": "contract CarbonCreditRegistry",
          "name": "_registry",
          "type": "address"
        },
        {
          "internalType": "contract CarbonCreditToken",
          "name": "_cct",
          "type": "address"
        },
        {
          "internalType": "contract GreenNFTCollection",
          "name": "_greenNFTCollection",
          "type": "address"
        }
      ],
      "stateMutability": "nonpayable",
      "type": "constructor"
    },
    {
      "anonymous": false,
      "inputs": [
        {
          "indexed": true,
          "internalType": "address",
          "name": "buyer",
          "type": "address"
        },
        {
          "indexed": true,
          "internalType": "uint256",
          "name": "batchTokenId",
          "type": "uint256"
        },
        {
          "indexed": false,
          "internalType": "uint256",
          "name": "tons",
          "type": "uint256"
        },
        {
          "indexed": false,
          "internalType": "uint256",
          "name": "ethPaid",
          "type": "uint256"
        }
      ],
      "name": "CreditsPurchased",
      "type": "event"
    },
    {
      "anonymous": false,
      "inputs": [
        {
          "indexed": true,
          "internalType": "uint256",
          "name": "batchTokenId",
          "type": "uint256"
        }
      ],
      "name": "SaleCancelled",
      "type": "event"
    },
    {
      "anonymous": false,
      "inputs": [
        {
          "indexed": true,
          "internalType": "uint256",
          "name": "batchTokenId",
          "type": "uint256"
        },
        {
          "indexed": false,
          "internalType": "uint256",
          "name": "tons",
          "type": "uint256"
        },
        {
          "indexed": false,
          "internalType": "address",
          "name": "seller",
          "type": "address"
        }
      ],
      "name": "SaleOpened",
      "type": "event"
    },
    {
      "inputs": [],
      "name": "PRICE_PER_TON",
      "outputs": [
        {
          "internalType": "uint256",
          "name": "",
          "type": "uint256"
        }
      ],
      "stateMutability": "view",
      "type": "function"
    },
    {
      "inputs": [
        {
          "internalType": "uint256",
          "name": "batchTokenId",
          "type": "uint256"
        },
        {
          "internalType": "uint256",
          "name": "tons",
          "type": "uint256"
        }
      ],
      "name": "buyCredits",
      "outputs": [],
      "stateMutability": "payable",
      "type": "function"
    },
    {
      "inputs": [
        {
          "internalType": "uint256",
          "name": "batchTokenId",
          "type": "uint256"
        }
      ],
      "name": "cancelSale",
      "outputs": [],
      "stateMutability": "nonpayable",
      "type": "function"
    },
    {
      "inputs": [],
      "name": "cct",
      "outputs": [
        {
          "internalType": "contract CarbonCreditToken",
          "name": "",
          "type": "address"
        }
      ],
      "stateMutability": "view",
      "type": "function"
    },
    {
      "inputs": [
        {
          "internalType": "uint256",
          "name": "batchTokenId",
          "type": "uint256"
        }
      ],
      "name": "getSale",
      "outputs": [
        {
          "components": [
            {
              "internalType": "address",
              "name": "seller",
              "type": "address"
            },
            {
              "internalType": "uint256",
              "name": "availableTons",
              "type": "uint256"
            },
            {
              "internalType": "bool",
              "name": "active",
              "type": "bool"
            }
          ],
          "internalType": "struct CarbonCreditMarketplace.Sale",
          "name": "",
          "type": "tuple"
        }
      ],
      "stateMutability": "view",
      "type": "function"
    },
    {
      "inputs": [],
      "name": "greenNFTCollection",
      "outputs": [
        {
          "internalType": "contract GreenNFTCollection",
          "name": "",
          "type": "address"
        }
      ],
      "stateMutability": "view",
      "type": "function"
    },
    {
      "inputs": [
        {
          "internalType": "uint256",
          "name": "batchTokenId",
          "type": "uint256"
        },
        {
          "internalType": "uint256",
          "name": "tonsForSale",
          "type": "uint256"
        }
      ],
      "name": "openSale",
      "outputs": [],
      "stateMutability": "nonpayable",
      "type": "function"
    },
    {
      "inputs": [],
      "name": "registry",
      "outputs": [
        {
          "internalType": "contract CarbonCreditRegistry",
          "name": "",
          "type": "address"
        }
      ],
      "stateMutability": "view",
      "type": "function"
    },
    {
      "inputs": [
        {
          "internalType": "uint256",
          "name": "",
          "type": "uint256"
        }
      ],
      "name": "sales",
      "outputs": [
        {
          "internalType": "address",
          "name": "seller",
          "type": "address"
        },
        {
          "internalType": "uint256",
          "name": "availableTons",
          "type": "uint256"
        },
        {
          "internalType": "bool",
          "name": "active",
          "type": "bool"
        }
      ],
      "stateMutability": "view",
      "type": "function"
    }
  ],
  "bytecode": "0x608060405234801561001057600080fd5b506040516115c13803806115c1833981810160405281019061003291906101ed565b82600160006101000a81548173ffffffffffffffffffffffffffffffffffffffff021916908373ffffffffffffffffffffffffffffffffffffffff160217905550816000806101000a81548173ffffffffffffffffffffffffffffffffffffffff021916908373ffffffffffffffffffffffffffffffffffffffff16021790555080600260006101000a81548173ffffffffffffffffffffffffffffffffffffffff021916908373ffffffffffffffffffffffffffffffffffffffff160217905550505050610240565b600080fd5b600073ffffffffffffffffffffffffffffffffffffffff82169050919050565b600061012c82610101565b9050919050565b600061013e82610121565b9050919050565b61014e81610133565b811461015957600080fd5b50565b60008151905061016b81610145565b92915050565b600061017c82610121565b9050919050565b61018c81610171565b811461019757600080fd5b50565b6000815190506101a981610183565b92915050565b60006101ba82610121565b9050919050565b6101ca816101af565b81146101d557600080fd5b50565b6000815190506101e7816101c1565b92915050565b600080600060608486031215610206576102056100fc565b5b60006102148682870161015c565b93505060206102258682870161019a565b9250506040610236868287016101d8565b9150509250925092565b6113728061024f6000396000f3fe6080604052600436106100865760003560e01c806393867519116100595780639386751914610126578063b5f522f714610151578063bd94b00514610190578063d8f6d596146101b9578063e34f819b146101f657610086565b8063479c84571461008b578063526b347e146100a75780635a05ee58146100d05780637b103999146100fb575b600080fd5b6100a560048036038101906100a09190610bf4565b610221565b005b3480156100b357600080fd5b506100ce60048036038101906100c99190610bf4565b61053e565b005b3480156100dc57600080fd5b506100e561081b565b6040516100f29190610cb3565b60405180910390f35b34801561010757600080fd5b5061011061083f565b60405161011d9190610cef565b60405180910390f35b34801561013257600080fd5b5061013b610865565b6040516101489190610d2b565b60405180910390f35b34801561015d57600080fd5b5061017860048036038101906101739190610d46565b61088b565b60405161018793929190610dbe565b60405180910390f35b34801561019c57600080fd5b506101b760048036038101906101b29190610d46565b6108e2565b005b3480156101c557600080fd5b506101e060048036038101906101db9190610d46565b610acd565b6040516101ed9190610e64565b60405180910390f35b34801561020257600080fd5b5061020b610b75565b6040516102189190610e7f565b60405180910390f35b60006003600084815260200190815260200160002090508060020160009054906101000a900460ff16610289576040517f08c379a000000000000000000000000000000000000000000000000000000000815260040161028090610ef7565b60405180910390fd5b80600101548211156102d0576040517f08c379a00000000000000000000000000000000000000000000000000000000081526004016102c790610f63565b60405180910390fd5b6000662386f26fc10000836102e59190610fb2565b90508034101561032a576040517f08c379a000000000000000000000000000000000000000000000000000000000815260040161032190611040565b60405180910390fd5b8160000160009054906101000a900473ffffffffffffffffffffffffffffffffffffffff1673ffffffffffffffffffffffffffffffffffffffff166108fc829081150290604051600060405180830381858888f19350505050158015610394573d6000803e3d6000fd5b50803411156103f0573373ffffffffffffffffffffffffffffffffffffffff166108fc82346103c39190611060565b9081150290604051600060405180830381858888f193505050501580156103ee573d6000803e3d6000fd5b505b60008054906101000a900473ffffffffffffffffffffffffffffffffffffffff1673ffffffffffffffffffffffffffffffffffffffff1663a9059cbb33670de0b6b3a7640000866104419190610fb2565b6040518363ffffffff1660e01b815260040161045e929190611094565b6020604051808303816000875af115801561047d573d6000803e3d6000fd5b505050506040513d601f19601f820116820180604052508101906104a191906110e9565b50828260010160008282546104b69190611060565b9250508190555060008260010154036104e75760008260020160006101000a81548160ff0219169083151502179055505b833373ffffffffffffffffffffffffffffffffffffffff167f7852f393fd6a99c61648e39af92ae0e784b77281fc2af871edce1b51304ecd7c8584604051610530929190611116565b60405180910390a350505050565b3373ffffffffffffffffffffffffffffffffffffffff16600260009054906101000a900473ffffffffffffffffffffffffffffffffffffffff1673ffffffffffffffffffffffffffffffffffffffff16636352211e846040518263ffffffff1660e01b81526004016105b09190610e7f565b602060405180830381865afa1580156105cd573d6000803e3d6000fd5b505050506040513d601f19601f820116820180604052508101906105f1919061116b565b73ffffffffffffffffffffffffffffffffffffffff1614610647576040517f08c379a000000000000000000000000000000000000000000000000000000000815260040161063e906111e4565b60405180910390fd5b6000811161068a576040517f08c379a000000000000000000000000000000000000000000000000000000000815260040161068190611250565b60405180910390fd5b60008054906101000a900473ffffffffffffffffffffffffffffffffffffffff1673ffffffffffffffffffffffffffffffffffffffff166323b872dd3330670de0b6b3a7640000856106dc9190610fb2565b6040518463ffffffff1660e01b81526004016106fa93929190611270565b6020604051808303816000875af1158015610719573d6000803e3d6000fd5b505050506040513d601f19601f8201168201806040525081019061073d91906110e9565b50336003600084815260200190815260200160002060000160006101000a81548173ffffffffffffffffffffffffffffffffffffffff021916908373ffffffffffffffffffffffffffffffffffffffff16021790555080600360008481526020019081526020016000206001018190555060016003600084815260200190815260200160002060020160006101000a81548160ff021916908315150217905550817f77349524b196936a02cce88f8b83e611f7c467a4001211600c485533ef160b9d823360405161080f9291906112a7565b60405180910390a25050565b60008054906101000a900473ffffffffffffffffffffffffffffffffffffffff1681565b600160009054906101000a900473ffffffffffffffffffffffffffffffffffffffff1681565b600260009054906101000a900473ffffffffffffffffffffffffffffffffffffffff1681565b60036020528060005260406000206000915090508060000160009054906101000a900473ffffffffffffffffffffffffffffffffffffffff16908060010154908060020160009054906101000a900460ff16905083565b60006003600083815260200190815260200160002090508060020160009054906101000a900460ff16801561096657503373ffffffffffffffffffffffffffffffffffffffff168160000160009054906101000a900473ffffffffffffffffffffffffffffffffffffffff1673ffffffffffffffffffffffffffffffffffffffff16145b6109a5576040517f08c379a000000000000000000000000000000000000000000000000000000000815260040161099c9061131c565b60405180910390fd5b60008160020160006101000a81548160ff02191690831515021790555060008054906101000a900473ffffffffffffffffffffffffffffffffffffffff1673ffffffffffffffffffffffffffffffffffffffff1663a9059cbb8260000160009054906101000a900473ffffffffffffffffffffffffffffffffffffffff16670de0b6b3a76400008460010154610a3b9190610fb2565b6040518363ffffffff1660e01b8152600401610a58929190611094565b6020604051808303816000875af1158015610a77573d6000803e3d6000fd5b505050506040513d601f19601f82011682018060405250810190610a9b91906110e9565b50817f2c56893f6f6026d19bd17b7d05c9f15c522de1ae2b1c3a825f91a73c799321f260405160405180910390a25050565b610ad5610b80565b600360008381526020019081526020016000206040518060600160405290816000820160009054906101000a900473ffffffffffffffffffffffffffffffffffffffff1673ffffffffffffffffffffffffffffffffffffffff1673ffffffffffffffffffffffffffffffffffffffff168152602001600182015481526020016002820160009054906101000a900460ff1615151515815250509050919050565b662386f26fc1000081565b6040518060600160405280600073ffffffffffffffffffffffffffffffffffffffff168152602001600081526020016000151581525090565b600080fd5b6000819050919050565b610bd181610bbe565b8114610bdc57600080fd5b50565b600081359050610bee81610bc8565b92915050565b60008060408385031215610c0b57610c0a610bb9565b5b6000610c1985828601610bdf565b9250506020610c2a85828601610bdf565b9150509250929050565b600073ffffffffffffffffffffffffffffffffffffffff82169050919050565b6000819050919050565b6000610c79610c74610c6f84610c34565b610c54565b610c34565b9050919050565b6000610c8b82610c5e565b9050919050565b6000610c9d82610c80565b9050919050565b610cad81610c92565b82525050565b6000602082019050610cc86000830184610ca4565b92915050565b6000610cd982610c80565b9050919050565b610ce981610cce565b82525050565b6000602082019050610d046000830184610ce0565b92915050565b6000610d1582610c80565b9050919050565b610d2581610d0a565b82525050565b6000602082019050610d406000830184610d1c565b92915050565b600060208284031215610d5c57610d5b610bb9565b5b6000610d6a84828501610bdf565b91505092915050565b6000610d7e82610c34565b9050919050565b610d8e81610d73565b82525050565b610d9d81610bbe565b82525050565b60008115159050919050565b610db881610da3565b82525050565b6000606082019050610dd36000830186610d85565b610de06020830185610d94565b610ded6040830184610daf565b949350505050565b610dfe81610d73565b82525050565b610e0d81610bbe565b82525050565b610e1c81610da3565b82525050565b606082016000820151610e386000850182610df5565b506020820151610e4b6020850182610e04565b506040820151610e5e6040850182610e13565b50505050565b6000606082019050610e796000830184610e22565b92915050565b6000602082019050610e946000830184610d94565b92915050565b600082825260208201905092915050565b7f4e6f742061637469766500000000000000000000000000000000000000000000600082015250565b6000610ee1600a83610e9a565b9150610eec82610eab565b602082019050919050565b60006020820190508181036000830152610f1081610ed4565b9050919050565b7f4e6f7420656e6f75676800000000000000000000000000000000000000000000600082015250565b6000610f4d600a83610e9a565b9150610f5882610f17565b602082019050919050565b60006020820190508181036000830152610f7c81610f40565b9050919050565b7f4e487b7100000000000000000000000000000000000000000000000000000000600052601160045260246000fd5b6000610fbd82610bbe565b9150610fc883610bbe565b9250828202610fd681610bbe565b91508282048414831517610fed57610fec610f83565b5b5092915050565b7f496e73756666696369656e742045544800000000000000000000000000000000600082015250565b600061102a601083610e9a565b915061103582610ff4565b602082019050919050565b600060208201905081810360008301526110598161101d565b9050919050565b600061106b82610bbe565b915061107683610bbe565b925082820390508181111561108e5761108d610f83565b5b92915050565b60006040820190506110a96000830185610d85565b6110b66020830184610d94565b9392505050565b6110c681610da3565b81146110d157600080fd5b50565b6000815190506110e3816110bd565b92915050565b6000602082840312156110ff576110fe610bb9565b5b600061110d848285016110d4565b91505092915050565b600060408201905061112b6000830185610d94565b6111386020830184610d94565b9392505050565b61114881610d73565b811461115357600080fd5b50565b6000815190506111658161113f565b92915050565b60006020828403121561118157611180610bb9565b5b600061118f84828501611156565b91505092915050565b7f4e6f74206261746368206f776e65720000000000000000000000000000000000600082015250565b60006111ce600f83610e9a565b91506111d982611198565b602082019050919050565b600060208201905081810360008301526111fd816111c1565b9050919050565b7f5a65726f20746f6e730000000000000000000000000000000000000000000000600082015250565b600061123a600983610e9a565b915061124582611204565b602082019050919050565b600060208201905081810360008301526112698161122d565b9050919050565b60006060820190506112856000830186610d85565b6112926020830185610d85565b61129f6040830184610d94565b949350505050565b60006040820190506112bc6000830185610d94565b6112c96020830184610d85565b9392505050565b7f496e76616c69642073616c650000000000000000000000000000000000000000600082015250565b6000611306600c83610e9a565b9150611311826112d0565b602082019050919050565b60006020820190508181036000830152611335816112f9565b905091905056fea2646970667358221220cf695693f05295199cba7533b67973644c9402b4e63ba35277342052966bd52464736f6c634300081c0033",
  "linkReferences": {},
  "deployedLinkReferences": {}
}