{
  "_format": "hh-sol-artifact-1",
  "contractName": "CarbonCreditMarketplace",
  "sourceName": "contracts/CarbonCreditMarketplace.sol",
  "abi": [
    {
      "inputs": [
        {
          "internalType": "contract CarbonCreditRegistry",
          "name": "_registry",
          "type": "address"
        },
        {
          "internalType": "contract CarbonCreditToken",
          "name": "_cct",
          "type": "address"
        },
        {
          "internalType": "contract GreenNFTCollection",
          "name": "_greenNFTCollection",
          "type": "address"
        }
      ],
      "stateMutability": "nonpayable",
      "type": "constructor"
    },
    {
      "anonymous": false,
      "inputs": [
        {
          "indexed": true,
          "internalType": "uint256",
          "name": "batchTokenId",
          "type": "uint256"
        },
        {
          "indexed": false,
          "internalType": "uint256",
          "name": "claimId",
          "type": "uint256"
        }
      ],
      "name": "BatchFullySold",
      "type": "event"
    },
    {
      "anonymous": false,
      "inputs": [
        {
          "indexed": true,
          "internalType": "uint256",
          "name": "batchTokenId",
          "type": "uint256"
        }
      ],
      "name": "BatchSaleCancelled",
      "type": "event"
    },
    {
      "anonymous": false,
      "inputs": [
        {
          "indexed": true,
          "internalType": "uint256",
          "name": "batchTokenId",
          "type": "uint256"
        },
        {
          "indexed": false,
          "internalType": "uint256",
          "name": "claimId",
          "type": "uint256"
        },
        {
          "indexed": false,
          "internalType": "uint256",
          "name": "totalTons",
          "type": "uint256"
        },
        {
          "indexed": false,
          "internalType": "address",
          "name": "seller",
          "type": "address"
        }
      ],
      "name": "BatchSaleOpened",
      "type": "event"
    },
    {
      "anonymous": false,
      "inputs": [
        {
          "indexed": true,
          "internalType": "address",
          "name": "buyer",
          "type": "address"
        },
        {
          "indexed": true,
          "internalType": "uint256",
          "name": "batchTokenId",
          "type": "uint256"
        },
        {
          "indexed": false,
          "internalType": "uint256",
          "name": "tons",
          "type": "uint256"
        },
        {
          "indexed": false,
          "internalType": "uint256",
          "name": "ethPaid",
          "type": "uint256"
        },
        {
          "indexed": false,
          "internalType": "uint256",
          "name": "remainingTons",
          "type": "uint256"
        }
      ],
      "name": "CreditsPurchased",
      "type": "event"
    },
    {
      "inputs": [],
      "name": "PRICE_PER_TON",
      "outputs": [
        {
          "internalType": "uint256",
          "name": "",
          "type": "uint256"
        }
      ],
      "stateMutability": "view",
      "type": "function"
    },
    {
      "inputs": [
        {
          "internalType": "uint256",
          "name": "",
          "type": "uint256"
        }
      ],
      "name": "batchSales",
      "outputs": [
        {
          "internalType": "address",
          "name": "seller",
          "type": "address"
        },
        {
          "internalType": "uint256",
          "name": "claimId",
          "type": "uint256"
        },
        {
          "internalType": "uint256",
          "name": "totalTons",
          "type": "uint256"
        },
        {
          "internalType": "uint256",
          "name": "availableTons",
          "type": "uint256"
        },
        {
          "internalType": "bool",
          "name": "active",
          "type": "bool"
        }
      ],
      "stateMutability": "view",
      "type": "function"
    },
    {
      "inputs": [
        {
          "internalType": "uint256",
          "name": "batchTokenId",
          "type": "uint256"
        },
        {
          "internalType": "uint256",
          "name": "tons",
          "type": "uint256"
        }
      ],
      "name": "buyCredits",
      "outputs": [],
      "stateMutability": "payable",
      "type": "function"
    },
    {
      "inputs": [
        {
          "internalType": "uint256",
          "name": "batchTokenId",
          "type": "uint256"
        }
      ],
      "name": "cancelBatchSale",
      "outputs": [],
      "stateMutability": "nonpayable",
      "type": "function"
    },
    {
      "inputs": [],
      "name": "cct",
      "outputs": [
        {
          "internalType": "contract CarbonCreditToken",
          "name": "",
          "type": "address"
        }
      ],
      "stateMutability": "view",
      "type": "function"
    },
    {
      "inputs": [],
      "name": "getActiveBatchSales",
      "outputs": [
        {
          "internalType": "uint256[]",
          "name": "",
          "type": "uint256[]"
        }
      ],
      "stateMutability": "view",
      "type": "function"
    },
    {
      "inputs": [
        {
          "internalType": "uint256",
          "name": "batchTokenId",
          "type": "uint256"
        }
      ],
      "name": "getBatchSale",
      "outputs": [
        {
          "internalType": "address",
          "name": "seller",
          "type": "address"
        },
        {
          "internalType": "uint256",
          "name": "totalTons",
          "type": "uint256"
        },
        {
          "internalType": "uint256",
          "name": "availableTons",
          "type": "uint256"
        },
        {
          "internalType": "bool",
          "name": "active",
          "type": "bool"
        }
      ],
      "stateMutability": "view",
      "type": "function"
    },
    {
      "inputs": [
        {
          "internalType": "uint256[]",
          "name": "batchTokenIds",
          "type": "uint256[]"
        }
      ],
      "name": "getMultipleBatchSales",
      "outputs": [
        {
          "components": [
            {
              "internalType": "address",
              "name": "seller",
              "type": "address"
            },
            {
              "internalType": "uint256",
              "name": "claimId",
              "type": "uint256"
            },
            {
              "internalType": "uint256",
              "name": "totalTons",
              "type": "uint256"
            },
            {
              "internalType": "uint256",
              "name": "availableTons",
              "type": "uint256"
            },
            {
              "internalType": "bool",
              "name": "active",
              "type": "bool"
            }
          ],
          "internalType": "struct CarbonCreditMarketplace.BatchSale[]",
          "name": "sales",
          "type": "tuple[]"
        }
      ],
      "stateMutability": "view",
      "type": "function"
    },
    {
      "inputs": [],
      "name": "greenNFTCollection",
      "outputs": [
        {
          "internalType": "contract GreenNFTCollection",
          "name": "",
          "type": "address"
        }
      ],
      "stateMutability": "view",
      "type": "function"
    },
    {
      "inputs": [
        {
          "internalType": "uint256",
          "name": "batchTokenId",
          "type": "uint256"
        }
      ],
      "name": "openBatchSale",
      "outputs": [],
      "stateMutability": "nonpayable",
      "type": "function"
    },
    {
      "inputs": [],
      "name": "registry",
      "outputs": [
        {
          "internalType": "contract CarbonCreditRegistry",
          "name": "",
          "type": "address"
        }
      ],
      "stateMutability": "view",
      "type": "function"
    }
  ],
  "bytecode": "0x608060405234801561001057600080fd5b50604051612826380380612826833981810160405281019061003291906101ed565b82600160006101000a81548173ffffffffffffffffffffffffffffffffffffffff021916908373ffffffffffffffffffffffffffffffffffffffff160217905550816000806101000a81548173ffffffffffffffffffffffffffffffffffffffff021916908373ffffffffffffffffffffffffffffffffffffffff16021790555080600260006101000a81548173ffffffffffffffffffffffffffffffffffffffff021916908373ffffffffffffffffffffffffffffffffffffffff160217905550505050610240565b600080fd5b600073ffffffffffffffffffffffffffffffffffffffff82169050919050565b600061012c82610101565b9050919050565b600061013e82610121565b9050919050565b61014e81610133565b811461015957600080fd5b50565b60008151905061016b81610145565b92915050565b600061017c82610121565b9050919050565b61018c81610171565b811461019757600080fd5b50565b6000815190506101a981610183565b92915050565b60006101ba82610121565b9050919050565b6101ca816101af565b81146101d557600080fd5b50565b6000815190506101e7816101c1565b92915050565b600080600060608486031215610206576102056100fc565b5b60006102148682870161015c565b93505060206102258682870161019a565b9250506040610236868287016101d8565b9150509250925092565b6125d78061024f6000396000f3fe60806040526004361061009c5760003560e01c80637b103999116100645780637b1039991461017c57806393867519146101a75780639baca98b146101d2578063aa610dd1146101fb578063b0c9385b14610238578063e34f819b146102795761009c565b80630c877e1b146100a1578063479c8457146100ca5780634c4e7900146100e65780634ef3320c146101115780635a05ee5814610151575b600080fd5b3480156100ad57600080fd5b506100c860048036038101906100c3919061157d565b6102a4565b005b6100e460048036038101906100df91906115aa565b610920565b005b3480156100f257600080fd5b506100fb610d65565b60405161010891906116a8565b60405180910390f35b34801561011d57600080fd5b506101386004803603810190610133919061157d565b610dbd565b6040516101489493929190611735565b60405180910390f35b34801561015d57600080fd5b50610166610e98565b60405161017391906117d9565b60405180910390f35b34801561018857600080fd5b50610191610ebc565b60405161019e9190611815565b60405180910390f35b3480156101b357600080fd5b506101bc610ee2565b6040516101c99190611851565b60405180910390f35b3480156101de57600080fd5b506101f960048036038101906101f4919061157d565b610f08565b005b34801561020757600080fd5b50610222600480360381019061021d91906118d1565b611258565b60405161022f9190611a53565b60405180910390f35b34801561024457600080fd5b5061025f600480360381019061025a919061157d565b6113b9565b604051610270959493929190611a75565b60405180910390f35b34801561028557600080fd5b5061028e61141c565b60405161029b9190611ac8565b60405180910390f35b3373ffffffffffffffffffffffffffffffffffffffff16600260009054906101000a900473ffffffffffffffffffffffffffffffffffffffff1673ffffffffffffffffffffffffffffffffffffffff16636352211e836040518263ffffffff1660e01b81526004016103169190611ac8565b602060405180830381865afa158015610333573d6000803e3d6000fd5b505050506040513d601f19601f820116820180604052508101906103579190611b0f565b73ffffffffffffffffffffffffffffffffffffffff16146103ad576040517f08c379a00000000000000000000000000000000000000000000000000000000081526004016103a490611b99565b60405180910390fd5b6003600082815260200190815260200160002060040160009054906101000a900460ff1615610411576040517f08c379a000000000000000000000000000000000000000000000000000000000815260040161040890611c05565b60405180910390fd5b6000600160009054906101000a900473ffffffffffffffffffffffffffffffffffffffff1673ffffffffffffffffffffffffffffffffffffffff1663d52f3303836040518263ffffffff1660e01b815260040161046e9190611ac8565b602060405180830381865afa15801561048b573d6000803e3d6000fd5b505050506040513d601f19601f820116820180604052508101906104af9190611c3a565b9050600081036104f4576040517f08c379a00000000000000000000000000000000000000000000000000000000081526004016104eb90611cb3565b60405180910390fd5b6000600160009054906101000a900473ffffffffffffffffffffffffffffffffffffffff1673ffffffffffffffffffffffffffffffffffffffff16635aef2447836040518263ffffffff1660e01b81526004016105519190611ac8565b600060405180830381865afa15801561056e573d6000803e3d6000fd5b505050506040513d6000823e3d601f19601f820116820180604052508101906105979190611f2e565b9050828160c00151146105df576040517f08c379a00000000000000000000000000000000000000000000000000000000081526004016105d690611fc3565b60405180910390fd5b600160058111156105f3576105f2611fe3565b5b8160a00151600581111561060a57610609611fe3565b5b1461064a576040517f08c379a00000000000000000000000000000000000000000000000000000000081526004016106419061205e565b60405180910390fd5b60008160200151905060008111610696576040517f08c379a000000000000000000000000000000000000000000000000000000000815260040161068d906120ca565b60405180910390fd5b60008054906101000a900473ffffffffffffffffffffffffffffffffffffffff1673ffffffffffffffffffffffffffffffffffffffff166323b872dd3330670de0b6b3a7640000856106e89190612119565b6040518463ffffffff1660e01b81526004016107069392919061215b565b6020604051808303816000875af1158015610725573d6000803e3d6000fd5b505050506040513d601f19601f8201168201806040525081019061074991906121be565b506040518060a001604052803373ffffffffffffffffffffffffffffffffffffffff168152602001848152602001828152602001828152602001600115158152506003600086815260200190815260200160002060008201518160000160006101000a81548173ffffffffffffffffffffffffffffffffffffffff021916908373ffffffffffffffffffffffffffffffffffffffff16021790555060208201518160010155604082015181600201556060820151816003015560808201518160040160006101000a81548160ff0219169083151502179055509050506004849080600181540180825580915050600190039060005260206000200160009091909190915055600160009054906101000a900473ffffffffffffffffffffffffffffffffffffffff1673ffffffffffffffffffffffffffffffffffffffff1663f14e49ae8460036040518363ffffffff1660e01b81526004016108ac929190612233565b600060405180830381600087803b1580156108c657600080fd5b505af11580156108da573d6000803e3d6000fd5b50505050837f7842824341a0d70a079e934f2696b99e6a7418d8713dc78a72db0b75174ad8a68483336040516109129392919061225c565b60405180910390a250505050565b60008111610963576040517f08c379a000000000000000000000000000000000000000000000000000000000815260040161095a906120ca565b60405180910390fd5b60006003600084815260200190815260200160002090508060040160009054906101000a900460ff166109cb576040517f08c379a00000000000000000000000000000000000000000000000000000000081526004016109c2906122df565b60405180910390fd5b8060030154821115610a12576040517f08c379a0000000000000000000000000000000000000000000000000000000008152600401610a099061234b565b60405180910390fd5b6000662386f26fc1000083610a279190612119565b905080341015610a6c576040517f08c379a0000000000000000000000000000000000000000000000000000000008152600401610a63906123b7565b60405180910390fd5b82826003016000828254610a8091906123d7565b9250508190555060008083600301541490508015610b8f5760008360040160006101000a81548160ff021916908315150217905550610abe85611427565b600160009054906101000a900473ffffffffffffffffffffffffffffffffffffffff1673ffffffffffffffffffffffffffffffffffffffff1663f14e49ae846001015460046040518363ffffffff1660e01b8152600401610b20929190612233565b600060405180830381600087803b158015610b3a57600080fd5b505af1158015610b4e573d6000803e3d6000fd5b50505050847f192c6bc73f25539f164513b3fe5e33cefb234fff79b80153f5889be88f9deb5a8460010154604051610b869190611ac8565b60405180910390a25b60008054906101000a900473ffffffffffffffffffffffffffffffffffffffff1673ffffffffffffffffffffffffffffffffffffffff1663a9059cbb33670de0b6b3a764000087610be09190612119565b6040518363ffffffff1660e01b8152600401610bfd92919061240b565b6020604051808303816000875af1158015610c1c573d6000803e3d6000fd5b505050506040513d601f19601f82011682018060405250810190610c4091906121be565b508260000160009054906101000a900473ffffffffffffffffffffffffffffffffffffffff1673ffffffffffffffffffffffffffffffffffffffff166108fc839081150290604051600060405180830381858888f19350505050158015610cab573d6000803e3d6000fd5b5081341115610d07573373ffffffffffffffffffffffffffffffffffffffff166108fc8334610cda91906123d7565b9081150290604051600060405180830381858888f19350505050158015610d05573d6000803e3d6000fd5b505b843373ffffffffffffffffffffffffffffffffffffffff167f59933be206b6873fd1ff70b453873c5299011ff16550f8af2ee0be8c88b6dd4486858760030154604051610d5693929190612434565b60405180910390a35050505050565b60606004805480602002602001604051908101604052809291908181526020018280548015610db357602002820191906000526020600020905b815481526020019060010190808311610d9f575b5050505050905090565b6000806000806000600360008781526020019081526020016000206040518060a00160405290816000820160009054906101000a900473ffffffffffffffffffffffffffffffffffffffff1673ffffffffffffffffffffffffffffffffffffffff1673ffffffffffffffffffffffffffffffffffffffff1681526020016001820154815260200160028201548152602001600382015481526020016004820160009054906101000a900460ff161515151581525050905080600001518160400151826060015183608001519450945094509450509193509193565b60008054906101000a900473ffffffffffffffffffffffffffffffffffffffff1681565b600160009054906101000a900473ffffffffffffffffffffffffffffffffffffffff1681565b600260009054906101000a900473ffffffffffffffffffffffffffffffffffffffff1681565b60006003600083815260200190815260200160002090508060040160009054906101000a900460ff16610f70576040517f08c379a0000000000000000000000000000000000000000000000000000000008152600401610f67906124b7565b60405180910390fd5b3373ffffffffffffffffffffffffffffffffffffffff16600260009054906101000a900473ffffffffffffffffffffffffffffffffffffffff1673ffffffffffffffffffffffffffffffffffffffff16636352211e846040518263ffffffff1660e01b8152600401610fe29190611ac8565b602060405180830381865afa158015610fff573d6000803e3d6000fd5b505050506040513d601f19601f820116820180604052508101906110239190611b0f565b73ffffffffffffffffffffffffffffffffffffffff1614611079576040517f08c379a000000000000000000000000000000000000000000000000000000000815260040161107090612523565b60405180910390fd5b60008160030154905060008260040160006101000a81548160ff021916908315150217905550600082600301819055506110b283611427565b60008111156111925760008054906101000a900473ffffffffffffffffffffffffffffffffffffffff1673ffffffffffffffffffffffffffffffffffffffff1663a9059cbb8360000160009054906101000a900473ffffffffffffffffffffffffffffffffffffffff16670de0b6b3a7640000846111309190612119565b6040518363ffffffff1660e01b815260040161114d92919061240b565b6020604051808303816000875af115801561116c573d6000803e3d6000fd5b505050506040513d601f19601f8201168201806040525081019061119091906121be565b505b600160009054906101000a900473ffffffffffffffffffffffffffffffffffffffff1673ffffffffffffffffffffffffffffffffffffffff1663f14e49ae836001015460016040518363ffffffff1660e01b81526004016111f4929190612233565b600060405180830381600087803b15801561120e57600080fd5b505af1158015611222573d6000803e3d6000fd5b50505050827f2d506cca2fd28f5e3c9eff4e56e96fa61855e4b2115290c2c5481e05ef1c86e160405160405180910390a2505050565b60608282905067ffffffffffffffff81111561127757611276611ce9565b5b6040519080825280602002602001820160405280156112b057816020015b61129d6114ec565b8152602001906001900390816112955790505b50905060005b838390508110156113b257600360008585848181106112d8576112d7612543565b5b9050602002013581526020019081526020016000206040518060a00160405290816000820160009054906101000a900473ffffffffffffffffffffffffffffffffffffffff1673ffffffffffffffffffffffffffffffffffffffff1673ffffffffffffffffffffffffffffffffffffffff1681526020016001820154815260200160028201548152602001600382015481526020016004820160009054906101000a900460ff16151515158152505082828151811061139a57611399612543565b5b602002602001018190525080806001019150506112b6565b5092915050565b60036020528060005260406000206000915090508060000160009054906101000a900473ffffffffffffffffffffffffffffffffffffffff16908060010154908060020154908060030154908060040160009054906101000a900460ff16905085565b662386f26fc1000081565b60005b6004805490508110156114e857816004828154811061144c5761144b612543565b5b9060005260206000200154036114db576004600160048054905061147091906123d7565b8154811061148157611480612543565b5b9060005260206000200154600482815481106114a05761149f612543565b5b906000526020600020018190555060048054806114c0576114bf612572565b5b600190038181906000526020600020016000905590556114e8565b808060010191505061142a565b5050565b6040518060a00160405280600073ffffffffffffffffffffffffffffffffffffffff1681526020016000815260200160008152602001600081526020016000151581525090565b6000604051905090565b600080fd5b600080fd5b6000819050919050565b61155a81611547565b811461156557600080fd5b50565b60008135905061157781611551565b92915050565b6000602082840312156115935761159261153d565b5b60006115a184828501611568565b91505092915050565b600080604083850312156115c1576115c061153d565b5b60006115cf85828601611568565b92505060206115e085828601611568565b9150509250929050565b600081519050919050565b600082825260208201905092915050565b6000819050602082019050919050565b61161f81611547565b82525050565b60006116318383611616565b60208301905092915050565b6000602082019050919050565b6000611655826115ea565b61165f81856115f5565b935061166a83611606565b8060005b8381101561169b5781516116828882611625565b975061168d8361163d565b92505060018101905061166e565b5085935050505092915050565b600060208201905081810360008301526116c2818461164a565b905092915050565b600073ffffffffffffffffffffffffffffffffffffffff82169050919050565b60006116f5826116ca565b9050919050565b611705816116ea565b82525050565b61171481611547565b82525050565b60008115159050919050565b61172f8161171a565b82525050565b600060808201905061174a60008301876116fc565b611757602083018661170b565b611764604083018561170b565b6117716060830184611726565b95945050505050565b6000819050919050565b600061179f61179a611795846116ca565b61177a565b6116ca565b9050919050565b60006117b182611784565b9050919050565b60006117c3826117a6565b9050919050565b6117d3816117b8565b82525050565b60006020820190506117ee60008301846117ca565b92915050565b60006117ff826117a6565b9050919050565b61180f816117f4565b82525050565b600060208201905061182a6000830184611806565b92915050565b600061183b826117a6565b9050919050565b61184b81611830565b82525050565b60006020820190506118666000830184611842565b92915050565b600080fd5b600080fd5b600080fd5b60008083601f8401126118915761189061186c565b5b8235905067ffffffffffffffff8111156118ae576118ad611871565b5b6020830191508360208202830111156118ca576118c9611876565b5b9250929050565b600080602083850312156118e8576118e761153d565b5b600083013567ffffffffffffffff81111561190657611905611542565b5b6119128582860161187b565b92509250509250929050565b600081519050919050565b600082825260208201905092915050565b6000819050602082019050919050565b611953816116ea565b82525050565b6119628161171a565b82525050565b60a08201600082015161197e600085018261194a565b5060208201516119916020850182611616565b5060408201516119a46040850182611616565b5060608201516119b76060850182611616565b5060808201516119ca6080850182611959565b50505050565b60006119dc8383611968565b60a08301905092915050565b6000602082019050919050565b6000611a008261191e565b611a0a8185611929565b9350611a158361193a565b8060005b83811015611a46578151611a2d88826119d0565b9750611a38836119e8565b925050600181019050611a19565b5085935050505092915050565b60006020820190508181036000830152611a6d81846119f5565b905092915050565b600060a082019050611a8a60008301886116fc565b611a97602083018761170b565b611aa4604083018661170b565b611ab1606083018561170b565b611abe6080830184611726565b9695505050505050565b6000602082019050611add600083018461170b565b92915050565b611aec816116ea565b8114611af757600080fd5b50565b600081519050611b0981611ae3565b92915050565b600060208284031215611b2557611b2461153d565b5b6000611b3384828501611afa565b91505092915050565b600082825260208201905092915050565b7f4e6f74206261746368206f776e65720000000000000000000000000000000000600082015250565b6000611b83600f83611b3c565b9150611b8e82611b4d565b602082019050919050565b60006020820190508181036000830152611bb281611b76565b9050919050565b7f416c7265616479206f6e2073616c650000000000000000000000000000000000600082015250565b6000611bef600f83611b3c565b9150611bfa82611bb9565b602082019050919050565b60006020820190508181036000830152611c1e81611be2565b9050919050565b600081519050611c3481611551565b92915050565b600060208284031215611c5057611c4f61153d565b5b6000611c5e84828501611c25565b91505092915050565b7f4261746368206e6f7420666f756e640000000000000000000000000000000000600082015250565b6000611c9d600f83611b3c565b9150611ca882611c67565b602082019050919050565b60006020820190508181036000830152611ccc81611c90565b9050919050565b600080fd5b6000601f19601f8301169050919050565b7f4e487b7100000000000000000000000000000000000000000000000000000000600052604160045260246000fd5b611d2182611cd8565b810181811067ffffffffffffffff82111715611d4057611d3f611ce9565b5b80604052505050565b6000611d53611533565b9050611d5f8282611d18565b919050565b600080fd5b600080fd5b600067ffffffffffffffff821115611d8957611d88611ce9565b5b611d9282611cd8565b9050602081019050919050565b60005b83811015611dbd578082015181840152602081019050611da2565b60008484015250505050565b6000611ddc611dd784611d6e565b611d49565b905082815260208101848484011115611df857611df7611d69565b5b611e03848285611d9f565b509392505050565b600082601f830112611e2057611e1f61186c565b5b8151611e30848260208601611dc9565b91505092915050565b60068110611e4657600080fd5b50565b600081519050611e5881611e39565b92915050565b600060e08284031215611e7457611e73611cd3565b5b611e7e60e0611d49565b90506000611e8e84828501611c25565b6000830152506020611ea284828501611c25565b6020830152506040611eb684828501611c25565b6040830152506060611eca84828501611c25565b606083015250608082015167ffffffffffffffff811115611eee57611eed611d64565b5b611efa84828501611e0b565b60808301525060a0611f0e84828501611e49565b60a08301525060c0611f2284828501611c25565b60c08301525092915050565b600060208284031215611f4457611f4361153d565b5b600082015167ffffffffffffffff811115611f6257611f61611542565b5b611f6e84828501611e5e565b91505092915050565b7f496e76616c696420626174636800000000000000000000000000000000000000600082015250565b6000611fad600d83611b3c565b9150611fb882611f77565b602082019050919050565b60006020820190508181036000830152611fdc81611fa0565b9050919050565b7f4e487b7100000000000000000000000000000000000000000000000000000000600052602160045260246000fd5b7f4e6f742061756469746564000000000000000000000000000000000000000000600082015250565b6000612048600b83611b3c565b915061205382612012565b602082019050919050565b600060208201905081810360008301526120778161203b565b9050919050565b7f5a65726f20746f6e730000000000000000000000000000000000000000000000600082015250565b60006120b4600983611b3c565b91506120bf8261207e565b602082019050919050565b600060208201905081810360008301526120e3816120a7565b9050919050565b7f4e487b7100000000000000000000000000000000000000000000000000000000600052601160045260246000fd5b600061212482611547565b915061212f83611547565b925082820261213d81611547565b91508282048414831517612154576121536120ea565b5b5092915050565b600060608201905061217060008301866116fc565b61217d60208301856116fc565b61218a604083018461170b565b949350505050565b61219b8161171a565b81146121a657600080fd5b50565b6000815190506121b881612192565b92915050565b6000602082840312156121d4576121d361153d565b5b60006121e2848285016121a9565b91505092915050565b600681106121fc576121fb611fe3565b5b50565b600081905061220d826121eb565b919050565b600061221d826121ff565b9050919050565b61222d81612212565b82525050565b6000604082019050612248600083018561170b565b6122556020830184612224565b9392505050565b6000606082019050612271600083018661170b565b61227e602083018561170b565b61228b60408301846116fc565b949350505050565b7f4e6f74206f6e2073616c65000000000000000000000000000000000000000000600082015250565b60006122c9600b83611b3c565b91506122d482612293565b602082019050919050565b600060208201905081810360008301526122f8816122bc565b9050919050565b7f4e6f7420656e6f75676820617661696c61626c65000000000000000000000000600082015250565b6000612335601483611b3c565b9150612340826122ff565b602082019050919050565b6000602082019050818103600083015261236481612328565b9050919050565b7f496e73756666696369656e742045544800000000000000000000000000000000600082015250565b60006123a1601083611b3c565b91506123ac8261236b565b602082019050919050565b600060208201905081810360008301526123d081612394565b9050919050565b60006123e282611547565b91506123ed83611547565b9250828203905081811115612405576124046120ea565b5b92915050565b600060408201905061242060008301856116fc565b61242d602083018461170b565b9392505050565b6000606082019050612449600083018661170b565b612456602083018561170b565b612463604083018461170b565b949350505050565b7f4e6f742061637469766500000000000000000000000000000000000000000000600082015250565b60006124a1600a83611b3c565b91506124ac8261246b565b602082019050919050565b600060208201905081810360008301526124d081612494565b9050919050565b7f4e6f74206f776e65720000000000000000000000000000000000000000000000600082015250565b600061250d600983611b3c565b9150612518826124d7565b602082019050919050565b6000602082019050818103600083015261253c81612500565b9050919050565b7f4e487b7100000000000000000000000000000000000000000000000000000000600052603260045260246000fd5b7f4e487b7100000000000000000000000000000000000000000000000000000000600052603160045260246000fdfea26469706673582212208891a0cb056a1e61db14f7d40a5412066fd99166ca385b04de3c30e008b2b2cb64736f6c634300081c0033",
  "linkReferences": {},
  "deployedLinkReferences": {}
}