{
  "_format": "hh-sol-artifact-1",
  "contractName": "CarbonCreditMarketplace",
  "sourceName": "contracts/CarbonCreditMarketplace.sol",
  "abi": [
    {
      "inputs": [
        {
          "internalType": "contract CarbonCreditRegistry",
          "name": "_registry",
          "type": "address"
        },
        {
          "internalType": "contract CarbonCreditToken",
          "name": "_cct",
          "type": "address"
        },
        {
          "internalType": "contract GreenNFTCollection",
          "name": "_greenNFTCollection",
          "type": "address"
        }
      ],
      "stateMutability": "nonpayable",
      "type": "constructor"
    },
    {
      "anonymous": false,
      "inputs": [
        {
          "indexed": true,
          "internalType": "uint256",
          "name": "batchTokenId",
          "type": "uint256"
        },
        {
          "indexed": false,
          "internalType": "uint256",
          "name": "claimId",
          "type": "uint256"
        }
      ],
      "name": "BatchFullySold",
      "type": "event"
    },
    {
      "anonymous": false,
      "inputs": [
        {
          "indexed": true,
          "internalType": "uint256",
          "name": "batchTokenId",
          "type": "uint256"
        }
      ],
      "name": "BatchSaleCancelled",
      "type": "event"
    },
    {
      "anonymous": false,
      "inputs": [
        {
          "indexed": true,
          "internalType": "uint256",
          "name": "batchTokenId",
          "type": "uint256"
        },
        {
          "indexed": false,
          "internalType": "uint256",
          "name": "claimId",
          "type": "uint256"
        },
        {
          "indexed": false,
          "internalType": "uint256",
          "name": "totalWei",
          "type": "uint256"
        },
        {
          "indexed": false,
          "internalType": "address",
          "name": "seller",
          "type": "address"
        }
      ],
      "name": "BatchSaleOpened",
      "type": "event"
    },
    {
      "anonymous": false,
      "inputs": [
        {
          "indexed": true,
          "internalType": "address",
          "name": "buyer",
          "type": "address"
        },
        {
          "indexed": true,
          "internalType": "uint256",
          "name": "batchTokenId",
          "type": "uint256"
        },
        {
          "indexed": false,
          "internalType": "uint256",
          "name": "tonsWei",
          "type": "uint256"
        },
        {
          "indexed": false,
          "internalType": "uint256",
          "name": "ethPaid",
          "type": "uint256"
        },
        {
          "indexed": false,
          "internalType": "uint256",
          "name": "remainingWei",
          "type": "uint256"
        }
      ],
      "name": "CreditsPurchased",
      "type": "event"
    },
    {
      "inputs": [],
      "name": "PRICE_PER_TON",
      "outputs": [
        {
          "internalType": "uint256",
          "name": "",
          "type": "uint256"
        }
      ],
      "stateMutability": "view",
      "type": "function"
    },
    {
      "inputs": [
        {
          "internalType": "uint256",
          "name": "",
          "type": "uint256"
        }
      ],
      "name": "batchSales",
      "outputs": [
        {
          "internalType": "address",
          "name": "seller",
          "type": "address"
        },
        {
          "internalType": "uint256",
          "name": "claimId",
          "type": "uint256"
        },
        {
          "internalType": "uint256",
          "name": "totalWei",
          "type": "uint256"
        },
        {
          "internalType": "uint256",
          "name": "availableWei",
          "type": "uint256"
        },
        {
          "internalType": "bool",
          "name": "active",
          "type": "bool"
        }
      ],
      "stateMutability": "view",
      "type": "function"
    },
    {
      "inputs": [
        {
          "internalType": "uint256",
          "name": "batchTokenId",
          "type": "uint256"
        },
        {
          "internalType": "uint256",
          "name": "tonsWei",
          "type": "uint256"
        }
      ],
      "name": "buyCredits",
      "outputs": [],
      "stateMutability": "payable",
      "type": "function"
    },
    {
      "inputs": [
        {
          "internalType": "uint256",
          "name": "batchTokenId",
          "type": "uint256"
        }
      ],
      "name": "cancelBatchSale",
      "outputs": [],
      "stateMutability": "nonpayable",
      "type": "function"
    },
    {
      "inputs": [],
      "name": "cct",
      "outputs": [
        {
          "internalType": "contract CarbonCreditToken",
          "name": "",
          "type": "address"
        }
      ],
      "stateMutability": "view",
      "type": "function"
    },
    {
      "inputs": [],
      "name": "getActiveBatchSales",
      "outputs": [
        {
          "internalType": "uint256[]",
          "name": "",
          "type": "uint256[]"
        }
      ],
      "stateMutability": "view",
      "type": "function"
    },
    {
      "inputs": [
        {
          "internalType": "uint256",
          "name": "batchTokenId",
          "type": "uint256"
        }
      ],
      "name": "getBatchSale",
      "outputs": [
        {
          "internalType": "address",
          "name": "seller",
          "type": "address"
        },
        {
          "internalType": "uint256",
          "name": "totalWei",
          "type": "uint256"
        },
        {
          "internalType": "uint256",
          "name": "availableWei",
          "type": "uint256"
        },
        {
          "internalType": "bool",
          "name": "active",
          "type": "bool"
        }
      ],
      "stateMutability": "view",
      "type": "function"
    },
    {
      "inputs": [
        {
          "internalType": "address",
          "name": "buyer",
          "type": "address"
        }
      ],
      "name": "getPurchaseHistory",
      "outputs": [
        {
          "components": [
            {
              "internalType": "uint256",
              "name": "batchTokenId",
              "type": "uint256"
            },
            {
              "internalType": "uint256",
              "name": "tonsWei",
              "type": "uint256"
            },
            {
              "internalType": "uint256",
              "name": "ethPaid",
              "type": "uint256"
            },
            {
              "internalType": "uint256",
              "name": "timestamp",
              "type": "uint256"
            }
          ],
          "internalType": "struct CarbonCreditMarketplace.Purchase[]",
          "name": "",
          "type": "tuple[]"
        }
      ],
      "stateMutability": "view",
      "type": "function"
    },
    {
      "inputs": [],
      "name": "greenNFTCollection",
      "outputs": [
        {
          "internalType": "contract GreenNFTCollection",
          "name": "",
          "type": "address"
        }
      ],
      "stateMutability": "view",
      "type": "function"
    },
    {
      "inputs": [
        {
          "internalType": "uint256",
          "name": "batchTokenId",
          "type": "uint256"
        }
      ],
      "name": "openBatchSale",
      "outputs": [],
      "stateMutability": "nonpayable",
      "type": "function"
    },
    {
      "inputs": [],
      "name": "registry",
      "outputs": [
        {
          "internalType": "contract CarbonCreditRegistry",
          "name": "",
          "type": "address"
        }
      ],
      "stateMutability": "view",
      "type": "function"
    }
  ],
  "bytecode": "0x608060405234801561001057600080fd5b506040516127ca3803806127ca833981810160405281019061003291906101ed565b82600160006101000a81548173ffffffffffffffffffffffffffffffffffffffff021916908373ffffffffffffffffffffffffffffffffffffffff160217905550816000806101000a81548173ffffffffffffffffffffffffffffffffffffffff021916908373ffffffffffffffffffffffffffffffffffffffff16021790555080600260006101000a81548173ffffffffffffffffffffffffffffffffffffffff021916908373ffffffffffffffffffffffffffffffffffffffff160217905550505050610240565b600080fd5b600073ffffffffffffffffffffffffffffffffffffffff82169050919050565b600061012c82610101565b9050919050565b600061013e82610121565b9050919050565b61014e81610133565b811461015957600080fd5b50565b60008151905061016b81610145565b92915050565b600061017c82610121565b9050919050565b61018c81610171565b811461019757600080fd5b50565b6000815190506101a981610183565b92915050565b60006101ba82610121565b9050919050565b6101ca816101af565b81146101d557600080fd5b50565b6000815190506101e7816101c1565b92915050565b600080600060608486031215610206576102056100fc565b5b60006102148682870161015c565b93505060206102258682870161019a565b9250506040610236868287016101d8565b9150509250925092565b61257b8061024f6000396000f3fe60806040526004361061009c5760003560e01c80635a05ee58116100645780635a05ee581461018e5780637b103999146101b957806393867519146101e45780639baca98b1461020f578063b0c9385b14610238578063e34f819b146102795761009c565b80630c877e1b146100a157806321034444146100ca578063479c8457146101075780634c4e7900146101235780634ef3320c1461014e575b600080fd5b3480156100ad57600080fd5b506100c860048036038101906100c3919061155d565b6102a4565b005b3480156100d657600080fd5b506100f160048036038101906100ec91906115e8565b6108c7565b6040516100fe9190611728565b60405180910390f35b610121600480360381019061011c919061174a565b61098d565b005b34801561012f57600080fd5b50610138610f10565b6040516101459190611839565b60405180910390f35b34801561015a57600080fd5b506101756004803603810190610170919061155d565b610f68565b6040516101859493929190611894565b60405180910390f35b34801561019a57600080fd5b506101a3611043565b6040516101b09190611938565b60405180910390f35b3480156101c557600080fd5b506101ce611067565b6040516101db9190611974565b60405180910390f35b3480156101f057600080fd5b506101f961108d565b60405161020691906119b0565b60405180910390f35b34801561021b57600080fd5b506102366004803603810190610231919061155d565b6110b3565b005b34801561024457600080fd5b5061025f600480360381019061025a919061155d565b6113e0565b6040516102709594939291906119cb565b60405180910390f35b34801561028557600080fd5b5061028e611443565b60405161029b9190611a1e565b60405180910390f35b3373ffffffffffffffffffffffffffffffffffffffff16600260009054906101000a900473ffffffffffffffffffffffffffffffffffffffff1673ffffffffffffffffffffffffffffffffffffffff16636352211e836040518263ffffffff1660e01b81526004016103169190611a1e565b602060405180830381865afa158015610333573d6000803e3d6000fd5b505050506040513d601f19601f820116820180604052508101906103579190611a4e565b73ffffffffffffffffffffffffffffffffffffffff16146103ad576040517f08c379a00000000000000000000000000000000000000000000000000000000081526004016103a490611ad8565b60405180910390fd5b6003600082815260200190815260200160002060040160009054906101000a900460ff1615610411576040517f08c379a000000000000000000000000000000000000000000000000000000000815260040161040890611b44565b60405180910390fd5b6000600160009054906101000a900473ffffffffffffffffffffffffffffffffffffffff1673ffffffffffffffffffffffffffffffffffffffff1663d52f3303836040518263ffffffff1660e01b815260040161046e9190611a1e565b602060405180830381865afa15801561048b573d6000803e3d6000fd5b505050506040513d601f19601f820116820180604052508101906104af9190611b79565b9050600081036104f4576040517f08c379a00000000000000000000000000000000000000000000000000000000081526004016104eb90611bf2565b60405180910390fd5b6000600160009054906101000a900473ffffffffffffffffffffffffffffffffffffffff1673ffffffffffffffffffffffffffffffffffffffff16635aef2447836040518263ffffffff1660e01b81526004016105519190611a1e565b600060405180830381865afa15801561056e573d6000803e3d6000fd5b505050506040513d6000823e3d601f19601f820116820180604052508101906105979190611e72565b9050600160058111156105ad576105ac611ebb565b5b8160a0015160058111156105c4576105c3611ebb565b5b14610604576040517f08c379a00000000000000000000000000000000000000000000000000000000081526004016105fb90611f36565b60405180910390fd5b60008160200151905060008111610650576040517f08c379a000000000000000000000000000000000000000000000000000000000815260040161064790611fa2565b60405180910390fd5b60008054906101000a900473ffffffffffffffffffffffffffffffffffffffff1673ffffffffffffffffffffffffffffffffffffffff166323b872dd3330846040518463ffffffff1660e01b81526004016106ad93929190611fc2565b6020604051808303816000875af11580156106cc573d6000803e3d6000fd5b505050506040513d601f19601f820116820180604052508101906106f09190612025565b506040518060a001604052803373ffffffffffffffffffffffffffffffffffffffff168152602001848152602001828152602001828152602001600115158152506003600086815260200190815260200160002060008201518160000160006101000a81548173ffffffffffffffffffffffffffffffffffffffff021916908373ffffffffffffffffffffffffffffffffffffffff16021790555060208201518160010155604082015181600201556060820151816003015560808201518160040160006101000a81548160ff0219169083151502179055509050506004849080600181540180825580915050600190039060005260206000200160009091909190915055600160009054906101000a900473ffffffffffffffffffffffffffffffffffffffff1673ffffffffffffffffffffffffffffffffffffffff1663f14e49ae8460036040518363ffffffff1660e01b815260040161085392919061209a565b600060405180830381600087803b15801561086d57600080fd5b505af1158015610881573d6000803e3d6000fd5b50505050837f7842824341a0d70a079e934f2696b99e6a7418d8713dc78a72db0b75174ad8a68483336040516108b9939291906120c3565b60405180910390a250505050565b6060600560008373ffffffffffffffffffffffffffffffffffffffff1673ffffffffffffffffffffffffffffffffffffffff168152602001908152602001600020805480602002602001604051908101604052809291908181526020016000905b82821015610982578382906000526020600020906004020160405180608001604052908160008201548152602001600182015481526020016002820154815260200160038201548152505081526020019060010190610928565b505050509050919050565b600081116109d0576040517f08c379a00000000000000000000000000000000000000000000000000000000081526004016109c790611fa2565b60405180910390fd5b60006003600084815260200190815260200160002090508060040160009054906101000a900460ff16610a38576040517f08c379a0000000000000000000000000000000000000000000000000000000008152600401610a2f90612146565b60405180910390fd5b8060000160009054906101000a900473ffffffffffffffffffffffffffffffffffffffff1673ffffffffffffffffffffffffffffffffffffffff163373ffffffffffffffffffffffffffffffffffffffff1603610aca576040517f08c379a0000000000000000000000000000000000000000000000000000000008152600401610ac1906121b2565b60405180910390fd5b8060030154821115610b11576040517f08c379a0000000000000000000000000000000000000000000000000000000008152600401610b089061221e565b60405180910390fd5b6000670de0b6b3a7640000652d79883d200084610b2e919061226d565b610b3891906122de565b905080341015610b7d576040517f08c379a0000000000000000000000000000000000000000000000000000000008152600401610b749061235b565b60405180910390fd5b82826003016000828254610b91919061237b565b9250508190555060008054906101000a900473ffffffffffffffffffffffffffffffffffffffff1673ffffffffffffffffffffffffffffffffffffffff1663a9059cbb33856040518363ffffffff1660e01b8152600401610bf39291906123af565b6020604051808303816000875af1158015610c12573d6000803e3d6000fd5b505050506040513d601f19601f82011682018060405250810190610c369190612025565b508160000160009054906101000a900473ffffffffffffffffffffffffffffffffffffffff1673ffffffffffffffffffffffffffffffffffffffff166108fc829081150290604051600060405180830381858888f19350505050158015610ca1573d6000803e3d6000fd5b5080341115610cfd573373ffffffffffffffffffffffffffffffffffffffff166108fc8234610cd0919061237b565b9081150290604051600060405180830381858888f19350505050158015610cfb573d6000803e3d6000fd5b505b600560003373ffffffffffffffffffffffffffffffffffffffff1673ffffffffffffffffffffffffffffffffffffffff16815260200190815260200160002060405180608001604052808681526020018581526020018381526020014281525090806001815401808255809150506001900390600052602060002090600402016000909190919091506000820151816000015560208201518160010155604082015181600201556060820151816003015550506000826003015403610eb35760008260040160006101000a81548160ff021916908315150217905550610de28461144d565b600160009054906101000a900473ffffffffffffffffffffffffffffffffffffffff1673ffffffffffffffffffffffffffffffffffffffff1663f14e49ae836001015460046040518363ffffffff1660e01b8152600401610e4492919061209a565b600060405180830381600087803b158015610e5e57600080fd5b505af1158015610e72573d6000803e3d6000fd5b50505050837f192c6bc73f25539f164513b3fe5e33cefb234fff79b80153f5889be88f9deb5a8360010154604051610eaa9190611a1e565b60405180910390a25b833373ffffffffffffffffffffffffffffffffffffffff167f59933be206b6873fd1ff70b453873c5299011ff16550f8af2ee0be8c88b6dd4485848660030154604051610f02939291906123d8565b60405180910390a350505050565b60606004805480602002602001604051908101604052809291908181526020018280548015610f5e57602002820191906000526020600020905b815481526020019060010190808311610f4a575b5050505050905090565b6000806000806000600360008781526020019081526020016000206040518060a00160405290816000820160009054906101000a900473ffffffffffffffffffffffffffffffffffffffff1673ffffffffffffffffffffffffffffffffffffffff1673ffffffffffffffffffffffffffffffffffffffff1681526020016001820154815260200160028201548152602001600382015481526020016004820160009054906101000a900460ff161515151581525050905080600001518160400151826060015183608001519450945094509450509193509193565b60008054906101000a900473ffffffffffffffffffffffffffffffffffffffff1681565b600160009054906101000a900473ffffffffffffffffffffffffffffffffffffffff1681565b600260009054906101000a900473ffffffffffffffffffffffffffffffffffffffff1681565b60006003600083815260200190815260200160002090508060040160009054906101000a900460ff1661111b576040517f08c379a00000000000000000000000000000000000000000000000000000000081526004016111129061245b565b60405180910390fd5b3373ffffffffffffffffffffffffffffffffffffffff16600260009054906101000a900473ffffffffffffffffffffffffffffffffffffffff1673ffffffffffffffffffffffffffffffffffffffff16636352211e846040518263ffffffff1660e01b815260040161118d9190611a1e565b602060405180830381865afa1580156111aa573d6000803e3d6000fd5b505050506040513d601f19601f820116820180604052508101906111ce9190611a4e565b73ffffffffffffffffffffffffffffffffffffffff1614611224576040517f08c379a000000000000000000000000000000000000000000000000000000000815260040161121b906124c7565b60405180910390fd5b60008160040160006101000a81548160ff02191690831515021790555061124a8261144d565b60008054906101000a900473ffffffffffffffffffffffffffffffffffffffff1673ffffffffffffffffffffffffffffffffffffffff1663a9059cbb8260000160009054906101000a900473ffffffffffffffffffffffffffffffffffffffff1683600301546040518363ffffffff1660e01b81526004016112cd9291906123af565b6020604051808303816000875af11580156112ec573d6000803e3d6000fd5b505050506040513d601f19601f820116820180604052508101906113109190612025565b5060008160030181905550600160009054906101000a900473ffffffffffffffffffffffffffffffffffffffff1673ffffffffffffffffffffffffffffffffffffffff1663f14e49ae826001015460056040518363ffffffff1660e01b815260040161137d92919061209a565b600060405180830381600087803b15801561139757600080fd5b505af11580156113ab573d6000803e3d6000fd5b50505050817f2d506cca2fd28f5e3c9eff4e56e96fa61855e4b2115290c2c5481e05ef1c86e160405160405180910390a25050565b60036020528060005260406000206000915090508060000160009054906101000a900473ffffffffffffffffffffffffffffffffffffffff16908060010154908060020154908060030154908060040160009054906101000a900460ff16905085565b652d79883d200081565b6000600480549050905060005b8181101561150e578260048281548110611477576114766124e7565b5b906000526020600020015403611501576004600183611496919061237b565b815481106114a7576114a66124e7565b5b9060005260206000200154600482815481106114c6576114c56124e7565b5b906000526020600020018190555060048054806114e6576114e5612516565b5b6001900381819060005260206000200160009055905561150e565b808060010191505061145a565b505050565b6000604051905090565b600080fd5b600080fd5b6000819050919050565b61153a81611527565b811461154557600080fd5b50565b60008135905061155781611531565b92915050565b6000602082840312156115735761157261151d565b5b600061158184828501611548565b91505092915050565b600073ffffffffffffffffffffffffffffffffffffffff82169050919050565b60006115b58261158a565b9050919050565b6115c5816115aa565b81146115d057600080fd5b50565b6000813590506115e2816115bc565b92915050565b6000602082840312156115fe576115fd61151d565b5b600061160c848285016115d3565b91505092915050565b600081519050919050565b600082825260208201905092915050565b6000819050602082019050919050565b61164a81611527565b82525050565b6080820160008201516116666000850182611641565b5060208201516116796020850182611641565b50604082015161168c6040850182611641565b50606082015161169f6060850182611641565b50505050565b60006116b18383611650565b60808301905092915050565b6000602082019050919050565b60006116d582611615565b6116df8185611620565b93506116ea83611631565b8060005b8381101561171b57815161170288826116a5565b975061170d836116bd565b9250506001810190506116ee565b5085935050505092915050565b6000602082019050818103600083015261174281846116ca565b905092915050565b600080604083850312156117615761176061151d565b5b600061176f85828601611548565b925050602061178085828601611548565b9150509250929050565b600081519050919050565b600082825260208201905092915050565b6000819050602082019050919050565b60006117c28383611641565b60208301905092915050565b6000602082019050919050565b60006117e68261178a565b6117f08185611795565b93506117fb836117a6565b8060005b8381101561182c57815161181388826117b6565b975061181e836117ce565b9250506001810190506117ff565b5085935050505092915050565b6000602082019050818103600083015261185381846117db565b905092915050565b611864816115aa565b82525050565b61187381611527565b82525050565b60008115159050919050565b61188e81611879565b82525050565b60006080820190506118a9600083018761185b565b6118b6602083018661186a565b6118c3604083018561186a565b6118d06060830184611885565b95945050505050565b6000819050919050565b60006118fe6118f96118f48461158a565b6118d9565b61158a565b9050919050565b6000611910826118e3565b9050919050565b600061192282611905565b9050919050565b61193281611917565b82525050565b600060208201905061194d6000830184611929565b92915050565b600061195e82611905565b9050919050565b61196e81611953565b82525050565b60006020820190506119896000830184611965565b92915050565b600061199a82611905565b9050919050565b6119aa8161198f565b82525050565b60006020820190506119c560008301846119a1565b92915050565b600060a0820190506119e0600083018861185b565b6119ed602083018761186a565b6119fa604083018661186a565b611a07606083018561186a565b611a146080830184611885565b9695505050505050565b6000602082019050611a33600083018461186a565b92915050565b600081519050611a48816115bc565b92915050565b600060208284031215611a6457611a6361151d565b5b6000611a7284828501611a39565b91505092915050565b600082825260208201905092915050565b7f4e6f74206261746368206f776e65720000000000000000000000000000000000600082015250565b6000611ac2600f83611a7b565b9150611acd82611a8c565b602082019050919050565b60006020820190508181036000830152611af181611ab5565b9050919050565b7f416c7265616479206f6e2073616c650000000000000000000000000000000000600082015250565b6000611b2e600f83611a7b565b9150611b3982611af8565b602082019050919050565b60006020820190508181036000830152611b5d81611b21565b9050919050565b600081519050611b7381611531565b92915050565b600060208284031215611b8f57611b8e61151d565b5b6000611b9d84828501611b64565b91505092915050565b7f4261746368206e6f7420666f756e640000000000000000000000000000000000600082015250565b6000611bdc600f83611a7b565b9150611be782611ba6565b602082019050919050565b60006020820190508181036000830152611c0b81611bcf565b9050919050565b600080fd5b6000601f19601f8301169050919050565b7f4e487b7100000000000000000000000000000000000000000000000000000000600052604160045260246000fd5b611c6082611c17565b810181811067ffffffffffffffff82111715611c7f57611c7e611c28565b5b80604052505050565b6000611c92611513565b9050611c9e8282611c57565b919050565b600080fd5b600080fd5b600080fd5b600067ffffffffffffffff821115611ccd57611ccc611c28565b5b611cd682611c17565b9050602081019050919050565b60005b83811015611d01578082015181840152602081019050611ce6565b60008484015250505050565b6000611d20611d1b84611cb2565b611c88565b905082815260208101848484011115611d3c57611d3b611cad565b5b611d47848285611ce3565b509392505050565b600082601f830112611d6457611d63611ca8565b5b8151611d74848260208601611d0d565b91505092915050565b60068110611d8a57600080fd5b50565b600081519050611d9c81611d7d565b92915050565b600060e08284031215611db857611db7611c12565b5b611dc260e0611c88565b90506000611dd284828501611b64565b6000830152506020611de684828501611b64565b6020830152506040611dfa84828501611b64565b6040830152506060611e0e84828501611b64565b606083015250608082015167ffffffffffffffff811115611e3257611e31611ca3565b5b611e3e84828501611d4f565b60808301525060a0611e5284828501611d8d565b60a08301525060c0611e6684828501611b64565b60c08301525092915050565b600060208284031215611e8857611e8761151d565b5b600082015167ffffffffffffffff811115611ea657611ea5611522565b5b611eb284828501611da2565b91505092915050565b7f4e487b7100000000000000000000000000000000000000000000000000000000600052602160045260246000fd5b7f4e6f742061756469746564000000000000000000000000000000000000000000600082015250565b6000611f20600b83611a7b565b9150611f2b82611eea565b602082019050919050565b60006020820190508181036000830152611f4f81611f13565b9050919050565b7f5a65726f20616d6f756e74000000000000000000000000000000000000000000600082015250565b6000611f8c600b83611a7b565b9150611f9782611f56565b602082019050919050565b60006020820190508181036000830152611fbb81611f7f565b9050919050565b6000606082019050611fd7600083018661185b565b611fe4602083018561185b565b611ff1604083018461186a565b949350505050565b61200281611879565b811461200d57600080fd5b50565b60008151905061201f81611ff9565b92915050565b60006020828403121561203b5761203a61151d565b5b600061204984828501612010565b91505092915050565b6006811061206357612062611ebb565b5b50565b600081905061207482612052565b919050565b600061208482612066565b9050919050565b61209481612079565b82525050565b60006040820190506120af600083018561186a565b6120bc602083018461208b565b9392505050565b60006060820190506120d8600083018661186a565b6120e5602083018561186a565b6120f2604083018461185b565b949350505050565b7f4e6f74206f6e2073616c65000000000000000000000000000000000000000000600082015250565b6000612130600b83611a7b565b915061213b826120fa565b602082019050919050565b6000602082019050818103600083015261215f81612123565b9050919050565b7f53656c6c65722063616e6e6f7420627579000000000000000000000000000000600082015250565b600061219c601183611a7b565b91506121a782612166565b602082019050919050565b600060208201905081810360008301526121cb8161218f565b9050919050565b7f496e73756666696369656e7420737570706c7900000000000000000000000000600082015250565b6000612208601383611a7b565b9150612213826121d2565b602082019050919050565b60006020820190508181036000830152612237816121fb565b9050919050565b7f4e487b7100000000000000000000000000000000000000000000000000000000600052601160045260246000fd5b600061227882611527565b915061228383611527565b925082820261229181611527565b915082820484148315176122a8576122a761223e565b5b5092915050565b7f4e487b7100000000000000000000000000000000000000000000000000000000600052601260045260246000fd5b60006122e982611527565b91506122f483611527565b925082612304576123036122af565b5b828204905092915050565b7f496e73756666696369656e742045544800000000000000000000000000000000600082015250565b6000612345601083611a7b565b91506123508261230f565b602082019050919050565b6000602082019050818103600083015261237481612338565b9050919050565b600061238682611527565b915061239183611527565b92508282039050818111156123a9576123a861223e565b5b92915050565b60006040820190506123c4600083018561185b565b6123d1602083018461186a565b9392505050565b60006060820190506123ed600083018661186a565b6123fa602083018561186a565b612407604083018461186a565b949350505050565b7f4e6f742061637469766500000000000000000000000000000000000000000000600082015250565b6000612445600a83611a7b565b91506124508261240f565b602082019050919050565b6000602082019050818103600083015261247481612438565b9050919050565b7f4e6f74206f776e65720000000000000000000000000000000000000000000000600082015250565b60006124b1600983611a7b565b91506124bc8261247b565b602082019050919050565b600060208201905081810360008301526124e0816124a4565b9050919050565b7f4e487b7100000000000000000000000000000000000000000000000000000000600052603260045260246000fd5b7f4e487b7100000000000000000000000000000000000000000000000000000000600052603160045260246000fdfea2646970667358221220c9e0dde377ad6938b7d3568db9086b41129e54b3ff197874c23a560f887f449d64736f6c634300081c0033",
  "linkReferences": {},
  "deployedLinkReferences": {}
}