{
  "_format": "hh-sol-artifact-1",
  "contractName": "CarbonCreditMarketplace",
  "sourceName": "contracts/CarbonCreditMarketplace.sol",
  "abi": [
    {
      "inputs": [
        {
          "internalType": "contract CarbonCreditRegistry",
          "name": "_registry",
          "type": "address"
        },
        {
          "internalType": "contract CarbonCreditToken",
          "name": "_cct",
          "type": "address"
        },
        {
          "internalType": "contract GreenNFTCollection",
          "name": "_greenNFTCollection",
          "type": "address"
        }
      ],
      "stateMutability": "nonpayable",
      "type": "constructor"
    },
    {
      "anonymous": false,
      "inputs": [
        {
          "indexed": true,
          "internalType": "uint256",
          "name": "batchTokenId",
          "type": "uint256"
        },
        {
          "indexed": false,
          "internalType": "uint256",
          "name": "claimId",
          "type": "uint256"
        }
      ],
      "name": "BatchFullySold",
      "type": "event"
    },
    {
      "anonymous": false,
      "inputs": [
        {
          "indexed": true,
          "internalType": "uint256",
          "name": "batchTokenId",
          "type": "uint256"
        }
      ],
      "name": "BatchSaleCancelled",
      "type": "event"
    },
    {
      "anonymous": false,
      "inputs": [
        {
          "indexed": true,
          "internalType": "uint256",
          "name": "batchTokenId",
          "type": "uint256"
        },
        {
          "indexed": false,
          "internalType": "uint256",
          "name": "claimId",
          "type": "uint256"
        },
        {
          "indexed": false,
          "internalType": "uint256",
          "name": "totalWei",
          "type": "uint256"
        },
        {
          "indexed": false,
          "internalType": "address",
          "name": "seller",
          "type": "address"
        }
      ],
      "name": "BatchSaleOpened",
      "type": "event"
    },
    {
      "anonymous": false,
      "inputs": [
        {
          "indexed": true,
          "internalType": "address",
          "name": "buyer",
          "type": "address"
        },
        {
          "indexed": true,
          "internalType": "uint256",
          "name": "batchTokenId",
          "type": "uint256"
        },
        {
          "indexed": false,
          "internalType": "uint256",
          "name": "tonsWei",
          "type": "uint256"
        },
        {
          "indexed": false,
          "internalType": "uint256",
          "name": "ethPaid",
          "type": "uint256"
        },
        {
          "indexed": false,
          "internalType": "uint256",
          "name": "remainingWei",
          "type": "uint256"
        }
      ],
      "name": "CreditsPurchased",
      "type": "event"
    },
    {
      "inputs": [],
      "name": "PRICE_PER_TON",
      "outputs": [
        {
          "internalType": "uint256",
          "name": "",
          "type": "uint256"
        }
      ],
      "stateMutability": "view",
      "type": "function"
    },
    {
      "inputs": [
        {
          "internalType": "uint256",
          "name": "",
          "type": "uint256"
        }
      ],
      "name": "batchSales",
      "outputs": [
        {
          "internalType": "address",
          "name": "seller",
          "type": "address"
        },
        {
          "internalType": "uint256",
          "name": "claimId",
          "type": "uint256"
        },
        {
          "internalType": "uint256",
          "name": "totalWei",
          "type": "uint256"
        },
        {
          "internalType": "uint256",
          "name": "availableWei",
          "type": "uint256"
        },
        {
          "internalType": "bool",
          "name": "active",
          "type": "bool"
        }
      ],
      "stateMutability": "view",
      "type": "function"
    },
    {
      "inputs": [
        {
          "internalType": "uint256",
          "name": "batchTokenId",
          "type": "uint256"
        },
        {
          "internalType": "uint256",
          "name": "tonsWei",
          "type": "uint256"
        }
      ],
      "name": "buyCredits",
      "outputs": [],
      "stateMutability": "payable",
      "type": "function"
    },
    {
      "inputs": [
        {
          "internalType": "uint256",
          "name": "batchTokenId",
          "type": "uint256"
        }
      ],
      "name": "cancelBatchSale",
      "outputs": [],
      "stateMutability": "nonpayable",
      "type": "function"
    },
    {
      "inputs": [],
      "name": "cct",
      "outputs": [
        {
          "internalType": "contract CarbonCreditToken",
          "name": "",
          "type": "address"
        }
      ],
      "stateMutability": "view",
      "type": "function"
    },
    {
      "inputs": [],
      "name": "getActiveBatchSales",
      "outputs": [
        {
          "internalType": "uint256[]",
          "name": "",
          "type": "uint256[]"
        }
      ],
      "stateMutability": "view",
      "type": "function"
    },
    {
      "inputs": [
        {
          "internalType": "uint256",
          "name": "batchTokenId",
          "type": "uint256"
        }
      ],
      "name": "getBatchSale",
      "outputs": [
        {
          "internalType": "address",
          "name": "seller",
          "type": "address"
        },
        {
          "internalType": "uint256",
          "name": "totalWei",
          "type": "uint256"
        },
        {
          "internalType": "uint256",
          "name": "availableWei",
          "type": "uint256"
        },
        {
          "internalType": "bool",
          "name": "active",
          "type": "bool"
        }
      ],
      "stateMutability": "view",
      "type": "function"
    },
    {
      "inputs": [
        {
          "internalType": "address",
          "name": "buyer",
          "type": "address"
        }
      ],
      "name": "getPurchaseHistory",
      "outputs": [
        {
          "components": [
            {
              "internalType": "uint256",
              "name": "batchTokenId",
              "type": "uint256"
            },
            {
              "internalType": "uint256",
              "name": "tonsWei",
              "type": "uint256"
            },
            {
              "internalType": "uint256",
              "name": "ethPaid",
              "type": "uint256"
            },
            {
              "internalType": "uint256",
              "name": "timestamp",
              "type": "uint256"
            }
          ],
          "internalType": "struct CarbonCreditMarketplace.Purchase[]",
          "name": "",
          "type": "tuple[]"
        }
      ],
      "stateMutability": "view",
      "type": "function"
    },
    {
      "inputs": [],
      "name": "greenNFTCollection",
      "outputs": [
        {
          "internalType": "contract GreenNFTCollection",
          "name": "",
          "type": "address"
        }
      ],
      "stateMutability": "view",
      "type": "function"
    },
    {
      "inputs": [
        {
          "internalType": "uint256",
          "name": "batchTokenId",
          "type": "uint256"
        }
      ],
      "name": "openBatchSale",
      "outputs": [],
      "stateMutability": "nonpayable",
      "type": "function"
    },
    {
      "inputs": [],
      "name": "registry",
      "outputs": [
        {
          "internalType": "contract CarbonCreditRegistry",
          "name": "",
          "type": "address"
        }
      ],
      "stateMutability": "view",
      "type": "function"
    }
  ],
  "bytecode": "0x6080604052348015600f57600080fd5b506040516114b73803806114b7833981016040819052602c916084565b600180546001600160a01b039485166001600160a01b03199182161790915560008054938516938216939093179092556002805491909316911617905560ca565b6001600160a01b0381168114608157600080fd5b50565b600080600060608486031215609857600080fd5b835160a181606d565b602085015190935060b081606d565b604085015190925060bf81606d565b809150509250925092565b6113de806100d96000396000f3fe60806040526004361061009c5760003560e01c80635a05ee58116100645780635a05ee58146101d95780637b1039991461021157806393867519146102315780639baca98b14610251578063b0c9385b14610271578063e34f819b146102fd57600080fd5b80630c877e1b146100a157806321034444146100c3578063479c8457146100f95780634c4e79001461010c5780634ef3320c1461012e575b600080fd5b3480156100ad57600080fd5b506100c16100bc366004610f9c565b610325565b005b3480156100cf57600080fd5b506100e36100de366004610fcd565b6107b6565b6040516100f09190610ff1565b60405180910390f35b6100c161010736600461105a565b610853565b34801561011857600080fd5b50610121610c62565b6040516100f0919061107c565b34801561013a57600080fd5b506101ad610149366004610f9c565b600090815260036020818152604092839020835160a08101855281546001600160a01b03168082526001830154938201939093526002820154948101859052928101546060840181905260049091015460ff16151560809093018390529093909190565b604080516001600160a01b039095168552602085019390935291830152151560608201526080016100f0565b3480156101e557600080fd5b506000546101f9906001600160a01b031681565b6040516001600160a01b0390911681526020016100f0565b34801561021d57600080fd5b506001546101f9906001600160a01b031681565b34801561023d57600080fd5b506002546101f9906001600160a01b031681565b34801561025d57600080fd5b506100c161026c366004610f9c565b610cba565b34801561027d57600080fd5b506102c961028c366004610f9c565b6003602081905260009182526040909120805460018201546002830154938301546004909301546001600160a01b03909216939092909160ff1685565b604080516001600160a01b03909616865260208601949094529284019190915260608301521515608082015260a0016100f0565b34801561030957600080fd5b50610317652d79883d200081565b6040519081526020016100f0565b6002546040516331a9108f60e11b81526004810183905233916001600160a01b031690636352211e90602401602060405180830381865afa15801561036e573d6000803e3d6000fd5b505050506040513d601f19601f8201168201806040525081019061039291906110b4565b6001600160a01b0316146103df5760405162461bcd60e51b815260206004820152600f60248201526e2737ba103130ba31b41037bbb732b960891b60448201526064015b60405180910390fd5b60008181526003602052604090206004015460ff16156104335760405162461bcd60e51b815260206004820152600f60248201526e416c7265616479206f6e2073616c6560881b60448201526064016103d6565b60015460405163d52f330360e01b8152600481018390526000916001600160a01b03169063d52f330390602401602060405180830381865afa15801561047d573d6000803e3d6000fd5b505050506040513d601f19601f820116820180604052508101906104a191906110d1565b9050806000036104e55760405162461bcd60e51b815260206004820152600f60248201526e10985d18da081b9bdd08199bdd5b99608a1b60448201526064016103d6565b600154604051635aef244760e01b8152600481018390526000916001600160a01b031690635aef244790602401600060405180830381865afa15801561052f573d6000803e3d6000fd5b505050506040513d6000823e601f3d908101601f1916820160405261055791908101906111f4565b905060018160a001516005811115610571576105716112aa565b146105ac5760405162461bcd60e51b815260206004820152600b60248201526a139bdd08185d591a5d195960aa1b60448201526064016103d6565b6020810151806105ec5760405162461bcd60e51b815260206004820152600b60248201526a16995c9bc8185b5bdd5b9d60aa1b60448201526064016103d6565b6000546040516323b872dd60e01b8152336004820152306024820152604481018390526001600160a01b03909116906323b872dd906064016020604051808303816000875af1158015610643573d6000803e3d6000fd5b505050506040513d601f19601f8201168201806040525081019061066791906112c0565b506040805160a08101825233815260208082018681528284018581526060840186815260016080860181815260008c8152600396879052888120975188546001600160a01b0319166001600160a01b039182161789559551888401559351600288015591518686015590516004958601805460ff191691151591909117905584548082018655918590527f8a35acfbc15ff81a39ae7d344fd709f28e8600b4aa8c65c6b64bfe7fe36bd19b9091018990555493516378a724d760e11b815293169263f14e49ae9261073c9288929091016112e2565b600060405180830381600087803b15801561075657600080fd5b505af115801561076a573d6000803e3d6000fd5b50506040805186815260208101859052338183015290518793507f7842824341a0d70a079e934f2696b99e6a7418d8713dc78a72db0b75174ad8a692509081900360600190a250505050565b6001600160a01b0381166000908152600560209081526040808320805482518185028101850190935280835260609492939192909184015b828210156108485783829060005260206000209060040201604051806080016040529081600082015481526020016001820154815260200160028201548152602001600382015481525050815260200190600101906107ee565b505050509050919050565b600081116108915760405162461bcd60e51b815260206004820152600b60248201526a16995c9bc8185b5bdd5b9d60aa1b60448201526064016103d6565b6000828152600360205260409020600481015460ff166108e15760405162461bcd60e51b815260206004820152600b60248201526a4e6f74206f6e2073616c6560a81b60448201526064016103d6565b80546001600160a01b0316330361092e5760405162461bcd60e51b815260206004820152601160248201527053656c6c65722063616e6e6f742062757960781b60448201526064016103d6565b80600301548211156109785760405162461bcd60e51b8152602060048201526013602482015272496e73756666696369656e7420737570706c7960681b60448201526064016103d6565b6000670de0b6b3a7640000610993652d79883d20008561132a565b61099d9190611347565b9050803410156109e25760405162461bcd60e51b815260206004820152601060248201526f092dce6eaccccd2c6d2cadce8408aa8960831b60448201526064016103d6565b828260030160008282546109f69190611369565b909155505060005460405163a9059cbb60e01b8152336004820152602481018590526001600160a01b039091169063a9059cbb906044016020604051808303816000875af1158015610a4c573d6000803e3d6000fd5b505050506040513d601f19601f82011682018060405250810190610a7091906112c0565b5081546040516001600160a01b039091169082156108fc029083906000818181858888f19350505050158015610aaa573d6000803e3d6000fd5b5080341115610aeb57336108fc610ac18334611369565b6040518115909202916000818181858888f19350505050158015610ae9573d6000803e3d6000fd5b505b336000908152600560209081526040808320815160808101835288815280840188815292810186815242606083019081528354600181810186559488529587209251600490960290920194855592519184019190915590516002830155516003918201558301549003610c135760048201805460ff19169055610b6d84610eea565b60018054908301546040516378a724d760e11b81526001600160a01b039092169163f14e49ae91610ba29160049081016112e2565b600060405180830381600087803b158015610bbc57600080fd5b505af1158015610bd0573d6000803e3d6000fd5b50505050837f192c6bc73f25539f164513b3fe5e33cefb234fff79b80153f5889be88f9deb5a8360010154604051610c0a91815260200190565b60405180910390a25b600382015460408051858152602081018490528082019290925251859133917f59933be206b6873fd1ff70b453873c5299011ff16550f8af2ee0be8c88b6dd449181900360600190a350505050565b60606004805480602002602001604051908101604052809291908181526020018280548015610cb057602002820191906000526020600020905b815481526020019060010190808311610c9c575b5050505050905090565b6000818152600360205260409020600481015460ff16610d095760405162461bcd60e51b815260206004820152600a6024820152694e6f742061637469766560b01b60448201526064016103d6565b6002546040516331a9108f60e11b81526004810184905233916001600160a01b031690636352211e90602401602060405180830381865afa158015610d52573d6000803e3d6000fd5b505050506040513d601f19601f82011682018060405250810190610d7691906110b4565b6001600160a01b031614610db85760405162461bcd60e51b81526020600482015260096024820152682737ba1037bbb732b960b91b60448201526064016103d6565b60048101805460ff19169055610dcd82610eea565b6000548154600383015460405163a9059cbb60e01b81526001600160a01b039283166004820152602481019190915291169063a9059cbb906044016020604051808303816000875af1158015610e27573d6000803e3d6000fd5b505050506040513d601f19601f82011682018060405250810190610e4b91906112c0565b506000600382015560018054908201546040516378a724d760e11b81526001600160a01b039092169163f14e49ae91610e89916005906004016112e2565b600060405180830381600087803b158015610ea357600080fd5b505af1158015610eb7573d6000803e3d6000fd5b50506040518492507f2d506cca2fd28f5e3c9eff4e56e96fa61855e4b2115290c2c5481e05ef1c86e19150600090a25050565b60045460005b81811015610f97578260048281548110610f0c57610f0c61137c565b906000526020600020015403610f8f576004610f29600184611369565b81548110610f3957610f3961137c565b906000526020600020015460048281548110610f5757610f5761137c565b6000918252602090912001556004805480610f7457610f74611392565b60019003818190600052602060002001600090559055505050565b600101610ef0565b505050565b600060208284031215610fae57600080fd5b5035919050565b6001600160a01b0381168114610fca57600080fd5b50565b600060208284031215610fdf57600080fd5b8135610fea81610fb5565b9392505050565b602080825282518282018190526000918401906040840190835b8181101561104f578351805184526020810151602085015260408101516040850152606081015160608501525060808301925060208401935060018101905061100b565b509095945050505050565b6000806040838503121561106d57600080fd5b50508035926020909101359150565b602080825282518282018190526000918401906040840190835b8181101561104f578351835260209384019390920191600101611096565b6000602082840312156110c657600080fd5b8151610fea81610fb5565b6000602082840312156110e357600080fd5b5051919050565b634e487b7160e01b600052604160045260246000fd5b60405160e0810167ffffffffffffffff81118282101715611123576111236110ea565b60405290565b604051601f8201601f1916810167ffffffffffffffff81118282101715611152576111526110ea565b604052919050565b600082601f83011261116b57600080fd5b815167ffffffffffffffff811115611185576111856110ea565b611198601f8201601f1916602001611129565b8181528460208386010111156111ad57600080fd5b60005b828110156111cc576020818601810151838301820152016111b0565b506000918101602001919091529392505050565b8051600681106111ef57600080fd5b919050565b60006020828403121561120657600080fd5b815167ffffffffffffffff81111561121d57600080fd5b820160e0818503121561122f57600080fd5b611237611100565b81518152602080830151908201526040808301519082015260608083015190820152608082015167ffffffffffffffff81111561127357600080fd5b61127f8682850161115a565b60808301525061129160a083016111e0565b60a082015260c091820151918101919091529392505050565b634e487b7160e01b600052602160045260246000fd5b6000602082840312156112d257600080fd5b81518015158114610fea57600080fd5b828152604081016006831061130757634e487b7160e01b600052602160045260246000fd5b8260208301529392505050565b634e487b7160e01b600052601160045260246000fd5b808202811582820484141761134157611341611314565b92915050565b60008261136457634e487b7160e01b600052601260045260246000fd5b500490565b8181038181111561134157611341611314565b634e487b7160e01b600052603260045260246000fd5b634e487b7160e01b600052603160045260246000fdfea26469706673582212207f8fad0e4cf42502aa80cd1022d73c05fe4255efb4675b70fe3a075fbcc98ba964736f6c634300081c0033",
  "linkReferences": {},
  "deployedLinkReferences": {}
}