{
  "_format": "hh-sol-artifact-1",
  "contractName": "CarbonCreditToken",
  "sourceName": "contracts/CarbonCreditToken.sol",
  "abi": [
    {
      "inputs": [
        {
          "internalType": "contract RetirementCertificate",
          "name": "_retirementCertificate",
          "type": "address"
        }
      ],
      "stateMutability": "nonpayable",
      "type": "constructor"
    },
    {
      "inputs": [],
      "name": "AccessControlBadConfirmation",
      "type": "error"
    },
    {
      "inputs": [
        {
          "internalType": "address",
          "name": "account",
          "type": "address"
        },
        {
          "internalType": "bytes32",
          "name": "neededRole",
          "type": "bytes32"
        }
      ],
      "name": "AccessControlUnauthorizedAccount",
      "type": "error"
    },
    {
      "inputs": [
        {
          "internalType": "address",
          "name": "spender",
          "type": "address"
        },
        {
          "internalType": "uint256",
          "name": "allowance",
          "type": "uint256"
        },
        {
          "internalType": "uint256",
          "name": "needed",
          "type": "uint256"
        }
      ],
      "name": "ERC20InsufficientAllowance",
      "type": "error"
    },
    {
      "inputs": [
        {
          "internalType": "address",
          "name": "sender",
          "type": "address"
        },
        {
          "internalType": "uint256",
          "name": "balance",
          "type": "uint256"
        },
        {
          "internalType": "uint256",
          "name": "needed",
          "type": "uint256"
        }
      ],
      "name": "ERC20InsufficientBalance",
      "type": "error"
    },
    {
      "inputs": [
        {
          "internalType": "address",
          "name": "approver",
          "type": "address"
        }
      ],
      "name": "ERC20InvalidApprover",
      "type": "error"
    },
    {
      "inputs": [
        {
          "internalType": "address",
          "name": "receiver",
          "type": "address"
        }
      ],
      "name": "ERC20InvalidReceiver",
      "type": "error"
    },
    {
      "inputs": [
        {
          "internalType": "address",
          "name": "sender",
          "type": "address"
        }
      ],
      "name": "ERC20InvalidSender",
      "type": "error"
    },
    {
      "inputs": [
        {
          "internalType": "address",
          "name": "spender",
          "type": "address"
        }
      ],
      "name": "ERC20InvalidSpender",
      "type": "error"
    },
    {
      "anonymous": false,
      "inputs": [
        {
          "indexed": true,
          "internalType": "address",
          "name": "owner",
          "type": "address"
        },
        {
          "indexed": true,
          "internalType": "address",
          "name": "spender",
          "type": "address"
        },
        {
          "indexed": false,
          "internalType": "uint256",
          "name": "value",
          "type": "uint256"
        }
      ],
      "name": "Approval",
      "type": "event"
    },
    {
      "anonymous": false,
      "inputs": [
        {
          "indexed": true,
          "internalType": "bytes32",
          "name": "role",
          "type": "bytes32"
        },
        {
          "indexed": true,
          "internalType": "bytes32",
          "name": "previousAdminRole",
          "type": "bytes32"
        },
        {
          "indexed": true,
          "internalType": "bytes32",
          "name": "newAdminRole",
          "type": "bytes32"
        }
      ],
      "name": "RoleAdminChanged",
      "type": "event"
    },
    {
      "anonymous": false,
      "inputs": [
        {
          "indexed": true,
          "internalType": "bytes32",
          "name": "role",
          "type": "bytes32"
        },
        {
          "indexed": true,
          "internalType": "address",
          "name": "account",
          "type": "address"
        },
        {
          "indexed": true,
          "internalType": "address",
          "name": "sender",
          "type": "address"
        }
      ],
      "name": "RoleGranted",
      "type": "event"
    },
    {
      "anonymous": false,
      "inputs": [
        {
          "indexed": true,
          "internalType": "bytes32",
          "name": "role",
          "type": "bytes32"
        },
        {
          "indexed": true,
          "internalType": "address",
          "name": "account",
          "type": "address"
        },
        {
          "indexed": true,
          "internalType": "address",
          "name": "sender",
          "type": "address"
        }
      ],
      "name": "RoleRevoked",
      "type": "event"
    },
    {
      "anonymous": false,
      "inputs": [
        {
          "indexed": true,
          "internalType": "address",
          "name": "retire",
          "type": "address"
        },
        {
          "indexed": false,
          "internalType": "uint256",
          "name": "tons",
          "type": "uint256"
        },
        {
          "indexed": false,
          "internalType": "uint256",
          "name": "certificateId",
          "type": "uint256"
        },
        {
          "indexed": false,
          "internalType": "string",
          "name": "purpose",
          "type": "string"
        },
        {
          "indexed": false,
          "internalType": "uint256",
          "name": "timestamp",
          "type": "uint256"
        }
      ],
      "name": "TokensRetired",
      "type": "event"
    },
    {
      "anonymous": false,
      "inputs": [
        {
          "indexed": true,
          "internalType": "address",
          "name": "from",
          "type": "address"
        },
        {
          "indexed": true,
          "internalType": "address",
          "name": "to",
          "type": "address"
        },
        {
          "indexed": false,
          "internalType": "uint256",
          "name": "value",
          "type": "uint256"
        }
      ],
      "name": "Transfer",
      "type": "event"
    },
    {
      "inputs": [],
      "name": "DEFAULT_ADMIN_ROLE",
      "outputs": [
        {
          "internalType": "bytes32",
          "name": "",
          "type": "bytes32"
        }
      ],
      "stateMutability": "view",
      "type": "function"
    },
    {
      "inputs": [],
      "name": "MINTER_ROLE",
      "outputs": [
        {
          "internalType": "bytes32",
          "name": "",
          "type": "bytes32"
        }
      ],
      "stateMutability": "view",
      "type": "function"
    },
    {
      "inputs": [
        {
          "internalType": "address",
          "name": "owner",
          "type": "address"
        },
        {
          "internalType": "address",
          "name": "spender",
          "type": "address"
        }
      ],
      "name": "allowance",
      "outputs": [
        {
          "internalType": "uint256",
          "name": "",
          "type": "uint256"
        }
      ],
      "stateMutability": "view",
      "type": "function"
    },
    {
      "inputs": [
        {
          "internalType": "address",
          "name": "spender",
          "type": "address"
        },
        {
          "internalType": "uint256",
          "name": "value",
          "type": "uint256"
        }
      ],
      "name": "approve",
      "outputs": [
        {
          "internalType": "bool",
          "name": "",
          "type": "bool"
        }
      ],
      "stateMutability": "nonpayable",
      "type": "function"
    },
    {
      "inputs": [
        {
          "internalType": "address",
          "name": "account",
          "type": "address"
        }
      ],
      "name": "balanceOf",
      "outputs": [
        {
          "internalType": "uint256",
          "name": "",
          "type": "uint256"
        }
      ],
      "stateMutability": "view",
      "type": "function"
    },
    {
      "inputs": [],
      "name": "decimals",
      "outputs": [
        {
          "internalType": "uint8",
          "name": "",
          "type": "uint8"
        }
      ],
      "stateMutability": "view",
      "type": "function"
    },
    {
      "inputs": [
        {
          "internalType": "bytes32",
          "name": "role",
          "type": "bytes32"
        }
      ],
      "name": "getRoleAdmin",
      "outputs": [
        {
          "internalType": "bytes32",
          "name": "",
          "type": "bytes32"
        }
      ],
      "stateMutability": "view",
      "type": "function"
    },
    {
      "inputs": [
        {
          "internalType": "bytes32",
          "name": "role",
          "type": "bytes32"
        },
        {
          "internalType": "address",
          "name": "account",
          "type": "address"
        }
      ],
      "name": "grantRole",
      "outputs": [],
      "stateMutability": "nonpayable",
      "type": "function"
    },
    {
      "inputs": [
        {
          "internalType": "bytes32",
          "name": "role",
          "type": "bytes32"
        },
        {
          "internalType": "address",
          "name": "account",
          "type": "address"
        }
      ],
      "name": "hasRole",
      "outputs": [
        {
          "internalType": "bool",
          "name": "",
          "type": "bool"
        }
      ],
      "stateMutability": "view",
      "type": "function"
    },
    {
      "inputs": [
        {
          "internalType": "address",
          "name": "to",
          "type": "address"
        },
        {
          "internalType": "uint256",
          "name": "tons",
          "type": "uint256"
        }
      ],
      "name": "mint",
      "outputs": [],
      "stateMutability": "nonpayable",
      "type": "function"
    },
    {
      "inputs": [],
      "name": "name",
      "outputs": [
        {
          "internalType": "string",
          "name": "",
          "type": "string"
        }
      ],
      "stateMutability": "view",
      "type": "function"
    },
    {
      "inputs": [
        {
          "internalType": "bytes32",
          "name": "role",
          "type": "bytes32"
        },
        {
          "internalType": "address",
          "name": "callerConfirmation",
          "type": "address"
        }
      ],
      "name": "renounceRole",
      "outputs": [],
      "stateMutability": "nonpayable",
      "type": "function"
    },
    {
      "inputs": [
        {
          "internalType": "uint256",
          "name": "tons",
          "type": "uint256"
        },
        {
          "internalType": "string",
          "name": "purpose",
          "type": "string"
        },
        {
          "internalType": "string",
          "name": "certificateURI",
          "type": "string"
        }
      ],
      "name": "retire",
      "outputs": [
        {
          "internalType": "uint256",
          "name": "certificateId",
          "type": "uint256"
        }
      ],
      "stateMutability": "nonpayable",
      "type": "function"
    },
    {
      "inputs": [],
      "name": "retirementCertificate",
      "outputs": [
        {
          "internalType": "contract RetirementCertificate",
          "name": "",
          "type": "address"
        }
      ],
      "stateMutability": "view",
      "type": "function"
    },
    {
      "inputs": [
        {
          "internalType": "bytes32",
          "name": "role",
          "type": "bytes32"
        },
        {
          "internalType": "address",
          "name": "account",
          "type": "address"
        }
      ],
      "name": "revokeRole",
      "outputs": [],
      "stateMutability": "nonpayable",
      "type": "function"
    },
    {
      "inputs": [
        {
          "internalType": "bytes4",
          "name": "interfaceId",
          "type": "bytes4"
        }
      ],
      "name": "supportsInterface",
      "outputs": [
        {
          "internalType": "bool",
          "name": "",
          "type": "bool"
        }
      ],
      "stateMutability": "view",
      "type": "function"
    },
    {
      "inputs": [],
      "name": "symbol",
      "outputs": [
        {
          "internalType": "string",
          "name": "",
          "type": "string"
        }
      ],
      "stateMutability": "view",
      "type": "function"
    },
    {
      "inputs": [],
      "name": "totalSupply",
      "outputs": [
        {
          "internalType": "uint256",
          "name": "",
          "type": "uint256"
        }
      ],
      "stateMutability": "view",
      "type": "function"
    },
    {
      "inputs": [
        {
          "internalType": "address",
          "name": "to",
          "type": "address"
        },
        {
          "internalType": "uint256",
          "name": "value",
          "type": "uint256"
        }
      ],
      "name": "transfer",
      "outputs": [
        {
          "internalType": "bool",
          "name": "",
          "type": "bool"
        }
      ],
      "stateMutability": "nonpayable",
      "type": "function"
    },
    {
      "inputs": [
        {
          "internalType": "address",
          "name": "from",
          "type": "address"
        },
        {
          "internalType": "address",
          "name": "to",
          "type": "address"
        },
        {
          "internalType": "uint256",
          "name": "value",
          "type": "uint256"
        }
      ],
      "name": "transferFrom",
      "outputs": [
        {
          "internalType": "bool",
          "name": "",
          "type": "bool"
        }
      ],
      "stateMutability": "nonpayable",
      "type": "function"
    }
  ],
  "bytecode": "0x608060405234801561001057600080fd5b506040516123e73803806123e783398181016040528101906100329190610363565b6040518060400160405280601381526020017f436172626f6e2043726564697420546f6b656e000000000000000000000000008152506040518060400160405280600381526020017f434354000000000000000000000000000000000000000000000000000000000081525081600390816100ad91906105e0565b5080600490816100bd91906105e0565b5050506100d36000801b3361017d60201b60201c565b506101047f9f2df0fed2c77648de5860a4cc508cd0818c85b8b8a1ab4ceeef8d981c8956a63361017d60201b60201c565b5080600660006101000a81548173ffffffffffffffffffffffffffffffffffffffff021916908373ffffffffffffffffffffffffffffffffffffffff1602179055506101767f9f2df0fed2c77648de5860a4cc508cd0818c85b8b8a1ab4ceeef8d981c8956a63061017d60201b60201c565b50506106b2565b600061018f838361027b60201b60201c565b6102705760016005600085815260200190815260200160002060000160008473ffffffffffffffffffffffffffffffffffffffff1673ffffffffffffffffffffffffffffffffffffffff16815260200190815260200160002060006101000a81548160ff02191690831515021790555061020d6102e660201b60201c565b73ffffffffffffffffffffffffffffffffffffffff168273ffffffffffffffffffffffffffffffffffffffff16847f2f8788117e7eff1d82e926ec794901d17c78024a50270940304540a733656f0d60405160405180910390a460019050610275565b600090505b92915050565b60006005600084815260200190815260200160002060000160008373ffffffffffffffffffffffffffffffffffffffff1673ffffffffffffffffffffffffffffffffffffffff16815260200190815260200160002060009054906101000a900460ff16905092915050565b600033905090565b600080fd5b600073ffffffffffffffffffffffffffffffffffffffff82169050919050565b600061031e826102f3565b9050919050565b600061033082610313565b9050919050565b61034081610325565b811461034b57600080fd5b50565b60008151905061035d81610337565b92915050565b600060208284031215610379576103786102ee565b5b60006103878482850161034e565b91505092915050565b600081519050919050565b7f4e487b7100000000000000000000000000000000000000000000000000000000600052604160045260246000fd5b7f4e487b7100000000000000000000000000000000000000000000000000000000600052602260045260246000fd5b6000600282049050600182168061041157607f821691505b602082108103610424576104236103ca565b5b50919050565b60008190508160005260206000209050919050565b60006020601f8301049050919050565b600082821b905092915050565b60006008830261048c7fffffffffffffffffffffffffffffffffffffffffffffffffffffffffffffffff8261044f565b610496868361044f565b95508019841693508086168417925050509392505050565b6000819050919050565b6000819050919050565b60006104dd6104d86104d3846104ae565b6104b8565b6104ae565b9050919050565b6000819050919050565b6104f7836104c2565b61050b610503826104e4565b84845461045c565b825550505050565b600090565b610520610513565b61052b8184846104ee565b505050565b5b8181101561054f57610544600082610518565b600181019050610531565b5050565b601f821115610594576105658161042a565b61056e8461043f565b8101602085101561057d578190505b6105916105898561043f565b830182610530565b50505b505050565b600082821c905092915050565b60006105b760001984600802610599565b1980831691505092915050565b60006105d083836105a6565b9150826002028217905092915050565b6105e982610390565b67ffffffffffffffff8111156106025761060161039b565b5b61060c82546103f9565b610617828285610553565b600060209050601f83116001811461064a5760008415610638578287015190505b61064285826105c4565b8655506106aa565b601f1984166106588661042a565b60005b828110156106805784890151825560018201915060208501945060208101905061065b565b8683101561069d5784890151610699601f8916826105a6565b8355505b6001600288020188555050505b505050505050565b611d26806106c16000396000f3fe608060405234801561001057600080fd5b506004361061012c5760003560e01c806340c10f19116100ad578063a217fddf11610071578063a217fddf1461036b578063a9059cbb14610389578063d5391393146103b9578063d547741f146103d7578063dd62ed3e146103f35761012c565b806340c10f19146102b357806370a08231146102cf57806391d14854146102ff57806395d89b411461032f5780639ce12ae51461034d5761012c565b806323b872dd116100f457806323b872dd146101fd578063248a9ca31461022d5780632f2ff15d1461025d578063313ce5671461027957806336568abe146102975761012c565b806301ffc9a71461013157806306fdde0314610161578063095ea7b31461017f57806318160ddd146101af57806320652dd1146101cd575b600080fd5b61014b60048036038101906101469190611426565b610423565b604051610158919061146e565b60405180910390f35b61016961049d565b6040516101769190611519565b60405180910390f35b610199600480360381019061019491906115cf565b61052f565b6040516101a6919061146e565b60405180910390f35b6101b7610552565b6040516101c4919061161e565b60405180910390f35b6101e760048036038101906101e2919061176e565b61055c565b6040516101f4919061161e565b60405180910390f35b610217600480360381019061021291906117f9565b6106c0565b604051610224919061146e565b60405180910390f35b61024760048036038101906102429190611882565b6106ef565b60405161025491906118be565b60405180910390f35b610277600480360381019061027291906118d9565b61070f565b005b610281610731565b60405161028e9190611935565b60405180910390f35b6102b160048036038101906102ac91906118d9565b61073a565b005b6102cd60048036038101906102c891906115cf565b6107b5565b005b6102e960048036038101906102e49190611950565b610801565b6040516102f6919061161e565b60405180910390f35b610319600480360381019061031491906118d9565b610849565b604051610326919061146e565b60405180910390f35b6103376108b4565b6040516103449190611519565b60405180910390f35b610355610946565b60405161036291906119dc565b60405180910390f35b61037361096c565b60405161038091906118be565b60405180910390f35b6103a3600480360381019061039e91906115cf565b610973565b6040516103b0919061146e565b60405180910390f35b6103c1610996565b6040516103ce91906118be565b60405180910390f35b6103f160048036038101906103ec91906118d9565b6109ba565b005b61040d600480360381019061040891906119f7565b6109dc565b60405161041a919061161e565b60405180910390f35b60007f7965db0b000000000000000000000000000000000000000000000000000000007bffffffffffffffffffffffffffffffffffffffffffffffffffffffff1916827bffffffffffffffffffffffffffffffffffffffffffffffffffffffff19161480610496575061049582610a63565b5b9050919050565b6060600380546104ac90611a66565b80601f01602080910402602001604051908101604052809291908181526020018280546104d890611a66565b80156105255780601f106104fa57610100808354040283529160200191610525565b820191906000526020600020905b81548152906001019060200180831161050857829003601f168201915b5050505050905090565b60008061053a610acd565b9050610547818585610ad5565b600191505092915050565b6000600254905090565b60008084116105a0576040517f08c379a000000000000000000000000000000000000000000000000000000000815260040161059790611ae3565b60405180910390fd5b6000670de0b6b3a7640000856105b69190611b32565b90506105c23382610ae7565b600660009054906101000a900473ffffffffffffffffffffffffffffffffffffffff1673ffffffffffffffffffffffffffffffffffffffff16630712249f33856040518363ffffffff1660e01b815260040161061f929190611b83565b6020604051808303816000875af115801561063e573d6000803e3d6000fd5b505050506040513d601f19601f820116820180604052508101906106629190611bc8565b91503373ffffffffffffffffffffffffffffffffffffffff167f51e5fec6915d4fd3e6f81f57f0929f5a0fb9b94a51e83b23a62a60f4261536fc868487426040516106b09493929190611bf5565b60405180910390a2509392505050565b6000806106cb610acd565b90506106d8858285610b69565b6106e3858585610bfe565b60019150509392505050565b600060056000838152602001908152602001600020600101549050919050565b610718826106ef565b61072181610cf2565b61072b8383610d06565b50505050565b60006012905090565b610742610acd565b73ffffffffffffffffffffffffffffffffffffffff168173ffffffffffffffffffffffffffffffffffffffff16146107a6576040517f6697b23200000000000000000000000000000000000000000000000000000000815260040160405180910390fd5b6107b08282610df8565b505050565b7f9f2df0fed2c77648de5860a4cc508cd0818c85b8b8a1ab4ceeef8d981c8956a66107df81610cf2565b6107fc83670de0b6b3a7640000846107f79190611b32565b610eeb565b505050565b60008060008373ffffffffffffffffffffffffffffffffffffffff1673ffffffffffffffffffffffffffffffffffffffff168152602001908152602001600020549050919050565b60006005600084815260200190815260200160002060000160008373ffffffffffffffffffffffffffffffffffffffff1673ffffffffffffffffffffffffffffffffffffffff16815260200190815260200160002060009054906101000a900460ff16905092915050565b6060600480546108c390611a66565b80601f01602080910402602001604051908101604052809291908181526020018280546108ef90611a66565b801561093c5780601f106109115761010080835404028352916020019161093c565b820191906000526020600020905b81548152906001019060200180831161091f57829003601f168201915b5050505050905090565b600660009054906101000a900473ffffffffffffffffffffffffffffffffffffffff1681565b6000801b81565b60008061097e610acd565b905061098b818585610bfe565b600191505092915050565b7f9f2df0fed2c77648de5860a4cc508cd0818c85b8b8a1ab4ceeef8d981c8956a681565b6109c3826106ef565b6109cc81610cf2565b6109d68383610df8565b50505050565b6000600160008473ffffffffffffffffffffffffffffffffffffffff1673ffffffffffffffffffffffffffffffffffffffff16815260200190815260200160002060008373ffffffffffffffffffffffffffffffffffffffff1673ffffffffffffffffffffffffffffffffffffffff16815260200190815260200160002054905092915050565b60007f01ffc9a7000000000000000000000000000000000000000000000000000000007bffffffffffffffffffffffffffffffffffffffffffffffffffffffff1916827bffffffffffffffffffffffffffffffffffffffffffffffffffffffff1916149050919050565b600033905090565b610ae28383836001610f6d565b505050565b600073ffffffffffffffffffffffffffffffffffffffff168273ffffffffffffffffffffffffffffffffffffffff1603610b595760006040517f96c6fd1e000000000000000000000000000000000000000000000000000000008152600401610b509190611c41565b60405180910390fd5b610b6582600083611144565b5050565b6000610b7584846109dc565b90507fffffffffffffffffffffffffffffffffffffffffffffffffffffffffffffffff811015610bf85781811015610be8578281836040517ffb8f41b2000000000000000000000000000000000000000000000000000000008152600401610bdf93929190611c5c565b60405180910390fd5b610bf784848484036000610f6d565b5b50505050565b600073ffffffffffffffffffffffffffffffffffffffff168373ffffffffffffffffffffffffffffffffffffffff1603610c705760006040517f96c6fd1e000000000000000000000000000000000000000000000000000000008152600401610c679190611c41565b60405180910390fd5b600073ffffffffffffffffffffffffffffffffffffffff168273ffffffffffffffffffffffffffffffffffffffff1603610ce25760006040517fec442f05000000000000000000000000000000000000000000000000000000008152600401610cd99190611c41565b60405180910390fd5b610ced838383611144565b505050565b610d0381610cfe610acd565b611369565b50565b6000610d128383610849565b610ded5760016005600085815260200190815260200160002060000160008473ffffffffffffffffffffffffffffffffffffffff1673ffffffffffffffffffffffffffffffffffffffff16815260200190815260200160002060006101000a81548160ff021916908315150217905550610d8a610acd565b73ffffffffffffffffffffffffffffffffffffffff168273ffffffffffffffffffffffffffffffffffffffff16847f2f8788117e7eff1d82e926ec794901d17c78024a50270940304540a733656f0d60405160405180910390a460019050610df2565b600090505b92915050565b6000610e048383610849565b15610ee05760006005600085815260200190815260200160002060000160008473ffffffffffffffffffffffffffffffffffffffff1673ffffffffffffffffffffffffffffffffffffffff16815260200190815260200160002060006101000a81548160ff021916908315150217905550610e7d610acd565b73ffffffffffffffffffffffffffffffffffffffff168273ffffffffffffffffffffffffffffffffffffffff16847ff6391f5c32d9c69d2a47ea670b442974b53935d1edc7fd64eb21e047a839171b60405160405180910390a460019050610ee5565b600090505b92915050565b600073ffffffffffffffffffffffffffffffffffffffff168273ffffffffffffffffffffffffffffffffffffffff1603610f5d5760006040517fec442f05000000000000000000000000000000000000000000000000000000008152600401610f549190611c41565b60405180910390fd5b610f6960008383611144565b5050565b600073ffffffffffffffffffffffffffffffffffffffff168473ffffffffffffffffffffffffffffffffffffffff1603610fdf5760006040517fe602df05000000000000000000000000000000000000000000000000000000008152600401610fd69190611c41565b60405180910390fd5b600073ffffffffffffffffffffffffffffffffffffffff168373ffffffffffffffffffffffffffffffffffffffff16036110515760006040517f94280d620000000000000000000000000000000000000000000000000000000081526004016110489190611c41565b60405180910390fd5b81600160008673ffffffffffffffffffffffffffffffffffffffff1673ffffffffffffffffffffffffffffffffffffffff16815260200190815260200160002060008573ffffffffffffffffffffffffffffffffffffffff1673ffffffffffffffffffffffffffffffffffffffff16815260200190815260200160002081905550801561113e578273ffffffffffffffffffffffffffffffffffffffff168473ffffffffffffffffffffffffffffffffffffffff167f8c5be1e5ebec7d5bd14f71427d1e84f3dd0314c0f7b2291e5b200ac8c7c3b92584604051611135919061161e565b60405180910390a35b50505050565b600073ffffffffffffffffffffffffffffffffffffffff168373ffffffffffffffffffffffffffffffffffffffff160361119657806002600082825461118a9190611c93565b92505081905550611269565b60008060008573ffffffffffffffffffffffffffffffffffffffff1673ffffffffffffffffffffffffffffffffffffffff16815260200190815260200160002054905081811015611222578381836040517fe450d38c00000000000000000000000000000000000000000000000000000000815260040161121993929190611c5c565b60405180910390fd5b8181036000808673ffffffffffffffffffffffffffffffffffffffff1673ffffffffffffffffffffffffffffffffffffffff16815260200190815260200160002081905550505b600073ffffffffffffffffffffffffffffffffffffffff168273ffffffffffffffffffffffffffffffffffffffff16036112b257806002600082825403925050819055506112ff565b806000808473ffffffffffffffffffffffffffffffffffffffff1673ffffffffffffffffffffffffffffffffffffffff168152602001908152602001600020600082825401925050819055505b8173ffffffffffffffffffffffffffffffffffffffff168373ffffffffffffffffffffffffffffffffffffffff167fddf252ad1be2c89b69c2b068fc378daa952ba7f163c4a11628f55a4df523b3ef8360405161135c919061161e565b60405180910390a3505050565b6113738282610849565b6113b65780826040517fe2517d3f0000000000000000000000000000000000000000000000000000000081526004016113ad929190611cc7565b60405180910390fd5b5050565b6000604051905090565b600080fd5b600080fd5b60007fffffffff0000000000000000000000000000000000000000000000000000000082169050919050565b611403816113ce565b811461140e57600080fd5b50565b600081359050611420816113fa565b92915050565b60006020828403121561143c5761143b6113c4565b5b600061144a84828501611411565b91505092915050565b60008115159050919050565b61146881611453565b82525050565b6000602082019050611483600083018461145f565b92915050565b600081519050919050565b600082825260208201905092915050565b60005b838110156114c35780820151818401526020810190506114a8565b60008484015250505050565b6000601f19601f8301169050919050565b60006114eb82611489565b6114f58185611494565b93506115058185602086016114a5565b61150e816114cf565b840191505092915050565b6000602082019050818103600083015261153381846114e0565b905092915050565b600073ffffffffffffffffffffffffffffffffffffffff82169050919050565b60006115668261153b565b9050919050565b6115768161155b565b811461158157600080fd5b50565b6000813590506115938161156d565b92915050565b6000819050919050565b6115ac81611599565b81146115b757600080fd5b50565b6000813590506115c9816115a3565b92915050565b600080604083850312156115e6576115e56113c4565b5b60006115f485828601611584565b9250506020611605858286016115ba565b9150509250929050565b61161881611599565b82525050565b6000602082019050611633600083018461160f565b92915050565b600080fd5b600080fd5b7f4e487b7100000000000000000000000000000000000000000000000000000000600052604160045260246000fd5b61167b826114cf565b810181811067ffffffffffffffff8211171561169a57611699611643565b5b80604052505050565b60006116ad6113ba565b90506116b98282611672565b919050565b600067ffffffffffffffff8211156116d9576116d8611643565b5b6116e2826114cf565b9050602081019050919050565b82818337600083830152505050565b600061171161170c846116be565b6116a3565b90508281526020810184848401111561172d5761172c61163e565b5b6117388482856116ef565b509392505050565b600082601f83011261175557611754611639565b5b81356117658482602086016116fe565b91505092915050565b600080600060608486031215611787576117866113c4565b5b6000611795868287016115ba565b935050602084013567ffffffffffffffff8111156117b6576117b56113c9565b5b6117c286828701611740565b925050604084013567ffffffffffffffff8111156117e3576117e26113c9565b5b6117ef86828701611740565b9150509250925092565b600080600060608486031215611812576118116113c4565b5b600061182086828701611584565b935050602061183186828701611584565b9250506040611842868287016115ba565b9150509250925092565b6000819050919050565b61185f8161184c565b811461186a57600080fd5b50565b60008135905061187c81611856565b92915050565b600060208284031215611898576118976113c4565b5b60006118a68482850161186d565b91505092915050565b6118b88161184c565b82525050565b60006020820190506118d360008301846118af565b92915050565b600080604083850312156118f0576118ef6113c4565b5b60006118fe8582860161186d565b925050602061190f85828601611584565b9150509250929050565b600060ff82169050919050565b61192f81611919565b82525050565b600060208201905061194a6000830184611926565b92915050565b600060208284031215611966576119656113c4565b5b600061197484828501611584565b91505092915050565b6000819050919050565b60006119a261199d6119988461153b565b61197d565b61153b565b9050919050565b60006119b482611987565b9050919050565b60006119c6826119a9565b9050919050565b6119d6816119bb565b82525050565b60006020820190506119f160008301846119cd565b92915050565b60008060408385031215611a0e57611a0d6113c4565b5b6000611a1c85828601611584565b9250506020611a2d85828601611584565b9150509250929050565b7f4e487b7100000000000000000000000000000000000000000000000000000000600052602260045260246000fd5b60006002820490506001821680611a7e57607f821691505b602082108103611a9157611a90611a37565b5b50919050565b7f5a65726f20746f6e730000000000000000000000000000000000000000000000600082015250565b6000611acd600983611494565b9150611ad882611a97565b602082019050919050565b60006020820190508181036000830152611afc81611ac0565b9050919050565b7f4e487b7100000000000000000000000000000000000000000000000000000000600052601160045260246000fd5b6000611b3d82611599565b9150611b4883611599565b9250828202611b5681611599565b91508282048414831517611b6d57611b6c611b03565b5b5092915050565b611b7d8161155b565b82525050565b6000604082019050611b986000830185611b74565b8181036020830152611baa81846114e0565b90509392505050565b600081519050611bc2816115a3565b92915050565b600060208284031215611bde57611bdd6113c4565b5b6000611bec84828501611bb3565b91505092915050565b6000608082019050611c0a600083018761160f565b611c17602083018661160f565b8181036040830152611c2981856114e0565b9050611c38606083018461160f565b95945050505050565b6000602082019050611c566000830184611b74565b92915050565b6000606082019050611c716000830186611b74565b611c7e602083018561160f565b611c8b604083018461160f565b949350505050565b6000611c9e82611599565b9150611ca983611599565b9250828201905080821115611cc157611cc0611b03565b5b92915050565b6000604082019050611cdc6000830185611b74565b611ce960208301846118af565b939250505056fea2646970667358221220933401db40eb3789882634e4a17670a484cb75e782d0904ccb14cc1a981a8f9964736f6c634300081c0033",
  "linkReferences": {},
  "deployedLinkReferences": {}
}