{
  "_format": "hh-sol-artifact-1",
  "contractName": "CarbonCreditToken",
  "sourceName": "contracts/CarbonCreditToken.sol",
  "abi": [
    {
      "inputs": [
        {
          "internalType": "contract RetirementCertificate",
          "name": "_retirementCertificate",
          "type": "address"
        }
      ],
      "stateMutability": "nonpayable",
      "type": "constructor"
    },
    {
      "inputs": [],
      "name": "AccessControlBadConfirmation",
      "type": "error"
    },
    {
      "inputs": [
        {
          "internalType": "address",
          "name": "account",
          "type": "address"
        },
        {
          "internalType": "bytes32",
          "name": "neededRole",
          "type": "bytes32"
        }
      ],
      "name": "AccessControlUnauthorizedAccount",
      "type": "error"
    },
    {
      "inputs": [
        {
          "internalType": "address",
          "name": "spender",
          "type": "address"
        },
        {
          "internalType": "uint256",
          "name": "allowance",
          "type": "uint256"
        },
        {
          "internalType": "uint256",
          "name": "needed",
          "type": "uint256"
        }
      ],
      "name": "ERC20InsufficientAllowance",
      "type": "error"
    },
    {
      "inputs": [
        {
          "internalType": "address",
          "name": "sender",
          "type": "address"
        },
        {
          "internalType": "uint256",
          "name": "balance",
          "type": "uint256"
        },
        {
          "internalType": "uint256",
          "name": "needed",
          "type": "uint256"
        }
      ],
      "name": "ERC20InsufficientBalance",
      "type": "error"
    },
    {
      "inputs": [
        {
          "internalType": "address",
          "name": "approver",
          "type": "address"
        }
      ],
      "name": "ERC20InvalidApprover",
      "type": "error"
    },
    {
      "inputs": [
        {
          "internalType": "address",
          "name": "receiver",
          "type": "address"
        }
      ],
      "name": "ERC20InvalidReceiver",
      "type": "error"
    },
    {
      "inputs": [
        {
          "internalType": "address",
          "name": "sender",
          "type": "address"
        }
      ],
      "name": "ERC20InvalidSender",
      "type": "error"
    },
    {
      "inputs": [
        {
          "internalType": "address",
          "name": "spender",
          "type": "address"
        }
      ],
      "name": "ERC20InvalidSpender",
      "type": "error"
    },
    {
      "anonymous": false,
      "inputs": [
        {
          "indexed": true,
          "internalType": "address",
          "name": "owner",
          "type": "address"
        },
        {
          "indexed": true,
          "internalType": "address",
          "name": "spender",
          "type": "address"
        },
        {
          "indexed": false,
          "internalType": "uint256",
          "name": "value",
          "type": "uint256"
        }
      ],
      "name": "Approval",
      "type": "event"
    },
    {
      "anonymous": false,
      "inputs": [
        {
          "indexed": true,
          "internalType": "bytes32",
          "name": "role",
          "type": "bytes32"
        },
        {
          "indexed": true,
          "internalType": "bytes32",
          "name": "previousAdminRole",
          "type": "bytes32"
        },
        {
          "indexed": true,
          "internalType": "bytes32",
          "name": "newAdminRole",
          "type": "bytes32"
        }
      ],
      "name": "RoleAdminChanged",
      "type": "event"
    },
    {
      "anonymous": false,
      "inputs": [
        {
          "indexed": true,
          "internalType": "bytes32",
          "name": "role",
          "type": "bytes32"
        },
        {
          "indexed": true,
          "internalType": "address",
          "name": "account",
          "type": "address"
        },
        {
          "indexed": true,
          "internalType": "address",
          "name": "sender",
          "type": "address"
        }
      ],
      "name": "RoleGranted",
      "type": "event"
    },
    {
      "anonymous": false,
      "inputs": [
        {
          "indexed": true,
          "internalType": "bytes32",
          "name": "role",
          "type": "bytes32"
        },
        {
          "indexed": true,
          "internalType": "address",
          "name": "account",
          "type": "address"
        },
        {
          "indexed": true,
          "internalType": "address",
          "name": "sender",
          "type": "address"
        }
      ],
      "name": "RoleRevoked",
      "type": "event"
    },
    {
      "anonymous": false,
      "inputs": [
        {
          "indexed": true,
          "internalType": "address",
          "name": "retire",
          "type": "address"
        },
        {
          "indexed": false,
          "internalType": "uint256",
          "name": "tons",
          "type": "uint256"
        },
        {
          "indexed": false,
          "internalType": "uint256",
          "name": "certificateId",
          "type": "uint256"
        },
        {
          "indexed": false,
          "internalType": "string",
          "name": "purpose",
          "type": "string"
        },
        {
          "indexed": false,
          "internalType": "uint256",
          "name": "timestamp",
          "type": "uint256"
        }
      ],
      "name": "TokensRetired",
      "type": "event"
    },
    {
      "anonymous": false,
      "inputs": [
        {
          "indexed": true,
          "internalType": "address",
          "name": "from",
          "type": "address"
        },
        {
          "indexed": true,
          "internalType": "address",
          "name": "to",
          "type": "address"
        },
        {
          "indexed": false,
          "internalType": "uint256",
          "name": "value",
          "type": "uint256"
        }
      ],
      "name": "Transfer",
      "type": "event"
    },
    {
      "inputs": [],
      "name": "DEFAULT_ADMIN_ROLE",
      "outputs": [
        {
          "internalType": "bytes32",
          "name": "",
          "type": "bytes32"
        }
      ],
      "stateMutability": "view",
      "type": "function"
    },
    {
      "inputs": [],
      "name": "MINTER_ROLE",
      "outputs": [
        {
          "internalType": "bytes32",
          "name": "",
          "type": "bytes32"
        }
      ],
      "stateMutability": "view",
      "type": "function"
    },
    {
      "inputs": [
        {
          "internalType": "address",
          "name": "owner",
          "type": "address"
        },
        {
          "internalType": "address",
          "name": "spender",
          "type": "address"
        }
      ],
      "name": "allowance",
      "outputs": [
        {
          "internalType": "uint256",
          "name": "",
          "type": "uint256"
        }
      ],
      "stateMutability": "view",
      "type": "function"
    },
    {
      "inputs": [
        {
          "internalType": "address",
          "name": "spender",
          "type": "address"
        },
        {
          "internalType": "uint256",
          "name": "value",
          "type": "uint256"
        }
      ],
      "name": "approve",
      "outputs": [
        {
          "internalType": "bool",
          "name": "",
          "type": "bool"
        }
      ],
      "stateMutability": "nonpayable",
      "type": "function"
    },
    {
      "inputs": [
        {
          "internalType": "address",
          "name": "account",
          "type": "address"
        }
      ],
      "name": "balanceOf",
      "outputs": [
        {
          "internalType": "uint256",
          "name": "",
          "type": "uint256"
        }
      ],
      "stateMutability": "view",
      "type": "function"
    },
    {
      "inputs": [],
      "name": "decimals",
      "outputs": [
        {
          "internalType": "uint8",
          "name": "",
          "type": "uint8"
        }
      ],
      "stateMutability": "view",
      "type": "function"
    },
    {
      "inputs": [
        {
          "internalType": "bytes32",
          "name": "role",
          "type": "bytes32"
        }
      ],
      "name": "getRoleAdmin",
      "outputs": [
        {
          "internalType": "bytes32",
          "name": "",
          "type": "bytes32"
        }
      ],
      "stateMutability": "view",
      "type": "function"
    },
    {
      "inputs": [
        {
          "internalType": "bytes32",
          "name": "role",
          "type": "bytes32"
        },
        {
          "internalType": "address",
          "name": "account",
          "type": "address"
        }
      ],
      "name": "grantRole",
      "outputs": [],
      "stateMutability": "nonpayable",
      "type": "function"
    },
    {
      "inputs": [
        {
          "internalType": "bytes32",
          "name": "role",
          "type": "bytes32"
        },
        {
          "internalType": "address",
          "name": "account",
          "type": "address"
        }
      ],
      "name": "hasRole",
      "outputs": [
        {
          "internalType": "bool",
          "name": "",
          "type": "bool"
        }
      ],
      "stateMutability": "view",
      "type": "function"
    },
    {
      "inputs": [
        {
          "internalType": "address",
          "name": "to",
          "type": "address"
        },
        {
          "internalType": "uint256",
          "name": "tons_in_wei",
          "type": "uint256"
        }
      ],
      "name": "mint",
      "outputs": [],
      "stateMutability": "nonpayable",
      "type": "function"
    },
    {
      "inputs": [],
      "name": "name",
      "outputs": [
        {
          "internalType": "string",
          "name": "",
          "type": "string"
        }
      ],
      "stateMutability": "view",
      "type": "function"
    },
    {
      "inputs": [
        {
          "internalType": "bytes32",
          "name": "role",
          "type": "bytes32"
        },
        {
          "internalType": "address",
          "name": "callerConfirmation",
          "type": "address"
        }
      ],
      "name": "renounceRole",
      "outputs": [],
      "stateMutability": "nonpayable",
      "type": "function"
    },
    {
      "inputs": [
        {
          "internalType": "uint256",
          "name": "tonsWei",
          "type": "uint256"
        },
        {
          "internalType": "string",
          "name": "purpose",
          "type": "string"
        },
        {
          "internalType": "string",
          "name": "certificateURI",
          "type": "string"
        }
      ],
      "name": "retire",
      "outputs": [
        {
          "internalType": "uint256",
          "name": "certificateId",
          "type": "uint256"
        }
      ],
      "stateMutability": "nonpayable",
      "type": "function"
    },
    {
      "inputs": [],
      "name": "retirementCertificate",
      "outputs": [
        {
          "internalType": "contract RetirementCertificate",
          "name": "",
          "type": "address"
        }
      ],
      "stateMutability": "view",
      "type": "function"
    },
    {
      "inputs": [
        {
          "internalType": "bytes32",
          "name": "role",
          "type": "bytes32"
        },
        {
          "internalType": "address",
          "name": "account",
          "type": "address"
        }
      ],
      "name": "revokeRole",
      "outputs": [],
      "stateMutability": "nonpayable",
      "type": "function"
    },
    {
      "inputs": [
        {
          "internalType": "bytes4",
          "name": "interfaceId",
          "type": "bytes4"
        }
      ],
      "name": "supportsInterface",
      "outputs": [
        {
          "internalType": "bool",
          "name": "",
          "type": "bool"
        }
      ],
      "stateMutability": "view",
      "type": "function"
    },
    {
      "inputs": [],
      "name": "symbol",
      "outputs": [
        {
          "internalType": "string",
          "name": "",
          "type": "string"
        }
      ],
      "stateMutability": "view",
      "type": "function"
    },
    {
      "inputs": [],
      "name": "totalSupply",
      "outputs": [
        {
          "internalType": "uint256",
          "name": "",
          "type": "uint256"
        }
      ],
      "stateMutability": "view",
      "type": "function"
    },
    {
      "inputs": [
        {
          "internalType": "address",
          "name": "to",
          "type": "address"
        },
        {
          "internalType": "uint256",
          "name": "value",
          "type": "uint256"
        }
      ],
      "name": "transfer",
      "outputs": [
        {
          "internalType": "bool",
          "name": "",
          "type": "bool"
        }
      ],
      "stateMutability": "nonpayable",
      "type": "function"
    },
    {
      "inputs": [
        {
          "internalType": "address",
          "name": "from",
          "type": "address"
        },
        {
          "internalType": "address",
          "name": "to",
          "type": "address"
        },
        {
          "internalType": "uint256",
          "name": "value",
          "type": "uint256"
        }
      ],
      "name": "transferFrom",
      "outputs": [
        {
          "internalType": "bool",
          "name": "",
          "type": "bool"
        }
      ],
      "stateMutability": "nonpayable",
      "type": "function"
    }
  ],
  "bytecode": "0x608060405234801561001057600080fd5b506040516111f93803806111f983398101604081905261002f916101b1565b6040518060400160405280601381526020017f436172626f6e2043726564697420546f6b656e000000000000000000000000008152506040518060400160405280600381526020016210d0d560ea1b81525081600390816100909190610280565b50600461009d8282610280565b506100ad91506000905033610101565b506100c66000805160206111d983398151915233610101565b50600680546001600160a01b0319166001600160a01b0383161790556100fa6000805160206111d983398151915230610101565b505061033e565b60008281526005602090815260408083206001600160a01b038516845290915281205460ff166101a75760008381526005602090815260408083206001600160a01b03861684529091529020805460ff1916600117905561015f3390565b6001600160a01b0316826001600160a01b0316847f2f8788117e7eff1d82e926ec794901d17c78024a50270940304540a733656f0d60405160405180910390a45060016101ab565b5060005b92915050565b6000602082840312156101c357600080fd5b81516001600160a01b03811681146101da57600080fd5b9392505050565b634e487b7160e01b600052604160045260246000fd5b600181811c9082168061020b57607f821691505b60208210810361022b57634e487b7160e01b600052602260045260246000fd5b50919050565b601f82111561027b57806000526020600020601f840160051c810160208510156102585750805b601f840160051c820191505b818110156102785760008155600101610264565b50505b505050565b81516001600160401b03811115610299576102996101e1565b6102ad816102a784546101f7565b84610231565b6020601f8211600181146102e157600083156102c95750848201515b600019600385901b1c1916600184901b178455610278565b600084815260208120601f198516915b8281101561031157878501518255602094850194600190920191016102f1565b508482101561032f5786840151600019600387901b60f8161c191681555b50505050600190811b01905550565b610e8c8061034d6000396000f3fe608060405234801561001057600080fd5b506004361061012c5760003560e01c806340c10f19116100ad578063a217fddf11610071578063a217fddf14610295578063a9059cbb1461029d578063d5391393146102b0578063d547741f146102d7578063dd62ed3e146102ea57600080fd5b806340c10f191461021357806370a082311461022657806391d148541461024f57806395d89b41146102625780639ce12ae51461026a57600080fd5b806323b872dd116100f457806323b872dd146101a6578063248a9ca3146101b95780632f2ff15d146101dc578063313ce567146101f157806336568abe1461020057600080fd5b806301ffc9a71461013157806306fdde0314610159578063095ea7b31461016e57806318160ddd1461018157806320652dd114610193575b600080fd5b61014461013f366004610ad8565b610323565b60405190151581526020015b60405180910390f35b61016161035a565b6040516101509190610b4f565b61014461017c366004610b7e565b6103ec565b6002545b604051908152602001610150565b6101856101a1366004610c4d565b610404565b6101446101b4366004610cbf565b610515565b6101856101c7366004610cfc565b60009081526005602052604090206001015490565b6101ef6101ea366004610d15565b610539565b005b60405160128152602001610150565b6101ef61020e366004610d15565b610564565b6101ef610221366004610b7e565b61059c565b610185610234366004610d41565b6001600160a01b031660009081526020819052604090205490565b61014461025d366004610d15565b6105d0565b6101616105fb565b60065461027d906001600160a01b031681565b6040516001600160a01b039091168152602001610150565b610185600081565b6101446102ab366004610b7e565b61060a565b6101857f9f2df0fed2c77648de5860a4cc508cd0818c85b8b8a1ab4ceeef8d981c8956a681565b6101ef6102e5366004610d15565b610618565b6101856102f8366004610d5c565b6001600160a01b03918216600090815260016020908152604080832093909416825291909152205490565b60006001600160e01b03198216637965db0b60e01b148061035457506301ffc9a760e01b6001600160e01b03198316145b92915050565b60606003805461036990610d86565b80601f016020809104026020016040519081016040528092919081815260200182805461039590610d86565b80156103e25780601f106103b7576101008083540402835291602001916103e2565b820191906000526020600020905b8154815290600101906020018083116103c557829003601f168201915b5050505050905090565b6000336103fa81858561063d565b5060019392505050565b60008084116104465760405162461bcd60e51b81526020600482015260096024820152685a65726f20746f6e7360b81b60448201526064015b60405180910390fd5b610450338561064a565b600654604051630712249f60e01b81526001600160a01b0390911690630712249f906104829033908690600401610dc0565b6020604051808303816000875af11580156104a1573d6000803e3d6000fd5b505050506040513d601f19601f820116820180604052508101906104c59190610dec565b9050336001600160a01b03167f51e5fec6915d4fd3e6f81f57f0929f5a0fb9b94a51e83b23a62a60f4261536fc858386426040516105069493929190610e05565b60405180910390a29392505050565b600033610523858285610684565b61052e8585856106fd565b506001949350505050565b6000828152600560205260409020600101546105548161075c565b61055e8383610769565b50505050565b6001600160a01b038116331461058d5760405163334bd91960e11b815260040160405180910390fd5b61059782826107fd565b505050565b7f9f2df0fed2c77648de5860a4cc508cd0818c85b8b8a1ab4ceeef8d981c8956a66105c68161075c565b610597838361086a565b60009182526005602090815260408084206001600160a01b0393909316845291905290205460ff1690565b60606004805461036990610d86565b6000336103fa8185856106fd565b6000828152600560205260409020600101546106338161075c565b61055e83836107fd565b61059783838360016108a0565b6001600160a01b03821661067457604051634b637e8f60e11b81526000600482015260240161043d565b61068082600083610975565b5050565b6001600160a01b0383811660009081526001602090815260408083209386168352929052205460001981101561055e57818110156106ee57604051637dc7a0d960e11b81526001600160a01b0384166004820152602481018290526044810183905260640161043d565b61055e848484840360006108a0565b6001600160a01b03831661072757604051634b637e8f60e11b81526000600482015260240161043d565b6001600160a01b0382166107515760405163ec442f0560e01b81526000600482015260240161043d565b610597838383610975565b6107668133610a9f565b50565b600061077583836105d0565b6107f55760008381526005602090815260408083206001600160a01b03861684529091529020805460ff191660011790556107ad3390565b6001600160a01b0316826001600160a01b0316847f2f8788117e7eff1d82e926ec794901d17c78024a50270940304540a733656f0d60405160405180910390a4506001610354565b506000610354565b600061080983836105d0565b156107f55760008381526005602090815260408083206001600160a01b0386168085529252808320805460ff1916905551339286917ff6391f5c32d9c69d2a47ea670b442974b53935d1edc7fd64eb21e047a839171b9190a4506001610354565b6001600160a01b0382166108945760405163ec442f0560e01b81526000600482015260240161043d565b61068060008383610975565b6001600160a01b0384166108ca5760405163e602df0560e01b81526000600482015260240161043d565b6001600160a01b0383166108f457604051634a1406b160e11b81526000600482015260240161043d565b6001600160a01b038085166000908152600160209081526040808320938716835292905220829055801561055e57826001600160a01b0316846001600160a01b03167f8c5be1e5ebec7d5bd14f71427d1e84f3dd0314c0f7b2291e5b200ac8c7c3b9258460405161096791815260200190565b60405180910390a350505050565b6001600160a01b0383166109a05780600260008282546109959190610e35565b90915550610a129050565b6001600160a01b038316600090815260208190526040902054818110156109f35760405163391434e360e21b81526001600160a01b0385166004820152602481018290526044810183905260640161043d565b6001600160a01b03841660009081526020819052604090209082900390555b6001600160a01b038216610a2e57600280548290039055610a4d565b6001600160a01b03821660009081526020819052604090208054820190555b816001600160a01b0316836001600160a01b03167fddf252ad1be2c89b69c2b068fc378daa952ba7f163c4a11628f55a4df523b3ef83604051610a9291815260200190565b60405180910390a3505050565b610aa982826105d0565b6106805760405163e2517d3f60e01b81526001600160a01b03821660048201526024810183905260440161043d565b600060208284031215610aea57600080fd5b81356001600160e01b031981168114610b0257600080fd5b9392505050565b6000815180845260005b81811015610b2f57602081850181015186830182015201610b13565b506000602082860101526020601f19601f83011685010191505092915050565b602081526000610b026020830184610b09565b80356001600160a01b0381168114610b7957600080fd5b919050565b60008060408385031215610b9157600080fd5b610b9a83610b62565b946020939093013593505050565b634e487b7160e01b600052604160045260246000fd5b600082601f830112610bcf57600080fd5b813567ffffffffffffffff811115610be957610be9610ba8565b604051601f8201601f19908116603f0116810167ffffffffffffffff81118282101715610c1857610c18610ba8565b604052818152838201602001851015610c3057600080fd5b816020850160208301376000918101602001919091529392505050565b600080600060608486031215610c6257600080fd5b83359250602084013567ffffffffffffffff811115610c8057600080fd5b610c8c86828701610bbe565b925050604084013567ffffffffffffffff811115610ca957600080fd5b610cb586828701610bbe565b9150509250925092565b600080600060608486031215610cd457600080fd5b610cdd84610b62565b9250610ceb60208501610b62565b929592945050506040919091013590565b600060208284031215610d0e57600080fd5b5035919050565b60008060408385031215610d2857600080fd5b82359150610d3860208401610b62565b90509250929050565b600060208284031215610d5357600080fd5b610b0282610b62565b60008060408385031215610d6f57600080fd5b610d7883610b62565b9150610d3860208401610b62565b600181811c90821680610d9a57607f821691505b602082108103610dba57634e487b7160e01b600052602260045260246000fd5b50919050565b6001600160a01b0383168152604060208201819052600090610de490830184610b09565b949350505050565b600060208284031215610dfe57600080fd5b5051919050565b848152836020820152608060408201526000610e246080830185610b09565b905082606083015295945050505050565b8082018082111561035457634e487b7160e01b600052601160045260246000fdfea26469706673582212201ae6a99d089c427dad98930fb092d8987cc3cccd401cf8e330ef2ec733a6707464736f6c634300081c00339f2df0fed2c77648de5860a4cc508cd0818c85b8b8a1ab4ceeef8d981c8956a6",
  "linkReferences": {},
  "deployedLinkReferences": {}
}